{
  "contractName": "BNBHCharacterV2",
  "abi": [
    {
      "anonymous": false,
      "inputs": [
        {
          "indexed": true,
          "internalType": "address",
          "name": "owner",
          "type": "address"
        },
        {
          "indexed": true,
          "internalType": "address",
          "name": "approved",
          "type": "address"
        },
        {
          "indexed": true,
          "internalType": "uint256",
          "name": "tokenId",
          "type": "uint256"
        }
      ],
      "name": "Approval",
      "type": "event"
    },
    {
      "anonymous": false,
      "inputs": [
        {
          "indexed": true,
          "internalType": "address",
          "name": "owner",
          "type": "address"
        },
        {
          "indexed": true,
          "internalType": "address",
          "name": "operator",
          "type": "address"
        },
        {
          "indexed": false,
          "internalType": "bool",
          "name": "approved",
          "type": "bool"
        }
      ],
      "name": "ApprovalForAll",
      "type": "event"
    },
    {
      "anonymous": false,
      "inputs": [
        {
          "indexed": false,
          "internalType": "uint8",
          "name": "version",
          "type": "uint8"
        }
      ],
      "name": "Initialized",
      "type": "event"
    },
    {
      "anonymous": false,
      "inputs": [
        {
          "indexed": true,
          "internalType": "bytes32",
          "name": "role",
          "type": "bytes32"
        },
        {
          "indexed": true,
          "internalType": "bytes32",
          "name": "previousAdminRole",
          "type": "bytes32"
        },
        {
          "indexed": true,
          "internalType": "bytes32",
          "name": "newAdminRole",
          "type": "bytes32"
        }
      ],
      "name": "RoleAdminChanged",
      "type": "event"
    },
    {
      "anonymous": false,
      "inputs": [
        {
          "indexed": true,
          "internalType": "bytes32",
          "name": "role",
          "type": "bytes32"
        },
        {
          "indexed": true,
          "internalType": "address",
          "name": "account",
          "type": "address"
        },
        {
          "indexed": true,
          "internalType": "address",
          "name": "sender",
          "type": "address"
        }
      ],
      "name": "RoleGranted",
      "type": "event"
    },
    {
      "anonymous": false,
      "inputs": [
        {
          "indexed": true,
          "internalType": "bytes32",
          "name": "role",
          "type": "bytes32"
        },
        {
          "indexed": true,
          "internalType": "address",
          "name": "account",
          "type": "address"
        },
        {
          "indexed": true,
          "internalType": "address",
          "name": "sender",
          "type": "address"
        }
      ],
      "name": "RoleRevoked",
      "type": "event"
    },
    {
      "anonymous": false,
      "inputs": [
        {
          "indexed": true,
          "internalType": "address",
          "name": "from",
          "type": "address"
        },
        {
          "indexed": true,
          "internalType": "address",
          "name": "to",
          "type": "address"
        },
        {
          "indexed": true,
          "internalType": "uint256",
          "name": "tokenId",
          "type": "uint256"
        }
      ],
      "name": "Transfer",
      "type": "event"
    },
    {
      "inputs": [],
      "name": "DEFAULT_ADMIN_ROLE",
      "outputs": [
        {
          "internalType": "bytes32",
          "name": "",
          "type": "bytes32"
        }
      ],
      "stateMutability": "view",
      "type": "function"
    },
    {
      "inputs": [],
      "name": "GAME_ADMIN",
      "outputs": [
        {
          "internalType": "bytes32",
          "name": "",
          "type": "bytes32"
        }
      ],
      "stateMutability": "view",
      "type": "function"
    },
    {
      "inputs": [],
      "name": "NO_OWNED_LIMIT",
      "outputs": [
        {
          "internalType": "bytes32",
          "name": "",
          "type": "bytes32"
        }
      ],
      "stateMutability": "view",
      "type": "function"
    },
    {
      "inputs": [
        {
          "internalType": "address",
          "name": "to",
          "type": "address"
        },
        {
          "internalType": "uint256",
          "name": "tokenId",
          "type": "uint256"
        }
      ],
      "name": "approve",
      "outputs": [],
      "stateMutability": "nonpayable",
      "type": "function"
    },
    {
      "inputs": [
        {
          "internalType": "address",
          "name": "owner",
          "type": "address"
        }
      ],
      "name": "balanceOf",
      "outputs": [
        {
          "internalType": "uint256",
          "name": "",
          "type": "uint256"
        }
      ],
      "stateMutability": "view",
      "type": "function"
    },
    {
      "inputs": [
        {
          "internalType": "uint256",
          "name": "tokenId",
          "type": "uint256"
        }
      ],
      "name": "getApproved",
      "outputs": [
        {
          "internalType": "address",
          "name": "",
          "type": "address"
        }
      ],
      "stateMutability": "view",
      "type": "function"
    },
    {
      "inputs": [
        {
          "internalType": "bytes32",
          "name": "role",
          "type": "bytes32"
        }
      ],
      "name": "getRoleAdmin",
      "outputs": [
        {
          "internalType": "bytes32",
          "name": "",
          "type": "bytes32"
        }
      ],
      "stateMutability": "view",
      "type": "function"
    },
    {
      "inputs": [
        {
          "internalType": "bytes32",
          "name": "role",
          "type": "bytes32"
        },
        {
          "internalType": "address",
          "name": "account",
          "type": "address"
        }
      ],
      "name": "grantRole",
      "outputs": [],
      "stateMutability": "nonpayable",
      "type": "function"
    },
    {
      "inputs": [
        {
          "internalType": "bytes32",
          "name": "role",
          "type": "bytes32"
        },
        {
          "internalType": "address",
          "name": "account",
          "type": "address"
        }
      ],
      "name": "hasRole",
      "outputs": [
        {
          "internalType": "bool",
          "name": "",
          "type": "bool"
        }
      ],
      "stateMutability": "view",
      "type": "function"
    },
    {
      "inputs": [
        {
          "internalType": "address",
          "name": "owner",
          "type": "address"
        },
        {
          "internalType": "address",
          "name": "operator",
          "type": "address"
        }
      ],
      "name": "isApprovedForAll",
      "outputs": [
        {
          "internalType": "bool",
          "name": "",
          "type": "bool"
        }
      ],
      "stateMutability": "view",
      "type": "function"
    },
    {
      "inputs": [],
      "name": "name",
      "outputs": [
        {
          "internalType": "string",
          "name": "",
          "type": "string"
        }
      ],
      "stateMutability": "view",
      "type": "function"
    },
    {
      "inputs": [
        {
          "internalType": "uint256",
          "name": "tokenId",
          "type": "uint256"
        }
      ],
      "name": "ownerOf",
      "outputs": [
        {
          "internalType": "address",
          "name": "",
          "type": "address"
        }
      ],
      "stateMutability": "view",
      "type": "function"
    },
    {
      "inputs": [
        {
          "internalType": "bytes32",
          "name": "role",
          "type": "bytes32"
        },
        {
          "internalType": "address",
          "name": "account",
          "type": "address"
        }
      ],
      "name": "renounceRole",
      "outputs": [],
      "stateMutability": "nonpayable",
      "type": "function"
    },
    {
      "inputs": [
        {
          "internalType": "bytes32",
          "name": "role",
          "type": "bytes32"
        },
        {
          "internalType": "address",
          "name": "account",
          "type": "address"
        }
      ],
      "name": "revokeRole",
      "outputs": [],
      "stateMutability": "nonpayable",
      "type": "function"
    },
    {
      "inputs": [
        {
          "internalType": "address",
          "name": "from",
          "type": "address"
        },
        {
          "internalType": "address",
          "name": "to",
          "type": "address"
        },
        {
          "internalType": "uint256",
          "name": "tokenId",
          "type": "uint256"
        }
      ],
      "name": "safeTransferFrom",
      "outputs": [],
      "stateMutability": "nonpayable",
      "type": "function"
    },
    {
      "inputs": [
        {
          "internalType": "address",
          "name": "from",
          "type": "address"
        },
        {
          "internalType": "address",
          "name": "to",
          "type": "address"
        },
        {
          "internalType": "uint256",
          "name": "tokenId",
          "type": "uint256"
        },
        {
          "internalType": "bytes",
          "name": "data",
          "type": "bytes"
        }
      ],
      "name": "safeTransferFrom",
      "outputs": [],
      "stateMutability": "nonpayable",
      "type": "function"
    },
    {
      "inputs": [
        {
          "internalType": "address",
          "name": "operator",
          "type": "address"
        },
        {
          "internalType": "bool",
          "name": "approved",
          "type": "bool"
        }
      ],
      "name": "setApprovalForAll",
      "outputs": [],
      "stateMutability": "nonpayable",
      "type": "function"
    },
    {
      "inputs": [],
      "name": "symbol",
      "outputs": [
        {
          "internalType": "string",
          "name": "",
          "type": "string"
        }
      ],
      "stateMutability": "view",
      "type": "function"
    },
    {
      "inputs": [
        {
          "internalType": "uint256",
          "name": "index",
          "type": "uint256"
        }
      ],
      "name": "tokenByIndex",
      "outputs": [
        {
          "internalType": "uint256",
          "name": "",
          "type": "uint256"
        }
      ],
      "stateMutability": "view",
      "type": "function"
    },
    {
      "inputs": [
        {
          "internalType": "address",
          "name": "owner",
          "type": "address"
        },
        {
          "internalType": "uint256",
          "name": "index",
          "type": "uint256"
        }
      ],
      "name": "tokenOfOwnerByIndex",
      "outputs": [
        {
          "internalType": "uint256",
          "name": "",
          "type": "uint256"
        }
      ],
      "stateMutability": "view",
      "type": "function"
    },
    {
      "inputs": [],
      "name": "totalSupply",
      "outputs": [
        {
          "internalType": "uint256",
          "name": "",
          "type": "uint256"
        }
      ],
      "stateMutability": "view",
      "type": "function"
    },
    {
      "inputs": [
        {
          "internalType": "address",
          "name": "from",
          "type": "address"
        },
        {
          "internalType": "address",
          "name": "to",
          "type": "address"
        },
        {
          "internalType": "uint256",
          "name": "tokenId",
          "type": "uint256"
        }
      ],
      "name": "transferFrom",
      "outputs": [],
      "stateMutability": "nonpayable",
      "type": "function"
    },
    {
      "inputs": [],
      "name": "initialize",
      "outputs": [],
      "stateMutability": "nonpayable",
      "type": "function"
    },
    {
      "inputs": [],
      "name": "mint",
      "outputs": [
        {
          "internalType": "uint256",
          "name": "",
          "type": "uint256"
        }
      ],
      "stateMutability": "nonpayable",
      "type": "function"
    },
    {
      "inputs": [
        {
          "internalType": "uint256",
          "name": "tokenId",
          "type": "uint256"
        }
      ],
      "name": "tokenURI",
      "outputs": [
        {
          "internalType": "string",
          "name": "",
          "type": "string"
        }
      ],
      "stateMutability": "view",
      "type": "function"
    },
    {
      "inputs": [
        {
          "internalType": "bytes4",
          "name": "interfaceId",
          "type": "bytes4"
        }
      ],
      "name": "supportsInterface",
      "outputs": [
        {
          "internalType": "bool",
          "name": "",
          "type": "bool"
        }
      ],
      "stateMutability": "view",
      "type": "function"
    },
    {
      "inputs": [
        {
          "internalType": "string",
          "name": "uri",
          "type": "string"
        }
      ],
      "name": "setBaseURI",
      "outputs": [],
      "stateMutability": "nonpayable",
      "type": "function"
    }
  ],
  "bytecode": "0x608060405234801561001057600080fd5b506122e8806100206000396000f3fe608060405234801561001057600080fd5b50600436106101a95760003560e01c80635504d3d2116100f957806395d89b4111610097578063b88d4fde11610071578063b88d4fde146103a3578063c87b56dd146103b6578063d547741f146103c9578063e985e9c5146103dc57600080fd5b806395d89b4114610380578063a217fddf14610388578063a22cb4651461039057600080fd5b80636352211e116100d35780636352211e1461033f57806370a08231146103525780638129fc1c1461036557806391d148541461036d57600080fd5b80635504d3d2146102de57806355f804b3146103055780635dba06e41461031857600080fd5b806323b872dd116101665780632f745c59116101405780632f745c591461029257806336568abe146102a557806342842e0e146102b85780634f6ccce7146102cb57600080fd5b806323b872dd14610249578063248a9ca31461025c5780632f2ff15d1461027f57600080fd5b806301ffc9a7146101ae57806306fdde03146101d6578063081812fc146101eb578063095ea7b3146102165780631249c58b1461022b57806318160ddd14610241575b600080fd5b6101c16101bc366004611e4d565b610418565b60405190151581526020015b60405180910390f35b6101de610429565b6040516101cd9190611fdd565b6101fe6101f9366004611e11565b6104bb565b6040516001600160a01b0390911681526020016101cd565b610229610224366004611de7565b6104e2565b005b6102336105fd565b6040519081526020016101cd565b60cb54610233565b610229610257366004611cf3565b61062d565b61023361026a366004611e11565b60009081526065602052604090206001015490565b61022961028d366004611e2a565b61065e565b6102336102a0366004611de7565b610683565b6102296102b3366004611e2a565b610719565b6102296102c6366004611cf3565b610797565b6102336102d9366004611e11565b6107b2565b6102337f98c6b281e1bc048a890608bad2cc62a7184000107c0ed34b04c539dd5777e29b81565b610229610313366004611e87565b610845565b6102337f2ab62e5096aa94099b14af9c792f3b2360ffc5d5c248cab0c5db3e2fad54c42e81565b6101fe61034d366004611e11565b61089c565b610233610360366004611ca5565b6108fc565b610229610982565b6101c161037b366004611e2a565b610ae8565b6101de610b13565b610233600081565b61022961039e366004611dab565b610b22565b6102296103b1366004611d2f565b610b2d565b6101de6103c4366004611e11565b610b65565b6102296103d7366004611e2a565b610c04565b6101c16103ea366004611cc0565b6001600160a01b039182166000908152609c6020908152604080832093909416825291909152205460ff1690565b600061042382610c29565b92915050565b606060978054610438906121c4565b80601f0160208091040260200160405190810160405280929190818152602001828054610464906121c4565b80156104b15780601f10610486576101008083540402835291602001916104b1565b820191906000526020600020905b81548152906001019060200180831161049457829003601f168201915b5050505050905090565b60006104c682610c4e565b506000908152609b60205260409020546001600160a01b031690565b60006104ed8261089c565b9050806001600160a01b0316836001600160a01b031614156105605760405162461bcd60e51b815260206004820152602160248201527f4552433732313a20617070726f76616c20746f2063757272656e74206f776e656044820152603960f91b60648201526084015b60405180910390fd5b336001600160a01b038216148061057c575061057c81336103ea565b6105ee5760405162461bcd60e51b815260206004820152603d60248201527f4552433732313a20617070726f76652063616c6c6572206973206e6f7420746f60448201527f6b656e206f776e6572206f7220617070726f76656420666f7220616c6c0000006064820152608401610557565b6105f88383610cad565b505050565b6000610607610d1b565b600061061260cb5490565b90506106283361062383600161211f565b610d8d565b905090565b6106373382610da7565b6106535760405162461bcd60e51b815260040161055790611ff0565b6105f8838383610e26565b60008281526065602052604090206001015461067981610f97565b6105f88383610fa1565b600061068e836108fc565b82106106f05760405162461bcd60e51b815260206004820152602b60248201527f455243373231456e756d657261626c653a206f776e657220696e646578206f7560448201526a74206f6620626f756e647360a81b6064820152608401610557565b506001600160a01b0391909116600090815260c960209081526040808320938352929052205490565b6001600160a01b03811633146107895760405162461bcd60e51b815260206004820152602f60248201527f416363657373436f6e74726f6c3a2063616e206f6e6c792072656e6f756e636560448201526e103937b632b9903337b91039b2b63360891b6064820152608401610557565b6107938282611027565b5050565b6105f883838360405180602001604052806000815250610b2d565b60006107bd60cb5490565b82106108205760405162461bcd60e51b815260206004820152602c60248201527f455243373231456e756d657261626c653a20676c6f62616c20696e646578206f60448201526b7574206f6620626f756e647360a01b6064820152608401610557565b60cb828154811061083357610833612270565b90600052602060002001549050919050565b610850600033610ae8565b6108885760405162461bcd60e51b81526020600482015260096024820152682737ba1030b236b4b760b91b6044820152606401610557565b80516107939061012d906020840190611b7a565b6000818152609960205260408120546001600160a01b0316806104235760405162461bcd60e51b8152602060048201526018602482015277115490cdcc8c4e881a5b9d985b1a59081d1bdad95b88125160421b6044820152606401610557565b60006001600160a01b0382166109665760405162461bcd60e51b815260206004820152602960248201527f4552433732313a2061646472657373207a65726f206973206e6f7420612076616044820152683634b21037bbb732b960b91b6064820152608401610557565b506001600160a01b03166000908152609a602052604090205490565b600054610100900460ff16158080156109a25750600054600160ff909116105b806109bc5750303b1580156109bc575060005460ff166001145b610a1f5760405162461bcd60e51b815260206004820152602e60248201527f496e697469616c697a61626c653a20636f6e747261637420697320616c72656160448201526d191e481a5b9a5d1a585b1a5e995960921b6064820152608401610557565b6000805460ff191660011790558015610a42576000805461ff0019166101001790555b610a8c6040518060400160405280600d81526020016c2127212421b430b930b1ba32b960991b8152506040518060400160405280600381526020016242484360e81b81525061108e565b610a946110bf565b610a9f6000336110e6565b8015610ae5576000805461ff0019169055604051600181527f7f26b83ff96e1f2b6a682f133852f6798a09c465da95921460cefb38474024989060200160405180910390a15b50565b60009182526065602090815260408084206001600160a01b0393909316845291905290205460ff1690565b606060988054610438906121c4565b6107933383836110f0565b610b373383610da7565b610b535760405162461bcd60e51b815260040161055790611ff0565b610b5f848484846111bf565b50505050565b6000818152609960205260409020546060906001600160a01b0316610bcc5760405162461bcd60e51b815260206004820152601f60248201527f43616e6e6f74207175657279206e6f6e2d6578697374656e7420746f6b656e006044820152606401610557565b610bd46111f2565b610bdd83611202565b604051602001610bee929190611efc565b6040516020818303038152906040529050919050565b600082815260656020526040902060010154610c1f81610f97565b6105f88383611027565b60006001600160e01b0319821663780e9d6360e01b1480610423575061042382611300565b6000818152609960205260409020546001600160a01b0316610ae55760405162461bcd60e51b8152602060048201526018602482015277115490cdcc8c4e881a5b9d985b1a59081d1bdad95b88125160421b6044820152606401610557565b6000818152609b6020526040902080546001600160a01b0319166001600160a01b0384169081179091558190610ce28261089c565b6001600160a01b03167f8c5be1e5ebec7d5bd14f71427d1e84f3dd0314c0f7b2291e5b200ac8c7c3b92560405160405180910390a45050565b610d457f98c6b281e1bc048a890608bad2cc62a7184000107c0ed34b04c539dd5777e29b33610ae8565b1515600114610d8b5760405162461bcd60e51b8152602060048201526012602482015271446f6573206e6f74206861766520726f6c6560701b6044820152606401610557565b565b610793828260405180602001604052806000815250611340565b600080610db38361089c565b9050806001600160a01b0316846001600160a01b03161480610dfa57506001600160a01b038082166000908152609c602090815260408083209388168352929052205460ff165b80610e1e5750836001600160a01b0316610e13846104bb565b6001600160a01b0316145b949350505050565b826001600160a01b0316610e398261089c565b6001600160a01b031614610e5f5760405162461bcd60e51b81526004016105579061208f565b6001600160a01b038216610ec15760405162461bcd60e51b8152602060048201526024808201527f4552433732313a207472616e7366657220746f20746865207a65726f206164646044820152637265737360e01b6064820152608401610557565b610ece8383836001611373565b826001600160a01b0316610ee18261089c565b6001600160a01b031614610f075760405162461bcd60e51b81526004016105579061208f565b6000818152609b6020908152604080832080546001600160a01b03199081169091556001600160a01b03878116808652609a8552838620805460001901905590871680865283862080546001019055868652609990945282852080549092168417909155905184937fddf252ad1be2c89b69c2b068fc378daa952ba7f163c4a11628f55a4df523b3ef91a4505050565b610ae5813361137f565b610fab8282610ae8565b6107935760008281526065602090815260408083206001600160a01b03851684529091529020805460ff19166001179055610fe33390565b6001600160a01b0316816001600160a01b0316837f2f8788117e7eff1d82e926ec794901d17c78024a50270940304540a733656f0d60405160405180910390a45050565b6110318282610ae8565b156107935760008281526065602090815260408083206001600160a01b0385168085529252808320805460ff1916905551339285917ff6391f5c32d9c69d2a47ea670b442974b53935d1edc7fd64eb21e047a839171b9190a45050565b600054610100900460ff166110b55760405162461bcd60e51b8152600401610557906120d4565b61079382826113d8565b600054610100900460ff16610d8b5760405162461bcd60e51b8152600401610557906120d4565b6107938282610fa1565b816001600160a01b0316836001600160a01b031614156111525760405162461bcd60e51b815260206004820152601960248201527f4552433732313a20617070726f766520746f2063616c6c6572000000000000006044820152606401610557565b6001600160a01b038381166000818152609c6020908152604080832094871680845294825291829020805460ff191686151590811790915591519182527f17307eab39ab6107e8899845ad3d59bd9653f200f220920489ca2b5937696c31910160405180910390a3505050565b6111ca848484610e26565b6111d684848484611426565b610b5f5760405162461bcd60e51b81526004016105579061203d565b606061012d8054610438906121c4565b6060816112265750506040805180820190915260018152600360fc1b602082015290565b8160005b8115611250578061123a816121ff565b91506112499050600a83612137565b915061122a565b60008167ffffffffffffffff81111561126b5761126b612286565b6040519080825280601f01601f191660200182016040528015611295576020820181803683370190505b5090505b8415610e1e576112aa60018361216a565b91506112b7600a8661221a565b6112c290603061211f565b60f81b8183815181106112d7576112d7612270565b60200101906001600160f81b031916908160001a9053506112f9600a86612137565b9450611299565b60006001600160e01b031982166380ac58cd60e01b148061133157506001600160e01b03198216635b5e139f60e01b145b80610423575061042382611533565b61134a8383611568565b6113576000848484611426565b6105f85760405162461bcd60e51b81526004016105579061203d565b610b5f84848484611701565b6113898282610ae8565b6107935761139681611835565b6113a1836020611847565b6040516020016113b2929190611f2b565b60408051601f198184030181529082905262461bcd60e51b825261055791600401611fdd565b600054610100900460ff166113ff5760405162461bcd60e51b8152600401610557906120d4565b8151611412906097906020850190611b7a565b5080516105f8906098906020840190611b7a565b60006001600160a01b0384163b1561152857604051630a85bd0160e11b81526001600160a01b0385169063150b7a029061146a903390899088908890600401611fa0565b602060405180830381600087803b15801561148457600080fd5b505af19250505080156114b4575060408051601f3d908101601f191682019092526114b191810190611e6a565b60015b61150e573d8080156114e2576040519150601f19603f3d011682016040523d82523d6000602084013e6114e7565b606091505b5080516115065760405162461bcd60e51b81526004016105579061203d565b805181602001fd5b6001600160e01b031916630a85bd0160e11b149050610e1e565b506001949350505050565b60006001600160e01b03198216637965db0b60e01b148061042357506301ffc9a760e01b6001600160e01b0319831614610423565b6001600160a01b0382166115be5760405162461bcd60e51b815260206004820181905260248201527f4552433732313a206d696e7420746f20746865207a65726f20616464726573736044820152606401610557565b6000818152609960205260409020546001600160a01b0316156116235760405162461bcd60e51b815260206004820152601c60248201527f4552433732313a20746f6b656e20616c7265616479206d696e746564000000006044820152606401610557565b611631600083836001611373565b6000818152609960205260409020546001600160a01b0316156116965760405162461bcd60e51b815260206004820152601c60248201527f4552433732313a20746f6b656e20616c7265616479206d696e746564000000006044820152606401610557565b6001600160a01b0382166000818152609a6020908152604080832080546001019055848352609990915280822080546001600160a01b0319168417905551839291907fddf252ad1be2c89b69c2b068fc378daa952ba7f163c4a11628f55a4df523b3ef908290a45050565b60018111156117705760405162461bcd60e51b815260206004820152603560248201527f455243373231456e756d657261626c653a20636f6e7365637574697665207472604482015274185b9cd9995c9cc81b9bdd081cdd5c1c1bdc9d1959605a1b6064820152608401610557565b816001600160a01b0385166117cc576117c78160cb8054600083815260cc60205260408120829055600182018355919091527fa7ce836d032b2bf62b7e2097a8e0a6d8aeb35405ad15271e96d3b0188a1d06fb0155565b6117ef565b836001600160a01b0316856001600160a01b0316146117ef576117ef85826119ea565b6001600160a01b03841661180b5761180681611a87565b61182e565b846001600160a01b0316846001600160a01b03161461182e5761182e8482611b36565b5050505050565b60606104236001600160a01b03831660145b6060600061185683600261214b565b61186190600261211f565b67ffffffffffffffff81111561187957611879612286565b6040519080825280601f01601f1916602001820160405280156118a3576020820181803683370190505b509050600360fc1b816000815181106118be576118be612270565b60200101906001600160f81b031916908160001a905350600f60fb1b816001815181106118ed576118ed612270565b60200101906001600160f81b031916908160001a905350600061191184600261214b565b61191c90600161211f565b90505b6001811115611994576f181899199a1a9b1b9c1cb0b131b232b360811b85600f166010811061195057611950612270565b1a60f81b82828151811061196657611966612270565b60200101906001600160f81b031916908160001a90535060049490941c9361198d816121ad565b905061191f565b5083156119e35760405162461bcd60e51b815260206004820181905260248201527f537472696e67733a20686578206c656e67746820696e73756666696369656e746044820152606401610557565b9392505050565b600060016119f7846108fc565b611a01919061216a565b600083815260ca6020526040902054909150808214611a54576001600160a01b038416600090815260c960209081526040808320858452825280832054848452818420819055835260ca90915290208190555b50600091825260ca602090815260408084208490556001600160a01b03909416835260c981528383209183525290812055565b60cb54600090611a999060019061216a565b600083815260cc602052604081205460cb8054939450909284908110611ac157611ac1612270565b906000526020600020015490508060cb8381548110611ae257611ae2612270565b600091825260208083209091019290925582815260cc909152604080822084905585825281205560cb805480611b1a57611b1a61225a565b6001900381819060005260206000200160009055905550505050565b6000611b41836108fc565b6001600160a01b03909316600090815260c960209081526040808320868452825280832085905593825260ca9052919091209190915550565b828054611b86906121c4565b90600052602060002090601f016020900481019282611ba85760008555611bee565b82601f10611bc157805160ff1916838001178555611bee565b82800160010185558215611bee579182015b82811115611bee578251825591602001919060010190611bd3565b50611bfa929150611bfe565b5090565b5b80821115611bfa5760008155600101611bff565b600067ffffffffffffffff80841115611c2e57611c2e612286565b604051601f8501601f19908116603f01168101908282118183101715611c5657611c56612286565b81604052809350858152868686011115611c6f57600080fd5b858560208301376000602087830101525050509392505050565b80356001600160a01b0381168114611ca057600080fd5b919050565b600060208284031215611cb757600080fd5b6119e382611c89565b60008060408385031215611cd357600080fd5b611cdc83611c89565b9150611cea60208401611c89565b90509250929050565b600080600060608486031215611d0857600080fd5b611d1184611c89565b9250611d1f60208501611c89565b9150604084013590509250925092565b60008060008060808587031215611d4557600080fd5b611d4e85611c89565b9350611d5c60208601611c89565b925060408501359150606085013567ffffffffffffffff811115611d7f57600080fd5b8501601f81018713611d9057600080fd5b611d9f87823560208401611c13565b91505092959194509250565b60008060408385031215611dbe57600080fd5b611dc783611c89565b915060208301358015158114611ddc57600080fd5b809150509250929050565b60008060408385031215611dfa57600080fd5b611e0383611c89565b946020939093013593505050565b600060208284031215611e2357600080fd5b5035919050565b60008060408385031215611e3d57600080fd5b82359150611cea60208401611c89565b600060208284031215611e5f57600080fd5b81356119e38161229c565b600060208284031215611e7c57600080fd5b81516119e38161229c565b600060208284031215611e9957600080fd5b813567ffffffffffffffff811115611eb057600080fd5b8201601f81018413611ec157600080fd5b610e1e84823560208401611c13565b60008151808452611ee8816020860160208601612181565b601f01601f19169290920160200192915050565b60008351611f0e818460208801612181565b835190830190611f22818360208801612181565b01949350505050565b7f416363657373436f6e74726f6c3a206163636f756e7420000000000000000000815260008351611f63816017850160208801612181565b7001034b99036b4b9b9b4b733903937b6329607d1b6017918401918201528351611f94816028840160208801612181565b01602801949350505050565b6001600160a01b0385811682528416602082015260408101839052608060608201819052600090611fd390830184611ed0565b9695505050505050565b6020815260006119e36020830184611ed0565b6020808252602d908201527f4552433732313a2063616c6c6572206973206e6f7420746f6b656e206f776e6560408201526c1c881bdc88185c1c1c9bdd9959609a1b606082015260800190565b60208082526032908201527f4552433732313a207472616e7366657220746f206e6f6e20455243373231526560408201527131b2b4bb32b91034b6b83632b6b2b73a32b960711b606082015260800190565b60208082526025908201527f4552433732313a207472616e736665722066726f6d20696e636f72726563742060408201526437bbb732b960d91b606082015260800190565b6020808252602b908201527f496e697469616c697a61626c653a20636f6e7472616374206973206e6f74206960408201526a6e697469616c697a696e6760a81b606082015260800190565b600082198211156121325761213261222e565b500190565b60008261214657612146612244565b500490565b60008160001904831182151516156121655761216561222e565b500290565b60008282101561217c5761217c61222e565b500390565b60005b8381101561219c578181015183820152602001612184565b83811115610b5f5750506000910152565b6000816121bc576121bc61222e565b506000190190565b600181811c908216806121d857607f821691505b602082108114156121f957634e487b7160e01b600052602260045260246000fd5b50919050565b60006000198214156122135761221361222e565b5060010190565b60008261222957612229612244565b500690565b634e487b7160e01b600052601160045260246000fd5b634e487b7160e01b600052601260045260246000fd5b634e487b7160e01b600052603160045260246000fd5b634e487b7160e01b600052603260045260246000fd5b634e487b7160e01b600052604160045260246000fd5b6001600160e01b031981168114610ae557600080fdfea2646970667358221220c55fc55162331ba9e1c4efa19b9a1f497b1f7a36080fe32bf68b41175f66dd2564736f6c63430008070033",
  "immutableReferences": {},
  "source": "// SPDX-License-Identifier: Unlicensed\r\n\r\npragma solidity ^0.8.0;\r\n\r\nimport \"@openzeppelin/contracts-upgradeable/token/ERC721/extensions/ERC721EnumerableUpgradeable.sol\";\r\nimport \"@openzeppelin/contracts-upgradeable/token/ERC721/extensions/ERC721URIStorageUpgradeable.sol\";\r\nimport \"@openzeppelin/contracts-upgradeable/proxy/utils/Initializable.sol\";\r\nimport \"@openzeppelin/contracts-upgradeable/access/AccessControlUpgradeable.sol\";\r\nimport \"./lib/SafeMath.sol\";\r\nimport \"./lib/Strings.sol\";\r\n\r\ncontract BNBHCharacterV2 is Initializable, AccessControlUpgradeable, ERC721EnumerableUpgradeable, ERC721URIStorageUpgradeable {\r\n    using Strings for uint256;\r\n    using SafeMath for uint256;\r\n    //using HeroLibrary for HeroLibrary.Hero;\r\n    //using HeroLibrary for HeroLibrary.Town;\r\n    bytes32 public constant GAME_ADMIN = keccak256(\"GAME_ADMIN1111111111111111111111\");\r\n    bytes32 public constant NO_OWNED_LIMIT = keccak256(\"NO_OWNED_LIMIT\");    \r\n\r\n\r\n    string private baseURI;\r\n\r\n    function initialize () public initializer {\r\n        __ERC721_init(\"BNBHCharacter\", \"BHC\");\r\n        __AccessControl_init_unchained();\r\n\r\n        _setupRole(DEFAULT_ADMIN_ROLE, msg.sender);\r\n    }\r\n\r\n    modifier onlyOwner() {\r\n        require(hasRole(DEFAULT_ADMIN_ROLE, msg.sender), \"Not admin\");\r\n        _;\r\n    }\r\n\r\n    modifier onlyOwnerOf(address account, uint256 _heroId) {\r\n        require(ownerOf(_heroId) == account, \"Must be owner of hero to battle\");\r\n        _;\r\n    }\r\n\r\n    modifier restricted() {\r\n        _restricted();\r\n        _;\r\n    }\r\n\r\n    function _restricted() internal view {\r\n        require(hasRole(GAME_ADMIN, msg.sender) == true, \"Does not have role\");\r\n    }\r\n    function _beforeTokenTransfer(address from, address to, uint256 tokenId, uint256 batchSize) internal override(ERC721Upgradeable, ERC721EnumerableUpgradeable) {\r\n        \r\n        super._beforeTokenTransfer(from, to, tokenId, batchSize);\r\n    }\r\n\r\n    function mint() external restricted returns(uint256) {\r\n        uint256 id = totalSupply();\r\n        _safeMint(msg.sender, id + 1);\r\n        return id;\r\n    }\r\n    function _burn(uint256 tokenId) internal override(ERC721Upgradeable, ERC721URIStorageUpgradeable) {\r\n        super._burn(tokenId);\r\n    }\r\n\r\n    function tokenURI(uint256 tokenId)\r\n        public\r\n        view\r\n        override(ERC721Upgradeable, ERC721URIStorageUpgradeable)\r\n        returns (string memory)\r\n    {\r\n        require(_exists(tokenId), \"Cannot query non-existent token\");\r\n        \r\n        return string(abi.encodePacked(_baseURI(), tokenId.toString()));\r\n    }\r\n\r\n    function supportsInterface(bytes4 interfaceId)\r\n        public\r\n        view\r\n        override(ERC721Upgradeable, ERC721EnumerableUpgradeable, AccessControlUpgradeable)\r\n        returns (bool)\r\n    {\r\n        return super.supportsInterface(interfaceId);\r\n    }\r\n\r\n    function setBaseURI(string memory uri) public onlyOwner {\r\n        baseURI = uri;\r\n    }\r\n\r\n    function _baseURI() internal view override returns (string memory) {\r\n        return baseURI;\r\n    }\r\n\r\n    function isContract(address account) internal view returns (bool) {\r\n        // This method relies on extcodesize, which returns 0 for contracts in\r\n        // construction, since the code is only stored at the end of the\r\n        // constructor execution.\r\n\r\n        uint256 size;\r\n        assembly {\r\n            size := extcodesize(account)\r\n        }\r\n        return size > 0;\r\n    }\r\n\r\n}",
  "sourcePath": "D:\\Projects\\US\\intell-truffle-deployer\\contracts\\BNBHCharacterV2.sol",
  "compiler": {
    "name": "solc",
    "version": "0.8.7+commit.e28d00a7.Emscripten.clang"
  },
  "schemaVersion": "3.4.11",
  "updatedAt": "2023-04-29T19:15:23.429Z",
  "devdoc": {
    "kind": "dev",
    "methods": {
      "approve(address,uint256)": {
        "details": "See {IERC721-approve}."
      },
      "balanceOf(address)": {
        "details": "See {IERC721-balanceOf}."
      },
      "getApproved(uint256)": {
        "details": "See {IERC721-getApproved}."
      },
      "getRoleAdmin(bytes32)": {
        "details": "Returns the admin role that controls `role`. See {grantRole} and {revokeRole}. To change a role's admin, use {_setRoleAdmin}."
      },
      "grantRole(bytes32,address)": {
        "details": "Grants `role` to `account`. If `account` had not been already granted `role`, emits a {RoleGranted} event. Requirements: - the caller must have ``role``'s admin role. May emit a {RoleGranted} event."
      },
      "hasRole(bytes32,address)": {
        "details": "Returns `true` if `account` has been granted `role`."
      },
      "isApprovedForAll(address,address)": {
        "details": "See {IERC721-isApprovedForAll}."
      },
      "name()": {
        "details": "See {IERC721Metadata-name}."
      },
      "ownerOf(uint256)": {
        "details": "See {IERC721-ownerOf}."
      },
      "renounceRole(bytes32,address)": {
        "details": "Revokes `role` from the calling account. Roles are often managed via {grantRole} and {revokeRole}: this function's purpose is to provide a mechanism for accounts to lose their privileges if they are compromised (such as when a trusted device is misplaced). If the calling account had been revoked `role`, emits a {RoleRevoked} event. Requirements: - the caller must be `account`. May emit a {RoleRevoked} event."
      },
      "revokeRole(bytes32,address)": {
        "details": "Revokes `role` from `account`. If `account` had been granted `role`, emits a {RoleRevoked} event. Requirements: - the caller must have ``role``'s admin role. May emit a {RoleRevoked} event."
      },
      "safeTransferFrom(address,address,uint256)": {
        "details": "See {IERC721-safeTransferFrom}."
      },
      "safeTransferFrom(address,address,uint256,bytes)": {
        "details": "See {IERC721-safeTransferFrom}."
      },
      "setApprovalForAll(address,bool)": {
        "details": "See {IERC721-setApprovalForAll}."
      },
      "symbol()": {
        "details": "See {IERC721Metadata-symbol}."
      },
      "tokenByIndex(uint256)": {
        "details": "See {IERC721Enumerable-tokenByIndex}."
      },
      "tokenOfOwnerByIndex(address,uint256)": {
        "details": "See {IERC721Enumerable-tokenOfOwnerByIndex}."
      },
      "totalSupply()": {
        "details": "See {IERC721Enumerable-totalSupply}."
      },
      "transferFrom(address,address,uint256)": {
        "details": "See {IERC721-transferFrom}."
      }
    },
    "version": 1
  },
  "userdoc": {
    "kind": "user",
    "methods": {},
    "version": 1
  }
}