{
  "contractName": "IntellModelNFTContract",
  "abi": [
    {
      "inputs": [
        {
          "internalType": "string",
          "name": "baseURI",
          "type": "string"
        },
        {
          "internalType": "contract IIntellSetting",
          "name": "_intellSetting_",
          "type": "address"
        }
      ],
      "stateMutability": "nonpayable",
      "type": "constructor"
    },
    {
      "anonymous": false,
      "inputs": [
        {
          "indexed": true,
          "internalType": "address",
          "name": "owner",
          "type": "address"
        },
        {
          "indexed": true,
          "internalType": "address",
          "name": "approved",
          "type": "address"
        },
        {
          "indexed": true,
          "internalType": "uint256",
          "name": "tokenId",
          "type": "uint256"
        }
      ],
      "name": "Approval",
      "type": "event"
    },
    {
      "anonymous": false,
      "inputs": [
        {
          "indexed": true,
          "internalType": "address",
          "name": "owner",
          "type": "address"
        },
        {
          "indexed": true,
          "internalType": "address",
          "name": "operator",
          "type": "address"
        },
        {
          "indexed": false,
          "internalType": "bool",
          "name": "approved",
          "type": "bool"
        }
      ],
      "name": "ApprovalForAll",
      "type": "event"
    },
    {
      "anonymous": false,
      "inputs": [
        {
          "indexed": false,
          "internalType": "address",
          "name": "creator",
          "type": "address"
        },
        {
          "indexed": false,
          "internalType": "uint256",
          "name": "price",
          "type": "uint256"
        },
        {
          "indexed": false,
          "internalType": "uint256",
          "name": "tokenId",
          "type": "uint256"
        },
        {
          "indexed": false,
          "internalType": "uint256",
          "name": "modelId",
          "type": "uint256"
        },
        {
          "indexed": false,
          "internalType": "uint256",
          "name": "timestamp",
          "type": "uint256"
        },
        {
          "indexed": false,
          "internalType": "uint256",
          "name": "blocknumber",
          "type": "uint256"
        }
      ],
      "name": "NewModelMint",
      "type": "event"
    },
    {
      "anonymous": false,
      "inputs": [
        {
          "indexed": true,
          "internalType": "address",
          "name": "previousOwner",
          "type": "address"
        },
        {
          "indexed": true,
          "internalType": "address",
          "name": "newOwner",
          "type": "address"
        }
      ],
      "name": "OwnershipTransferred",
      "type": "event"
    },
    {
      "anonymous": false,
      "inputs": [
        {
          "indexed": true,
          "internalType": "address",
          "name": "from",
          "type": "address"
        },
        {
          "indexed": true,
          "internalType": "address",
          "name": "to",
          "type": "address"
        },
        {
          "indexed": true,
          "internalType": "uint256",
          "name": "tokenId",
          "type": "uint256"
        }
      ],
      "name": "Transfer",
      "type": "event"
    },
    {
      "anonymous": false,
      "inputs": [
        {
          "indexed": false,
          "internalType": "uint256",
          "name": "oldMintPrice",
          "type": "uint256"
        },
        {
          "indexed": false,
          "internalType": "uint256",
          "name": "newMintPrice",
          "type": "uint256"
        }
      ],
      "name": "UpdateMintPrice",
      "type": "event"
    },
    {
      "anonymous": false,
      "inputs": [
        {
          "indexed": false,
          "internalType": "bool",
          "name": "oldVal",
          "type": "bool"
        },
        {
          "indexed": false,
          "internalType": "bool",
          "name": "newVal",
          "type": "bool"
        }
      ],
      "name": "UpdatePause",
      "type": "event"
    },
    {
      "anonymous": false,
      "inputs": [
        {
          "indexed": false,
          "internalType": "address",
          "name": "oldPaymentToken",
          "type": "address"
        },
        {
          "indexed": false,
          "internalType": "address",
          "name": "newPaymentToken",
          "type": "address"
        }
      ],
      "name": "UpdatePaymentToken",
      "type": "event"
    },
    {
      "inputs": [
        {
          "internalType": "address",
          "name": "to",
          "type": "address"
        },
        {
          "internalType": "uint256",
          "name": "tokenId",
          "type": "uint256"
        }
      ],
      "name": "approve",
      "outputs": [],
      "stateMutability": "nonpayable",
      "type": "function"
    },
    {
      "inputs": [
        {
          "internalType": "address",
          "name": "owner",
          "type": "address"
        }
      ],
      "name": "balanceOf",
      "outputs": [
        {
          "internalType": "uint256",
          "name": "",
          "type": "uint256"
        }
      ],
      "stateMutability": "view",
      "type": "function",
      "constant": true
    },
    {
      "inputs": [
        {
          "internalType": "uint256",
          "name": "tokenId",
          "type": "uint256"
        }
      ],
      "name": "getApproved",
      "outputs": [
        {
          "internalType": "address",
          "name": "",
          "type": "address"
        }
      ],
      "stateMutability": "view",
      "type": "function",
      "constant": true
    },
    {
      "inputs": [
        {
          "internalType": "address",
          "name": "owner",
          "type": "address"
        },
        {
          "internalType": "address",
          "name": "operator",
          "type": "address"
        }
      ],
      "name": "isApprovedForAll",
      "outputs": [
        {
          "internalType": "bool",
          "name": "",
          "type": "bool"
        }
      ],
      "stateMutability": "view",
      "type": "function",
      "constant": true
    },
    {
      "inputs": [],
      "name": "name",
      "outputs": [
        {
          "internalType": "string",
          "name": "",
          "type": "string"
        }
      ],
      "stateMutability": "view",
      "type": "function",
      "constant": true
    },
    {
      "inputs": [],
      "name": "owner",
      "outputs": [
        {
          "internalType": "address",
          "name": "",
          "type": "address"
        }
      ],
      "stateMutability": "view",
      "type": "function",
      "constant": true
    },
    {
      "inputs": [
        {
          "internalType": "uint256",
          "name": "tokenId",
          "type": "uint256"
        }
      ],
      "name": "ownerOf",
      "outputs": [
        {
          "internalType": "address",
          "name": "",
          "type": "address"
        }
      ],
      "stateMutability": "view",
      "type": "function",
      "constant": true
    },
    {
      "inputs": [],
      "name": "renounceOwnership",
      "outputs": [],
      "stateMutability": "nonpayable",
      "type": "function"
    },
    {
      "inputs": [
        {
          "internalType": "address",
          "name": "from",
          "type": "address"
        },
        {
          "internalType": "address",
          "name": "to",
          "type": "address"
        },
        {
          "internalType": "uint256",
          "name": "tokenId",
          "type": "uint256"
        }
      ],
      "name": "safeTransferFrom",
      "outputs": [],
      "stateMutability": "nonpayable",
      "type": "function"
    },
    {
      "inputs": [
        {
          "internalType": "address",
          "name": "from",
          "type": "address"
        },
        {
          "internalType": "address",
          "name": "to",
          "type": "address"
        },
        {
          "internalType": "uint256",
          "name": "tokenId",
          "type": "uint256"
        },
        {
          "internalType": "bytes",
          "name": "data",
          "type": "bytes"
        }
      ],
      "name": "safeTransferFrom",
      "outputs": [],
      "stateMutability": "nonpayable",
      "type": "function"
    },
    {
      "inputs": [
        {
          "internalType": "address",
          "name": "operator",
          "type": "address"
        },
        {
          "internalType": "bool",
          "name": "approved",
          "type": "bool"
        }
      ],
      "name": "setApprovalForAll",
      "outputs": [],
      "stateMutability": "nonpayable",
      "type": "function"
    },
    {
      "inputs": [
        {
          "internalType": "bytes4",
          "name": "interfaceId",
          "type": "bytes4"
        }
      ],
      "name": "supportsInterface",
      "outputs": [
        {
          "internalType": "bool",
          "name": "",
          "type": "bool"
        }
      ],
      "stateMutability": "view",
      "type": "function",
      "constant": true
    },
    {
      "inputs": [],
      "name": "symbol",
      "outputs": [
        {
          "internalType": "string",
          "name": "",
          "type": "string"
        }
      ],
      "stateMutability": "view",
      "type": "function",
      "constant": true
    },
    {
      "inputs": [
        {
          "internalType": "uint256",
          "name": "index",
          "type": "uint256"
        }
      ],
      "name": "tokenByIndex",
      "outputs": [
        {
          "internalType": "uint256",
          "name": "",
          "type": "uint256"
        }
      ],
      "stateMutability": "view",
      "type": "function",
      "constant": true
    },
    {
      "inputs": [
        {
          "internalType": "address",
          "name": "owner",
          "type": "address"
        },
        {
          "internalType": "uint256",
          "name": "index",
          "type": "uint256"
        }
      ],
      "name": "tokenOfOwnerByIndex",
      "outputs": [
        {
          "internalType": "uint256",
          "name": "",
          "type": "uint256"
        }
      ],
      "stateMutability": "view",
      "type": "function",
      "constant": true
    },
    {
      "inputs": [
        {
          "internalType": "uint256",
          "name": "tokenId",
          "type": "uint256"
        }
      ],
      "name": "tokenURI",
      "outputs": [
        {
          "internalType": "string",
          "name": "",
          "type": "string"
        }
      ],
      "stateMutability": "view",
      "type": "function",
      "constant": true
    },
    {
      "inputs": [],
      "name": "totalSupply",
      "outputs": [
        {
          "internalType": "uint256",
          "name": "",
          "type": "uint256"
        }
      ],
      "stateMutability": "view",
      "type": "function",
      "constant": true
    },
    {
      "inputs": [
        {
          "internalType": "address",
          "name": "from",
          "type": "address"
        },
        {
          "internalType": "address",
          "name": "to",
          "type": "address"
        },
        {
          "internalType": "uint256",
          "name": "tokenId",
          "type": "uint256"
        }
      ],
      "name": "transferFrom",
      "outputs": [],
      "stateMutability": "nonpayable",
      "type": "function"
    },
    {
      "inputs": [
        {
          "internalType": "address",
          "name": "newOwner",
          "type": "address"
        }
      ],
      "name": "transferOwnership",
      "outputs": [],
      "stateMutability": "nonpayable",
      "type": "function"
    },
    {
      "inputs": [
        {
          "internalType": "uint256",
          "name": "_tokenId",
          "type": "uint256"
        }
      ],
      "name": "modelIdByTokenId",
      "outputs": [
        {
          "internalType": "uint256",
          "name": "",
          "type": "uint256"
        }
      ],
      "stateMutability": "view",
      "type": "function",
      "constant": true
    },
    {
      "inputs": [
        {
          "internalType": "contract IIntellSetting",
          "name": "_intellSetting_",
          "type": "address"
        }
      ],
      "name": "setIntellSetting",
      "outputs": [],
      "stateMutability": "nonpayable",
      "type": "function"
    },
    {
      "inputs": [],
      "name": "intellSetting",
      "outputs": [
        {
          "internalType": "contract IIntellSetting",
          "name": "",
          "type": "address"
        }
      ],
      "stateMutability": "view",
      "type": "function",
      "constant": true
    },
    {
      "inputs": [
        {
          "internalType": "uint256",
          "name": "_modelId",
          "type": "uint256"
        }
      ],
      "name": "tokenIdByModelId",
      "outputs": [
        {
          "internalType": "uint256",
          "name": "",
          "type": "uint256"
        }
      ],
      "stateMutability": "view",
      "type": "function",
      "constant": true
    },
    {
      "inputs": [
        {
          "internalType": "uint256",
          "name": "_modelId",
          "type": "uint256"
        }
      ],
      "name": "modelNFTMintedHistory",
      "outputs": [
        {
          "internalType": "uint256",
          "name": "",
          "type": "uint256"
        }
      ],
      "stateMutability": "view",
      "type": "function",
      "constant": true
    },
    {
      "inputs": [
        {
          "internalType": "string",
          "name": "baseURI",
          "type": "string"
        }
      ],
      "name": "setBaseURI",
      "outputs": [],
      "stateMutability": "nonpayable",
      "type": "function"
    },
    {
      "inputs": [
        {
          "internalType": "bool",
          "name": "val",
          "type": "bool"
        }
      ],
      "name": "pause",
      "outputs": [],
      "stateMutability": "nonpayable",
      "type": "function"
    },
    {
      "inputs": [],
      "name": "getPause",
      "outputs": [
        {
          "internalType": "bool",
          "name": "",
          "type": "bool"
        }
      ],
      "stateMutability": "view",
      "type": "function",
      "constant": true
    },
    {
      "inputs": [
        {
          "internalType": "uint256",
          "name": "tokenId",
          "type": "uint256"
        }
      ],
      "name": "burn",
      "outputs": [],
      "stateMutability": "nonpayable",
      "type": "function"
    },
    {
      "inputs": [],
      "name": "paymentToken",
      "outputs": [
        {
          "internalType": "contract IERC20",
          "name": "",
          "type": "address"
        }
      ],
      "stateMutability": "view",
      "type": "function",
      "constant": true
    },
    {
      "inputs": [
        {
          "internalType": "bytes",
          "name": "statusMessage",
          "type": "bytes"
        },
        {
          "internalType": "bytes",
          "name": "statusSignature",
          "type": "bytes"
        },
        {
          "internalType": "bytes",
          "name": "shareMessage",
          "type": "bytes"
        },
        {
          "internalType": "bytes",
          "name": "shareSignature",
          "type": "bytes"
        }
      ],
      "name": "adopt",
      "outputs": [],
      "stateMutability": "nonpayable",
      "type": "function"
    },
    {
      "inputs": [
        {
          "internalType": "address",
          "name": "_owner",
          "type": "address"
        }
      ],
      "name": "walletOfOwner",
      "outputs": [
        {
          "internalType": "uint256[]",
          "name": "",
          "type": "uint256[]"
        }
      ],
      "stateMutability": "view",
      "type": "function",
      "constant": true
    },
    {
      "inputs": [],
      "name": "withdraw",
      "outputs": [],
      "stateMutability": "nonpayable",
      "type": "function"
    }
  ],
  "bytecode": "0x6080604052600d805460ff191690553480156200001b57600080fd5b50604051620034f9380380620034f98339810160408190526200003e9162000283565b604080518082018252600e81526d125b9d195b1b135bd9195b13919560921b60208083019182528351808501909452600384526224a6a760e91b9084015281519192916200008f91600091620001c0565b508051620000a5906001906020840190620001c0565b50506001600a5550620000b833620000ea565b620000c3826200013c565b601180546001600160a01b0319166001600160a01b039290921691909117905550620003c7565b600b80546001600160a01b038381166001600160a01b0319831681179093556040519116919082907f8be0079c531659141344cd1fd0a4f28419497f9722a3daafe3b4186f6b6457e090600090a35050565b620001466200015f565b80516200015b90600c906020840190620001c0565b5050565b600b546001600160a01b03163314620001be5760405162461bcd60e51b815260206004820181905260248201527f4f776e61626c653a2063616c6c6572206973206e6f7420746865206f776e6572604482015260640160405180910390fd5b565b828054620001ce9062000374565b90600052602060002090601f016020900481019282620001f257600085556200023d565b82601f106200020d57805160ff19168380011785556200023d565b828001600101855582156200023d579182015b828111156200023d57825182559160200191906001019062000220565b506200024b9291506200024f565b5090565b5b808211156200024b576000815560010162000250565b80516001600160a01b03811681146200027e57600080fd5b919050565b600080604083850312156200029757600080fd5b82516001600160401b0380821115620002af57600080fd5b818501915085601f830112620002c457600080fd5b815181811115620002d957620002d9620003b1565b604051601f8201601f19908116603f01168101908382118183101715620003045762000304620003b1565b816040528281526020935088848487010111156200032157600080fd5b600091505b8282101562000345578482018401518183018501529083019062000326565b82821115620003575760008484830101525b95506200036991505085820162000266565b925050509250929050565b600181811c908216806200038957607f821691505b60208210811415620003ab57634e487b7160e01b600052602260045260246000fd5b50919050565b634e487b7160e01b600052604160045260246000fd5b61312280620003d76000396000f3fe608060405234801561001057600080fd5b50600436106101f05760003560e01c80634f6ccce71161010f578063a22cb465116100a2578063d3dc5a0711610071578063d3dc5a0714610428578063e985e9c51461043b578063edd05eb214610477578063f2fde38b1461049757600080fd5b8063a22cb465146103dc578063b88d4fde146103ef578063c7dec2ec14610402578063c87b56dd1461041557600080fd5b8063715018a6116100de578063715018a6146103aa57806387bd0f59146103b25780638da5cb5b146103c357806395d89b41146103d457600080fd5b80634f6ccce71461035e57806355f804b3146103715780636352211e1461038457806370a082311461039757600080fd5b80633013ce291161018757806341e546801161015657806341e54680146102f857806342842e0e1461031857806342966c681461032b578063438b63001461033e57600080fd5b80633013ce29146102bd5780633ccfd60b146102c55780633e3ca9d3146102cd5780633fa05b1e146102d857600080fd5b8063095ea7b3116101c3578063095ea7b31461027257806318160ddd1461028557806323b872dd146102975780632f745c59146102aa57600080fd5b806301ffc9a7146101f557806302329a291461021d57806306fdde0314610232578063081812fc14610247575b600080fd5b610208610203366004612b53565b6104aa565b60405190151581526020015b60405180910390f35b61023061022b366004612b19565b6104d5565b005b61023a610591565b6040516102149190612e9d565b61025a610255366004612c9a565b610623565b6040516001600160a01b039091168152602001610214565b610230610280366004612aed565b61064a565b6008545b604051908152602001610214565b6102306102a53660046129fe565b610760565b6102896102b8366004612aed565b610792565b61025a610828565b6102306108aa565b600d5460ff16610208565b6102896102e6366004612c9a565b60009081526010602052604090205490565b610289610306366004612c9a565b6000908152600e602052604090205490565b6102306103263660046129fe565b610a95565b610230610339366004612c9a565b610ab0565b61035161034c36600461298b565b610b24565b6040516102149190612e20565b61028961036c366004612c9a565b610bc6565b61023061037f366004612c51565b610c59565b61025a610392366004612c9a565b610c78565b6102896103a536600461298b565b610cd8565b610230610d5e565b6011546001600160a01b031661025a565b600b546001600160a01b031661025a565b61023a610d72565b6102306103ea366004612abf565b610d81565b6102306103fd366004612a3f565b610d8c565b610230610410366004612b8d565b610dc4565b61023a610423366004612c9a565b611524565b61023061043636600461298b565b61158b565b6102086104493660046129c5565b6001600160a01b03918216600090815260056020908152604080832093909416825291909152205460ff1690565b610289610485366004612c9a565b6000908152600f602052604090205490565b6102306104a536600461298b565b6115b5565b60006001600160e01b0319821663780e9d6360e01b14806104cf57506104cf8261162b565b92915050565b6104dd61167b565b600d5460ff161515811515141561053b5760405162461bcd60e51b815260206004820181905260248201527f4e4557205354415445204944454e544943414c20544f204f4c4420535441544560448201526064015b60405180910390fd5b600d546040805160ff9092161515825282151560208301527f12c42150a6a28a3fc6fe276a678e51376578ce320ca712bc61cab8b5e85f80d0910160405180910390a1600d805460ff1916911515919091179055565b6060600080546105a090612fef565b80601f01602080910402602001604051908101604052809291908181526020018280546105cc90612fef565b80156106195780601f106105ee57610100808354040283529160200191610619565b820191906000526020600020905b8154815290600101906020018083116105fc57829003601f168201915b5050505050905090565b600061062e826116d5565b506000908152600460205260409020546001600160a01b031690565b600061065582610c78565b9050806001600160a01b0316836001600160a01b031614156106c35760405162461bcd60e51b815260206004820152602160248201527f4552433732313a20617070726f76616c20746f2063757272656e74206f776e656044820152603960f91b6064820152608401610532565b336001600160a01b03821614806106df57506106df8133610449565b6107515760405162461bcd60e51b815260206004820152603d60248201527f4552433732313a20617070726f76652063616c6c6572206973206e6f7420746f60448201527f6b656e206f776e6572206f7220617070726f76656420666f7220616c6c0000006064820152608401610532565b61075b8383611734565b505050565b61076b335b826117a2565b6107875760405162461bcd60e51b815260040161053290612eb0565b61075b838383611821565b600061079d83610cd8565b82106107ff5760405162461bcd60e51b815260206004820152602b60248201527f455243373231456e756d657261626c653a206f776e657220696e646578206f7560448201526a74206f6620626f756e647360a81b6064820152608401610532565b506001600160a01b03919091166000908152600660209081526040808320938352929052205490565b601154604080516310efb77360e31b815290516000926001600160a01b03169163877dbb98916004808301926020929190829003018186803b15801561086d57600080fd5b505afa158015610881573d6000803e3d6000fd5b505050506040513d601f19601f820116820180604052508101906108a591906129a8565b905090565b601154604080516303e1469160e61b8152905133926001600160a01b03169163f851a440916004808301926020929190829003018186803b1580156108ee57600080fd5b505afa158015610902573d6000803e3d6000fd5b505050506040513d601f19601f8201168201806040525081019061092691906129a8565b6001600160a01b03161461097c5760405162461bcd60e51b815260206004820181905260248201527f4f776e61626c653a2063616c6c6572206973206e6f74207468652061646d696e6044820152606401610532565b610984610828565b6001600160a01b031663a9059cbb3361099b610828565b6040516370a0823160e01b81523060048201526001600160a01b0391909116906370a082319060240160206040518083038186803b1580156109dc57600080fd5b505afa1580156109f0573d6000803e3d6000fd5b505050506040513d601f19601f82011682018060405250810190610a149190612cb3565b6040516001600160e01b031960e085901b1681526001600160a01b0390921660048301526024820152604401602060405180830381600087803b158015610a5a57600080fd5b505af1158015610a6e573d6000803e3d6000fd5b505050506040513d601f19601f82011682018060405250810190610a929190612b36565b50565b61075b83838360405180602001604052806000815250610d8c565b610ab933610765565b610b1b5760405162461bcd60e51b815260206004820152602d60248201527f4552433732313a2043414c4c4552204953204e4f5420544f4b454e204f574e4560448201526c148813d4881054141493d59151609a1b6064820152608401610532565b610a9281611992565b60606000610b3183610cd8565b905060008167ffffffffffffffff811115610b4e57610b4e61309d565b604051908082528060200260200182016040528015610b77578160200160208202803683370190505b50905060005b82811015610bbe57610b8f8582610792565b828281518110610ba157610ba1613087565b602090810291909101015280610bb68161302a565b915050610b7d565b509392505050565b6000610bd160085490565b8210610c345760405162461bcd60e51b815260206004820152602c60248201527f455243373231456e756d657261626c653a20676c6f62616c20696e646578206f60448201526b7574206f6620626f756e647360a01b6064820152608401610532565b60088281548110610c4757610c47613087565b90600052602060002001549050919050565b610c6161167b565b8051610c7490600c90602084019061283a565b5050565b6000818152600260205260408120546001600160a01b0316806104cf5760405162461bcd60e51b8152602060048201526018602482015277115490cdcc8c4e881a5b9d985b1a59081d1bdad95b88125160421b6044820152606401610532565b60006001600160a01b038216610d425760405162461bcd60e51b815260206004820152602960248201527f4552433732313a2061646472657373207a65726f206973206e6f7420612076616044820152683634b21037bbb732b960b91b6064820152608401610532565b506001600160a01b031660009081526003602052604090205490565b610d6661167b565b610d706000611a35565b565b6060600180546105a090612fef565b610c74338383611a87565b610d9633836117a2565b610db25760405162461bcd60e51b815260040161053290612eb0565b610dbe84848484611b56565b50505050565b610dcc611b89565b6000610dd6610828565b6001600160a01b03161415610e385760405162461bcd60e51b815260206004820152602260248201527f534554205041594d454e5420544f4b454e20494e20494e54454c4c53455454496044820152614e4760f01b6064820152608401610532565b601154604080516348d9584560e01b815290516000926001600160a01b0316916348d95845916004808301926020929190829003018186803b158015610e7d57600080fd5b505afa158015610e91573d6000803e3d6000fd5b505050506040513d601f19601f82011682018060405250810190610eb591906129a8565b6001600160a01b03161415610f1f5760405162461bcd60e51b815260206004820152602a60248201527f4d5553542053455420464143544f5259204144445245535320494e20494e54456044820152694c4c2053455454494e4760b01b6064820152608401610532565b6000610f2a60085490565b610f35906001612f94565b9050610faa89898080601f01602080910402602001604051908101604052809392919081815260200183838082843760009201919091525050604080516020601f8d018190048102820181019092528b815292508b91508a9081908401838280828437600092019190915250611be392505050565b8015611024575061102485858080601f01602080910402602001604051908101604052809392919081815260200183838082843760009201919091525050604080516020601f89018190048102820181019092528781529250879150869081908401838280828437600092019190915250611be392505050565b61107f5760405162461bcd60e51b815260206004820152602660248201527f4f4e4c5920414343455054205452555448484f4c444552205349474e4544204d60448201526545535341474560d01b6064820152608401610532565b60008061108e8a8c018c612ccc565b9150915061109c8b8b611c7c565b6110e05760405162461bcd60e51b81526020600482015260156024820152741512114814d510551554c81254c812539590531251605a1b6044820152606401610532565b6000828152601060209081526040808320869055858352600f8252808320859055848352600e90915290204390556111183384611e39565b60115460408051634acbc0ff60e01b815290516000926001600160a01b031691634acbc0ff916004808301926020929190829003018186803b15801561115d57600080fd5b505afa158015611171573d6000803e3d6000fd5b505050506040513d601f19601f820116820180604052508101906111959190612cb3565b9050811561131757601160009054906101000a90046001600160a01b03166001600160a01b031663150d5e8a6040518163ffffffff1660e01b815260040160206040518083038186803b1580156111eb57600080fd5b505afa1580156111ff573d6000803e3d6000fd5b505050506040513d601f19601f820116820180604052508101906112239190612cb3565b61122d9082612f94565b9050601160009054906101000a90046001600160a01b03166001600160a01b03166348d958456040518163ffffffff1660e01b815260040160206040518083038186803b15801561127d57600080fd5b505afa158015611291573d6000803e3d6000fd5b505050506040513d601f19601f820116820180604052508101906112b591906129a8565b6001600160a01b031663cde32f728989876040518463ffffffff1660e01b81526004016112e493929190612e64565b600060405180830381600087803b1580156112fe57600080fd5b505af1158015611312573d6000803e3d6000fd5b505050505b80611320610828565b6040516370a0823160e01b81523360048201526001600160a01b0391909116906370a082319060240160206040518083038186803b15801561136157600080fd5b505afa158015611375573d6000803e3d6000fd5b505050506040513d601f19601f820116820180604052508101906113999190612cb3565b10156114275760405162461bcd60e51b815260206004820152605160248201527f54484520455243323020544f4b454e20414d4f554e542053454e54204953204e60448201527f4f5420434f5252454354204f5220494e5355464649454e54204552433230205460648201527027a5a2a71020a6a7aaa72a1029a2a72a1760791b608482015260a401610532565b61142f610828565b6040516323b872dd60e01b8152336004820152306024820152604481018390526001600160a01b0391909116906323b872dd90606401602060405180830381600087803b15801561147f57600080fd5b505af1158015611493573d6000803e3d6000fd5b505050506040513d601f19601f820116820180604052508101906114b79190612b36565b506040805133815260208101839052908101859052606081018490524260808201524360a08201527f0d040c3ce7ae463310855c71637f68ee2df1db85b2621cc18492d78bd0c436169060c00160405180910390a15050505061151a6001600a55565b5050505050505050565b606061152f826116d5565b6000611539611e53565b905060008151116115595760405180602001604052806000815250611584565b8061156384611e62565b604051602001611574929190612db4565b6040516020818303038152906040525b9392505050565b61159361167b565b601180546001600160a01b0319166001600160a01b0392909216919091179055565b6115bd61167b565b6001600160a01b0381166116225760405162461bcd60e51b815260206004820152602660248201527f4f776e61626c653a206e6577206f776e657220697320746865207a65726f206160448201526564647265737360d01b6064820152608401610532565b610a9281611a35565b60006001600160e01b031982166380ac58cd60e01b148061165c57506001600160e01b03198216635b5e139f60e01b145b806104cf57506301ffc9a760e01b6001600160e01b03198316146104cf565b600b546001600160a01b03163314610d705760405162461bcd60e51b815260206004820181905260248201527f4f776e61626c653a2063616c6c6572206973206e6f7420746865206f776e65726044820152606401610532565b6000818152600260205260409020546001600160a01b0316610a925760405162461bcd60e51b8152602060048201526018602482015277115490cdcc8c4e881a5b9d985b1a59081d1bdad95b88125160421b6044820152606401610532565b600081815260046020526040902080546001600160a01b0319166001600160a01b038416908117909155819061176982610c78565b6001600160a01b03167f8c5be1e5ebec7d5bd14f71427d1e84f3dd0314c0f7b2291e5b200ac8c7c3b92560405160405180910390a45050565b6000806117ae83610c78565b9050806001600160a01b0316846001600160a01b031614806117f557506001600160a01b0380821660009081526005602090815260408083209388168352929052205460ff165b806118195750836001600160a01b031661180e84610623565b6001600160a01b0316145b949350505050565b826001600160a01b031661183482610c78565b6001600160a01b03161461185a5760405162461bcd60e51b815260040161053290612f4f565b6001600160a01b0382166118bc5760405162461bcd60e51b8152602060048201526024808201527f4552433732313a207472616e7366657220746f20746865207a65726f206164646044820152637265737360e01b6064820152608401610532565b6118c98383836001611ef7565b826001600160a01b03166118dc82610c78565b6001600160a01b0316146119025760405162461bcd60e51b815260040161053290612f4f565b600081815260046020908152604080832080546001600160a01b03199081169091556001600160a01b0387811680865260038552838620805460001901905590871680865283862080546001019055868652600290945282852080549092168417909155905184937fddf252ad1be2c89b69c2b068fc378daa952ba7f163c4a11628f55a4df523b3ef91a4505050565b600061199d82610c78565b90506119ad816000846001611ef7565b6119b682610c78565b600083815260046020908152604080832080546001600160a01b03199081169091556001600160a01b0385168085526003845282852080546000190190558785526002909352818420805490911690555192935084927fddf252ad1be2c89b69c2b068fc378daa952ba7f163c4a11628f55a4df523b3ef908390a45050565b600b80546001600160a01b038381166001600160a01b0319831681179093556040519116919082907f8be0079c531659141344cd1fd0a4f28419497f9722a3daafe3b4186f6b6457e090600090a35050565b816001600160a01b0316836001600160a01b03161415611ae95760405162461bcd60e51b815260206004820152601960248201527f4552433732313a20617070726f766520746f2063616c6c6572000000000000006044820152606401610532565b6001600160a01b03838116600081815260056020908152604080832094871680845294825291829020805460ff191686151590811790915591519182527f17307eab39ab6107e8899845ad3d59bd9653f200f220920489ca2b5937696c31910160405180910390a3505050565b611b61848484611821565b611b6d8484848461202b565b610dbe5760405162461bcd60e51b815260040161053290612efd565b6002600a541415611bdc5760405162461bcd60e51b815260206004820152601f60248201527f5265656e7472616e637947756172643a207265656e7472616e742063616c6c006044820152606401610532565b6002600a55565b81516020808401919091206011546040805163a720969f60e01b815290516000946001600160a01b039093169263a720969f9260048082019391829003018186803b158015611c3157600080fd5b505afa158015611c45573d6000803e3d6000fd5b505050506040513d601f19601f82011682018060405250810190611c6991906129a8565b6001600160a01b031661180e8285612138565b600080808080808080611c91898b018b612cf1565b975097509750975097509750509650336001600160a01b0316856001600160a01b0316148015611cc057503332145b611cf55760405162461bcd60e51b81526020600482015260066024820152651393c81093d560d21b6044820152606401610532565b828015611d0a5750306001600160a01b038516145b8015611d14575081155b8015611d1d5750805b8015611d295750600986115b611d6e5760405162461bcd60e51b815260206004820152601660248201527515121254c81254c8149154555254915108159053125160521b6044820152606401610532565b600087815260106020526040902054158015611d8a5750600087115b611dd65760405162461bcd60e51b815260206004820152601860248201527f414c5245414459204d4f44454c204944204d494e5445442e00000000000000006044820152606401610532565b600d5460ff1615611e295760405162461bcd60e51b815260206004820152601d60248201527f53414c45204953204e4f54204143544956452043555252454e544c592e0000006044820152606401610532565b5060019998505050505050505050565b610c74828260405180602001604052806000815250612192565b6060600c80546105a090612fef565b60606000611e6f836121c5565b600101905060008167ffffffffffffffff811115611e8f57611e8f61309d565b6040519080825280601f01601f191660200182016040528015611eb9576020820181803683370190505b5090508181016020015b600019016f181899199a1a9b1b9c1cb0b131b232b360811b600a86061a8153600a8504945084611ef257610bbe565b611ec3565b6001811115611f665760405162461bcd60e51b815260206004820152603560248201527f455243373231456e756d657261626c653a20636f6e7365637574697665207472604482015274185b9cd9995c9cc81b9bdd081cdd5c1c1bdc9d1959605a1b6064820152608401610532565b816001600160a01b038516611fc257611fbd81600880546000838152600960205260408120829055600182018355919091527ff3f7a9fe364faab93b216da50a3214154f22a0a2b415b23a84c8169e8b636ee30155565b611fe5565b836001600160a01b0316856001600160a01b031614611fe557611fe5858261229d565b6001600160a01b03841661200157611ffc8161233a565b612024565b846001600160a01b0316846001600160a01b0316146120245761202484826123e9565b5050505050565b60006001600160a01b0384163b1561212d57604051630a85bd0160e11b81526001600160a01b0385169063150b7a029061206f903390899088908890600401612de3565b602060405180830381600087803b15801561208957600080fd5b505af19250505080156120b9575060408051601f3d908101601f191682019092526120b691810190612b70565b60015b612113573d8080156120e7576040519150601f19603f3d011682016040523d82523d6000602084013e6120ec565b606091505b50805161210b5760405162461bcd60e51b815260040161053290612efd565b805181602001fd5b6001600160e01b031916630a85bd0160e11b149050611819565b506001949350505050565b6040517f19457468657265756d205369676e6564204d6573736167653a0a3332000000006020820152603c81018390526000908190605c01604051602081830303815290604052805190602001209050611819818461242d565b61219c8383612449565b6121a9600084848461202b565b61075b5760405162461bcd60e51b815260040161053290612efd565b60008072184f03e93ff9f4daa797ed6e38ed64bf6a1f0160401b83106122045772184f03e93ff9f4daa797ed6e38ed64bf6a1f0160401b830492506040015b6d04ee2d6d415b85acef81000000008310612230576d04ee2d6d415b85acef8100000000830492506020015b662386f26fc10000831061224e57662386f26fc10000830492506010015b6305f5e1008310612266576305f5e100830492506008015b612710831061227a57612710830492506004015b6064831061228c576064830492506002015b600a83106104cf5760010192915050565b600060016122aa84610cd8565b6122b49190612fac565b600083815260076020526040902054909150808214612307576001600160a01b03841660009081526006602090815260408083208584528252808320548484528184208190558352600790915290208190555b5060009182526007602090815260408084208490556001600160a01b039094168352600681528383209183525290812055565b60085460009061234c90600190612fac565b6000838152600960205260408120546008805493945090928490811061237457612374613087565b90600052602060002001549050806008838154811061239557612395613087565b60009182526020808320909101929092558281526009909152604080822084905585825281205560088054806123cd576123cd613071565b6001900381819060005260206000200160009055905550505050565b60006123f483610cd8565b6001600160a01b039093166000908152600660209081526040808320868452825280832085905593825260079052919091209190915550565b600080600061243c85856125e2565b91509150610bbe81612628565b6001600160a01b03821661249f5760405162461bcd60e51b815260206004820181905260248201527f4552433732313a206d696e7420746f20746865207a65726f20616464726573736044820152606401610532565b6000818152600260205260409020546001600160a01b0316156125045760405162461bcd60e51b815260206004820152601c60248201527f4552433732313a20746f6b656e20616c7265616479206d696e746564000000006044820152606401610532565b612512600083836001611ef7565b6000818152600260205260409020546001600160a01b0316156125775760405162461bcd60e51b815260206004820152601c60248201527f4552433732313a20746f6b656e20616c7265616479206d696e746564000000006044820152606401610532565b6001600160a01b038216600081815260036020908152604080832080546001019055848352600290915280822080546001600160a01b0319168417905551839291907fddf252ad1be2c89b69c2b068fc378daa952ba7f163c4a11628f55a4df523b3ef908290a45050565b6000808251604114156126195760208301516040840151606085015160001a61260d87828585612776565b94509450505050612621565b506000905060025b9250929050565b600081600481111561263c5761263c61305b565b14156126455750565b60018160048111156126595761265961305b565b14156126a75760405162461bcd60e51b815260206004820152601860248201527f45434453413a20696e76616c6964207369676e617475726500000000000000006044820152606401610532565b60028160048111156126bb576126bb61305b565b14156127095760405162461bcd60e51b815260206004820152601f60248201527f45434453413a20696e76616c6964207369676e6174757265206c656e677468006044820152606401610532565b600381600481111561271d5761271d61305b565b1415610a925760405162461bcd60e51b815260206004820152602260248201527f45434453413a20696e76616c6964207369676e6174757265202773272076616c604482015261756560f01b6064820152608401610532565b6000807f7fffffffffffffffffffffffffffffff5d576e7357a4501ddfe92f46681b20a08311156127ad5750600090506003612831565b6040805160008082526020820180845289905260ff881692820192909252606081018690526080810185905260019060a0016020604051602081039080840390855afa158015612801573d6000803e3d6000fd5b5050604051601f1901519150506001600160a01b03811661282a57600060019250925050612831565b9150600090505b94509492505050565b82805461284690612fef565b90600052602060002090601f01602090048101928261286857600085556128ae565b82601f1061288157805160ff19168380011785556128ae565b828001600101855582156128ae579182015b828111156128ae578251825591602001919060010190612893565b506128ba9291506128be565b5090565b5b808211156128ba57600081556001016128bf565b600067ffffffffffffffff808411156128ee576128ee61309d565b604051601f8501601f19908116603f011681019082821181831017156129165761291661309d565b8160405280935085815286868601111561292f57600080fd5b858560208301376000602087830101525050509392505050565b60008083601f84011261295b57600080fd5b50813567ffffffffffffffff81111561297357600080fd5b60208301915083602082850101111561262157600080fd5b60006020828403121561299d57600080fd5b8135611584816130b3565b6000602082840312156129ba57600080fd5b8151611584816130b3565b600080604083850312156129d857600080fd5b82356129e3816130b3565b915060208301356129f3816130b3565b809150509250929050565b600080600060608486031215612a1357600080fd5b8335612a1e816130b3565b92506020840135612a2e816130b3565b929592945050506040919091013590565b60008060008060808587031215612a5557600080fd5b8435612a60816130b3565b93506020850135612a70816130b3565b925060408501359150606085013567ffffffffffffffff811115612a9357600080fd5b8501601f81018713612aa457600080fd5b612ab3878235602084016128d3565b91505092959194509250565b60008060408385031215612ad257600080fd5b8235612add816130b3565b915060208301356129f3816130c8565b60008060408385031215612b0057600080fd5b8235612b0b816130b3565b946020939093013593505050565b600060208284031215612b2b57600080fd5b8135611584816130c8565b600060208284031215612b4857600080fd5b8151611584816130c8565b600060208284031215612b6557600080fd5b8135611584816130d6565b600060208284031215612b8257600080fd5b8151611584816130d6565b6000806000806000806000806080898b031215612ba957600080fd5b883567ffffffffffffffff80821115612bc157600080fd5b612bcd8c838d01612949565b909a50985060208b0135915080821115612be657600080fd5b612bf28c838d01612949565b909850965060408b0135915080821115612c0b57600080fd5b612c178c838d01612949565b909650945060608b0135915080821115612c3057600080fd5b50612c3d8b828c01612949565b999c989b5096995094979396929594505050565b600060208284031215612c6357600080fd5b813567ffffffffffffffff811115612c7a57600080fd5b8201601f81018413612c8b57600080fd5b611819848235602084016128d3565b600060208284031215612cac57600080fd5b5035919050565b600060208284031215612cc557600080fd5b5051919050565b60008060408385031215612cdf57600080fd5b8235915060208301356129f3816130c8565b600080600080600080600080610100898b031215612d0e57600080fd5b883597506020890135612d20816130c8565b9650604089013595506060890135612d37816130b3565b94506080890135612d47816130b3565b935060a0890135612d57816130c8565b925060c0890135612d67816130c8565b915060e0890135612d77816130c8565b809150509295985092959890939650565b60008151808452612da0816020860160208601612fc3565b601f01601f19169290920160200192915050565b60008351612dc6818460208801612fc3565b835190830190612dda818360208801612fc3565b01949350505050565b6001600160a01b0385811682528416602082015260408101839052608060608201819052600090612e1690830184612d88565b9695505050505050565b6020808252825182820181905260009190848201906040850190845b81811015612e5857835183529284019291840191600101612e3c565b50909695505050505050565b604081528260408201528284606083013760006060848301015260006060601f19601f8601168301019050826020830152949350505050565b6020815260006115846020830184612d88565b6020808252602d908201527f4552433732313a2063616c6c6572206973206e6f7420746f6b656e206f776e6560408201526c1c881bdc88185c1c1c9bdd9959609a1b606082015260800190565b60208082526032908201527f4552433732313a207472616e7366657220746f206e6f6e20455243373231526560408201527131b2b4bb32b91034b6b83632b6b2b73a32b960711b606082015260800190565b60208082526025908201527f4552433732313a207472616e736665722066726f6d20696e636f72726563742060408201526437bbb732b960d91b606082015260800190565b60008219821115612fa757612fa7613045565b500190565b600082821015612fbe57612fbe613045565b500390565b60005b83811015612fde578181015183820152602001612fc6565b83811115610dbe5750506000910152565b600181811c9082168061300357607f821691505b6020821081141561302457634e487b7160e01b600052602260045260246000fd5b50919050565b600060001982141561303e5761303e613045565b5060010190565b634e487b7160e01b600052601160045260246000fd5b634e487b7160e01b600052602160045260246000fd5b634e487b7160e01b600052603160045260246000fd5b634e487b7160e01b600052603260045260246000fd5b634e487b7160e01b600052604160045260246000fd5b6001600160a01b0381168114610a9257600080fd5b8015158114610a9257600080fd5b6001600160e01b031981168114610a9257600080fdfea2646970667358221220230650329cb18df087bf8b680d94f37985ae36ae51e8c8c4678c5259816e54f564736f6c63430008070033",
  "immutableReferences": {},
  "source": "// SPDX-License-Identifier: MIT\n\npragma solidity ^0.8.0;\n\nimport \"@openzeppelin/contracts/token/ERC721/extensions/ERC721Enumerable.sol\";\nimport \"@openzeppelin/contracts/utils/cryptography/ECDSA.sol\";\nimport \"@openzeppelin/contracts/utils/math/SafeMath.sol\";\nimport \"@openzeppelin/contracts/security/ReentrancyGuard.sol\";\nimport \"@openzeppelin/contracts/access/Ownable.sol\";\n\nimport \"./interface/IIntellModelNFT.sol\";\nimport \"./interface/IIntellSetting.sol\";\nimport \"./interface/IFactory.sol\";\n\ncontract IntellModelNFTContract is\n    ERC721Enumerable,\n    ReentrancyGuard,\n    IIntellModelNFT,\n    Ownable\n{\n    using Strings for uint256;\n    using SafeMath for uint256;\n\n    string _baseTokenURI;\n    bool private _paused = false;\n    mapping(uint256 => uint256) private _modelNFTMintedHistory;\n    mapping(uint256 => uint256) private _modelIdByTokenId;\n    mapping(uint256 => uint256) private _tokenIdByModelId;\n\n    IIntellSetting private _intellSetting;\n\n    event UpdateMintPrice(uint256 oldMintPrice, uint256 newMintPrice);\n    event UpdatePause(bool oldVal, bool newVal);\n    event UpdatePaymentToken(address oldPaymentToken, address newPaymentToken);\n    event NewModelMint(\n        address creator,\n        uint256 price,\n        uint256 tokenId,\n        uint256 modelId,\n        uint256 timestamp,\n        uint256 blocknumber\n    );\n\n    constructor(string memory baseURI, IIntellSetting _intellSetting_)\n        ERC721(\"IntellModelNFT\", \"IMN\")\n    {\n        setBaseURI(baseURI);\n        _intellSetting = _intellSetting_;\n    }\n\n    modifier onlyAdmin() {\n        require(\n            _intellSetting.admin() == _msgSender(),\n            \"Ownable: caller is not the admin\"\n        );\n        _;\n    }\n\n    function modelIdByTokenId(uint256 _tokenId)\n        external\n        view\n        override\n        returns (uint256)\n    {\n        return _modelIdByTokenId[_tokenId];\n    }\n\n    function setIntellSetting(IIntellSetting _intellSetting_)\n        external\n        onlyOwner\n    {\n        _intellSetting = _intellSetting_;\n    }\n\n    function intellSetting() external view returns (IIntellSetting) {\n        return _intellSetting;\n    }\n\n    function tokenIdByModelId(uint256 _modelId)\n        external\n        view\n        override\n        returns (uint256)\n    {\n        return _tokenIdByModelId[_modelId];\n    }\n\n    function modelNFTMintedHistory(uint256 _modelId)\n        external\n        view\n        override\n        returns (uint256)\n    {\n        return _modelNFTMintedHistory[_modelId];\n    }\n\n    function setBaseURI(string memory baseURI) public onlyOwner {\n        _baseTokenURI = baseURI;\n    }\n\n    function pause(bool val) public onlyOwner {\n        require(_paused != val, \"NEW STATE IDENTICAL TO OLD STATE\");\n        emit UpdatePause(_paused, val);\n        _paused = val;\n    }\n\n    function getPause() public view override returns (bool) {\n        return _paused;\n    }\n\n    function burn(uint256 tokenId) public virtual {\n        //solhint-disable-next-line max-line-length\n        require(\n            _isApprovedOrOwner(_msgSender(), tokenId),\n            \"ERC721: CALLER IS NOT TOKEN OWNER OR APPROVED\"\n        );\n        _burn(tokenId);\n    }\n\n    function paymentToken() public view override returns (IERC20) {\n        return IERC20(_intellSetting.intellTokenAddr());\n    }\n\n    function recoverSigner(bytes32 hash, bytes memory signature)\n        internal\n        pure\n        returns (address)\n    {\n        bytes32 messageDigest = keccak256(\n            abi.encodePacked(\"\\x19Ethereum Signed Message:\\n32\", hash)\n        );\n        return ECDSA.recover(messageDigest, signature);\n    }\n\n    function verifyMessage(bytes memory message, bytes memory signature)\n        internal\n        view\n        returns (bool)\n    {\n        bytes32 hash = keccak256(message);\n        return recoverSigner(hash, signature) == _intellSetting.truthHolder();\n    }\n\n    function checkStatus(bytes calldata statusMessage)\n        internal\n        view\n        returns (bool)\n    {\n        (\n            uint256 _MODEL_ID,\n            ,\n            uint256 _MODEL_PROGRESS_STATUS,\n            address _USER_ADDR,\n            address _INTELL_MODEL_NFT_CONTRACT_ADDR,\n            bool _VERIFIED_AS_CREATOR,\n            bool _USER_SUSPENDED,\n            bool _MODEL_UPLOADED\n        ) = abi.decode(\n                statusMessage,\n                (uint256, bool, uint256, address, address, bool, bool, bool)\n            );\n\n        require(_USER_ADDR == msg.sender && msg.sender == tx.origin, \"NO BOT\");\n        require(\n            _VERIFIED_AS_CREATOR &&\n                address(this) == _INTELL_MODEL_NFT_CONTRACT_ADDR &&\n                !_USER_SUSPENDED &&\n                _MODEL_UPLOADED &&\n                _MODEL_PROGRESS_STATUS > 9,\n            \"THIS IS REQUIRED VALID\"\n        );\n\n        require(\n            _tokenIdByModelId[_MODEL_ID] == 0 && _MODEL_ID > 0,\n            \"ALREADY MODEL ID MINTED.\"\n        );\n        require(!_paused, \"SALE IS NOT ACTIVE CURRENTLY.\");\n\n        return true;\n    }\n\n    function adopt(\n        bytes calldata statusMessage,\n        bytes calldata statusSignature,\n        bytes calldata shareMessage,\n        bytes calldata shareSignature\n    ) external nonReentrant {\n        require(\n            address(paymentToken()) != address(0),\n            \"SET PAYMENT TOKEN IN INTELLSETTING\"\n        );\n\n        require(\n            _intellSetting.factoryContractAddr() != address(0),\n            \"MUST SET FACTORY ADDRESS IN INTELL SETTING\"\n        );\n\n        uint256 nextTokenId = totalSupply() + 1;\n\n        require(\n            verifyMessage(statusMessage, statusSignature) &&\n                verifyMessage(shareMessage, shareSignature),\n            \"ONLY ACCEPT TRUTHHOLDER SIGNED MESSAGE\"\n        );\n\n        (uint256 _MODEL_ID, bool _HAS_SHARE) = abi.decode(\n            statusMessage,\n            (uint256, bool)\n        );\n\n        require(checkStatus(statusMessage), \"THE STATUS IS INVALID\");\n\n        _tokenIdByModelId[_MODEL_ID] = nextTokenId;\n        _modelIdByTokenId[nextTokenId] = _MODEL_ID;\n\n        _modelNFTMintedHistory[_MODEL_ID] = block.number;\n\n        _safeMint(msg.sender, nextTokenId);\n\n        uint256 paymentTokenAmount = _intellSetting.modelLaunchPrice();\n\n        if (_HAS_SHARE) {\n            paymentTokenAmount += _intellSetting.shareNFTLaunchPrice();\n            IFactory(_intellSetting.factoryContractAddr())\n                .createShareNFTContract(shareMessage, nextTokenId);\n        }\n\n        require(\n            paymentToken().balanceOf(msg.sender) >= paymentTokenAmount,\n            \"THE ERC20 TOKEN AMOUNT SENT IS NOT CORRECT OR INSUFFIENT ERC20 TOKEN AMOUNT SENT.\"\n        );\n\n        paymentToken().transferFrom(\n            msg.sender,\n            address(this),\n            paymentTokenAmount\n        );\n\n        emit NewModelMint(\n            msg.sender,\n            paymentTokenAmount,\n            nextTokenId,\n            _MODEL_ID,\n            block.timestamp,\n            block.number\n        );\n    }\n\n    function walletOfOwner(address _owner)\n        public\n        view\n        override\n        returns (uint256[] memory)\n    {\n        uint256 tokenCount = balanceOf(_owner);\n\n        uint256[] memory tokensId = new uint256[](tokenCount);\n        for (uint256 i; i < tokenCount; i++) {\n            tokensId[i] = tokenOfOwnerByIndex(_owner, i);\n        }\n        return tokensId;\n    }\n\n    function _baseURI() internal view virtual override returns (string memory) {\n        return _baseTokenURI;\n    }\n\n    function withdraw() external onlyAdmin {\n        paymentToken().transfer(\n            _msgSender(),\n            paymentToken().balanceOf(address(this))\n        );\n    }\n}\n",
  "sourcePath": "D:\\Projects\\US\\intell-truffle-deployer\\contracts\\02_IntellModelNFTContract.sol",
  "compiler": {
    "name": "solc",
    "version": "0.8.7+commit.e28d00a7.Emscripten.clang"
  },
  "schemaVersion": "3.4.11",
  "updatedAt": "2023-05-01T08:41:11.149Z",
  "networkType": "ethereum",
  "devdoc": {
    "kind": "dev",
    "methods": {
      "approve(address,uint256)": {
        "details": "See {IERC721-approve}."
      },
      "balanceOf(address)": {
        "details": "See {IERC721-balanceOf}."
      },
      "getApproved(uint256)": {
        "details": "See {IERC721-getApproved}."
      },
      "isApprovedForAll(address,address)": {
        "details": "See {IERC721-isApprovedForAll}."
      },
      "name()": {
        "details": "See {IERC721Metadata-name}."
      },
      "owner()": {
        "details": "Returns the address of the current owner."
      },
      "ownerOf(uint256)": {
        "details": "See {IERC721-ownerOf}."
      },
      "renounceOwnership()": {
        "details": "Leaves the contract without owner. It will not be possible to call `onlyOwner` functions anymore. Can only be called by the current owner. NOTE: Renouncing ownership will leave the contract without an owner, thereby removing any functionality that is only available to the owner."
      },
      "safeTransferFrom(address,address,uint256)": {
        "details": "See {IERC721-safeTransferFrom}."
      },
      "safeTransferFrom(address,address,uint256,bytes)": {
        "details": "See {IERC721-safeTransferFrom}."
      },
      "setApprovalForAll(address,bool)": {
        "details": "See {IERC721-setApprovalForAll}."
      },
      "supportsInterface(bytes4)": {
        "details": "See {IERC165-supportsInterface}."
      },
      "symbol()": {
        "details": "See {IERC721Metadata-symbol}."
      },
      "tokenByIndex(uint256)": {
        "details": "See {IERC721Enumerable-tokenByIndex}."
      },
      "tokenOfOwnerByIndex(address,uint256)": {
        "details": "See {IERC721Enumerable-tokenOfOwnerByIndex}."
      },
      "tokenURI(uint256)": {
        "details": "See {IERC721Metadata-tokenURI}."
      },
      "totalSupply()": {
        "details": "See {IERC721Enumerable-totalSupply}."
      },
      "transferFrom(address,address,uint256)": {
        "details": "See {IERC721-transferFrom}."
      },
      "transferOwnership(address)": {
        "details": "Transfers ownership of the contract to a new account (`newOwner`). Can only be called by the current owner."
      }
    },
    "version": 1
  },
  "userdoc": {
    "kind": "user",
    "methods": {},
    "version": 1
  }
}