{
  "contractName": "IntellFactoryContract",
  "abi": [
    {
      "inputs": [
        {
          "internalType": "contract IIntellSetting",
          "name": "_intellSetting_",
          "type": "address"
        },
        {
          "internalType": "address",
          "name": "_intellTokenAddr_",
          "type": "address"
        }
      ],
      "stateMutability": "nonpayable",
      "type": "constructor"
    },
    {
      "anonymous": false,
      "inputs": [
        {
          "indexed": true,
          "internalType": "uint256",
          "name": "tokenId",
          "type": "uint256"
        },
        {
          "indexed": false,
          "internalType": "address",
          "name": "investorNFT",
          "type": "address"
        }
      ],
      "name": "InvestorNFTCreated",
      "type": "event"
    },
    {
      "anonymous": false,
      "inputs": [
        {
          "indexed": true,
          "internalType": "address",
          "name": "previousOwner",
          "type": "address"
        },
        {
          "indexed": true,
          "internalType": "address",
          "name": "newOwner",
          "type": "address"
        }
      ],
      "name": "OwnershipTransferred",
      "type": "event"
    },
    {
      "inputs": [],
      "name": "INIT_CODE_PAIR_HASH",
      "outputs": [
        {
          "internalType": "bytes32",
          "name": "",
          "type": "bytes32"
        }
      ],
      "stateMutability": "view",
      "type": "function",
      "constant": true
    },
    {
      "inputs": [
        {
          "internalType": "uint256",
          "name": "",
          "type": "uint256"
        }
      ],
      "name": "allShareNFTAddrs",
      "outputs": [
        {
          "internalType": "address",
          "name": "",
          "type": "address"
        }
      ],
      "stateMutability": "view",
      "type": "function",
      "constant": true
    },
    {
      "inputs": [
        {
          "internalType": "address",
          "name": "",
          "type": "address"
        }
      ],
      "name": "enablePaymentTokenAddrs",
      "outputs": [
        {
          "internalType": "bool",
          "name": "",
          "type": "bool"
        }
      ],
      "stateMutability": "view",
      "type": "function",
      "constant": true
    },
    {
      "inputs": [
        {
          "internalType": "uint256",
          "name": "",
          "type": "uint256"
        }
      ],
      "name": "getShareNFTAddr",
      "outputs": [
        {
          "internalType": "address",
          "name": "",
          "type": "address"
        }
      ],
      "stateMutability": "view",
      "type": "function",
      "constant": true
    },
    {
      "inputs": [],
      "name": "owner",
      "outputs": [
        {
          "internalType": "address",
          "name": "",
          "type": "address"
        }
      ],
      "stateMutability": "view",
      "type": "function",
      "constant": true
    },
    {
      "inputs": [],
      "name": "renounceOwnership",
      "outputs": [],
      "stateMutability": "nonpayable",
      "type": "function"
    },
    {
      "inputs": [
        {
          "internalType": "address",
          "name": "newOwner",
          "type": "address"
        }
      ],
      "name": "transferOwnership",
      "outputs": [],
      "stateMutability": "nonpayable",
      "type": "function"
    },
    {
      "inputs": [
        {
          "internalType": "address",
          "name": "_newPaymentToken",
          "type": "address"
        },
        {
          "internalType": "bool",
          "name": "enable",
          "type": "bool"
        }
      ],
      "name": "setEnablePaymentTokenAddrs",
      "outputs": [],
      "stateMutability": "nonpayable",
      "type": "function"
    },
    {
      "inputs": [],
      "name": "intellSetting",
      "outputs": [
        {
          "internalType": "contract IIntellSetting",
          "name": "",
          "type": "address"
        }
      ],
      "stateMutability": "view",
      "type": "function",
      "constant": true
    },
    {
      "inputs": [
        {
          "internalType": "contract IIntellSetting",
          "name": "_intellSetting_",
          "type": "address"
        }
      ],
      "name": "setIntellSetting",
      "outputs": [],
      "stateMutability": "nonpayable",
      "type": "function"
    },
    {
      "inputs": [],
      "name": "shareLaunchPrice",
      "outputs": [
        {
          "internalType": "uint256",
          "name": "",
          "type": "uint256"
        }
      ],
      "stateMutability": "view",
      "type": "function",
      "constant": true
    },
    {
      "inputs": [],
      "name": "allShareNFTAddrsLength",
      "outputs": [
        {
          "internalType": "uint256",
          "name": "",
          "type": "uint256"
        }
      ],
      "stateMutability": "view",
      "type": "function",
      "constant": true
    },
    {
      "inputs": [
        {
          "internalType": "bytes",
          "name": "shareMessage",
          "type": "bytes"
        },
        {
          "internalType": "uint256",
          "name": "_INTELL_MODEL_NFT_TOKEN_ID",
          "type": "uint256"
        }
      ],
      "name": "createShareNFTContract",
      "outputs": [],
      "stateMutability": "nonpayable",
      "type": "function"
    }
  ],
  "bytecode": "0x608060405234801561001057600080fd5b506040516143b43803806143b483398101604081905261002f916100c3565b61003833610073565b600380546001600160a01b0319166001600160a01b03938416179055166000908152600460205260409020805460ff19166001179055610115565b600080546001600160a01b038381166001600160a01b0319831681178455604051919092169283917f8be0079c531659141344cd1fd0a4f28419497f9722a3daafe3b4186f6b6457e09190a35050565b600080604083850312156100d657600080fd5b82516100e1816100fd565b60208401519092506100f2816100fd565b809150509250929050565b6001600160a01b038116811461011257600080fd5b50565b614290806101246000396000f3fe60806040523480156200001157600080fd5b5060043610620000e05760003560e01c8063957311a51162000097578063cde32f72116200006e578063cde32f7214620001e5578063d237291814620001fc578063d3dc5a071462000206578063f2fde38b146200021d57600080fd5b8063957311a5146200018e5780639bf6ea4b14620001c5578063c120604714620001ce57600080fd5b8063370dd7f814620000e55780635855a25a146200012e578063715018a6146200014757806387bd0f5914620001535780638b8ea1bc14620001655780638da5cb5b146200017c575b600080fd5b62000111620000f636600462000b89565b6001602052600090815260409020546001600160a01b031681565b6040516001600160a01b0390911681526020015b60405180910390f35b6200013862000234565b60405190815260200162000125565b6200015162000282565b005b6003546001600160a01b031662000111565b620001516200017636600462000ac3565b6200029a565b6000546001600160a01b031662000111565b620001b46200019f366004620009fc565b60046020526000908152604090205460ff1681565b604051901515815260200162000125565b60025462000138565b62000111620001df36600462000b89565b620002cf565b62000151620001f636600462000b05565b620002fa565b62000138620007b7565b6200015162000217366004620009fc565b6200083d565b620001516200022e366004620009fc565b62000869565b604051620002456020820162000994565b601f1982820381018352601f90910116604081905262000269919060200162000beb565b6040516020818303038152906040528051906020012081565b6200028c620008e8565b62000298600062000944565b565b620002a4620008e8565b6001600160a01b03919091166000908152600460205260409020805460ff1916911515919091179055565b60028181548110620002e057600080fd5b6000918252602090912001546001600160a01b0316905081565b60035460408051630a73b61360e41b8152905133926001600160a01b03169163a73b6130916004808301926020929190829003018186803b1580156200033f57600080fd5b505afa15801562000354573d6000803e3d6000fd5b505050506040513d601f19601f820116820180604052508101906200037a919062000a23565b6001600160a01b0316148015620003915750333214155b620003ee5760405162461bcd60e51b815260206004820152602260248201527f4f776e61626c653a2063616c6c6572206973206e6f742074686520637265617460448201526137b960f11b60648201526084015b60405180910390fd5b60008060008480602001905181019062000409919062000a43565b6001600160a01b038316600090815260046020526040902054929550909350915060ff166200047b5760405162461bcd60e51b815260206004820152601b60248201527f44495341424c45442054484953205041594d454e5420544f4b454e00000000006044820152606401620003e5565b60035460408051630a73b61360e41b815290516000926001600160a01b03169163a73b6130916004808301926020929190829003018186803b158015620004c157600080fd5b505afa158015620004d6573d6000803e3d6000fd5b505050506040513d601f19601f82011682018060405250810190620004fc919062000a23565b6001600160a01b031614156200057b5760405162461bcd60e51b815260206004820152603f60248201527f4e4545445320544f2053454e5420534d41525420494e5445474c4c4947454e4360448201527f452045584348414e4745204e465420434f4e54524143542041444452455353006064820152608401620003e5565b6000848152600160205260409020546001600160a01b031615620005f65760405162461bcd60e51b815260206004820152602b60248201527f54484520494e54454c4c4947454e43452045584348414e47453a20534841524560448201526a5f4e46545f45584953545360a81b6064820152608401620003e5565b6000825111801562000609575060008151115b620006575760405162461bcd60e51b815260206004820152601c60248201527f544845204e414d4520262053594d424f4c20495320494e56414c4944000000006044820152606401620003e5565b600354604051600091849184916001600160a01b031690620006799062000994565b620006879392919062000c2d565b604051809103906000f080158015620006a4573d6000803e3d6000fd5b506040516337af641560e11b81529091506001600160a01b03821690636f5ec82a90620006d8908990899060040162000c09565b600060405180830381600087803b158015620006f357600080fd5b505af115801562000708573d6000803e3d6000fd5b50506040516001600160a01b03841681528792507fc2830e9eb7155b7ffc3506b6baebe7a97c78f2c3e24de14541f57eaaa977e4c8915060200160405180910390a26000948552600160208190526040862080546001600160a01b039093166001600160a01b031993841681179091556002805492830181559096527f405787fa12a823e0f2b7631cc41b3ba8828b3321ca811111fa75cd3aa3bb5ace01805490911690941790935550505050565b60035460408051630a86af4560e11b815290516000926001600160a01b03169163150d5e8a916004808301926020929190829003018186803b158015620007fd57600080fd5b505afa15801562000812573d6000803e3d6000fd5b505050506040513d601f19601f8201168201806040525081019062000838919062000ba3565b905090565b62000847620008e8565b600380546001600160a01b0319166001600160a01b0392909216919091179055565b62000873620008e8565b6001600160a01b038116620008da5760405162461bcd60e51b815260206004820152602660248201527f4f776e61626c653a206e6577206f776e657220697320746865207a65726f206160448201526564647265737360d01b6064820152608401620003e5565b620008e58162000944565b50565b6000546001600160a01b03163314620002985760405162461bcd60e51b815260206004820181905260248201527f4f776e61626c653a2063616c6c6572206973206e6f7420746865206f776e65726044820152606401620003e5565b600080546001600160a01b038381166001600160a01b0319831681178455604051919092169283917f8be0079c531659141344cd1fd0a4f28419497f9722a3daafe3b4186f6b6457e09190a35050565b61352d8062000d2e83390190565b600082601f830112620009b457600080fd5b8151620009cb620009c58262000ca3565b62000c6f565b818152846020838601011115620009e157600080fd5b620009f482602083016020870162000cce565b949350505050565b60006020828403121562000a0f57600080fd5b813562000a1c8162000d17565b9392505050565b60006020828403121562000a3657600080fd5b815162000a1c8162000d17565b60008060006060848603121562000a5957600080fd5b835162000a668162000d17565b602085015190935067ffffffffffffffff8082111562000a8557600080fd5b62000a9387838801620009a2565b9350604086015191508082111562000aaa57600080fd5b5062000ab986828701620009a2565b9150509250925092565b6000806040838503121562000ad757600080fd5b823562000ae48162000d17565b91506020830135801515811462000afa57600080fd5b809150509250929050565b6000806040838503121562000b1957600080fd5b823567ffffffffffffffff81111562000b3157600080fd5b8301601f8101851362000b4357600080fd5b803562000b54620009c58262000ca3565b81815286602083850101111562000b6a57600080fd5b8160208401602083013760006020928201830152969401359450505050565b60006020828403121562000b9c57600080fd5b5035919050565b60006020828403121562000bb657600080fd5b5051919050565b6000815180845262000bd781602086016020860162000cce565b601f01601f19169290920160200192915050565b6000825162000bff81846020870162000cce565b9190910192915050565b60408152600062000c1e604083018562000bbd565b90508260208301529392505050565b60608152600062000c42606083018662000bbd565b828103602084015262000c56818662000bbd565b91505060018060a01b0383166040830152949350505050565b604051601f8201601f1916810167ffffffffffffffff8111828210171562000c9b5762000c9b62000d01565b604052919050565b600067ffffffffffffffff82111562000cc05762000cc062000d01565b50601f01601f191660200190565b60005b8381101562000ceb57818101518382015260200162000cd1565b8381111562000cfb576000848401525b50505050565b634e487b7160e01b600052604160045260246000fd5b6001600160a01b0381168114620008e557600080fdfe6080604052600c805460ff191690556015805462ffff00191690553480156200002757600080fd5b506040516200352d3803806200352d8339810160408190526200004a916200032b565b82518390839062000063906000906020850190620001a7565b50805162000079906001906020840190620001a7565b50506001600a5550601580546301000000600160b81b03191663010000006001600160a01b03841602179055620000ad3390565b6001600160a01b0316816001600160a01b03166348d958456040518163ffffffff1660e01b815260040160206040518083038186803b158015620000f057600080fd5b505afa15801562000105573d6000803e3d6000fd5b505050506040513d601f19601f820116820180604052508101906200012b919062000304565b6001600160a01b0316148015620001425750333214155b6200019e5760405162461bcd60e51b815260206004820152602260248201527f4f776e61626c653a2063616c6c6572206973206e6f742074686520666163746f604482015261727960f01b606482015260840160405180910390fd5b50505062000417565b828054620001b590620003ab565b90600052602060002090601f016020900481019282620001d9576000855562000224565b82601f10620001f457805160ff191683800117855562000224565b8280016001018555821562000224579182015b828111156200022457825182559160200191906001019062000207565b506200023292915062000236565b5090565b5b8082111562000232576000815560010162000237565b600082601f8301126200025f57600080fd5b81516001600160401b03808211156200027c576200027c620003e8565b604051601f8301601f19908116603f01168101908282118183101715620002a757620002a7620003e8565b81604052838152602092508683858801011115620002c457600080fd5b600091505b83821015620002e85785820183015181830184015290820190620002c9565b83821115620002fa5760008385830101525b9695505050505050565b6000602082840312156200031757600080fd5b81516200032481620003fe565b9392505050565b6000806000606084860312156200034157600080fd5b83516001600160401b03808211156200035957600080fd5b62000367878388016200024d565b945060208601519150808211156200037e57600080fd5b506200038d868287016200024d565b9250506040840151620003a081620003fe565b809150509250925092565b600181811c90821680620003c057607f821691505b60208210811415620003e257634e487b7160e01b600052602260045260246000fd5b50919050565b634e487b7160e01b600052604160045260246000fd5b6001600160a01b03811681146200041457600080fd5b50565b61310680620004276000396000f3fe608060405234801561001057600080fd5b50600436106102325760003560e01c806355f804b311610130578063af78feef116100b8578063d445b9781161007c578063d445b9781461048e578063dd7cbcb9146104ae578063e3587433146104bb578063e985e9c5146104ce578063ec3cdb591461050a57600080fd5b8063af78feef14610444578063b88d4fde14610456578063c002d23d14610469578063c87b56dd14610472578063cfa07f781461048557600080fd5b806370a08231116100ff57806370a08231146103f357806387bd0f59146104065780638ecad7211461042057806395d89b4114610429578063a22cb4651461043157600080fd5b806355f804b3146103b15780636352211e146103c45780636f5ec82a146103d7578063707e706b146103ea57600080fd5b80632377d6f4116101be57806342842e0e1161018257806342842e0e14610345578063438b6300146103585780634acf9872146103785780634f6ccce71461038b57806350fbe2d91461039e57600080fd5b80632377d6f4146102f057806323b872dd146103035780632f5c6082146103165780632f745c591461032957806333039d3d1461033c57600080fd5b8063081812fc11610205578063081812fc1461029e578063095ea7b3146102b157806316154862146102c457806316c61ccc146102db57806318160ddd146102e857600080fd5b806301ffc9a71461023757806302d05d3f1461025f57806306fdde031461027f57806307da68f514610294575b600080fd5b61024a610245366004612bf8565b61051d565b60405190151581526020015b60405180910390f35b610267610548565b6040516001600160a01b039091168152602001610256565b610287610654565b6040516102569190612e2d565b61029c6106e6565b005b6102676102ac366004612d1f565b610756565b61029c6102bf366004612b74565b61077d565b6102cd600e5481565b604051908152602001610256565b600c5461024a9060ff1681565b6008546102cd565b60155461024a9062010000900460ff1681565b61029c610311366004612a85565b610893565b61029c610324366004612c32565b6108c4565b6102cd610337366004612b74565b610f04565b6102cd600d5481565b61029c610353366004612a85565b610f9a565b61036b6103663660046128ac565b610fb5565b6040516102569190612de9565b601154610267906001600160a01b031681565b6102cd610399366004612d1f565b611057565b61029c6103ac366004612c32565b6110ea565b61029c6103bf366004612cea565b6113bd565b6102676103d2366004612d1f565b611403565b61029c6103e5366004612c9e565b611463565b6102cd60105481565b6102cd6104013660046128ac565b61161e565b60155461026790630100000090046001600160a01b031681565b6102cd600f5481565b6102876116a4565b61029c61043f366004612b46565b6116b3565b60155461024a90610100900460ff1681565b61029c610464366004612ac6565b6116be565b6102cd60125481565b610287610480366004612d1f565b6116f0565b6102cd60145481565b6102cd61049c3660046128ac565b60166020526000908152604090205481565b60155461024a9060ff1681565b61029c6104c9366004612ba0565b611757565b61024a6104dc366004612a4c565b6001600160a01b03918216600090815260056020908152604080832093909416825291909152205460ff1690565b601354610267906001600160a01b031681565b60006001600160e01b0319821663780e9d6360e01b148061054257506105428261181c565b92915050565b6000601560039054906101000a90046001600160a01b03166001600160a01b031663a73b61306040518163ffffffff1660e01b815260040160206040518083038186803b15801561059857600080fd5b505afa1580156105ac573d6000803e3d6000fd5b505050506040513d601f19601f820116820180604052508101906105d091906128c9565b6001600160a01b0316636352211e6010546040518263ffffffff1660e01b81526004016105ff91815260200190565b60206040518083038186803b15801561061757600080fd5b505afa15801561062b573d6000803e3d6000fd5b505050506040513d601f19601f8201168201806040525081019061064f91906128c9565b905090565b60606000805461066390612fd3565b80601f016020809104026020016040519081016040528092919081815260200182805461068f90612fd3565b80156106dc5780601f106106b1576101008083540402835291602001916106dc565b820191906000526020600020905b8154815290600101906020018083116106bf57829003601f168201915b5050505050905090565b336106ef610548565b6001600160a01b03161461071e5760405162461bcd60e51b815260040161071590612f24565b60405180910390fd5b600c805460ff191660011790556040517f7acc84e34091ae817647a4c49116f5cc07f319078ba80f8f5fde37ea7e25cbd690600090a1565b60006107618261186c565b506000908152600460205260409020546001600160a01b031690565b600061078882611403565b9050806001600160a01b0316836001600160a01b031614156107f65760405162461bcd60e51b815260206004820152602160248201527f4552433732313a20617070726f76616c20746f2063757272656e74206f776e656044820152603960f91b6064820152608401610715565b336001600160a01b0382161480610812575061081281336104dc565b6108845760405162461bcd60e51b815260206004820152603d60248201527f4552433732313a20617070726f76652063616c6c6572206973206e6f7420746f60448201527f6b656e206f776e6572206f7220617070726f76656420666f7220616c6c0000006064820152608401610715565b61088e83836118ce565b505050565b61089d338261193c565b6108b95760405162461bcd60e51b815260040161071590612e40565b61088e8383836119bb565b6108cc611b2c565b61093f84848080601f01602080910402602001604051908101604052809392919081815260200183838082843760009201919091525050604080516020601f88018190048102820181019092528681529250869150859081908401838280828437600092019190915250611b8692505050565b6109775760405162461bcd60e51b815260206004820152600960248201526827279029a4a3a722a960b91b6044820152606401610715565b6000808080808080808061098d8c8e018e6128e6565b985098509850985098509850985098509850601560029054906101000a900460ff1615610a115760405162461bcd60e51b815260206004820152602c60248201527f5448495320494e54454c4c205348415245204e465420434f4c4c454354494f4e60448201526b0815d054c8109313d0d2d15160a21b6064820152608401610715565b60155460ff168015610a205750845b8015610a295750865b80610a40575060155460ff16158015610a40575084155b610a7e5760405162461bcd60e51b815260206004820152600f60248201526e12d650c81a5cc81c995c5d5a5c9959608a1b6044820152606401610715565b85158015610a8a575082155b8015610a94575083155b8015610aa1575060105481145b8015610ab557506001600160a01b03881630145b610b015760405162461bcd60e51b815260206004820152601b60248201527f54484520555345522050524f46494c4520495320494e56414c494400000000006044820152606401610715565b426014541015610b465760405162461bcd60e51b815260206004820152601060248201526f14d053114815d054c81156141254915160821b6044820152606401610715565b6000610b5160085490565b600c5490915060ff1615610b965760405162461bcd60e51b815260206004820152600c60248201526b14d053114814d513d414115160a21b6044820152606401610715565b600f54831115610be85760405162461bcd60e51b815260206004820152601f60248201527f4d494e54494e4720574f554c4420455843454544204d415820535550504c59006044820152606401610715565b600d54610bf58483612f59565b1115610c435760405162461bcd60e51b815260206004820152601f60248201527f4d494e54494e4720574f554c4420455843454544204d415820535550504c59006044820152606401610715565b600e5433600090815260166020526040902054610c609085612f59565b1115610ccd5760405162461bcd60e51b815260206004820152603660248201527f53454e44455220414444524553532043414e4e4f54204d494e54204d4f5245206044820152752a2420a71026a0ac2fa6a4a72a2fa822a92fa0a2222960511b6064820152608401610715565b3233148015610ce45750336001600160a01b038b16145b610d195760405162461bcd60e51b81526020600482015260066024820152651393c81093d560d21b6044820152606401610715565b82601254610d279190612f71565b6013546040516370a0823160e01b81523360048201526001600160a01b03909116906370a082319060240160206040518083038186803b158015610d6a57600080fd5b505afa158015610d7e573d6000803e3d6000fd5b505050506040513d601f19601f82011682018060405250810190610da29190612d38565b1015610de75760405162461bcd60e51b8152602060048201526014602482015273494e53554646494349454e542042414c414e434560601b6044820152606401610715565b3360009081526016602052604081208054859290610e06908490612f59565b90915550506013546012546001600160a01b03909116906323b872dd9033903090610e32908890612f71565b6040516001600160e01b031960e086901b1681526001600160a01b0393841660048201529290911660248301526044820152606401602060405180830381600087803b158015610e8157600080fd5b505af1158015610e95573d6000803e3d6000fd5b505050506040513d601f19601f82011682018060405250810190610eb99190612bbd565b5060015b838111610ee957610ed733610ed28385612f59565b611c2c565b80610ee18161300e565b915050610ebd565b5050505050505050505050610efe6001600a55565b50505050565b6000610f0f8361161e565b8210610f715760405162461bcd60e51b815260206004820152602b60248201527f455243373231456e756d657261626c653a206f776e657220696e646578206f7560448201526a74206f6620626f756e647360a81b6064820152608401610715565b506001600160a01b03919091166000908152600660209081526040808320938352929052205490565b61088e838383604051806020016040528060008152506116be565b60606000610fc28361161e565b905060008167ffffffffffffffff811115610fdf57610fdf613081565b604051908082528060200260200182016040528015611008578160200160208202803683370190505b50905060005b8281101561104f576110208582610f04565b8282815181106110325761103261306b565b6020908102919091010152806110478161300e565b91505061100e565b509392505050565b600061106260085490565b82106110c55760405162461bcd60e51b815260206004820152602c60248201527f455243373231456e756d657261626c653a20676c6f62616c20696e646578206f60448201526b7574206f6620626f756e647360a01b6064820152608401610715565b600882815481106110d8576110d861306b565b90600052602060002001549050919050565b336110f3610548565b6001600160a01b0316146111195760405162461bcd60e51b815260040161071590612f24565b426014541061115d5760405162461bcd60e51b815260206004820152601060248201526f1393d5081192539254d211510816515560821b6044820152606401610715565b6111d084848080601f01602080910402602001604051908101604052809392919081815260200183838082843760009201919091525050604080516020601f88018190048102820181019092528681529250869150859081908401838280828437600092019190915250611b8692505050565b6112085760405162461bcd60e51b815260206004820152600960248201526827279029a4a3a722a960b91b6044820152606401610715565b60008061121785870187612bda565b91509150818015611240575061122b610548565b6001600160a01b0316816001600160a01b0316145b61128c5760405162461bcd60e51b815260206004820152601860248201527f54484520434f4e444954494f4e20495320494e56414c494400000000000000006044820152606401610715565b6013546040516370a0823160e01b81523060048201526000916001600160a01b0316906370a082319060240160206040518083038186803b1580156112d057600080fd5b505afa1580156112e4573d6000803e3d6000fd5b505050506040513d601f19601f820116820180604052508101906113089190612d38565b6013549091506001600160a01b031663a9059cbb611324610548565b6040516001600160e01b031960e084901b1681526001600160a01b03909116600482015260248101849052604401602060405180830381600087803b15801561136c57600080fd5b505af1158015611380573d6000803e3d6000fd5b505050506040513d601f19601f820116820180604052508101906113a49190612bbd565b50506015805461ff001916610100179055505050505050565b336113c6610548565b6001600160a01b0316146113ec5760405162461bcd60e51b815260040161071590612f24565b80516113ff90600b90602084019061273b565b5050565b6000818152600260205260408120546001600160a01b0316806105425760405162461bcd60e51b8152602060048201526018602482015277115490cdcc8c4e881a5b9d985b1a59081d1bdad95b88125160421b6044820152606401610715565b601554604080516348d9584560e01b815290513392630100000090046001600160a01b0316916348d95845916004808301926020929190829003018186803b1580156114ae57600080fd5b505afa1580156114c2573d6000803e3d6000fd5b505050506040513d601f19601f820116820180604052508101906114e691906128c9565b6001600160a01b03161480156114fc5750333214155b6115185760405162461bcd60e51b815260040161071590612f24565b600080808080808061152c898b018b612990565b9850985098509850985098505050965060008611801561154c5750600085115b80156115585750600084115b80156115645750600083115b8015611572575062278d0082115b6115b35760405162461bcd60e51b8152602060048201526012602482015271494e56414c494420494e505554204441544160701b6044820152606401610715565b600d8690556012859055600e839055600f8490556115d18242611c46565b6014556010979097555050601380546001600160a01b039095166001600160a01b03199095169490941790935550506015805492151560ff1993841617905550600c805490911690555050565b60006001600160a01b0382166116885760405162461bcd60e51b815260206004820152602960248201527f4552433732313a2061646472657373207a65726f206973206e6f7420612076616044820152683634b21037bbb732b960b91b6064820152608401610715565b506001600160a01b031660009081526003602052604090205490565b60606001805461066390612fd3565b6113ff338383611c52565b6116c8338361193c565b6116e45760405162461bcd60e51b815260040161071590612e40565b610efe84848484611d21565b60606116fb8261186c565b6000611705611d54565b905060008151116117255760405180602001604052806000815250611750565b8061172f84611d63565b604051602001611740929190612d7d565b6040516020818303038152906040525b9392505050565b601554604080516303e1469160e61b815290513392630100000090046001600160a01b03169163f851a440916004808301926020929190829003018186803b1580156117a257600080fd5b505afa1580156117b6573d6000803e3d6000fd5b505050506040513d601f19601f820116820180604052508101906117da91906128c9565b6001600160a01b0316146118005760405162461bcd60e51b815260040161071590612f24565b60158054911515620100000262ff000019909216919091179055565b60006001600160e01b031982166380ac58cd60e01b148061184d57506001600160e01b03198216635b5e139f60e01b145b8061054257506301ffc9a760e01b6001600160e01b0319831614610542565b6000818152600260205260409020546001600160a01b03166118cb5760405162461bcd60e51b8152602060048201526018602482015277115490cdcc8c4e881a5b9d985b1a59081d1bdad95b88125160421b6044820152606401610715565b50565b600081815260046020526040902080546001600160a01b0319166001600160a01b038416908117909155819061190382611403565b6001600160a01b03167f8c5be1e5ebec7d5bd14f71427d1e84f3dd0314c0f7b2291e5b200ac8c7c3b92560405160405180910390a45050565b60008061194883611403565b9050806001600160a01b0316846001600160a01b0316148061198f57506001600160a01b0380821660009081526005602090815260408083209388168352929052205460ff165b806119b35750836001600160a01b03166119a884610756565b6001600160a01b0316145b949350505050565b826001600160a01b03166119ce82611403565b6001600160a01b0316146119f45760405162461bcd60e51b815260040161071590612edf565b6001600160a01b038216611a565760405162461bcd60e51b8152602060048201526024808201527f4552433732313a207472616e7366657220746f20746865207a65726f206164646044820152637265737360e01b6064820152608401610715565b611a638383836001611df8565b826001600160a01b0316611a7682611403565b6001600160a01b031614611a9c5760405162461bcd60e51b815260040161071590612edf565b600081815260046020908152604080832080546001600160a01b03199081169091556001600160a01b0387811680865260038552838620805460001901905590871680865283862080546001019055868652600290945282852080549092168417909155905184937fddf252ad1be2c89b69c2b068fc378daa952ba7f163c4a11628f55a4df523b3ef91a4505050565b6002600a541415611b7f5760405162461bcd60e51b815260206004820152601f60248201527f5265656e7472616e637947756172643a207265656e7472616e742063616c6c006044820152606401610715565b6002600a55565b60008083805190602001209050601560039054906101000a90046001600160a01b03166001600160a01b031663a720969f6040518163ffffffff1660e01b815260040160206040518083038186803b158015611be157600080fd5b505afa158015611bf5573d6000803e3d6000fd5b505050506040513d601f19601f82011682018060405250810190611c1991906128c9565b6001600160a01b03166119a88285611f2c565b6113ff828260405180602001604052806000815250611f86565b60006117508284612f59565b816001600160a01b0316836001600160a01b03161415611cb45760405162461bcd60e51b815260206004820152601960248201527f4552433732313a20617070726f766520746f2063616c6c6572000000000000006044820152606401610715565b6001600160a01b03838116600081815260056020908152604080832094871680845294825291829020805460ff191686151590811790915591519182527f17307eab39ab6107e8899845ad3d59bd9653f200f220920489ca2b5937696c31910160405180910390a3505050565b611d2c8484846119bb565b611d3884848484611fb9565b610efe5760405162461bcd60e51b815260040161071590612e8d565b6060600b805461066390612fd3565b60606000611d70836120c6565b600101905060008167ffffffffffffffff811115611d9057611d90613081565b6040519080825280601f01601f191660200182016040528015611dba576020820181803683370190505b5090508181016020015b600019016f181899199a1a9b1b9c1cb0b131b232b360811b600a86061a8153600a8504945084611df35761104f565b611dc4565b6001811115611e675760405162461bcd60e51b815260206004820152603560248201527f455243373231456e756d657261626c653a20636f6e7365637574697665207472604482015274185b9cd9995c9cc81b9bdd081cdd5c1c1bdc9d1959605a1b6064820152608401610715565b816001600160a01b038516611ec357611ebe81600880546000838152600960205260408120829055600182018355919091527ff3f7a9fe364faab93b216da50a3214154f22a0a2b415b23a84c8169e8b636ee30155565b611ee6565b836001600160a01b0316856001600160a01b031614611ee657611ee6858261219e565b6001600160a01b038416611f0257611efd8161223b565b611f25565b846001600160a01b0316846001600160a01b031614611f2557611f2584826122ea565b5050505050565b6040517f19457468657265756d205369676e6564204d6573736167653a0a3332000000006020820152603c81018390526000908190605c016040516020818303038152906040528051906020012090506119b3818461232e565b611f90838361234a565b611f9d6000848484611fb9565b61088e5760405162461bcd60e51b815260040161071590612e8d565b60006001600160a01b0384163b156120bb57604051630a85bd0160e11b81526001600160a01b0385169063150b7a0290611ffd903390899088908890600401612dac565b602060405180830381600087803b15801561201757600080fd5b505af1925050508015612047575060408051601f3d908101601f1916820190925261204491810190612c15565b60015b6120a1573d808015612075576040519150601f19603f3d011682016040523d82523d6000602084013e61207a565b606091505b5080516120995760405162461bcd60e51b815260040161071590612e8d565b805181602001fd5b6001600160e01b031916630a85bd0160e11b1490506119b3565b506001949350505050565b60008072184f03e93ff9f4daa797ed6e38ed64bf6a1f0160401b83106121055772184f03e93ff9f4daa797ed6e38ed64bf6a1f0160401b830492506040015b6d04ee2d6d415b85acef81000000008310612131576d04ee2d6d415b85acef8100000000830492506020015b662386f26fc10000831061214f57662386f26fc10000830492506010015b6305f5e1008310612167576305f5e100830492506008015b612710831061217b57612710830492506004015b6064831061218d576064830492506002015b600a83106105425760010192915050565b600060016121ab8461161e565b6121b59190612f90565b600083815260076020526040902054909150808214612208576001600160a01b03841660009081526006602090815260408083208584528252808320548484528184208190558352600790915290208190555b5060009182526007602090815260408084208490556001600160a01b039094168352600681528383209183525290812055565b60085460009061224d90600190612f90565b600083815260096020526040812054600880549394509092849081106122755761227561306b565b9060005260206000200154905080600883815481106122965761229661306b565b60009182526020808320909101929092558281526009909152604080822084905585825281205560088054806122ce576122ce613055565b6001900381819060005260206000200160009055905550505050565b60006122f58361161e565b6001600160a01b039093166000908152600660209081526040808320868452825280832085905593825260079052919091209190915550565b600080600061233d85856124e3565b9150915061104f81612529565b6001600160a01b0382166123a05760405162461bcd60e51b815260206004820181905260248201527f4552433732313a206d696e7420746f20746865207a65726f20616464726573736044820152606401610715565b6000818152600260205260409020546001600160a01b0316156124055760405162461bcd60e51b815260206004820152601c60248201527f4552433732313a20746f6b656e20616c7265616479206d696e746564000000006044820152606401610715565b612413600083836001611df8565b6000818152600260205260409020546001600160a01b0316156124785760405162461bcd60e51b815260206004820152601c60248201527f4552433732313a20746f6b656e20616c7265616479206d696e746564000000006044820152606401610715565b6001600160a01b038216600081815260036020908152604080832080546001019055848352600290915280822080546001600160a01b0319168417905551839291907fddf252ad1be2c89b69c2b068fc378daa952ba7f163c4a11628f55a4df523b3ef908290a45050565b60008082516041141561251a5760208301516040840151606085015160001a61250e87828585612677565b94509450505050612522565b506000905060025b9250929050565b600081600481111561253d5761253d61303f565b14156125465750565b600181600481111561255a5761255a61303f565b14156125a85760405162461bcd60e51b815260206004820152601860248201527f45434453413a20696e76616c6964207369676e617475726500000000000000006044820152606401610715565b60028160048111156125bc576125bc61303f565b141561260a5760405162461bcd60e51b815260206004820152601f60248201527f45434453413a20696e76616c6964207369676e6174757265206c656e677468006044820152606401610715565b600381600481111561261e5761261e61303f565b14156118cb5760405162461bcd60e51b815260206004820152602260248201527f45434453413a20696e76616c6964207369676e6174757265202773272076616c604482015261756560f01b6064820152608401610715565b6000807f7fffffffffffffffffffffffffffffff5d576e7357a4501ddfe92f46681b20a08311156126ae5750600090506003612732565b6040805160008082526020820180845289905260ff881692820192909252606081018690526080810185905260019060a0016020604051602081039080840390855afa158015612702573d6000803e3d6000fd5b5050604051601f1901519150506001600160a01b03811661272b57600060019250925050612732565b9150600090505b94509492505050565b82805461274790612fd3565b90600052602060002090601f01602090048101928261276957600085556127af565b82601f1061278257805160ff19168380011785556127af565b828001600101855582156127af579182015b828111156127af578251825591602001919060010190612794565b506127bb9291506127bf565b5090565b5b808211156127bb57600081556001016127c0565b600067ffffffffffffffff808411156127ef576127ef613081565b604051601f8501601f19908116603f0116810190828211818310171561281757612817613081565b8160405280935085815286868601111561283057600080fd5b858560208301376000602087830101525050509392505050565b60008083601f84011261285c57600080fd5b50813567ffffffffffffffff81111561287457600080fd5b60208301915083602082850101111561252257600080fd5b600082601f83011261289d57600080fd5b611750838335602085016127d4565b6000602082840312156128be57600080fd5b813561175081613097565b6000602082840312156128db57600080fd5b815161175081613097565b60008060008060008060008060006101208a8c03121561290557600080fd5b893561291081613097565b985060208a013561292081613097565b975060408a0135612930816130ac565b965060608a0135612940816130ac565b955060808a0135612950816130ac565b945060a08a0135612960816130ac565b935060c08a0135612970816130ac565b8093505060e08a013591506101008a013590509295985092959850929598565b60008060008060008060008060006101208a8c0312156129af57600080fd5b89356129ba81613097565b985060208a013567ffffffffffffffff808211156129d757600080fd5b6129e38d838e0161288c565b995060408c01359150808211156129f957600080fd5b50612a068c828d0161288c565b97505060608a0135955060808a0135945060a08a0135935060c08a0135925060e08a013591506101008a0135612a3b816130ac565b809150509295985092959850929598565b60008060408385031215612a5f57600080fd5b8235612a6a81613097565b91506020830135612a7a81613097565b809150509250929050565b600080600060608486031215612a9a57600080fd5b8335612aa581613097565b92506020840135612ab581613097565b929592945050506040919091013590565b60008060008060808587031215612adc57600080fd5b8435612ae781613097565b93506020850135612af781613097565b925060408501359150606085013567ffffffffffffffff811115612b1a57600080fd5b8501601f81018713612b2b57600080fd5b612b3a878235602084016127d4565b91505092959194509250565b60008060408385031215612b5957600080fd5b8235612b6481613097565b91506020830135612a7a816130ac565b60008060408385031215612b8757600080fd5b8235612b9281613097565b946020939093013593505050565b600060208284031215612bb257600080fd5b8135611750816130ac565b600060208284031215612bcf57600080fd5b8151611750816130ac565b60008060408385031215612bed57600080fd5b8235612a6a816130ac565b600060208284031215612c0a57600080fd5b8135611750816130ba565b600060208284031215612c2757600080fd5b8151611750816130ba565b60008060008060408587031215612c4857600080fd5b843567ffffffffffffffff80821115612c6057600080fd5b612c6c8883890161284a565b90965094506020870135915080821115612c8557600080fd5b50612c928782880161284a565b95989497509550505050565b600080600060408486031215612cb357600080fd5b833567ffffffffffffffff811115612cca57600080fd5b612cd68682870161284a565b909790965060209590950135949350505050565b600060208284031215612cfc57600080fd5b813567ffffffffffffffff811115612d1357600080fd5b6119b38482850161288c565b600060208284031215612d3157600080fd5b5035919050565b600060208284031215612d4a57600080fd5b5051919050565b60008151808452612d69816020860160208601612fa7565b601f01601f19169290920160200192915050565b60008351612d8f818460208801612fa7565b835190830190612da3818360208801612fa7565b01949350505050565b6001600160a01b0385811682528416602082015260408101839052608060608201819052600090612ddf90830184612d51565b9695505050505050565b6020808252825182820181905260009190848201906040850190845b81811015612e2157835183529284019291840191600101612e05565b50909695505050505050565b6020815260006117506020830184612d51565b6020808252602d908201527f4552433732313a2063616c6c6572206973206e6f7420746f6b656e206f776e6560408201526c1c881bdc88185c1c1c9bdd9959609a1b606082015260800190565b60208082526032908201527f4552433732313a207472616e7366657220746f206e6f6e20455243373231526560408201527131b2b4bb32b91034b6b83632b6b2b73a32b960711b606082015260800190565b60208082526025908201527f4552433732313a207472616e736665722066726f6d20696e636f72726563742060408201526437bbb732b960d91b606082015260800190565b6020808252818101527f4f776e61626c653a2063616c6c6572206973206e6f7420746865206f776e6572604082015260600190565b60008219821115612f6c57612f6c613029565b500190565b6000816000190483118215151615612f8b57612f8b613029565b500290565b600082821015612fa257612fa2613029565b500390565b60005b83811015612fc2578181015183820152602001612faa565b83811115610efe5750506000910152565b600181811c90821680612fe757607f821691505b6020821081141561300857634e487b7160e01b600052602260045260246000fd5b50919050565b600060001982141561302257613022613029565b5060010190565b634e487b7160e01b600052601160045260246000fd5b634e487b7160e01b600052602160045260246000fd5b634e487b7160e01b600052603160045260246000fd5b634e487b7160e01b600052603260045260246000fd5b634e487b7160e01b600052604160045260246000fd5b6001600160a01b03811681146118cb57600080fd5b80151581146118cb57600080fd5b6001600160e01b0319811681146118cb57600080fdfea26469706673582212208318336a85c3447b2772180af8ecb42509ef3794c1f3cbbab15c19504e60606564736f6c63430008070033a2646970667358221220bfa100c8b3774e83c7d9a3e4d85ca0aaa1f753b1652df6665d20a0941b2fac8e64736f6c63430008070033",
  "immutableReferences": {},
  "source": "// SPDX-License-Identifier: MIT\n\npragma solidity ^0.8.0;\n\nimport \"@openzeppelin/contracts/access/Ownable.sol\";\n\nimport \"./interface/IIntellSetting.sol\";\nimport \"./interface/IShareERC721.sol\";\nimport \"./interface/IFactory.sol\";\nimport \"./IntellShareNFTContract.sol\";\n\npragma experimental ABIEncoderV2;\n\ncontract IntellFactoryContract is IFactory, Ownable {\n    using Strings for uint256;\n    using SafeMath for uint256;\n\n    bytes32 public constant INIT_CODE_PAIR_HASH =\n        keccak256(abi.encodePacked(type(IntellShareNFTContract).creationCode));\n\n    mapping(uint256 => address) public override getShareNFTAddr;\n    address[] public override allShareNFTAddrs;\n    IIntellSetting private _intellSetting;\n\n    mapping(address => bool) public enablePaymentTokenAddrs;\n\n    constructor(IIntellSetting _intellSetting_, address _intellTokenAddr_) {\n        _intellSetting = _intellSetting_;\n        enablePaymentTokenAddrs[_intellTokenAddr_] = true;\n    }\n\n    modifier onlyCreator() {\n        require(\n            _intellSetting.intellModelNFTContractAddr() == msg.sender &&\n                msg.sender != tx.origin,\n            \"Ownable: caller is not the creator\"\n        );\n        _;\n    }\n\n    function setEnablePaymentTokenAddrs(\n        address _newPaymentToken,\n        bool enable\n    ) external onlyOwner {\n        enablePaymentTokenAddrs[_newPaymentToken] = enable;\n    }\n\n    function intellSetting() external view returns (IIntellSetting) {\n        return _intellSetting;\n    }\n\n    function setIntellSetting(\n        IIntellSetting _intellSetting_\n    ) external onlyOwner {\n        _intellSetting = _intellSetting_;\n    }\n\n    function shareLaunchPrice() public view returns (uint256) {\n        return _intellSetting.shareNFTLaunchPrice();\n    }\n\n    function allShareNFTAddrsLength() external view override returns (uint256) {\n        return allShareNFTAddrs.length;\n    }\n\n    function recoverSigner(\n        bytes32 hash,\n        bytes memory signature\n    ) internal pure returns (address) {\n        bytes32 messageDigest = keccak256(\n            abi.encodePacked(\"\\x19Ethereum Signed Message:\\n32\", hash)\n        );\n        return ECDSA.recover(messageDigest, signature);\n    }\n\n    function verifyMessage(\n        bytes memory message,\n        bytes memory signature\n    ) internal view returns (bool) {\n        bytes32 hash = keccak256(message);\n        return recoverSigner(hash, signature) == _intellSetting.truthHolder();\n    }\n\n    function createShareNFTContract(\n        bytes memory shareMessage,\n        uint256 _INTELL_MODEL_NFT_TOKEN_ID\n    ) external override onlyCreator {\n        (\n            address _PAYMENT_TOKEN_ADDR,\n            string memory _NAME,\n            string memory _SYMBOL\n        ) = abi.decode(shareMessage, (address, string, string));\n\n        require(\n            enablePaymentTokenAddrs[_PAYMENT_TOKEN_ADDR],\n            \"DISABLED THIS PAYMENT TOKEN\"\n        );\n\n        require(\n            _intellSetting.intellModelNFTContractAddr() != address(0),\n            \"NEEDS TO SENT SMART INTEGLLIGENCE EXCHANGE NFT CONTRACT ADDRESS\"\n        );\n\n        require(\n            getShareNFTAddr[_INTELL_MODEL_NFT_TOKEN_ID] == address(0),\n            \"THE INTELLIGENCE EXCHANGE: SHARE_NFT_EXISTS\"\n        );\n\n        require(\n            bytes(_NAME).length > 0 && bytes(_SYMBOL).length > 0,\n            \"THE NAME & SYMBOL IS INVALID\"\n        );\n\n        IntellShareNFTContract intellShare = new IntellShareNFTContract(\n            _NAME,\n            _SYMBOL,\n            _intellSetting\n        );\n\n        intellShare.launch(shareMessage, _INTELL_MODEL_NFT_TOKEN_ID);\n\n        emit InvestorNFTCreated(\n            _INTELL_MODEL_NFT_TOKEN_ID,\n            address(intellShare)\n        );\n\n        getShareNFTAddr[_INTELL_MODEL_NFT_TOKEN_ID] = address(intellShare);\n        allShareNFTAddrs.push(address(intellShare));\n    }\n\n}\n",
  "sourcePath": "D:\\Projects\\US\\intell-truffle-deployer\\contracts\\03_IntellFactoryContract.sol",
  "compiler": {
    "name": "solc",
    "version": "0.8.7+commit.e28d00a7.Emscripten.clang"
  },
  "schemaVersion": "3.4.11",
  "updatedAt": "2023-05-01T08:44:42.275Z",
  "networkType": "ethereum",
  "devdoc": {
    "kind": "dev",
    "methods": {
      "owner()": {
        "details": "Returns the address of the current owner."
      },
      "renounceOwnership()": {
        "details": "Leaves the contract without owner. It will not be possible to call `onlyOwner` functions anymore. Can only be called by the current owner. NOTE: Renouncing ownership will leave the contract without an owner, thereby removing any functionality that is only available to the owner."
      },
      "transferOwnership(address)": {
        "details": "Transfers ownership of the contract to a new account (`newOwner`). Can only be called by the current owner."
      }
    },
    "version": 1
  },
  "userdoc": {
    "kind": "user",
    "methods": {},
    "version": 1
  }
}