{
  "contractName": "IntellSetting",
  "abi": [
    {
      "inputs": [],
      "stateMutability": "nonpayable",
      "type": "constructor"
    },
    {
      "anonymous": false,
      "inputs": [
        {
          "indexed": true,
          "internalType": "address",
          "name": "previousOwner",
          "type": "address"
        },
        {
          "indexed": true,
          "internalType": "address",
          "name": "newOwner",
          "type": "address"
        }
      ],
      "name": "OwnershipTransferred",
      "type": "event"
    },
    {
      "inputs": [],
      "name": "owner",
      "outputs": [
        {
          "internalType": "address",
          "name": "",
          "type": "address"
        }
      ],
      "stateMutability": "view",
      "type": "function",
      "constant": true
    },
    {
      "inputs": [],
      "name": "renounceOwnership",
      "outputs": [],
      "stateMutability": "nonpayable",
      "type": "function"
    },
    {
      "inputs": [
        {
          "internalType": "address",
          "name": "newOwner",
          "type": "address"
        }
      ],
      "name": "transferOwnership",
      "outputs": [],
      "stateMutability": "nonpayable",
      "type": "function"
    },
    {
      "inputs": [],
      "name": "truthHolder",
      "outputs": [
        {
          "internalType": "address",
          "name": "",
          "type": "address"
        }
      ],
      "stateMutability": "view",
      "type": "function",
      "constant": true
    },
    {
      "inputs": [
        {
          "internalType": "address",
          "name": "_newTruthHolder",
          "type": "address"
        }
      ],
      "name": "setTruthHolder",
      "outputs": [],
      "stateMutability": "nonpayable",
      "type": "function"
    },
    {
      "inputs": [],
      "name": "modelLaunchPrice",
      "outputs": [
        {
          "internalType": "uint256",
          "name": "",
          "type": "uint256"
        }
      ],
      "stateMutability": "view",
      "type": "function",
      "constant": true
    },
    {
      "inputs": [
        {
          "internalType": "uint256",
          "name": "val",
          "type": "uint256"
        }
      ],
      "name": "setModelLaunchPrice",
      "outputs": [],
      "stateMutability": "nonpayable",
      "type": "function"
    },
    {
      "inputs": [],
      "name": "shareNFTLaunchPrice",
      "outputs": [
        {
          "internalType": "uint256",
          "name": "",
          "type": "uint256"
        }
      ],
      "stateMutability": "view",
      "type": "function",
      "constant": true
    },
    {
      "inputs": [
        {
          "internalType": "uint256",
          "name": "_newLaunchPrice",
          "type": "uint256"
        }
      ],
      "name": "setShareNFTLaunchPrice",
      "outputs": [],
      "stateMutability": "nonpayable",
      "type": "function"
    },
    {
      "inputs": [],
      "name": "admin",
      "outputs": [
        {
          "internalType": "address",
          "name": "",
          "type": "address"
        }
      ],
      "stateMutability": "view",
      "type": "function",
      "constant": true
    },
    {
      "inputs": [
        {
          "internalType": "address",
          "name": "newAdmin",
          "type": "address"
        }
      ],
      "name": "setAdmin",
      "outputs": [],
      "stateMutability": "nonpayable",
      "type": "function"
    },
    {
      "inputs": [],
      "name": "intellTokenAddr",
      "outputs": [
        {
          "internalType": "address",
          "name": "",
          "type": "address"
        }
      ],
      "stateMutability": "view",
      "type": "function",
      "constant": true
    },
    {
      "inputs": [
        {
          "internalType": "address",
          "name": "newIntellTokenAddr",
          "type": "address"
        }
      ],
      "name": "setIntellTokenAddr",
      "outputs": [],
      "stateMutability": "nonpayable",
      "type": "function"
    },
    {
      "inputs": [],
      "name": "factoryContractAddr",
      "outputs": [
        {
          "internalType": "address",
          "name": "",
          "type": "address"
        }
      ],
      "stateMutability": "view",
      "type": "function",
      "constant": true
    },
    {
      "inputs": [
        {
          "internalType": "address",
          "name": "newFactoryContractAddr",
          "type": "address"
        }
      ],
      "name": "setFactoryContractAddr",
      "outputs": [],
      "stateMutability": "nonpayable",
      "type": "function"
    },
    {
      "inputs": [],
      "name": "intellModelNFTContractAddr",
      "outputs": [
        {
          "internalType": "address",
          "name": "",
          "type": "address"
        }
      ],
      "stateMutability": "view",
      "type": "function",
      "constant": true
    },
    {
      "inputs": [
        {
          "internalType": "address",
          "name": "newAddr",
          "type": "address"
        }
      ],
      "name": "setIntellModelNFTContractAddr",
      "outputs": [],
      "stateMutability": "nonpayable",
      "type": "function"
    }
  ],
  "bytecode": "0x6080604052600180546001600160a01b031990811673171c8c090511bc95886c9aac505db3081fe72f97179091556002805490911673f8abe936ff2bcc9774db7912554c4f38368e05a217905534801561005857600080fd5b506100623361007a565b69021e19e0c9bab240000060068190556007556100ca565b600080546001600160a01b038381166001600160a01b0319831681178455604051919092169283917f8be0079c531659141344cd1fd0a4f28419497f9722a3daafe3b4186f6b6457e09190a35050565b6104f2806100d96000396000f3fe608060405234801561001057600080fd5b506004361061010b5760003560e01c8063877dbb98116100a2578063d0eea8cc11610071578063d0eea8cc146101ee578063dc0fe14714610201578063f284ed6614610214578063f2fde38b14610227578063f851a4401461023a57600080fd5b8063877dbb98146101aa5780638da5cb5b146101bb578063a720969f146101cc578063a73b6130146101dd57600080fd5b80634b3191ae116100de5780634b3191ae1461016957806369441b5b1461017c578063704b6c021461018f578063715018a6146101a257600080fd5b8063150d5e8a146101105780632ba3ed941461012757806348d958451461013c5780634acbc0ff14610161575b600080fd5b6007545b6040519081526020015b60405180910390f35b61013a6101353660046104a3565b61024b565b005b6004546001600160a01b03165b6040516001600160a01b03909116815260200161011e565b600654610114565b61013a610177366004610473565b610258565b61013a61018a366004610473565b610282565b61013a61019d366004610473565b6102ac565b61013a6102d6565b6003546001600160a01b0316610149565b6000546001600160a01b0316610149565b6002546001600160a01b0316610149565b6005546001600160a01b0316610149565b61013a6101fc3660046104a3565b6102ea565b61013a61020f366004610473565b6102f7565b61013a610222366004610473565b610321565b61013a610235366004610473565b61034b565b6001546001600160a01b0316610149565b6102536103c9565b600655565b6102606103c9565b600280546001600160a01b0319166001600160a01b0392909216919091179055565b61028a6103c9565b600380546001600160a01b0319166001600160a01b0392909216919091179055565b6102b46103c9565b600180546001600160a01b0319166001600160a01b0392909216919091179055565b6102de6103c9565b6102e86000610423565b565b6102f26103c9565b600755565b6102ff6103c9565b600580546001600160a01b0319166001600160a01b0392909216919091179055565b6103296103c9565b600480546001600160a01b0319166001600160a01b0392909216919091179055565b6103536103c9565b6001600160a01b0381166103bd5760405162461bcd60e51b815260206004820152602660248201527f4f776e61626c653a206e6577206f776e657220697320746865207a65726f206160448201526564647265737360d01b60648201526084015b60405180910390fd5b6103c681610423565b50565b6000546001600160a01b031633146102e85760405162461bcd60e51b815260206004820181905260248201527f4f776e61626c653a2063616c6c6572206973206e6f7420746865206f776e657260448201526064016103b4565b600080546001600160a01b038381166001600160a01b0319831681178455604051919092169283917f8be0079c531659141344cd1fd0a4f28419497f9722a3daafe3b4186f6b6457e09190a35050565b60006020828403121561048557600080fd5b81356001600160a01b038116811461049c57600080fd5b9392505050565b6000602082840312156104b557600080fd5b503591905056fea26469706673582212205f5b5ace0b076b10008e8a7187375907606a0fff0c482afdb782ecad713903ff64736f6c63430008070033",
  "immutableReferences": {},
  "source": "// SPDX-License-Identifier: MIT\r\n\r\npragma solidity ^0.8.0;\r\n\r\nimport \"@openzeppelin/contracts/utils/Context.sol\";\r\nimport \"@openzeppelin/contracts/access/Ownable.sol\";\r\n\r\nimport \"./interface/IIntellSetting.sol\";\r\n\r\npragma experimental ABIEncoderV2;\r\n\r\ncontract IntellSetting is Ownable, IIntellSetting {\r\n    address private _admin = 0x171c8C090511bc95886c9AAc505dB3081FE72F97;\r\n    address private _truthHolder = 0xF8AbE936Ff2bCc9774Db7912554c4f38368e05A2;\r\n    address private _intellTokenAddr;\r\n    address private _factoryContractAddr;\r\n    address private _intellModelNFTContractAddr;\r\n    uint256 private _modelLaunchPrice;\r\n    uint256 private _shareNFTLaunchPrice;\r\n\r\n    constructor() {\r\n        _modelLaunchPrice = 10000 * 10 ** 18;\r\n        _shareNFTLaunchPrice = 10000 * 10 ** 18;\r\n    }\r\n    \r\n\r\n    function truthHolder() external view override returns(address) {\r\n        return _truthHolder;\r\n    }\r\n\r\n    function setTruthHolder(address _newTruthHolder) external onlyOwner {\r\n        _truthHolder = _newTruthHolder;\r\n    }\r\n\r\n    function modelLaunchPrice() external view override returns(uint256) {\r\n        return _modelLaunchPrice;\r\n    }\r\n\r\n    function setModelLaunchPrice(uint256 val) external onlyOwner {\r\n        _modelLaunchPrice = val;\r\n    }\r\n\r\n    function shareNFTLaunchPrice() external view override returns(uint256) {\r\n        return _shareNFTLaunchPrice;\r\n    }\r\n\r\n    function setShareNFTLaunchPrice(uint256 _newLaunchPrice) external onlyOwner {\r\n        _shareNFTLaunchPrice = _newLaunchPrice;\r\n    }\r\n\r\n    function admin() external view override returns(address) {\r\n        return _admin;\r\n    }\r\n\r\n    function setAdmin(address newAdmin) external onlyOwner {\r\n        _admin = newAdmin;\r\n    }\r\n\r\n    function intellTokenAddr() external view override returns(address) {\r\n        return _intellTokenAddr;\r\n    }\r\n\r\n    function setIntellTokenAddr(address newIntellTokenAddr) external onlyOwner {\r\n        _intellTokenAddr = newIntellTokenAddr;\r\n    }\r\n\r\n    function factoryContractAddr() external view override returns(address) {\r\n        return _factoryContractAddr;\r\n    }\r\n\r\n    function setFactoryContractAddr(address newFactoryContractAddr) external onlyOwner {\r\n        _factoryContractAddr = newFactoryContractAddr;\r\n    }\r\n\r\n    function intellModelNFTContractAddr() external view override returns(address) {\r\n        return _intellModelNFTContractAddr;\r\n    }\r\n\r\n    function setIntellModelNFTContractAddr(address newAddr) external onlyOwner {\r\n        _intellModelNFTContractAddr = newAddr;\r\n    }\r\n\r\n}\r\n\r\n",
  "sourcePath": "D:\\Projects\\US\\intell-truffle-deployer\\contracts\\01_IntellSetting.sol",
  "compiler": {
    "name": "solc",
    "version": "0.8.7+commit.e28d00a7.Emscripten.clang"
  },
  "schemaVersion": "3.4.11",
  "updatedAt": "2023-05-01T08:37:58.975Z",
  "networkType": "ethereum",
  "devdoc": {
    "kind": "dev",
    "methods": {
      "owner()": {
        "details": "Returns the address of the current owner."
      },
      "renounceOwnership()": {
        "details": "Leaves the contract without owner. It will not be possible to call `onlyOwner` functions anymore. Can only be called by the current owner. NOTE: Renouncing ownership will leave the contract without an owner, thereby removing any functionality that is only available to the owner."
      },
      "transferOwnership(address)": {
        "details": "Transfers ownership of the contract to a new account (`newOwner`). Can only be called by the current owner."
      }
    },
    "version": 1
  },
  "userdoc": {
    "kind": "user",
    "methods": {},
    "version": 1
  }
}