{
  "contractName": "IntelligenceInvestmentToken",
  "abi": [
    {
      "inputs": [],
      "stateMutability": "nonpayable",
      "type": "constructor"
    },
    {
      "anonymous": false,
      "inputs": [
        {
          "indexed": true,
          "internalType": "address",
          "name": "owner",
          "type": "address"
        },
        {
          "indexed": true,
          "internalType": "address",
          "name": "spender",
          "type": "address"
        },
        {
          "indexed": false,
          "internalType": "uint256",
          "name": "value",
          "type": "uint256"
        }
      ],
      "name": "Approval",
      "type": "event"
    },
    {
      "anonymous": false,
      "inputs": [
        {
          "indexed": false,
          "internalType": "address",
          "name": "request",
          "type": "address"
        },
        {
          "indexed": false,
          "internalType": "uint256",
          "name": "amount",
          "type": "uint256"
        }
      ],
      "name": "Burned",
      "type": "event"
    },
    {
      "anonymous": false,
      "inputs": [
        {
          "indexed": true,
          "internalType": "address",
          "name": "previousOwner",
          "type": "address"
        },
        {
          "indexed": true,
          "internalType": "address",
          "name": "newOwner",
          "type": "address"
        }
      ],
      "name": "OwnershipTransferred",
      "type": "event"
    },
    {
      "anonymous": false,
      "inputs": [
        {
          "indexed": true,
          "internalType": "address",
          "name": "from",
          "type": "address"
        },
        {
          "indexed": true,
          "internalType": "address",
          "name": "to",
          "type": "address"
        },
        {
          "indexed": false,
          "internalType": "uint256",
          "name": "value",
          "type": "uint256"
        }
      ],
      "name": "Transfer",
      "type": "event"
    },
    {
      "inputs": [
        {
          "internalType": "address",
          "name": "owner",
          "type": "address"
        },
        {
          "internalType": "address",
          "name": "spender",
          "type": "address"
        }
      ],
      "name": "allowance",
      "outputs": [
        {
          "internalType": "uint256",
          "name": "",
          "type": "uint256"
        }
      ],
      "stateMutability": "view",
      "type": "function",
      "constant": true
    },
    {
      "inputs": [
        {
          "internalType": "address",
          "name": "spender",
          "type": "address"
        },
        {
          "internalType": "uint256",
          "name": "amount",
          "type": "uint256"
        }
      ],
      "name": "approve",
      "outputs": [
        {
          "internalType": "bool",
          "name": "",
          "type": "bool"
        }
      ],
      "stateMutability": "nonpayable",
      "type": "function"
    },
    {
      "inputs": [
        {
          "internalType": "address",
          "name": "account",
          "type": "address"
        }
      ],
      "name": "balanceOf",
      "outputs": [
        {
          "internalType": "uint256",
          "name": "",
          "type": "uint256"
        }
      ],
      "stateMutability": "view",
      "type": "function",
      "constant": true
    },
    {
      "inputs": [],
      "name": "decimals",
      "outputs": [
        {
          "internalType": "uint8",
          "name": "",
          "type": "uint8"
        }
      ],
      "stateMutability": "view",
      "type": "function",
      "constant": true
    },
    {
      "inputs": [
        {
          "internalType": "address",
          "name": "spender",
          "type": "address"
        },
        {
          "internalType": "uint256",
          "name": "subtractedValue",
          "type": "uint256"
        }
      ],
      "name": "decreaseAllowance",
      "outputs": [
        {
          "internalType": "bool",
          "name": "",
          "type": "bool"
        }
      ],
      "stateMutability": "nonpayable",
      "type": "function"
    },
    {
      "inputs": [
        {
          "internalType": "address",
          "name": "spender",
          "type": "address"
        },
        {
          "internalType": "uint256",
          "name": "addedValue",
          "type": "uint256"
        }
      ],
      "name": "increaseAllowance",
      "outputs": [
        {
          "internalType": "bool",
          "name": "",
          "type": "bool"
        }
      ],
      "stateMutability": "nonpayable",
      "type": "function"
    },
    {
      "inputs": [],
      "name": "name",
      "outputs": [
        {
          "internalType": "string",
          "name": "",
          "type": "string"
        }
      ],
      "stateMutability": "view",
      "type": "function",
      "constant": true
    },
    {
      "inputs": [],
      "name": "owner",
      "outputs": [
        {
          "internalType": "address",
          "name": "",
          "type": "address"
        }
      ],
      "stateMutability": "view",
      "type": "function",
      "constant": true
    },
    {
      "inputs": [],
      "name": "renounceOwnership",
      "outputs": [],
      "stateMutability": "nonpayable",
      "type": "function"
    },
    {
      "inputs": [],
      "name": "symbol",
      "outputs": [
        {
          "internalType": "string",
          "name": "",
          "type": "string"
        }
      ],
      "stateMutability": "view",
      "type": "function",
      "constant": true
    },
    {
      "inputs": [],
      "name": "totalSupply",
      "outputs": [
        {
          "internalType": "uint256",
          "name": "",
          "type": "uint256"
        }
      ],
      "stateMutability": "view",
      "type": "function",
      "constant": true
    },
    {
      "inputs": [
        {
          "internalType": "address",
          "name": "to",
          "type": "address"
        },
        {
          "internalType": "uint256",
          "name": "amount",
          "type": "uint256"
        }
      ],
      "name": "transfer",
      "outputs": [
        {
          "internalType": "bool",
          "name": "",
          "type": "bool"
        }
      ],
      "stateMutability": "nonpayable",
      "type": "function"
    },
    {
      "inputs": [
        {
          "internalType": "address",
          "name": "from",
          "type": "address"
        },
        {
          "internalType": "address",
          "name": "to",
          "type": "address"
        },
        {
          "internalType": "uint256",
          "name": "amount",
          "type": "uint256"
        }
      ],
      "name": "transferFrom",
      "outputs": [
        {
          "internalType": "bool",
          "name": "",
          "type": "bool"
        }
      ],
      "stateMutability": "nonpayable",
      "type": "function"
    },
    {
      "inputs": [
        {
          "internalType": "address",
          "name": "newOwner",
          "type": "address"
        }
      ],
      "name": "transferOwnership",
      "outputs": [],
      "stateMutability": "nonpayable",
      "type": "function"
    },
    {
      "inputs": [
        {
          "internalType": "uint256",
          "name": "_amount",
          "type": "uint256"
        }
      ],
      "name": "burn",
      "outputs": [
        {
          "internalType": "bool",
          "name": "",
          "type": "bool"
        }
      ],
      "stateMutability": "nonpayable",
      "type": "function"
    }
  ],
  "bytecode": "0x60806040523480156200001157600080fd5b50604080518082018252601d81527f496e74656c6c6967656e636520496e766573746d656e7420546f6b656e00000060208083019182528351808501909452600684526512539511531360d21b908401528151919291620000759160039162000204565b5080516200008b90600490602084019062000204565b505050620000a8620000a2620000c660201b60201c565b620000ca565b620000c0336b033b2e3c9fd0803ce80000006200011c565b6200030e565b3390565b600580546001600160a01b038381166001600160a01b0319831681179093556040519116919082907f8be0079c531659141344cd1fd0a4f28419497f9722a3daafe3b4186f6b6457e090600090a35050565b6001600160a01b038216620001775760405162461bcd60e51b815260206004820152601f60248201527f45524332303a206d696e7420746f20746865207a65726f206164647265737300604482015260640160405180910390fd5b80600260008282546200018b9190620002aa565b90915550506001600160a01b03821660009081526020819052604081208054839290620001ba908490620002aa565b90915550506040518181526001600160a01b038316906000907fddf252ad1be2c89b69c2b068fc378daa952ba7f163c4a11628f55a4df523b3ef9060200160405180910390a35050565b8280546200021290620002d1565b90600052602060002090601f01602090048101928262000236576000855562000281565b82601f106200025157805160ff191683800117855562000281565b8280016001018555821562000281579182015b828111156200028157825182559160200191906001019062000264565b506200028f92915062000293565b5090565b5b808211156200028f576000815560010162000294565b60008219821115620002cc57634e487b7160e01b600052601160045260246000fd5b500190565b600181811c90821680620002e657607f821691505b602082108114156200030857634e487b7160e01b600052602260045260246000fd5b50919050565b610be8806200031e6000396000f3fe608060405234801561001057600080fd5b50600436106100f55760003560e01c806370a0823111610097578063a457c2d711610066578063a457c2d7146101eb578063a9059cbb146101fe578063dd62ed3e14610211578063f2fde38b1461022457600080fd5b806370a0823114610195578063715018a6146101be5780638da5cb5b146101c857806395d89b41146101e357600080fd5b806323b872dd116100d357806323b872dd1461014d578063313ce56714610160578063395093511461016f57806342966c681461018257600080fd5b806306fdde03146100fa578063095ea7b31461011857806318160ddd1461013b575b600080fd5b610102610237565b60405161010f9190610afc565b60405180910390f35b61012b610126366004610ab9565b6102c9565b604051901515815260200161010f565b6002545b60405190815260200161010f565b61012b61015b366004610a7d565b6102e1565b6040516012815260200161010f565b61012b61017d366004610ab9565b610305565b61012b610190366004610ae3565b610327565b61013f6101a3366004610a28565b6001600160a01b031660009081526020819052604090205490565b6101c6610374565b005b6005546040516001600160a01b03909116815260200161010f565b610102610388565b61012b6101f9366004610ab9565b610397565b61012b61020c366004610ab9565b610417565b61013f61021f366004610a4a565b610425565b6101c6610232366004610a28565b610450565b60606003805461024690610b77565b80601f016020809104026020016040519081016040528092919081815260200182805461027290610b77565b80156102bf5780601f10610294576101008083540402835291602001916102bf565b820191906000526020600020905b8154815290600101906020018083116102a257829003601f168201915b5050505050905090565b6000336102d78185856104c9565b5060019392505050565b6000336102ef8582856105ee565b6102fa858585610668565b506001949350505050565b6000336102d78185856103188383610425565b6103229190610b51565b6104c9565b60006103333383610836565b60408051338152602081018490527f696de425f79f4a40bc6d2122ca50507f0efbeabbff86a84871b7196ab8ea8df7910160405180910390a1506001919050565b61037c610960565b61038660006109ba565b565b60606004805461024690610b77565b600033816103a58286610425565b90508381101561040a5760405162461bcd60e51b815260206004820152602560248201527f45524332303a2064656372656173656420616c6c6f77616e63652062656c6f77604482015264207a65726f60d81b60648201526084015b60405180910390fd5b6102fa82868684036104c9565b6000336102d7818585610668565b6001600160a01b03918216600090815260016020908152604080832093909416825291909152205490565b610458610960565b6001600160a01b0381166104bd5760405162461bcd60e51b815260206004820152602660248201527f4f776e61626c653a206e6577206f776e657220697320746865207a65726f206160448201526564647265737360d01b6064820152608401610401565b6104c6816109ba565b50565b6001600160a01b03831661052b5760405162461bcd60e51b8152602060048201526024808201527f45524332303a20617070726f76652066726f6d20746865207a65726f206164646044820152637265737360e01b6064820152608401610401565b6001600160a01b03821661058c5760405162461bcd60e51b815260206004820152602260248201527f45524332303a20617070726f766520746f20746865207a65726f206164647265604482015261737360f01b6064820152608401610401565b6001600160a01b0383811660008181526001602090815260408083209487168084529482529182902085905590518481527f8c5be1e5ebec7d5bd14f71427d1e84f3dd0314c0f7b2291e5b200ac8c7c3b92591015b60405180910390a3505050565b60006105fa8484610425565b9050600019811461066257818110156106555760405162461bcd60e51b815260206004820152601d60248201527f45524332303a20696e73756666696369656e7420616c6c6f77616e63650000006044820152606401610401565b61066284848484036104c9565b50505050565b6001600160a01b0383166106cc5760405162461bcd60e51b815260206004820152602560248201527f45524332303a207472616e736665722066726f6d20746865207a65726f206164604482015264647265737360d81b6064820152608401610401565b6001600160a01b03821661072e5760405162461bcd60e51b815260206004820152602360248201527f45524332303a207472616e7366657220746f20746865207a65726f206164647260448201526265737360e81b6064820152608401610401565b6001600160a01b038316600090815260208190526040902054818110156107a65760405162461bcd60e51b815260206004820152602660248201527f45524332303a207472616e7366657220616d6f756e7420657863656564732062604482015265616c616e636560d01b6064820152608401610401565b6001600160a01b038085166000908152602081905260408082208585039055918516815290812080548492906107dd908490610b51565b92505081905550826001600160a01b0316846001600160a01b03167fddf252ad1be2c89b69c2b068fc378daa952ba7f163c4a11628f55a4df523b3ef8460405161082991815260200190565b60405180910390a3610662565b6001600160a01b0382166108965760405162461bcd60e51b815260206004820152602160248201527f45524332303a206275726e2066726f6d20746865207a65726f206164647265736044820152607360f81b6064820152608401610401565b6001600160a01b0382166000908152602081905260409020548181101561090a5760405162461bcd60e51b815260206004820152602260248201527f45524332303a206275726e20616d6f756e7420657863656564732062616c616e604482015261636560f01b6064820152608401610401565b6001600160a01b0383166000818152602081815260408083208686039055600280548790039055518581529192917fddf252ad1be2c89b69c2b068fc378daa952ba7f163c4a11628f55a4df523b3ef91016105e1565b6005546001600160a01b031633146103865760405162461bcd60e51b815260206004820181905260248201527f4f776e61626c653a2063616c6c6572206973206e6f7420746865206f776e65726044820152606401610401565b600580546001600160a01b038381166001600160a01b0319831681179093556040519116919082907f8be0079c531659141344cd1fd0a4f28419497f9722a3daafe3b4186f6b6457e090600090a35050565b80356001600160a01b0381168114610a2357600080fd5b919050565b600060208284031215610a3a57600080fd5b610a4382610a0c565b9392505050565b60008060408385031215610a5d57600080fd5b610a6683610a0c565b9150610a7460208401610a0c565b90509250929050565b600080600060608486031215610a9257600080fd5b610a9b84610a0c565b9250610aa960208501610a0c565b9150604084013590509250925092565b60008060408385031215610acc57600080fd5b610ad583610a0c565b946020939093013593505050565b600060208284031215610af557600080fd5b5035919050565b600060208083528351808285015260005b81811015610b2957858101830151858201604001528201610b0d565b81811115610b3b576000604083870101525b50601f01601f1916929092016040019392505050565b60008219821115610b7257634e487b7160e01b600052601160045260246000fd5b500190565b600181811c90821680610b8b57607f821691505b60208210811415610bac57634e487b7160e01b600052602260045260246000fd5b5091905056fea2646970667358221220d3648140ba800c331c10580f058b24e4e15caadc497cf9631606a39f299d5af364736f6c63430008070033",
  "immutableReferences": {},
  "source": "// SPDX-License-Identifier: MIT\r\n\r\npragma solidity ^0.8.0;\r\n\r\n/**\r\n * @dev Interface of the ERC20 standard as defined in the EIP.\r\n */\r\ninterface IERC20 {\r\n    /**\r\n     * @dev Emitted when `value` tokens are moved from one account (`from`) to\r\n     * another (`to`).\r\n     *\r\n     * Note that `value` may be zero.\r\n     */\r\n    event Transfer(address indexed from, address indexed to, uint256 value);\r\n\r\n    /**\r\n     * @dev Emitted when the allowance of a `spender` for an `owner` is set by\r\n     * a call to {approve}. `value` is the new allowance.\r\n     */\r\n    event Approval(\r\n        address indexed owner,\r\n        address indexed spender,\r\n        uint256 value\r\n    );\r\n\r\n    /**\r\n     * @dev Returns the amount of tokens in existence.\r\n     */\r\n    function totalSupply() external view returns (uint256);\r\n\r\n    /**\r\n     * @dev Returns the amount of tokens owned by `account`.\r\n     */\r\n    function balanceOf(address account) external view returns (uint256);\r\n\r\n    /**\r\n     * @dev Moves `amount` tokens from the caller's account to `to`.\r\n     *\r\n     * Returns a boolean value indicating whether the operation succeeded.\r\n     *\r\n     * Emits a {Transfer} event.\r\n     */\r\n    function transfer(address to, uint256 amount) external returns (bool);\r\n\r\n    /**\r\n     * @dev Returns the remaining number of tokens that `spender` will be\r\n     * allowed to spend on behalf of `owner` through {transferFrom}. This is\r\n     * zero by default.\r\n     *\r\n     * This value changes when {approve} or {transferFrom} are called.\r\n     */\r\n    function allowance(address owner, address spender)\r\n        external\r\n        view\r\n        returns (uint256);\r\n\r\n    /**\r\n     * @dev Sets `amount` as the allowance of `spender` over the caller's tokens.\r\n     *\r\n     * Returns a boolean value indicating whether the operation succeeded.\r\n     */\r\n    function approve(address spender, uint256 amount) external returns (bool);\r\n\r\n    /**\r\n     * @dev Moves `amount` tokens from `from` to `to` using the\r\n     * allowance mechanism. `amount` is then deducted from the caller's\r\n     * allowance.\r\n     *\r\n     * Returns a boolean value indicating whether the operation succeeded.\r\n     *\r\n     * Emits a {Transfer} event.\r\n     */\r\n    function transferFrom(\r\n        address from,\r\n        address to,\r\n        uint256 amount\r\n    ) external returns (bool);\r\n}\r\n\r\npragma solidity ^0.8.0;\r\n\r\n/**\r\n * @dev Interface for the optional metadata functions from the ERC20 standard.\r\n *\r\n * _Available since v4.1._\r\n */\r\ninterface IERC20Metadata is IERC20 {\r\n    /**\r\n     * @dev Returns the name of the token.\r\n     */\r\n    function name() external view returns (string memory);\r\n\r\n    /**\r\n     * @dev Returns the symbol of the token.\r\n     */\r\n    function symbol() external view returns (string memory);\r\n\r\n    /**\r\n     * @dev Returns the decimals places of the token.\r\n     */\r\n    function decimals() external view returns (uint8);\r\n}\r\n\r\npragma solidity ^0.8.0;\r\n\r\n/**\r\n * This contract is only required for intermediate, library-like contracts.\r\n */\r\nabstract contract Context {\r\n    function _msgSender() internal view virtual returns (address) {\r\n        return msg.sender;\r\n    }\r\n\r\n    function _msgData() internal view virtual returns (bytes calldata) {\r\n        return msg.data;\r\n    }\r\n}\r\n\r\npragma solidity ^0.8.0;\r\n\r\n/**\r\n * @dev Implementation of the {IERC20} interface.\r\n * allowances. See {IERC20-approve}.\r\n */\r\ncontract ERC20 is Context, IERC20, IERC20Metadata {\r\n    mapping(address => uint256) private _balances;\r\n\r\n    mapping(address => mapping(address => uint256)) private _allowances;\r\n\r\n    uint256 private _totalSupply;\r\n\r\n    string private _name;\r\n    string private _symbol;\r\n\r\n    /**\r\n     * @dev Sets the values for {name} and {symbol}.\r\n     *\r\n     * The default value of {decimals} is 18. To select a different value for\r\n     * {decimals} you should overload it.\r\n     *\r\n     * All two of these values are immutable: they can only be set once during\r\n     * construction.\r\n     */\r\n    constructor(string memory name_, string memory symbol_) {\r\n        _name = name_;\r\n        _symbol = symbol_;\r\n    }\r\n\r\n    /**\r\n     * @dev Returns the name of the token.\r\n     */\r\n    function name() public view virtual override returns (string memory) {\r\n        return _name;\r\n    }\r\n\r\n    /**\r\n     * @dev Returns the symbol of the token, usually a shorter version of the\r\n     * name.\r\n     */\r\n    function symbol() public view virtual override returns (string memory) {\r\n        return _symbol;\r\n    }\r\n\r\n    /**\r\n     * @dev Returns the number of decimals used to get its user representation.\r\n     * For example, if `decimals` equals `2`, a balance of `505` tokens should\r\n     * be displayed to a user as `5.05` (`505 / 10 ** 2`).\r\n     *\r\n     * {IERC20-balanceOf} and {IERC20-transfer}.\r\n     */\r\n    function decimals() public view virtual override returns (uint8) {\r\n        return 18;\r\n    }\r\n\r\n    /**\r\n     * @dev See {IERC20-totalSupply}.\r\n     */\r\n    function totalSupply() public view virtual override returns (uint256) {\r\n        return _totalSupply;\r\n    }\r\n\r\n    /**\r\n     * @dev See {IERC20-balanceOf}.\r\n     */\r\n    function balanceOf(address account)\r\n        public\r\n        view\r\n        virtual\r\n        override\r\n        returns (uint256)\r\n    {\r\n        return _balances[account];\r\n    }\r\n\r\n    /**\r\n     * @dev See {IERC20-transfer}.\r\n     *\r\n     * Requirements:\r\n     *\r\n     * - `to` cannot be the zero address.\r\n     * - the caller must have a balance of at least `amount`.\r\n     */\r\n    function transfer(address to, uint256 amount)\r\n        public\r\n        virtual\r\n        override\r\n        returns (bool)\r\n    {\r\n        address owner = _msgSender();\r\n        _transfer(owner, to, amount);\r\n        return true;\r\n    }\r\n\r\n    /**\r\n     * @dev See {IERC20-allowance}.\r\n     */\r\n    function allowance(address owner, address spender)\r\n        public\r\n        view\r\n        virtual\r\n        override\r\n        returns (uint256)\r\n    {\r\n        return _allowances[owner][spender];\r\n    }\r\n\r\n    /**\r\n     * @dev See {IERC20-approve}.\r\n     *\r\n     * NOTE: If `amount` is the maximum `uint256`, the allowance is not updated on\r\n     * `transferFrom`. This is semantically equivalent to an infinite approval.\r\n     *\r\n     * Requirements:\r\n     *\r\n     * - `spender` cannot be the zero address.\r\n     */\r\n    function approve(address spender, uint256 amount)\r\n        public\r\n        virtual\r\n        override\r\n        returns (bool)\r\n    {\r\n        address owner = _msgSender();\r\n        _approve(owner, spender, amount);\r\n        return true;\r\n    }\r\n\r\n    /**\r\n     * @dev See {IERC20-transferFrom}.\r\n     *\r\n     * Emits an {Approval} event indicating the updated allowance. This is not\r\n     * required by the EIP. See the note at the beginning of {ERC20}.\r\n     *\r\n     * NOTE: Does not update the allowance if the current allowance\r\n     * is the maximum `uint256`.\r\n     *\r\n     * Requirements:\r\n     *\r\n     * - `from` and `to` cannot be the zero address.\r\n     * - `from` must have a balance of at least `amount`.\r\n     * - the caller must have allowance for ``from``'s tokens of at least\r\n     * `amount`.\r\n     */\r\n    function transferFrom(\r\n        address from,\r\n        address to,\r\n        uint256 amount\r\n    ) public virtual override returns (bool) {\r\n        address spender = _msgSender();\r\n        _spendAllowance(from, spender, amount);\r\n        _transfer(from, to, amount);\r\n        return true;\r\n    }\r\n\r\n    /**\r\n     * @dev Atomically increases the allowance granted to `spender` by the caller.\r\n     *\r\n     * This is an alternative to {approve} that can be used as a mitigation for\r\n     * problems described in {IERC20-approve}.\r\n     *\r\n     * Emits an {Approval} event indicating the updated allowance.\r\n     *\r\n     * Requirements:\r\n     *\r\n     * - `spender` cannot be the zero address.\r\n     */\r\n    function increaseAllowance(address spender, uint256 addedValue)\r\n        public\r\n        virtual\r\n        returns (bool)\r\n    {\r\n        address owner = _msgSender();\r\n        _approve(owner, spender, allowance(owner, spender) + addedValue);\r\n        return true;\r\n    }\r\n\r\n    /**\r\n     * @dev Atomically decreases the allowance granted to `spender` by the caller.\r\n     *\r\n     * This is an alternative to {approve} that can be used as a mitigation for\r\n     * problems described in {IERC20-approve}.\r\n     *\r\n     * Emits an {Approval} event indicating the updated allowance.\r\n     *\r\n     * Requirements:\r\n     *\r\n     * - `spender` cannot be the zero address.\r\n     * - `spender` must have allowance for the caller of at least\r\n     * `subtractedValue`.\r\n     */\r\n    function decreaseAllowance(address spender, uint256 subtractedValue)\r\n        public\r\n        virtual\r\n        returns (bool)\r\n    {\r\n        address owner = _msgSender();\r\n        uint256 currentAllowance = allowance(owner, spender);\r\n        require(\r\n            currentAllowance >= subtractedValue,\r\n            \"ERC20: decreased allowance below zero\"\r\n        );\r\n        unchecked {\r\n            _approve(owner, spender, currentAllowance - subtractedValue);\r\n        }\r\n\r\n        return true;\r\n    }\r\n\r\n    /**\r\n     * @dev Moves `amount` of tokens from `from` to `to`.\r\n     *\r\n     * This internal function is equivalent to {transfer}, and can be used to\r\n     * e.g. implement automatic token fees, slashing mechanisms, etc.\r\n     *\r\n     * Emits a {Transfer} event.\r\n     *\r\n     * Requirements:\r\n     *\r\n     * - `from` cannot be the zero address.\r\n     * - `to` cannot be the zero address.\r\n     * - `from` must have a balance of at least `amount`.\r\n     */\r\n    function _transfer(\r\n        address from,\r\n        address to,\r\n        uint256 amount\r\n    ) internal virtual {\r\n        require(from != address(0), \"ERC20: transfer from the zero address\");\r\n        require(to != address(0), \"ERC20: transfer to the zero address\");\r\n\r\n        _beforeTokenTransfer(from, to, amount);\r\n\r\n        uint256 fromBalance = _balances[from];\r\n        require(\r\n            fromBalance >= amount,\r\n            \"ERC20: transfer amount exceeds balance\"\r\n        );\r\n        unchecked {\r\n            _balances[from] = fromBalance - amount;\r\n        }\r\n        _balances[to] += amount;\r\n\r\n        emit Transfer(from, to, amount);\r\n\r\n        _afterTokenTransfer(from, to, amount);\r\n    }\r\n\r\n    /** @dev Creates `amount` tokens and assigns them to `account`, increasing\r\n     * the total supply.\r\n     *\r\n     * Emits a {Transfer} event with `from` set to the zero address.\r\n     *\r\n     * Requirements:\r\n     *\r\n     * - `account` cannot be the zero address.\r\n     */\r\n    function _mint(address account, uint256 amount) internal virtual {\r\n        require(account != address(0), \"ERC20: mint to the zero address\");\r\n\r\n        _beforeTokenTransfer(address(0), account, amount);\r\n\r\n        _totalSupply += amount;\r\n        _balances[account] += amount;\r\n        emit Transfer(address(0), account, amount);\r\n\r\n        _afterTokenTransfer(address(0), account, amount);\r\n    }\r\n\r\n    /**\r\n     * @dev Destroys `amount` tokens from `account`, reducing the\r\n     * total supply.\r\n     *\r\n     * Emits a {Transfer} event with `to` set to the zero address.\r\n     *\r\n     * Requirements:\r\n     *\r\n     * - `account` cannot be the zero address.\r\n     * - `account` must have at least `amount` tokens.\r\n     */\r\n    function _burn(address account, uint256 amount) internal virtual {\r\n        require(account != address(0), \"ERC20: burn from the zero address\");\r\n\r\n        _beforeTokenTransfer(account, address(0), amount);\r\n\r\n        uint256 accountBalance = _balances[account];\r\n        require(accountBalance >= amount, \"ERC20: burn amount exceeds balance\");\r\n        unchecked {\r\n            _balances[account] = accountBalance - amount;\r\n            // Overflow not possible: amount <= accountBalance <= totalSupply.\r\n            _totalSupply -= amount;\r\n        }\r\n\r\n        emit Transfer(account, address(0), amount);\r\n\r\n        _afterTokenTransfer(account, address(0), amount);\r\n    }\r\n\r\n    /**\r\n     * @dev Sets `amount` as the allowance of `spender` over the `owner` s tokens.\r\n     *\r\n     * This internal function is equivalent to `approve`, and can be used to\r\n     * e.g. set automatic allowances for certain subsystems, etc.\r\n     *\r\n     * Emits an {Approval} event.\r\n     *\r\n     * Requirements:\r\n     *\r\n     * - `owner` cannot be the zero address.\r\n     * - `spender` cannot be the zero address.\r\n     */\r\n    function _approve(\r\n        address owner,\r\n        address spender,\r\n        uint256 amount\r\n    ) internal virtual {\r\n        require(owner != address(0), \"ERC20: approve from the zero address\");\r\n        require(spender != address(0), \"ERC20: approve to the zero address\");\r\n\r\n        _allowances[owner][spender] = amount;\r\n        emit Approval(owner, spender, amount);\r\n    }\r\n\r\n    /**\r\n     * @dev Updates `owner` s allowance for `spender` based on spent `amount`.\r\n     * Might emit an {Approval} event.\r\n     */\r\n    function _spendAllowance(\r\n        address owner,\r\n        address spender,\r\n        uint256 amount\r\n    ) internal virtual {\r\n        uint256 currentAllowance = allowance(owner, spender);\r\n        if (currentAllowance != type(uint256).max) {\r\n            require(\r\n                currentAllowance >= amount,\r\n                \"ERC20: insufficient allowance\"\r\n            );\r\n            unchecked {\r\n                _approve(owner, spender, currentAllowance - amount);\r\n            }\r\n        }\r\n    }\r\n\r\n    /**\r\n     * @dev Hook that is called before any transfer of tokens. This includes\r\n     * minting and burning.\r\n     */\r\n    function _beforeTokenTransfer(\r\n        address from,\r\n        address to,\r\n        uint256 amount\r\n    ) internal virtual {}\r\n\r\n    /**\r\n     * @dev Hook that is called after any transfer of tokens. This includes\r\n     * minting and burning.\r\n     *\r\n     * Calling conditions:\r\n     *\r\n     * - when `from` and `to` are both non-zero, `amount` of ``from``'s tokens\r\n     * has been transferred to `to`.\r\n     * - when `from` is zero, `amount` tokens have been minted for `to`.\r\n     * - when `to` is zero, `amount` of ``from``'s tokens have been burned.\r\n     * - `from` and `to` are never both zero.\r\n     */\r\n    function _afterTokenTransfer(\r\n        address from,\r\n        address to,\r\n        uint256 amount\r\n    ) internal virtual {}\r\n}\r\n\r\npragma solidity ^0.8.0;\r\n\r\n/**\r\n * @dev Collection of functions related to the address type\r\n */\r\nlibrary Address {\r\n    /**\r\n     * @dev Returns true if `account` is a contract.\r\n     */\r\n    function isContract(address account) internal view returns (bool) {\r\n        // This method relies on extcodesize/address.code.length, which returns 0\r\n        // for contracts in construction, since the code is only stored at the end\r\n        // of the constructor execution.\r\n\r\n        return account.code.length > 0;\r\n    }\r\n\r\n    /**\r\n     * @dev Replacement for Solidity's `transfer`: sends `amount` wei to\r\n     * `recipient`, forwarding all available gas and reverting on errors.\r\n     */\r\n    function sendValue(address payable recipient, uint256 amount) internal {\r\n        require(\r\n            address(this).balance >= amount,\r\n            \"Address: insufficient balance\"\r\n        );\r\n\r\n        (bool success, ) = recipient.call{value: amount}(\"\");\r\n        require(\r\n            success,\r\n            \"Address: unable to send value, recipient may have reverted\"\r\n        );\r\n    }\r\n\r\n    /**\r\n     * @dev Performs a Solidity function call using a low level `call`. A\r\n     * plain `call` is an unsafe replacement for a function call: use this\r\n     * function instead.\r\n     *\r\n     * If `target` reverts with a revert reason, it is bubbled up by this\r\n     * function (like regular Solidity function calls).\r\n     */\r\n    function functionCall(address target, bytes memory data)\r\n        internal\r\n        returns (bytes memory)\r\n    {\r\n        return functionCall(target, data, \"Address: low-level call failed\");\r\n    }\r\n\r\n    /**\r\n     * @dev Same as {xref-Address-functionCall-address-bytes-}[`functionCall`], but with\r\n     * `errorMessage` as a fallback revert reason when `target` reverts.\r\n     *\r\n     * _Available since v3.1._\r\n     */\r\n    function functionCall(\r\n        address target,\r\n        bytes memory data,\r\n        string memory errorMessage\r\n    ) internal returns (bytes memory) {\r\n        return functionCallWithValue(target, data, 0, errorMessage);\r\n    }\r\n\r\n    /**\r\n     * @dev Same as {xref-Address-functionCall-address-bytes-}[`functionCall`],\r\n     * but also transferring `value` wei to `target`.\r\n     *\r\n     * Requirements:\r\n     *\r\n     * - the calling contract must have an ETH balance of at least `value`.\r\n     * - the called Solidity function must be `payable`.\r\n     *\r\n     * _Available since v3.1._\r\n     */\r\n    function functionCallWithValue(\r\n        address target,\r\n        bytes memory data,\r\n        uint256 value\r\n    ) internal returns (bytes memory) {\r\n        return\r\n            functionCallWithValue(\r\n                target,\r\n                data,\r\n                value,\r\n                \"Address: low-level call with value failed\"\r\n            );\r\n    }\r\n\r\n    /**\r\n     * @dev Same as {xref-Address-functionCallWithValue-address-bytes-uint256-}[`functionCallWithValue`], but\r\n     * with `errorMessage` as a fallback revert reason when `target` reverts.\r\n     *\r\n     * _Available since v3.1._\r\n     */\r\n    function functionCallWithValue(\r\n        address target,\r\n        bytes memory data,\r\n        uint256 value,\r\n        string memory errorMessage\r\n    ) internal returns (bytes memory) {\r\n        require(\r\n            address(this).balance >= value,\r\n            \"Address: insufficient balance for call\"\r\n        );\r\n        require(isContract(target), \"Address: call to non-contract\");\r\n\r\n        (bool success, bytes memory returndata) = target.call{value: value}(\r\n            data\r\n        );\r\n        return verifyCallResult(success, returndata, errorMessage);\r\n    }\r\n\r\n    /**\r\n     * @dev Same as {xref-Address-functionCall-address-bytes-}[`functionCall`],\r\n     * but performing a static call.\r\n     *\r\n     * _Available since v3.3._\r\n     */\r\n    function functionStaticCall(address target, bytes memory data)\r\n        internal\r\n        view\r\n        returns (bytes memory)\r\n    {\r\n        return\r\n            functionStaticCall(\r\n                target,\r\n                data,\r\n                \"Address: low-level static call failed\"\r\n            );\r\n    }\r\n\r\n    /**\r\n     * @dev Same as {xref-Address-functionCall-address-bytes-string-}[`functionCall`],\r\n     * but performing a static call.\r\n     *\r\n     * _Available since v3.3._\r\n     */\r\n    function functionStaticCall(\r\n        address target,\r\n        bytes memory data,\r\n        string memory errorMessage\r\n    ) internal view returns (bytes memory) {\r\n        require(isContract(target), \"Address: static call to non-contract\");\r\n\r\n        (bool success, bytes memory returndata) = target.staticcall(data);\r\n        return verifyCallResult(success, returndata, errorMessage);\r\n    }\r\n\r\n    /**\r\n     * @dev Same as {xref-Address-functionCall-address-bytes-}[`functionCall`],\r\n     * but performing a delegate call.\r\n     *\r\n     * _Available since v3.4._\r\n     */\r\n    function functionDelegateCall(address target, bytes memory data)\r\n        internal\r\n        returns (bytes memory)\r\n    {\r\n        return\r\n            functionDelegateCall(\r\n                target,\r\n                data,\r\n                \"Address: low-level delegate call failed\"\r\n            );\r\n    }\r\n\r\n    /**\r\n     * @dev Same as {xref-Address-functionCall-address-bytes-string-}[`functionCall`],\r\n     * but performing a delegate call.\r\n     *\r\n     * _Available since v3.4._\r\n     */\r\n    function functionDelegateCall(\r\n        address target,\r\n        bytes memory data,\r\n        string memory errorMessage\r\n    ) internal returns (bytes memory) {\r\n        require(isContract(target), \"Address: delegate call to non-contract\");\r\n\r\n        (bool success, bytes memory returndata) = target.delegatecall(data);\r\n        return verifyCallResult(success, returndata, errorMessage);\r\n    }\r\n\r\n    /**\r\n     * @dev Tool to verifies that a low level call was successful, and revert if it wasn't, either by bubbling the\r\n     * revert reason using the provided one.\r\n     *\r\n     * _Available since v4.3._\r\n     */\r\n    function verifyCallResult(\r\n        bool success,\r\n        bytes memory returndata,\r\n        string memory errorMessage\r\n    ) internal pure returns (bytes memory) {\r\n        if (success) {\r\n            return returndata;\r\n        } else {\r\n            // Look for revert reason and bubble it up if present\r\n            if (returndata.length > 0) {\r\n                // The easiest way to bubble the revert reason is using memory via assembly\r\n\r\n                assembly {\r\n                    let returndata_size := mload(returndata)\r\n                    revert(add(32, returndata), returndata_size)\r\n                }\r\n            } else {\r\n                revert(errorMessage);\r\n            }\r\n        }\r\n    }\r\n}\r\n\r\npragma solidity ^0.8.0;\r\n\r\n/**\r\n * @title SafeERC20\r\n * @dev Wrappers around ERC20 operations that throw on failure (when the token\r\n * contract returns false). Tokens that return no value (and instead revert or\r\n * throw on failure) are also supported, non-reverting calls are assumed to be\r\n * successful.\r\n * To use this library you can add a `using SafeERC20 for IERC20;` statement to your contract,\r\n * which allows you to call the safe operations as `token.safeTransfer(...)`, etc.\r\n */\r\nlibrary SafeERC20 {\r\n    using Address for address;\r\n\r\n    function safeTransfer(\r\n        IERC20 token,\r\n        address to,\r\n        uint256 value\r\n    ) internal {\r\n        _callOptionalReturn(\r\n            token,\r\n            abi.encodeWithSelector(token.transfer.selector, to, value)\r\n        );\r\n    }\r\n\r\n    function safeTransferFrom(\r\n        IERC20 token,\r\n        address from,\r\n        address to,\r\n        uint256 value\r\n    ) internal {\r\n        _callOptionalReturn(\r\n            token,\r\n            abi.encodeWithSelector(token.transferFrom.selector, from, to, value)\r\n        );\r\n    }\r\n\r\n    /**\r\n     * @dev Deprecated. This function has issues similar to the ones found in\r\n     * {IERC20-approve}, and its usage is discouraged.\r\n     *\r\n     * Whenever possible, use {safeIncreaseAllowance} and\r\n     * {safeDecreaseAllowance} instead.\r\n     */\r\n    function safeApprove(\r\n        IERC20 token,\r\n        address spender,\r\n        uint256 value\r\n    ) internal {\r\n        // safeApprove should only be called when setting an initial allowance,\r\n        // or when resetting it to zero. To increase and decrease it, use\r\n        // 'safeIncreaseAllowance' and 'safeDecreaseAllowance'\r\n        require(\r\n            (value == 0) || (token.allowance(address(this), spender) == 0),\r\n            \"SafeERC20: approve from non-zero to non-zero allowance\"\r\n        );\r\n        _callOptionalReturn(\r\n            token,\r\n            abi.encodeWithSelector(token.approve.selector, spender, value)\r\n        );\r\n    }\r\n\r\n    function safeIncreaseAllowance(\r\n        IERC20 token,\r\n        address spender,\r\n        uint256 value\r\n    ) internal {\r\n        uint256 newAllowance = token.allowance(address(this), spender) + value;\r\n        _callOptionalReturn(\r\n            token,\r\n            abi.encodeWithSelector(\r\n                token.approve.selector,\r\n                spender,\r\n                newAllowance\r\n            )\r\n        );\r\n    }\r\n\r\n    function safeDecreaseAllowance(\r\n        IERC20 token,\r\n        address spender,\r\n        uint256 value\r\n    ) internal {\r\n        unchecked {\r\n            uint256 oldAllowance = token.allowance(address(this), spender);\r\n            require(\r\n                oldAllowance >= value,\r\n                \"SafeERC20: decreased allowance below zero\"\r\n            );\r\n            uint256 newAllowance = oldAllowance - value;\r\n            _callOptionalReturn(\r\n                token,\r\n                abi.encodeWithSelector(\r\n                    token.approve.selector,\r\n                    spender,\r\n                    newAllowance\r\n                )\r\n            );\r\n        }\r\n    }\r\n\r\n    /**\r\n     * @dev Imitates a Solidity high-level call (i.e. a regular function call to a contract), relaxing the requirement\r\n     * on the return value: the return value is optional (but if data is returned, it must not be false).\r\n     * @param token The token targeted by the call.\r\n     * @param data The call data (encoded using abi.encode or one of its variants).\r\n     */\r\n    function _callOptionalReturn(IERC20 token, bytes memory data) private {\r\n        // We need to perform a low level call here, to bypass Solidity's return data size checking mechanism, since\r\n        // we're implementing it ourselves. We use {Address.functionCall} to perform this call, which verifies that\r\n        // the target address contains contract code and also asserts for success in the low-level call.\r\n\r\n        bytes memory returndata = address(token).functionCall(\r\n            data,\r\n            \"SafeERC20: low-level call failed\"\r\n        );\r\n        if (returndata.length > 0) {\r\n            // Return data is optional\r\n            require(\r\n                abi.decode(returndata, (bool)),\r\n                \"SafeERC20: ERC20 operation did not succeed\"\r\n            );\r\n        }\r\n    }\r\n}\r\n\r\npragma solidity ^0.8.0;\r\n\r\n/**\r\n * @dev Contract module which provides a basic access control mechanism, where\r\n * there is an account (an owner) that can be granted exclusive access to\r\n * specific functions.\r\n */\r\nabstract contract Ownable is Context {\r\n    address private _owner;\r\n\r\n    event OwnershipTransferred(\r\n        address indexed previousOwner,\r\n        address indexed newOwner\r\n    );\r\n\r\n    /**\r\n     * @dev Initializes the contract setting the deployer as the initial owner.\r\n     */\r\n    constructor() {\r\n        _transferOwnership(_msgSender());\r\n    }\r\n\r\n    /**\r\n     * @dev Throws if called by any account other than the owner.\r\n     */\r\n    modifier onlyOwner() {\r\n        _checkOwner();\r\n        _;\r\n    }\r\n\r\n    /**\r\n     * @dev Returns the address of the current owner.\r\n     */\r\n    function owner() public view virtual returns (address) {\r\n        return _owner;\r\n    }\r\n\r\n    /**\r\n     * @dev Throws if the sender is not the owner.\r\n     */\r\n    function _checkOwner() internal view virtual {\r\n        require(owner() == _msgSender(), \"Ownable: caller is not the owner\");\r\n    }\r\n\r\n    /**\r\n     * @dev Leaves the contract without owner. It will not be possible to call\r\n     * `onlyOwner` functions anymore. Can only be called by the current owner.\r\n     *\r\n     * NOTE: Renouncing ownership will leave the contract without an owner,\r\n     * thereby removing any functionality that is only available to the owner.\r\n     */\r\n    function renounceOwnership() public virtual onlyOwner {\r\n        _transferOwnership(address(0));\r\n    }\r\n\r\n    /**\r\n     * @dev Transfers ownership of the contract to a new account (`newOwner`).\r\n     * Can only be called by the current owner.\r\n     */\r\n    function transferOwnership(address newOwner) public virtual onlyOwner {\r\n        require(\r\n            newOwner != address(0),\r\n            \"Ownable: new owner is the zero address\"\r\n        );\r\n        _transferOwnership(newOwner);\r\n    }\r\n\r\n    /**\r\n     * @dev Transfers ownership of the contract to a new account (`newOwner`).\r\n     * Internal function without access restriction.\r\n     */\r\n    function _transferOwnership(address newOwner) internal virtual {\r\n        address oldOwner = _owner;\r\n        _owner = newOwner;\r\n        emit OwnershipTransferred(oldOwner, newOwner);\r\n    }\r\n}\r\n\r\n\r\npragma solidity ^0.8.0;\r\n\r\ncontract IntelligenceInvestmentToken is ERC20, Ownable {\r\n    using SafeERC20 for IERC20;\r\n\r\n    event Burned(address request, uint256 amount);\r\n\r\n    constructor() ERC20(\"Intelligence Investment Token\", \"INTELL\") {\r\n        _mint(msg.sender, (10**9) * (10**18));\r\n    }\r\n\r\n    function burn(uint256 _amount) external returns (bool) {\r\n        _burn(msg.sender, _amount);\r\n        emit Burned(msg.sender, _amount);\r\n        return true;\r\n    }\r\n}\r\n",
  "sourcePath": "D:\\Projects\\US\\intell-truffle-deployer\\contracts\\00_IntellTokenContract.sol",
  "compiler": {
    "name": "solc",
    "version": "0.8.7+commit.e28d00a7.Emscripten.clang"
  },
  "schemaVersion": "3.4.11",
  "updatedAt": "2023-05-01T08:36:49.719Z",
  "networkType": "ethereum",
  "devdoc": {
    "kind": "dev",
    "methods": {
      "allowance(address,address)": {
        "details": "See {IERC20-allowance}."
      },
      "approve(address,uint256)": {
        "details": "See {IERC20-approve}. NOTE: If `amount` is the maximum `uint256`, the allowance is not updated on `transferFrom`. This is semantically equivalent to an infinite approval. Requirements: - `spender` cannot be the zero address."
      },
      "balanceOf(address)": {
        "details": "See {IERC20-balanceOf}."
      },
      "decimals()": {
        "details": "Returns the number of decimals used to get its user representation. For example, if `decimals` equals `2`, a balance of `505` tokens should be displayed to a user as `5.05` (`505 / 10 ** 2`). {IERC20-balanceOf} and {IERC20-transfer}."
      },
      "decreaseAllowance(address,uint256)": {
        "details": "Atomically decreases the allowance granted to `spender` by the caller. This is an alternative to {approve} that can be used as a mitigation for problems described in {IERC20-approve}. Emits an {Approval} event indicating the updated allowance. Requirements: - `spender` cannot be the zero address. - `spender` must have allowance for the caller of at least `subtractedValue`."
      },
      "increaseAllowance(address,uint256)": {
        "details": "Atomically increases the allowance granted to `spender` by the caller. This is an alternative to {approve} that can be used as a mitigation for problems described in {IERC20-approve}. Emits an {Approval} event indicating the updated allowance. Requirements: - `spender` cannot be the zero address."
      },
      "name()": {
        "details": "Returns the name of the token."
      },
      "owner()": {
        "details": "Returns the address of the current owner."
      },
      "renounceOwnership()": {
        "details": "Leaves the contract without owner. It will not be possible to call `onlyOwner` functions anymore. Can only be called by the current owner. NOTE: Renouncing ownership will leave the contract without an owner, thereby removing any functionality that is only available to the owner."
      },
      "symbol()": {
        "details": "Returns the symbol of the token, usually a shorter version of the name."
      },
      "totalSupply()": {
        "details": "See {IERC20-totalSupply}."
      },
      "transfer(address,uint256)": {
        "details": "See {IERC20-transfer}. Requirements: - `to` cannot be the zero address. - the caller must have a balance of at least `amount`."
      },
      "transferFrom(address,address,uint256)": {
        "details": "See {IERC20-transferFrom}. Emits an {Approval} event indicating the updated allowance. This is not required by the EIP. See the note at the beginning of {ERC20}. NOTE: Does not update the allowance if the current allowance is the maximum `uint256`. Requirements: - `from` and `to` cannot be the zero address. - `from` must have a balance of at least `amount`. - the caller must have allowance for ``from``'s tokens of at least `amount`."
      },
      "transferOwnership(address)": {
        "details": "Transfers ownership of the contract to a new account (`newOwner`). Can only be called by the current owner."
      }
    },
    "version": 1
  },
  "userdoc": {
    "kind": "user",
    "methods": {},
    "version": 1
  }
}