{
  "contractName": "IntellCreatorNFTContract",
  "abi": [
    {
      "inputs": [
        {
          "internalType": "string",
          "name": "baseURI",
          "type": "string"
        },
        {
          "internalType": "contract IIntellSetting",
          "name": "_intellSetting_",
          "type": "address"
        }
      ],
      "stateMutability": "nonpayable",
      "type": "constructor"
    },
    {
      "anonymous": false,
      "inputs": [
        {
          "indexed": true,
          "internalType": "address",
          "name": "owner",
          "type": "address"
        },
        {
          "indexed": true,
          "internalType": "address",
          "name": "approved",
          "type": "address"
        },
        {
          "indexed": true,
          "internalType": "uint256",
          "name": "tokenId",
          "type": "uint256"
        }
      ],
      "name": "Approval",
      "type": "event"
    },
    {
      "anonymous": false,
      "inputs": [
        {
          "indexed": true,
          "internalType": "address",
          "name": "owner",
          "type": "address"
        },
        {
          "indexed": true,
          "internalType": "address",
          "name": "operator",
          "type": "address"
        },
        {
          "indexed": false,
          "internalType": "bool",
          "name": "approved",
          "type": "bool"
        }
      ],
      "name": "ApprovalForAll",
      "type": "event"
    },
    {
      "anonymous": false,
      "inputs": [
        {
          "indexed": false,
          "internalType": "address",
          "name": "creator",
          "type": "address"
        },
        {
          "indexed": false,
          "internalType": "uint256",
          "name": "price",
          "type": "uint256"
        },
        {
          "indexed": false,
          "internalType": "uint256",
          "name": "tokenId",
          "type": "uint256"
        },
        {
          "indexed": false,
          "internalType": "uint256",
          "name": "modelId",
          "type": "uint256"
        },
        {
          "indexed": false,
          "internalType": "uint256",
          "name": "timestamp",
          "type": "uint256"
        },
        {
          "indexed": false,
          "internalType": "uint256",
          "name": "blocknumber",
          "type": "uint256"
        }
      ],
      "name": "NewModelMint",
      "type": "event"
    },
    {
      "anonymous": false,
      "inputs": [
        {
          "indexed": true,
          "internalType": "address",
          "name": "previousOwner",
          "type": "address"
        },
        {
          "indexed": true,
          "internalType": "address",
          "name": "newOwner",
          "type": "address"
        }
      ],
      "name": "OwnershipTransferred",
      "type": "event"
    },
    {
      "anonymous": false,
      "inputs": [
        {
          "indexed": true,
          "internalType": "address",
          "name": "from",
          "type": "address"
        },
        {
          "indexed": true,
          "internalType": "address",
          "name": "to",
          "type": "address"
        },
        {
          "indexed": true,
          "internalType": "uint256",
          "name": "tokenId",
          "type": "uint256"
        }
      ],
      "name": "Transfer",
      "type": "event"
    },
    {
      "anonymous": false,
      "inputs": [
        {
          "indexed": false,
          "internalType": "uint256",
          "name": "oldMintPrice",
          "type": "uint256"
        },
        {
          "indexed": false,
          "internalType": "uint256",
          "name": "newMintPrice",
          "type": "uint256"
        }
      ],
      "name": "UpdateMintPrice",
      "type": "event"
    },
    {
      "anonymous": false,
      "inputs": [
        {
          "indexed": false,
          "internalType": "bool",
          "name": "oldVal",
          "type": "bool"
        },
        {
          "indexed": false,
          "internalType": "bool",
          "name": "newVal",
          "type": "bool"
        }
      ],
      "name": "UpdatePause",
      "type": "event"
    },
    {
      "anonymous": false,
      "inputs": [
        {
          "indexed": false,
          "internalType": "address",
          "name": "oldPaymentToken",
          "type": "address"
        },
        {
          "indexed": false,
          "internalType": "address",
          "name": "newPaymentToken",
          "type": "address"
        }
      ],
      "name": "UpdatePaymentToken",
      "type": "event"
    },
    {
      "anonymous": false,
      "inputs": [
        {
          "indexed": false,
          "internalType": "bool",
          "name": "enableTransfer",
          "type": "bool"
        }
      ],
      "name": "UpdatedEnableTransfer",
      "type": "event"
    },
    {
      "inputs": [
        {
          "internalType": "address",
          "name": "to",
          "type": "address"
        },
        {
          "internalType": "uint256",
          "name": "tokenId",
          "type": "uint256"
        }
      ],
      "name": "approve",
      "outputs": [],
      "stateMutability": "nonpayable",
      "type": "function"
    },
    {
      "inputs": [
        {
          "internalType": "address",
          "name": "owner",
          "type": "address"
        }
      ],
      "name": "balanceOf",
      "outputs": [
        {
          "internalType": "uint256",
          "name": "",
          "type": "uint256"
        }
      ],
      "stateMutability": "view",
      "type": "function"
    },
    {
      "inputs": [],
      "name": "enableTransfer",
      "outputs": [
        {
          "internalType": "bool",
          "name": "",
          "type": "bool"
        }
      ],
      "stateMutability": "view",
      "type": "function"
    },
    {
      "inputs": [
        {
          "internalType": "uint256",
          "name": "tokenId",
          "type": "uint256"
        }
      ],
      "name": "getApproved",
      "outputs": [
        {
          "internalType": "address",
          "name": "",
          "type": "address"
        }
      ],
      "stateMutability": "view",
      "type": "function"
    },
    {
      "inputs": [
        {
          "internalType": "address",
          "name": "owner",
          "type": "address"
        },
        {
          "internalType": "address",
          "name": "operator",
          "type": "address"
        }
      ],
      "name": "isApprovedForAll",
      "outputs": [
        {
          "internalType": "bool",
          "name": "",
          "type": "bool"
        }
      ],
      "stateMutability": "view",
      "type": "function"
    },
    {
      "inputs": [],
      "name": "name",
      "outputs": [
        {
          "internalType": "string",
          "name": "",
          "type": "string"
        }
      ],
      "stateMutability": "view",
      "type": "function"
    },
    {
      "inputs": [],
      "name": "owner",
      "outputs": [
        {
          "internalType": "address",
          "name": "",
          "type": "address"
        }
      ],
      "stateMutability": "view",
      "type": "function"
    },
    {
      "inputs": [
        {
          "internalType": "uint256",
          "name": "tokenId",
          "type": "uint256"
        }
      ],
      "name": "ownerOf",
      "outputs": [
        {
          "internalType": "address",
          "name": "",
          "type": "address"
        }
      ],
      "stateMutability": "view",
      "type": "function"
    },
    {
      "inputs": [],
      "name": "renounceOwnership",
      "outputs": [],
      "stateMutability": "nonpayable",
      "type": "function"
    },
    {
      "inputs": [
        {
          "internalType": "address",
          "name": "from",
          "type": "address"
        },
        {
          "internalType": "address",
          "name": "to",
          "type": "address"
        },
        {
          "internalType": "uint256",
          "name": "tokenId",
          "type": "uint256"
        }
      ],
      "name": "safeTransferFrom",
      "outputs": [],
      "stateMutability": "nonpayable",
      "type": "function"
    },
    {
      "inputs": [
        {
          "internalType": "address",
          "name": "from",
          "type": "address"
        },
        {
          "internalType": "address",
          "name": "to",
          "type": "address"
        },
        {
          "internalType": "uint256",
          "name": "tokenId",
          "type": "uint256"
        },
        {
          "internalType": "bytes",
          "name": "_data",
          "type": "bytes"
        }
      ],
      "name": "safeTransferFrom",
      "outputs": [],
      "stateMutability": "nonpayable",
      "type": "function"
    },
    {
      "inputs": [
        {
          "internalType": "address",
          "name": "operator",
          "type": "address"
        },
        {
          "internalType": "bool",
          "name": "approved",
          "type": "bool"
        }
      ],
      "name": "setApprovalForAll",
      "outputs": [],
      "stateMutability": "nonpayable",
      "type": "function"
    },
    {
      "inputs": [
        {
          "internalType": "bool",
          "name": "_enableTransfer",
          "type": "bool"
        }
      ],
      "name": "setEnableTransfer",
      "outputs": [],
      "stateMutability": "nonpayable",
      "type": "function"
    },
    {
      "inputs": [
        {
          "internalType": "bytes4",
          "name": "interfaceId",
          "type": "bytes4"
        }
      ],
      "name": "supportsInterface",
      "outputs": [
        {
          "internalType": "bool",
          "name": "",
          "type": "bool"
        }
      ],
      "stateMutability": "view",
      "type": "function"
    },
    {
      "inputs": [],
      "name": "symbol",
      "outputs": [
        {
          "internalType": "string",
          "name": "",
          "type": "string"
        }
      ],
      "stateMutability": "view",
      "type": "function"
    },
    {
      "inputs": [
        {
          "internalType": "uint256",
          "name": "index",
          "type": "uint256"
        }
      ],
      "name": "tokenByIndex",
      "outputs": [
        {
          "internalType": "uint256",
          "name": "",
          "type": "uint256"
        }
      ],
      "stateMutability": "view",
      "type": "function"
    },
    {
      "inputs": [
        {
          "internalType": "address",
          "name": "owner",
          "type": "address"
        },
        {
          "internalType": "uint256",
          "name": "index",
          "type": "uint256"
        }
      ],
      "name": "tokenOfOwnerByIndex",
      "outputs": [
        {
          "internalType": "uint256",
          "name": "",
          "type": "uint256"
        }
      ],
      "stateMutability": "view",
      "type": "function"
    },
    {
      "inputs": [
        {
          "internalType": "uint256",
          "name": "tokenId",
          "type": "uint256"
        }
      ],
      "name": "tokenURI",
      "outputs": [
        {
          "internalType": "string",
          "name": "",
          "type": "string"
        }
      ],
      "stateMutability": "view",
      "type": "function"
    },
    {
      "inputs": [],
      "name": "totalSupply",
      "outputs": [
        {
          "internalType": "uint256",
          "name": "",
          "type": "uint256"
        }
      ],
      "stateMutability": "view",
      "type": "function"
    },
    {
      "inputs": [
        {
          "internalType": "address",
          "name": "from",
          "type": "address"
        },
        {
          "internalType": "address",
          "name": "to",
          "type": "address"
        },
        {
          "internalType": "uint256",
          "name": "tokenId",
          "type": "uint256"
        }
      ],
      "name": "transferFrom",
      "outputs": [],
      "stateMutability": "nonpayable",
      "type": "function"
    },
    {
      "inputs": [
        {
          "internalType": "address",
          "name": "newOwner",
          "type": "address"
        }
      ],
      "name": "transferOwnership",
      "outputs": [],
      "stateMutability": "nonpayable",
      "type": "function"
    },
    {
      "inputs": [
        {
          "internalType": "uint256",
          "name": "_tokenId",
          "type": "uint256"
        }
      ],
      "name": "modelIdByTokenId",
      "outputs": [
        {
          "internalType": "uint256",
          "name": "",
          "type": "uint256"
        }
      ],
      "stateMutability": "view",
      "type": "function"
    },
    {
      "inputs": [
        {
          "internalType": "contract IIntellSetting",
          "name": "_intellSetting_",
          "type": "address"
        }
      ],
      "name": "setIntellSetting",
      "outputs": [],
      "stateMutability": "nonpayable",
      "type": "function"
    },
    {
      "inputs": [],
      "name": "intellSetting",
      "outputs": [
        {
          "internalType": "contract IIntellSetting",
          "name": "",
          "type": "address"
        }
      ],
      "stateMutability": "view",
      "type": "function"
    },
    {
      "inputs": [
        {
          "internalType": "uint256",
          "name": "_modelId",
          "type": "uint256"
        }
      ],
      "name": "tokenIdByModelId",
      "outputs": [
        {
          "internalType": "uint256",
          "name": "",
          "type": "uint256"
        }
      ],
      "stateMutability": "view",
      "type": "function"
    },
    {
      "inputs": [
        {
          "internalType": "uint256",
          "name": "_modelId",
          "type": "uint256"
        }
      ],
      "name": "creatorNFTMintedHistory",
      "outputs": [
        {
          "internalType": "uint256",
          "name": "",
          "type": "uint256"
        }
      ],
      "stateMutability": "view",
      "type": "function"
    },
    {
      "inputs": [
        {
          "internalType": "string",
          "name": "baseURI",
          "type": "string"
        }
      ],
      "name": "setBaseURI",
      "outputs": [],
      "stateMutability": "nonpayable",
      "type": "function"
    },
    {
      "inputs": [
        {
          "internalType": "bool",
          "name": "val",
          "type": "bool"
        }
      ],
      "name": "pause",
      "outputs": [],
      "stateMutability": "nonpayable",
      "type": "function"
    },
    {
      "inputs": [],
      "name": "getPause",
      "outputs": [
        {
          "internalType": "bool",
          "name": "",
          "type": "bool"
        }
      ],
      "stateMutability": "view",
      "type": "function"
    },
    {
      "inputs": [
        {
          "internalType": "uint256",
          "name": "tokenId",
          "type": "uint256"
        }
      ],
      "name": "burn",
      "outputs": [],
      "stateMutability": "nonpayable",
      "type": "function"
    },
    {
      "inputs": [],
      "name": "paymentToken",
      "outputs": [
        {
          "internalType": "contract IERC20",
          "name": "",
          "type": "address"
        }
      ],
      "stateMutability": "view",
      "type": "function"
    },
    {
      "inputs": [
        {
          "internalType": "bytes",
          "name": "statusMessage",
          "type": "bytes"
        },
        {
          "internalType": "bytes",
          "name": "statusSignature",
          "type": "bytes"
        },
        {
          "internalType": "bytes",
          "name": "shareMessage",
          "type": "bytes"
        },
        {
          "internalType": "bytes",
          "name": "shareSignature",
          "type": "bytes"
        }
      ],
      "name": "adopt",
      "outputs": [],
      "stateMutability": "nonpayable",
      "type": "function"
    },
    {
      "inputs": [
        {
          "internalType": "address",
          "name": "_owner",
          "type": "address"
        }
      ],
      "name": "walletOfOwner",
      "outputs": [
        {
          "internalType": "uint256[]",
          "name": "",
          "type": "uint256[]"
        }
      ],
      "stateMutability": "view",
      "type": "function"
    },
    {
      "inputs": [],
      "name": "withdraw",
      "outputs": [],
      "stateMutability": "nonpayable",
      "type": "function"
    },
    {
      "inputs": [],
      "name": "version",
      "outputs": [
        {
          "internalType": "uint32",
          "name": "",
          "type": "uint32"
        }
      ],
      "stateMutability": "pure",
      "type": "function"
    }
  ],
  "bytecode": "0x60806040526000805460ff60a01b19169055600d805460ff191690553480156200002857600080fd5b5060405162003757380380620037578339810160408190526200004b916200029a565b6040518060400160405280600b81526020016a10dc99585d1bdc8813919560aa1b8152506040518060400160405280600481526020016310d3919560e21b815250620000a6620000a06200010b60201b60201c565b6200010f565b8151620000bb906001906020850190620001d7565b508051620000d1906002906020840190620001d7565b50506001600b5550620000e4826200015f565b601180546001600160a01b0319166001600160a01b039290921691909117905550620003de565b3390565b600080546001600160a01b038381166001600160a01b0319831681178455604051919092169283917f8be0079c531659141344cd1fd0a4f28419497f9722a3daafe3b4186f6b6457e09190a35050565b6000546001600160a01b03163314620001be5760405162461bcd60e51b815260206004820181905260248201527f4f776e61626c653a2063616c6c6572206973206e6f7420746865206f776e6572604482015260640160405180910390fd5b8051620001d390600c906020840190620001d7565b5050565b828054620001e5906200038b565b90600052602060002090601f01602090048101928262000209576000855562000254565b82601f106200022457805160ff191683800117855562000254565b8280016001018555821562000254579182015b828111156200025457825182559160200191906001019062000237565b506200026292915062000266565b5090565b5b8082111562000262576000815560010162000267565b80516001600160a01b03811681146200029557600080fd5b919050565b60008060408385031215620002ae57600080fd5b82516001600160401b0380821115620002c657600080fd5b818501915085601f830112620002db57600080fd5b815181811115620002f057620002f0620003c8565b604051601f8201601f19908116603f011681019083821181831017156200031b576200031b620003c8565b816040528281526020935088848487010111156200033857600080fd5b600091505b828210156200035c57848201840151818301850152908301906200033d565b828211156200036e5760008484830101525b9550620003809150508582016200027d565b925050509250929050565b600181811c90821680620003a057607f821691505b60208210811415620003c257634e487b7160e01b600052602260045260246000fd5b50919050565b634e487b7160e01b600052604160045260246000fd5b61336980620003ee6000396000f3fe608060405234801561001057600080fd5b50600436106102115760003560e01c806355f804b311610125578063a22cb465116100ad578063d3dc5a071161007c578063d3dc5a071461046b578063e985e9c51461047e578063edd05eb2146104ba578063f1b50c1d146104da578063f2fde38b146104ee57600080fd5b8063a22cb4651461041f578063b88d4fde14610432578063c7dec2ec14610445578063c87b56dd1461045857600080fd5b806370a08231116100f457806370a08231146103da578063715018a6146103ed57806387bd0f59146103f55780638da5cb5b1461040657806395d89b411461041757600080fd5b806355f804b3146103815780636352211e146103945780636bdce4c9146103a75780636fcc2585146103c757600080fd5b80633013ce29116101a857806342842e0e1161017757806342842e0e1461031957806342966c681461032c578063438b63001461033f5780634f6ccce71461035f57806354fd4d501461037257600080fd5b80633013ce29146102de5780633ccfd60b146102e65780633e3ca9d3146102ee5780633fa05b1e146102f957600080fd5b8063095ea7b3116101e4578063095ea7b31461029357806318160ddd146102a657806323b872dd146102b85780632f745c59146102cb57600080fd5b806301ffc9a71461021657806302329a291461023e57806306fdde0314610253578063081812fc14610268575b600080fd5b610229610224366004612d68565b610501565b60405190151581526020015b60405180910390f35b61025161024c366004612d2e565b61052c565b005b61025b61060e565b60405161023591906130b2565b61027b610276366004612eaf565b6106a0565b6040516001600160a01b039091168152602001610235565b6102516102a1366004612d02565b610735565b6009545b604051908152602001610235565b6102516102c6366004612c13565b61084b565b6102aa6102d9366004612d02565b61087d565b61027b610913565b610251610995565b600d5460ff16610229565b6102aa610307366004612eaf565b60009081526010602052604090205490565b610251610327366004612c13565b610ad8565b61025161033a366004612eaf565b610af3565b61035261034d366004612ba0565b610b67565b6040516102359190613035565b6102aa61036d366004612eaf565b610c09565b60405160018152602001610235565b61025161038f366004612e66565b610c9c565b61027b6103a2366004612eaf565b610cdd565b6102aa6103b5366004612eaf565b6000908152600e602052604090205490565b6102516103d5366004612d2e565b610d54565b6102aa6103e8366004612ba0565b610dd6565b610251610e5d565b6011546001600160a01b031661027b565b6000546001600160a01b031661027b565b61025b610e93565b61025161042d366004612cd4565b610ea2565b610251610440366004612c54565b610ead565b610251610453366004612da2565b610ee5565b61025b610466366004612eaf565b6116b1565b610251610479366004612ba0565b61178c565b61022961048c366004612bda565b6001600160a01b03918216600090815260066020908152604080832093909416825291909152205460ff1690565b6102aa6104c8366004612eaf565b6000908152600f602052604090205490565b60005461022990600160a01b900460ff1681565b6102516104fc366004612ba0565b6117d8565b60006001600160e01b0319821663780e9d6360e01b1480610526575061052682611870565b92915050565b6000546001600160a01b0316331461055f5760405162461bcd60e51b815260040161055690613117565b60405180910390fd5b600d5460ff16151581151514156105b85760405162461bcd60e51b815260206004820181905260248201527f4e4557205354415445204944454e544943414c20544f204f4c442053544154456044820152606401610556565b600d546040805160ff9092161515825282151560208301527f12c42150a6a28a3fc6fe276a678e51376578ce320ca712bc61cab8b5e85f80d0910160405180910390a1600d805460ff1916911515919091179055565b60606001805461061d9061320c565b80601f01602080910402602001604051908101604052809291908181526020018280546106499061320c565b80156106965780601f1061066b57610100808354040283529160200191610696565b820191906000526020600020905b81548152906001019060200180831161067957829003601f168201915b5050505050905090565b6000818152600360205260408120546001600160a01b03166107195760405162461bcd60e51b815260206004820152602c60248201527f4552433732313a20617070726f76656420717565727920666f72206e6f6e657860448201526b34b9ba32b73a103a37b5b2b760a11b6064820152608401610556565b506000908152600560205260409020546001600160a01b031690565b600061074082610cdd565b9050806001600160a01b0316836001600160a01b031614156107ae5760405162461bcd60e51b815260206004820152602160248201527f4552433732313a20617070726f76616c20746f2063757272656e74206f776e656044820152603960f91b6064820152608401610556565b336001600160a01b03821614806107ca57506107ca813361048c565b61083c5760405162461bcd60e51b815260206004820152603860248201527f4552433732313a20617070726f76652063616c6c6572206973206e6f74206f7760448201527f6e6572206e6f7220617070726f76656420666f7220616c6c00000000000000006064820152608401610556565b61084683836118c0565b505050565b610856335b8261192e565b6108725760405162461bcd60e51b81526004016105569061314c565b610846838383611a25565b600061088883610dd6565b82106108ea5760405162461bcd60e51b815260206004820152602b60248201527f455243373231456e756d657261626c653a206f776e657220696e646578206f7560448201526a74206f6620626f756e647360a81b6064820152608401610556565b506001600160a01b03919091166000908152600760209081526040808320938352929052205490565b601154604080516310efb77360e31b815290516000926001600160a01b03169163877dbb98916004808301926020929190829003018186803b15801561095857600080fd5b505afa15801561096c573d6000803e3d6000fd5b505050506040513d601f19601f820116820180604052508101906109909190612bbd565b905090565b6000546001600160a01b031633146109bf5760405162461bcd60e51b815260040161055690613117565b6109c7610913565b6001600160a01b031663a9059cbb336109de610913565b6040516370a0823160e01b81523060048201526001600160a01b0391909116906370a082319060240160206040518083038186803b158015610a1f57600080fd5b505afa158015610a33573d6000803e3d6000fd5b505050506040513d601f19601f82011682018060405250810190610a579190612ec8565b6040516001600160e01b031960e085901b1681526001600160a01b0390921660048301526024820152604401602060405180830381600087803b158015610a9d57600080fd5b505af1158015610ab1573d6000803e3d6000fd5b505050506040513d601f19601f82011682018060405250810190610ad59190612d4b565b50565b61084683838360405180602001604052806000815250610ead565b610afc33610850565b610b5e5760405162461bcd60e51b815260206004820152602d60248201527f4552433732313a2043414c4c4552204953204e4f5420544f4b454e204f574e4560448201526c148813d4881054141493d59151609a1b6064820152608401610556565b610ad581611c34565b60606000610b7483610dd6565b905060008167ffffffffffffffff811115610b9157610b916132e4565b604051908082528060200260200182016040528015610bba578160200160208202803683370190505b50905060005b82811015610c0157610bd2858261087d565b828281518110610be457610be46132ce565b602090810291909101015280610bf981613247565b915050610bc0565b509392505050565b6000610c1460095490565b8210610c775760405162461bcd60e51b815260206004820152602c60248201527f455243373231456e756d657261626c653a20676c6f62616c20696e646578206f60448201526b7574206f6620626f756e647360a01b6064820152608401610556565b60098281548110610c8a57610c8a6132ce565b90600052602060002001549050919050565b6000546001600160a01b03163314610cc65760405162461bcd60e51b815260040161055690613117565b8051610cd990600c906020840190612a4f565b5050565b6000818152600360205260408120546001600160a01b0316806105265760405162461bcd60e51b815260206004820152602960248201527f4552433732313a206f776e657220717565727920666f72206e6f6e657869737460448201526832b73a103a37b5b2b760b91b6064820152608401610556565b6000546001600160a01b03163314610d7e5760405162461bcd60e51b815260040161055690613117565b60008054821515600160a01b0260ff60a01b199091161790556040517f609a97f3fcf929cc538454a17116257acd7e613a143e6bd10347d0f3b8369a0490610dcb90831515815260200190565b60405180910390a150565b60006001600160a01b038216610e415760405162461bcd60e51b815260206004820152602a60248201527f4552433732313a2062616c616e636520717565727920666f7220746865207a65604482015269726f206164647265737360b01b6064820152608401610556565b506001600160a01b031660009081526004602052604090205490565b6000546001600160a01b03163314610e875760405162461bcd60e51b815260040161055690613117565b610e916000611cdb565b565b60606002805461061d9061320c565b610cd9338383611d2b565b610eb7338361192e565b610ed35760405162461bcd60e51b81526004016105569061314c565b610edf84848484611dfa565b50505050565b6002600b541415610f385760405162461bcd60e51b815260206004820152601f60248201527f5265656e7472616e637947756172643a207265656e7472616e742063616c6c006044820152606401610556565b6002600b556000610f47610913565b6001600160a01b03161415610fa95760405162461bcd60e51b815260206004820152602260248201527f534554205041594d454e5420544f4b454e20494e20494e54454c4c53455454496044820152614e4760f01b6064820152608401610556565b601154604080516348d9584560e01b815290516000926001600160a01b0316916348d95845916004808301926020929190829003018186803b158015610fee57600080fd5b505afa158015611002573d6000803e3d6000fd5b505050506040513d601f19601f820116820180604052508101906110269190612bbd565b6001600160a01b031614156110905760405162461bcd60e51b815260206004820152602a60248201527f4d5553542053455420464143544f5259204144445245535320494e20494e54456044820152694c4c2053455454494e4760b01b6064820152608401610556565b600061109b60095490565b6110a690600161319d565b905061111b89898080601f01602080910402602001604051908101604052809392919081815260200183838082843760009201919091525050604080516020601f8d018190048102820181019092528b815292508b91508a9081908401838280828437600092019190915250611e2d92505050565b8015611195575061119585858080601f01602080910402602001604051908101604052809392919081815260200183838082843760009201919091525050604080516020601f89018190048102820181019092528781529250879150869081908401838280828437600092019190915250611e2d92505050565b6111f05760405162461bcd60e51b815260206004820152602660248201527f4f4e4c5920414343455054205452555448484f4c444552205349474e4544204d60448201526545535341474560d01b6064820152608401610556565b6000806111ff8a8c018c612ee1565b9150915061120d8b8b611ed8565b6112515760405162461bcd60e51b81526020600482015260156024820152741512114814d510551554c81254c812539590531251605a1b6044820152606401610556565b6000828152601060209081526040808320869055858352600f8252808320859055848352600e90915290204390556112893384612095565b60115460408051634acbc0ff60e01b815290516000926001600160a01b031691634acbc0ff916004808301926020929190829003018186803b1580156112ce57600080fd5b505afa1580156112e2573d6000803e3d6000fd5b505050506040513d601f19601f820116820180604052508101906113069190612ec8565b905081156114a957601160009054906101000a90046001600160a01b03166001600160a01b031663150d5e8a6040518163ffffffff1660e01b815260040160206040518083038186803b15801561135c57600080fd5b505afa158015611370573d6000803e3d6000fd5b505050506040513d601f19601f820116820180604052508101906113949190612ec8565b61139e908261319d565b9050601160009054906101000a90046001600160a01b03166001600160a01b03166348d958456040518163ffffffff1660e01b815260040160206040518083038186803b1580156113ee57600080fd5b505afa158015611402573d6000803e3d6000fd5b505050506040513d601f19601f820116820180604052508101906114269190612bbd565b6001600160a01b031663cde32f728989876040518463ffffffff1660e01b815260040161145593929190613079565b602060405180830381600087803b15801561146f57600080fd5b505af1158015611483573d6000803e3d6000fd5b505050506040513d601f19601f820116820180604052508101906114a79190612bbd565b505b806114b2610913565b6040516370a0823160e01b81523360048201526001600160a01b0391909116906370a082319060240160206040518083038186803b1580156114f357600080fd5b505afa158015611507573d6000803e3d6000fd5b505050506040513d601f19601f8201168201806040525081019061152b9190612ec8565b10156115b95760405162461bcd60e51b815260206004820152605160248201527f54484520455243323020544f4b454e20414d4f554e542053454e54204953204e60448201527f4f5420434f5252454354204f5220494e5355464649454e54204552433230205460648201527027a5a2a71020a6a7aaa72a1029a2a72a1760791b608482015260a401610556565b6115c1610913565b6040516323b872dd60e01b8152336004820152306024820152604481018390526001600160a01b0391909116906323b872dd90606401602060405180830381600087803b15801561161157600080fd5b505af1158015611625573d6000803e3d6000fd5b505050506040513d601f19601f820116820180604052508101906116499190612d4b565b506040805133815260208101839052908101859052606081018490524260808201524360a08201527f0d040c3ce7ae463310855c71637f68ee2df1db85b2621cc18492d78bd0c436169060c00160405180910390a150506001600b5550505050505050505050565b6000818152600360205260409020546060906001600160a01b03166117305760405162461bcd60e51b815260206004820152602f60248201527f4552433732314d657461646174613a2055524920717565727920666f72206e6f60448201526e3732bc34b9ba32b73a103a37b5b2b760891b6064820152608401610556565b600061173a6120af565b9050600081511161175a5760405180602001604052806000815250611785565b80611764846120be565b604051602001611775929190612fc9565b6040516020818303038152906040525b9392505050565b6000546001600160a01b031633146117b65760405162461bcd60e51b815260040161055690613117565b601180546001600160a01b0319166001600160a01b0392909216919091179055565b6000546001600160a01b031633146118025760405162461bcd60e51b815260040161055690613117565b6001600160a01b0381166118675760405162461bcd60e51b815260206004820152602660248201527f4f776e61626c653a206e6577206f776e657220697320746865207a65726f206160448201526564647265737360d01b6064820152608401610556565b610ad581611cdb565b60006001600160e01b031982166380ac58cd60e01b14806118a157506001600160e01b03198216635b5e139f60e01b145b8061052657506301ffc9a760e01b6001600160e01b0319831614610526565b600081815260056020526040902080546001600160a01b0319166001600160a01b03841690811790915581906118f582610cdd565b6001600160a01b03167f8c5be1e5ebec7d5bd14f71427d1e84f3dd0314c0f7b2291e5b200ac8c7c3b92560405160405180910390a45050565b6000818152600360205260408120546001600160a01b03166119a75760405162461bcd60e51b815260206004820152602c60248201527f4552433732313a206f70657261746f7220717565727920666f72206e6f6e657860448201526b34b9ba32b73a103a37b5b2b760a11b6064820152608401610556565b60006119b283610cdd565b9050806001600160a01b0316846001600160a01b031614806119ed5750836001600160a01b03166119e2846106a0565b6001600160a01b0316145b80611a1d57506001600160a01b0380821660009081526006602090815260408083209388168352929052205460ff165b949350505050565b600054600160a01b900460ff16611a895760405162461bcd60e51b815260206004820152602260248201527f4552433732313a206e6f6e2d7472616e7366657261626c652063757272656e746044820152616c7960f01b6064820152608401610556565b826001600160a01b0316611a9c82610cdd565b6001600160a01b031614611b045760405162461bcd60e51b815260206004820152602960248201527f4552433732313a207472616e73666572206f6620746f6b656e2074686174206960448201526839903737ba1037bbb760b91b6064820152608401610556565b6001600160a01b038216611b665760405162461bcd60e51b8152602060048201526024808201527f4552433732313a207472616e7366657220746f20746865207a65726f206164646044820152637265737360e01b6064820152608401610556565b611b718383836121bc565b611b7c6000826118c0565b6001600160a01b0383166000908152600460205260408120805460019290611ba59084906131c9565b90915550506001600160a01b0382166000908152600460205260408120805460019290611bd390849061319d565b909155505060008181526003602052604080822080546001600160a01b0319166001600160a01b0386811691821790925591518493918716917fddf252ad1be2c89b69c2b068fc378daa952ba7f163c4a11628f55a4df523b3ef91a4505050565b6000611c3f82610cdd565b9050611c4d816000846121bc565b611c586000836118c0565b6001600160a01b0381166000908152600460205260408120805460019290611c819084906131c9565b909155505060008281526003602052604080822080546001600160a01b0319169055518391906001600160a01b038416907fddf252ad1be2c89b69c2b068fc378daa952ba7f163c4a11628f55a4df523b3ef908390a45050565b600080546001600160a01b038381166001600160a01b0319831681178455604051919092169283917f8be0079c531659141344cd1fd0a4f28419497f9722a3daafe3b4186f6b6457e09190a35050565b816001600160a01b0316836001600160a01b03161415611d8d5760405162461bcd60e51b815260206004820152601960248201527f4552433732313a20617070726f766520746f2063616c6c6572000000000000006044820152606401610556565b6001600160a01b03838116600081815260066020908152604080832094871680845294825291829020805460ff191686151590811790915591519182527f17307eab39ab6107e8899845ad3d59bd9653f200f220920489ca2b5937696c31910160405180910390a3505050565b611e05848484611a25565b611e1184848484612274565b610edf5760405162461bcd60e51b8152600401610556906130c5565b81516020808401919091206011546040805163a720969f60e01b815290516000946001600160a01b039093169263a720969f9260048082019391829003018186803b158015611e7b57600080fd5b505afa158015611e8f573d6000803e3d6000fd5b505050506040513d601f19601f82011682018060405250810190611eb39190612bbd565b6001600160a01b0316611ec68285612381565b6001600160a01b031614949350505050565b600080808080808080611eed898b018b612f06565b975097509750975097509750509650336001600160a01b0316856001600160a01b0316148015611f1c57503332145b611f515760405162461bcd60e51b81526020600482015260066024820152651393c81093d560d21b6044820152606401610556565b828015611f665750306001600160a01b038516145b8015611f70575081155b8015611f795750805b8015611f855750600986115b611fca5760405162461bcd60e51b815260206004820152601660248201527515121254c81254c8149154555254915108159053125160521b6044820152606401610556565b600087815260106020526040902054158015611fe65750600087115b6120325760405162461bcd60e51b815260206004820152601860248201527f414c5245414459204d4f44454c204944204d494e5445442e00000000000000006044820152606401610556565b600d5460ff16156120855760405162461bcd60e51b815260206004820152601d60248201527f53414c45204953204e4f54204143544956452043555252454e544c592e0000006044820152606401610556565b5060019998505050505050505050565b610cd98282604051806020016040528060008152506123db565b6060600c805461061d9061320c565b6060816120e25750506040805180820190915260018152600360fc1b602082015290565b8160005b811561210c57806120f681613247565b91506121059050600a836131b5565b91506120e6565b60008167ffffffffffffffff811115612127576121276132e4565b6040519080825280601f01601f191660200182016040528015612151576020820181803683370190505b5090505b8415611a1d576121666001836131c9565b9150612173600a86613262565b61217e90603061319d565b60f81b818381518110612193576121936132ce565b60200101906001600160f81b031916908160001a9053506121b5600a866131b5565b9450612155565b6001600160a01b0383166122175761221281600980546000838152600a60205260408120829055600182018355919091527f6e1540171b6c0c960b71a7020d9f60077f6af931a8bbf590da0223dacf75c7af0155565b61223a565b816001600160a01b0316836001600160a01b03161461223a5761223a838261240e565b6001600160a01b03821661225157610846816124ab565b826001600160a01b0316826001600160a01b03161461084657610846828261255a565b60006001600160a01b0384163b1561237657604051630a85bd0160e11b81526001600160a01b0385169063150b7a02906122b8903390899088908890600401612ff8565b602060405180830381600087803b1580156122d257600080fd5b505af1925050508015612302575060408051601f3d908101601f191682019092526122ff91810190612d85565b60015b61235c573d808015612330576040519150601f19603f3d011682016040523d82523d6000602084013e612335565b606091505b5080516123545760405162461bcd60e51b8152600401610556906130c5565b805181602001fd5b6001600160e01b031916630a85bd0160e11b149050611a1d565b506001949350505050565b6040517f19457468657265756d205369676e6564204d6573736167653a0a3332000000006020820152603c81018390526000908190605c01604051602081830303815290604052805190602001209050611a1d818461259e565b6123e583836125ba565b6123f26000848484612274565b6108465760405162461bcd60e51b8152600401610556906130c5565b6000600161241b84610dd6565b61242591906131c9565b600083815260086020526040902054909150808214612478576001600160a01b03841660009081526007602090815260408083208584528252808320548484528184208190558352600890915290208190555b5060009182526008602090815260408084208490556001600160a01b039094168352600781528383209183525290812055565b6009546000906124bd906001906131c9565b6000838152600a6020526040812054600980549394509092849081106124e5576124e56132ce565b906000526020600020015490508060098381548110612506576125066132ce565b6000918252602080832090910192909255828152600a9091526040808220849055858252812055600980548061253e5761253e6132b8565b6001900381819060005260206000200160009055905550505050565b600061256583610dd6565b6001600160a01b039093166000908152600760209081526040808320868452825280832085905593825260089052919091209190915550565b60008060006125ad8585612708565b91509150610c0181612778565b6001600160a01b0382166126105760405162461bcd60e51b815260206004820181905260248201527f4552433732313a206d696e7420746f20746865207a65726f20616464726573736044820152606401610556565b6000818152600360205260409020546001600160a01b0316156126755760405162461bcd60e51b815260206004820152601c60248201527f4552433732313a20746f6b656e20616c7265616479206d696e746564000000006044820152606401610556565b612681600083836121bc565b6001600160a01b03821660009081526004602052604081208054600192906126aa90849061319d565b909155505060008181526003602052604080822080546001600160a01b0319166001600160a01b03861690811790915590518392907fddf252ad1be2c89b69c2b068fc378daa952ba7f163c4a11628f55a4df523b3ef908290a45050565b60008082516041141561273f5760208301516040840151606085015160001a61273387828585612933565b94509450505050612771565b825160401415612769576020830151604084015161275e868383612a20565b935093505050612771565b506000905060025b9250929050565b600081600481111561278c5761278c6132a2565b14156127955750565b60018160048111156127a9576127a96132a2565b14156127f75760405162461bcd60e51b815260206004820152601860248201527f45434453413a20696e76616c6964207369676e617475726500000000000000006044820152606401610556565b600281600481111561280b5761280b6132a2565b14156128595760405162461bcd60e51b815260206004820152601f60248201527f45434453413a20696e76616c6964207369676e6174757265206c656e677468006044820152606401610556565b600381600481111561286d5761286d6132a2565b14156128c65760405162461bcd60e51b815260206004820152602260248201527f45434453413a20696e76616c6964207369676e6174757265202773272076616c604482015261756560f01b6064820152608401610556565b60048160048111156128da576128da6132a2565b1415610ad55760405162461bcd60e51b815260206004820152602260248201527f45434453413a20696e76616c6964207369676e6174757265202776272076616c604482015261756560f01b6064820152608401610556565b6000807f7fffffffffffffffffffffffffffffff5d576e7357a4501ddfe92f46681b20a083111561296a5750600090506003612a17565b8460ff16601b1415801561298257508460ff16601c14155b156129935750600090506004612a17565b6040805160008082526020820180845289905260ff881692820192909252606081018690526080810185905260019060a0016020604051602081039080840390855afa1580156129e7573d6000803e3d6000fd5b5050604051601f1901519150506001600160a01b038116612a1057600060019250925050612a17565b9150600090505b94509492505050565b6000806001600160ff1b03831660ff84901c601b01612a4187828885612933565b935093505050935093915050565b828054612a5b9061320c565b90600052602060002090601f016020900481019282612a7d5760008555612ac3565b82601f10612a9657805160ff1916838001178555612ac3565b82800160010185558215612ac3579182015b82811115612ac3578251825591602001919060010190612aa8565b50612acf929150612ad3565b5090565b5b80821115612acf5760008155600101612ad4565b600067ffffffffffffffff80841115612b0357612b036132e4565b604051601f8501601f19908116603f01168101908282118183101715612b2b57612b2b6132e4565b81604052809350858152868686011115612b4457600080fd5b858560208301376000602087830101525050509392505050565b60008083601f840112612b7057600080fd5b50813567ffffffffffffffff811115612b8857600080fd5b60208301915083602082850101111561277157600080fd5b600060208284031215612bb257600080fd5b8135611785816132fa565b600060208284031215612bcf57600080fd5b8151611785816132fa565b60008060408385031215612bed57600080fd5b8235612bf8816132fa565b91506020830135612c08816132fa565b809150509250929050565b600080600060608486031215612c2857600080fd5b8335612c33816132fa565b92506020840135612c43816132fa565b929592945050506040919091013590565b60008060008060808587031215612c6a57600080fd5b8435612c75816132fa565b93506020850135612c85816132fa565b925060408501359150606085013567ffffffffffffffff811115612ca857600080fd5b8501601f81018713612cb957600080fd5b612cc887823560208401612ae8565b91505092959194509250565b60008060408385031215612ce757600080fd5b8235612cf2816132fa565b91506020830135612c088161330f565b60008060408385031215612d1557600080fd5b8235612d20816132fa565b946020939093013593505050565b600060208284031215612d4057600080fd5b81356117858161330f565b600060208284031215612d5d57600080fd5b81516117858161330f565b600060208284031215612d7a57600080fd5b81356117858161331d565b600060208284031215612d9757600080fd5b81516117858161331d565b6000806000806000806000806080898b031215612dbe57600080fd5b883567ffffffffffffffff80821115612dd657600080fd5b612de28c838d01612b5e565b909a50985060208b0135915080821115612dfb57600080fd5b612e078c838d01612b5e565b909850965060408b0135915080821115612e2057600080fd5b612e2c8c838d01612b5e565b909650945060608b0135915080821115612e4557600080fd5b50612e528b828c01612b5e565b999c989b5096995094979396929594505050565b600060208284031215612e7857600080fd5b813567ffffffffffffffff811115612e8f57600080fd5b8201601f81018413612ea057600080fd5b611a1d84823560208401612ae8565b600060208284031215612ec157600080fd5b5035919050565b600060208284031215612eda57600080fd5b5051919050565b60008060408385031215612ef457600080fd5b823591506020830135612c088161330f565b600080600080600080600080610100898b031215612f2357600080fd5b883597506020890135612f358161330f565b9650604089013595506060890135612f4c816132fa565b94506080890135612f5c816132fa565b935060a0890135612f6c8161330f565b925060c0890135612f7c8161330f565b915060e0890135612f8c8161330f565b809150509295985092959890939650565b60008151808452612fb58160208601602086016131e0565b601f01601f19169290920160200192915050565b60008351612fdb8184602088016131e0565b835190830190612fef8183602088016131e0565b01949350505050565b6001600160a01b038581168252841660208201526040810183905260806060820181905260009061302b90830184612f9d565b9695505050505050565b6020808252825182820181905260009190848201906040850190845b8181101561306d57835183529284019291840191600101613051565b50909695505050505050565b604081528260408201528284606083013760006060848301015260006060601f19601f8601168301019050826020830152949350505050565b6020815260006117856020830184612f9d565b60208082526032908201527f4552433732313a207472616e7366657220746f206e6f6e20455243373231526560408201527131b2b4bb32b91034b6b83632b6b2b73a32b960711b606082015260800190565b6020808252818101527f4f776e61626c653a2063616c6c6572206973206e6f7420746865206f776e6572604082015260600190565b60208082526031908201527f4552433732313a207472616e736665722063616c6c6572206973206e6f74206f6040820152701ddb995c881b9bdc88185c1c1c9bdd9959607a1b606082015260800190565b600082198211156131b0576131b0613276565b500190565b6000826131c4576131c461328c565b500490565b6000828210156131db576131db613276565b500390565b60005b838110156131fb5781810151838201526020016131e3565b83811115610edf5750506000910152565b600181811c9082168061322057607f821691505b6020821081141561324157634e487b7160e01b600052602260045260246000fd5b50919050565b600060001982141561325b5761325b613276565b5060010190565b6000826132715761327161328c565b500690565b634e487b7160e01b600052601160045260246000fd5b634e487b7160e01b600052601260045260246000fd5b634e487b7160e01b600052602160045260246000fd5b634e487b7160e01b600052603160045260246000fd5b634e487b7160e01b600052603260045260246000fd5b634e487b7160e01b600052604160045260246000fd5b6001600160a01b0381168114610ad557600080fd5b8015158114610ad557600080fd5b6001600160e01b031981168114610ad557600080fdfea26469706673582212209b3770352362ff10fa31df88414383a72c2e77741ef6efd7e0deff2a13fbc83064736f6c63430008070033",
  "immutableReferences": {},
  "source": "// SPDX-License-Identifier: MIT\n\npragma solidity ^0.8.0;\n\nimport \"./lib/ICreatorNFT.sol\";\nimport \"./lib/IIntellSetting.sol\";\nimport \"./lib/ERC721Enumerable.sol\";\nimport \"./lib/ReentrancyGuard.sol\";\nimport \"./lib/SafeMath.sol\";\nimport \"./lib/Strings.sol\";\nimport \"./lib/ECDSA.sol\";\nimport \"./lib/IFactory.sol\";\n\ncontract IntellCreatorNFTContract is\n    ERC721Enumerable,\n    ReentrancyGuard,\n    ICreatorNFT\n{\n    using Strings for uint256;\n    using SafeMath for uint256;\n\n    string _baseTokenURI;\n    bool private _paused = false;\n    mapping(uint256 => uint256) private _creatorNFTMintedHistory;\n    mapping(uint256 => uint256) private _modelIdByTokenId;\n    mapping(uint256 => uint256) private _tokenIdByModelId;\n\n    IIntellSetting private _intellSetting;\n\n    event UpdateMintPrice(uint256 oldMintPrice, uint256 newMintPrice);\n    event UpdatePause(bool oldVal, bool newVal);\n    event UpdatePaymentToken(address oldPaymentToken, address newPaymentToken);\n    event NewModelMint(\n        address creator,\n        uint256 price,\n        uint256 tokenId,\n        uint256 modelId,\n        uint256 timestamp,\n        uint256 blocknumber\n    );\n\n    constructor(string memory baseURI, IIntellSetting _intellSetting_)\n        ERC721(\"Creator NFT\", \"CNFT\")\n    {\n        setBaseURI(baseURI);\n        _intellSetting = _intellSetting_;\n    }\n\n    function modelIdByTokenId(uint256 _tokenId)\n        external\n        view\n        override\n        returns (uint256)\n    {\n        return _modelIdByTokenId[_tokenId];\n    }\n\n    function setIntellSetting(IIntellSetting _intellSetting_)\n        external\n        onlyOwner\n    {\n        _intellSetting = _intellSetting_;\n    }\n\n    function intellSetting() external view returns (IIntellSetting) {\n        return _intellSetting;\n    }\n\n    function tokenIdByModelId(uint256 _modelId)\n        external\n        view\n        override\n        returns (uint256)\n    {\n        return _tokenIdByModelId[_modelId];\n    }\n\n    function creatorNFTMintedHistory(uint256 _modelId)\n        external\n        view\n        override\n        returns (uint256)\n    {\n        return _creatorNFTMintedHistory[_modelId];\n    }\n\n    function setBaseURI(string memory baseURI) public onlyOwner {\n        _baseTokenURI = baseURI;\n    }\n\n    function pause(bool val) public onlyOwner {\n        require(_paused != val, \"NEW STATE IDENTICAL TO OLD STATE\");\n        emit UpdatePause(_paused, val);\n        _paused = val;\n    }\n\n    function getPause() public view override returns (bool) {\n        return _paused;\n    }\n\n    function burn(uint256 tokenId) public virtual {\n        //solhint-disable-next-line max-line-length\n        require(\n            _isApprovedOrOwner(_msgSender(), tokenId),\n            \"ERC721: CALLER IS NOT TOKEN OWNER OR APPROVED\"\n        );\n        _burn(tokenId);\n    }\n\n    function paymentToken() public view override returns (IERC20) {\n        return IERC20(_intellSetting.intellTokenAddr());\n    }\n\n    function recoverSigner(bytes32 hash, bytes memory signature)\n        internal\n        pure\n        returns (address)\n    {\n        bytes32 messageDigest = keccak256(\n            abi.encodePacked(\"\\x19Ethereum Signed Message:\\n32\", hash)\n        );\n        return ECDSA.recover(messageDigest, signature);\n    }\n\n    function verifyMessage(bytes memory message, bytes memory signature)\n        internal\n        view\n        returns (bool)\n    {\n        bytes32 hash = keccak256(message);\n        return recoverSigner(hash, signature) == _intellSetting.truthHolder();\n    }\n\n    function checkStatus(bytes calldata statusMessage) internal view returns(bool) {\n        (\n            uint256 _MODEL_ID,\n            ,\n            uint256 _MODEL_PROGRESS_STATUS,\n            address _USER_ADDR,\n            address _INTELL_MODEL_NFT_CONTRACT_ADDR,\n            bool _VERIFIED_AS_CREATOR,\n            bool _USER_SUSPENDED,\n            bool _MODEL_UPLOADED\n        ) = abi.decode(\n                statusMessage,\n                (uint256, bool, uint256, address, address, bool, bool, bool)\n            );\n\n        require(_USER_ADDR == msg.sender && msg.sender == tx.origin, \"NO BOT\");\n        require(\n            _VERIFIED_AS_CREATOR &&\n                address(this) == _INTELL_MODEL_NFT_CONTRACT_ADDR &&\n                !_USER_SUSPENDED &&\n                _MODEL_UPLOADED &&\n                _MODEL_PROGRESS_STATUS > 9,\n            \"THIS IS REQUIRED VALID\"\n        );\n\n        require(\n            _tokenIdByModelId[_MODEL_ID] == 0 && _MODEL_ID > 0,\n            \"ALREADY MODEL ID MINTED.\"\n        );\n        require(!_paused, \"SALE IS NOT ACTIVE CURRENTLY.\");\n\n        return true;\n    }\n\n    function adopt(\n        bytes calldata statusMessage,\n        bytes calldata statusSignature,\n        bytes calldata shareMessage,\n        bytes calldata shareSignature\n    ) external nonReentrant {\n        require(\n            address(paymentToken()) != address(0),\n            \"SET PAYMENT TOKEN IN INTELLSETTING\"\n        );\n\n        require(\n            _intellSetting.factoryContractAddr() != address(0),\n            \"MUST SET FACTORY ADDRESS IN INTELL SETTING\"\n        );\n\n        uint256 nextTokenId = totalSupply() + 1;\n\n        require(\n            verifyMessage(statusMessage, statusSignature) &&\n                verifyMessage(shareMessage, shareSignature),\n            \"ONLY ACCEPT TRUTHHOLDER SIGNED MESSAGE\"\n        );\n\n        (uint256 _MODEL_ID, bool _HAS_SHARE) = abi.decode(\n            statusMessage,\n            (uint256, bool)\n        );\n\n        require(checkStatus(statusMessage), \"THE STATUS IS INVALID\");\n\n        _tokenIdByModelId[_MODEL_ID] = nextTokenId;\n        _modelIdByTokenId[nextTokenId] = _MODEL_ID;\n\n        _creatorNFTMintedHistory[_MODEL_ID] = block.number;\n\n        _safeMint(msg.sender, nextTokenId);\n\n        uint256 paymentTokenAmount = _intellSetting.modelLaunchPrice();\n\n        if (_HAS_SHARE) {\n            paymentTokenAmount += _intellSetting.shareNFTLaunchPrice();\n            IFactory(_intellSetting.factoryContractAddr())\n                .createShareNFTContract(shareMessage, nextTokenId);\n        }\n\n        require(\n            paymentToken().balanceOf(msg.sender) >= paymentTokenAmount,\n            \"THE ERC20 TOKEN AMOUNT SENT IS NOT CORRECT OR INSUFFIENT ERC20 TOKEN AMOUNT SENT.\"\n        );\n\n        paymentToken().transferFrom(\n            msg.sender,\n            address(this),\n            paymentTokenAmount\n        );\n\n        emit NewModelMint(\n            msg.sender,\n            paymentTokenAmount,\n            nextTokenId,\n            _MODEL_ID,\n            block.timestamp,\n            block.number\n        );\n    }\n\n    function walletOfOwner(address _owner)\n        public\n        view\n        override\n        returns (uint256[] memory)\n    {\n        uint256 tokenCount = balanceOf(_owner);\n\n        uint256[] memory tokensId = new uint256[](tokenCount);\n        for (uint256 i; i < tokenCount; i++) {\n            tokensId[i] = tokenOfOwnerByIndex(_owner, i);\n        }\n        return tokensId;\n    }\n\n    function _baseURI() internal view virtual override returns (string memory) {\n        return _baseTokenURI;\n    }\n\n    function withdraw() external onlyOwner {\n        paymentToken().transfer(\n            _msgSender(),\n            paymentToken().balanceOf(address(this))\n        );\n    }\n\n    function version() external pure returns (uint32) {\n        return 1; //1.0.0\n    }\n}\n",
  "sourcePath": "D:\\Projects\\US\\intell-truffle-deployer\\contracts\\IntellCreatorNFTContract.sol",
  "compiler": {
    "name": "solc",
    "version": "0.8.7+commit.e28d00a7.Emscripten.clang"
  },
  "schemaVersion": "3.4.11",
  "updatedAt": "2023-04-29T18:35:38.170Z",
  "devdoc": {
    "kind": "dev",
    "methods": {
      "approve(address,uint256)": {
        "details": "See {IERC721-approve}."
      },
      "balanceOf(address)": {
        "details": "See {IERC721-balanceOf}."
      },
      "getApproved(uint256)": {
        "details": "See {IERC721-getApproved}."
      },
      "isApprovedForAll(address,address)": {
        "details": "See {IERC721-isApprovedForAll}."
      },
      "name()": {
        "details": "See {IERC721Metadata-name}."
      },
      "ownerOf(uint256)": {
        "details": "See {IERC721-ownerOf}."
      },
      "safeTransferFrom(address,address,uint256)": {
        "details": "See {IERC721-safeTransferFrom}."
      },
      "safeTransferFrom(address,address,uint256,bytes)": {
        "details": "See {IERC721-safeTransferFrom}."
      },
      "setApprovalForAll(address,bool)": {
        "details": "See {IERC721-setApprovalForAll}."
      },
      "supportsInterface(bytes4)": {
        "details": "See {IERC165-supportsInterface}."
      },
      "symbol()": {
        "details": "See {IERC721Metadata-symbol}."
      },
      "tokenByIndex(uint256)": {
        "details": "See {IERC721Enumerable-tokenByIndex}."
      },
      "tokenOfOwnerByIndex(address,uint256)": {
        "details": "See {IERC721Enumerable-tokenOfOwnerByIndex}."
      },
      "tokenURI(uint256)": {
        "details": "See {IERC721Metadata-tokenURI}."
      },
      "totalSupply()": {
        "details": "See {IERC721Enumerable-totalSupply}."
      },
      "transferFrom(address,address,uint256)": {
        "details": "See {IERC721-transferFrom}."
      }
    },
    "version": 1
  },
  "userdoc": {
    "kind": "user",
    "methods": {},
    "version": 1
  }
}