{
  "contractName": "IntellScan",
  "abi": [
    {
      "inputs": [
        {
          "internalType": "contract IIntellSetting",
          "name": "_intellSetting_",
          "type": "address"
        }
      ],
      "stateMutability": "nonpayable",
      "type": "constructor"
    },
    {
      "anonymous": false,
      "inputs": [
        {
          "indexed": true,
          "internalType": "address",
          "name": "previousOwner",
          "type": "address"
        },
        {
          "indexed": true,
          "internalType": "address",
          "name": "newOwner",
          "type": "address"
        }
      ],
      "name": "OwnershipTransferred",
      "type": "event"
    },
    {
      "inputs": [],
      "name": "owner",
      "outputs": [
        {
          "internalType": "address",
          "name": "",
          "type": "address"
        }
      ],
      "stateMutability": "view",
      "type": "function",
      "constant": true
    },
    {
      "inputs": [],
      "name": "renounceOwnership",
      "outputs": [],
      "stateMutability": "nonpayable",
      "type": "function"
    },
    {
      "inputs": [
        {
          "internalType": "address",
          "name": "newOwner",
          "type": "address"
        }
      ],
      "name": "transferOwnership",
      "outputs": [],
      "stateMutability": "nonpayable",
      "type": "function"
    },
    {
      "inputs": [],
      "name": "intellSetting",
      "outputs": [
        {
          "internalType": "contract IIntellSetting",
          "name": "",
          "type": "address"
        }
      ],
      "stateMutability": "view",
      "type": "function",
      "constant": true
    },
    {
      "inputs": [
        {
          "internalType": "contract IIntellSetting",
          "name": "_intellSetting_",
          "type": "address"
        }
      ],
      "name": "setIntelliSetting",
      "outputs": [],
      "stateMutability": "nonpayable",
      "type": "function"
    },
    {
      "inputs": [],
      "name": "creatorNFT",
      "outputs": [
        {
          "internalType": "contract IIntellModelNFTInDetail",
          "name": "",
          "type": "address"
        }
      ],
      "stateMutability": "view",
      "type": "function",
      "constant": true
    },
    {
      "inputs": [],
      "name": "factory",
      "outputs": [
        {
          "internalType": "contract IFactory",
          "name": "",
          "type": "address"
        }
      ],
      "stateMutability": "view",
      "type": "function",
      "constant": true
    },
    {
      "inputs": [
        {
          "internalType": "address",
          "name": "_owner",
          "type": "address"
        }
      ],
      "name": "creatorNFTCollectionDetail",
      "outputs": [
        {
          "components": [
            {
              "internalType": "uint256",
              "name": "tokenId",
              "type": "uint256"
            },
            {
              "internalType": "uint256",
              "name": "modelId",
              "type": "uint256"
            },
            {
              "internalType": "string",
              "name": "shareName",
              "type": "string"
            },
            {
              "internalType": "string",
              "name": "shareSymbol",
              "type": "string"
            },
            {
              "internalType": "uint256",
              "name": "totalSupply",
              "type": "uint256"
            },
            {
              "internalType": "uint256",
              "name": "maxTotalSupply",
              "type": "uint256"
            },
            {
              "internalType": "uint256",
              "name": "mnpw",
              "type": "uint256"
            },
            {
              "internalType": "uint256",
              "name": "mnpt",
              "type": "uint256"
            },
            {
              "internalType": "uint256",
              "name": "sharePrice",
              "type": "uint256"
            },
            {
              "internalType": "address",
              "name": "tokenAddr",
              "type": "address"
            },
            {
              "internalType": "uint256",
              "name": "withdrawAmount",
              "type": "uint256"
            },
            {
              "internalType": "address",
              "name": "shareNFTAddr",
              "type": "address"
            },
            {
              "internalType": "bool",
              "name": "hasShareLaunched",
              "type": "bool"
            },
            {
              "internalType": "bool",
              "name": "forOnlyUS",
              "type": "bool"
            },
            {
              "internalType": "uint256",
              "name": "endTime",
              "type": "uint256"
            },
            {
              "internalType": "bool",
              "name": "finished",
              "type": "bool"
            },
            {
              "internalType": "uint256",
              "name": "countdown",
              "type": "uint256"
            },
            {
              "internalType": "bool",
              "name": "withdrawn",
              "type": "bool"
            },
            {
              "internalType": "bool",
              "name": "blocked",
              "type": "bool"
            }
          ],
          "internalType": "struct IntellScan.ModelMetadata[]",
          "name": "",
          "type": "tuple[]"
        }
      ],
      "stateMutability": "view",
      "type": "function",
      "constant": true
    },
    {
      "inputs": [
        {
          "internalType": "uint256",
          "name": "_tokenId",
          "type": "uint256"
        }
      ],
      "name": "singleCreatorNFTDetail",
      "outputs": [
        {
          "components": [
            {
              "internalType": "uint256",
              "name": "tokenId",
              "type": "uint256"
            },
            {
              "internalType": "uint256",
              "name": "modelId",
              "type": "uint256"
            },
            {
              "internalType": "string",
              "name": "shareName",
              "type": "string"
            },
            {
              "internalType": "string",
              "name": "shareSymbol",
              "type": "string"
            },
            {
              "internalType": "uint256",
              "name": "totalSupply",
              "type": "uint256"
            },
            {
              "internalType": "uint256",
              "name": "maxTotalSupply",
              "type": "uint256"
            },
            {
              "internalType": "uint256",
              "name": "mnpw",
              "type": "uint256"
            },
            {
              "internalType": "uint256",
              "name": "mnpt",
              "type": "uint256"
            },
            {
              "internalType": "uint256",
              "name": "sharePrice",
              "type": "uint256"
            },
            {
              "internalType": "address",
              "name": "tokenAddr",
              "type": "address"
            },
            {
              "internalType": "uint256",
              "name": "withdrawAmount",
              "type": "uint256"
            },
            {
              "internalType": "address",
              "name": "shareNFTAddr",
              "type": "address"
            },
            {
              "internalType": "bool",
              "name": "hasShareLaunched",
              "type": "bool"
            },
            {
              "internalType": "bool",
              "name": "forOnlyUS",
              "type": "bool"
            },
            {
              "internalType": "uint256",
              "name": "endTime",
              "type": "uint256"
            },
            {
              "internalType": "bool",
              "name": "finished",
              "type": "bool"
            },
            {
              "internalType": "uint256",
              "name": "countdown",
              "type": "uint256"
            },
            {
              "internalType": "bool",
              "name": "withdrawn",
              "type": "bool"
            },
            {
              "internalType": "bool",
              "name": "blocked",
              "type": "bool"
            }
          ],
          "internalType": "struct IntellScan.ModelMetadata",
          "name": "",
          "type": "tuple"
        }
      ],
      "stateMutability": "view",
      "type": "function",
      "constant": true
    },
    {
      "inputs": [
        {
          "internalType": "uint256",
          "name": "_index",
          "type": "uint256"
        }
      ],
      "name": "singleInvestmentChance",
      "outputs": [
        {
          "components": [
            {
              "internalType": "uint256",
              "name": "tokenId",
              "type": "uint256"
            },
            {
              "internalType": "uint256",
              "name": "modelId",
              "type": "uint256"
            },
            {
              "internalType": "string",
              "name": "shareName",
              "type": "string"
            },
            {
              "internalType": "string",
              "name": "shareSymbol",
              "type": "string"
            },
            {
              "internalType": "uint256",
              "name": "totalSupply",
              "type": "uint256"
            },
            {
              "internalType": "uint256",
              "name": "maxTotalSupply",
              "type": "uint256"
            },
            {
              "internalType": "uint256",
              "name": "mnpw",
              "type": "uint256"
            },
            {
              "internalType": "uint256",
              "name": "mnpt",
              "type": "uint256"
            },
            {
              "internalType": "uint256",
              "name": "sharePrice",
              "type": "uint256"
            },
            {
              "internalType": "address",
              "name": "tokenAddr",
              "type": "address"
            },
            {
              "internalType": "uint256",
              "name": "withdrawAmount",
              "type": "uint256"
            },
            {
              "internalType": "address",
              "name": "shareNFTAddr",
              "type": "address"
            },
            {
              "internalType": "bool",
              "name": "hasShareLaunched",
              "type": "bool"
            },
            {
              "internalType": "bool",
              "name": "forOnlyUS",
              "type": "bool"
            },
            {
              "internalType": "uint256",
              "name": "endTime",
              "type": "uint256"
            },
            {
              "internalType": "bool",
              "name": "finished",
              "type": "bool"
            },
            {
              "internalType": "uint256",
              "name": "countdown",
              "type": "uint256"
            },
            {
              "internalType": "bool",
              "name": "withdrawn",
              "type": "bool"
            },
            {
              "internalType": "bool",
              "name": "blocked",
              "type": "bool"
            }
          ],
          "internalType": "struct IntellScan.ModelMetadata",
          "name": "",
          "type": "tuple"
        }
      ],
      "stateMutability": "view",
      "type": "function",
      "constant": true
    },
    {
      "inputs": [
        {
          "internalType": "address",
          "name": "_owner",
          "type": "address"
        },
        {
          "internalType": "uint256",
          "name": "_index",
          "type": "uint256"
        }
      ],
      "name": "shareNFTCollectionDetail",
      "outputs": [
        {
          "components": [
            {
              "internalType": "uint256",
              "name": "shareId",
              "type": "uint256"
            },
            {
              "internalType": "uint256",
              "name": "tokenId",
              "type": "uint256"
            },
            {
              "internalType": "uint256",
              "name": "modelId",
              "type": "uint256"
            },
            {
              "internalType": "string",
              "name": "shareName",
              "type": "string"
            },
            {
              "internalType": "string",
              "name": "shareSymbol",
              "type": "string"
            },
            {
              "internalType": "uint256",
              "name": "totalSupply",
              "type": "uint256"
            },
            {
              "internalType": "uint256",
              "name": "maxTotalSupply",
              "type": "uint256"
            },
            {
              "internalType": "uint256",
              "name": "mnpw",
              "type": "uint256"
            },
            {
              "internalType": "uint256",
              "name": "mnpt",
              "type": "uint256"
            },
            {
              "internalType": "uint256",
              "name": "sharePrice",
              "type": "uint256"
            },
            {
              "internalType": "address",
              "name": "tokenAddr",
              "type": "address"
            },
            {
              "internalType": "uint256",
              "name": "withdrawAmount",
              "type": "uint256"
            },
            {
              "internalType": "address",
              "name": "shareNFTAddr",
              "type": "address"
            },
            {
              "internalType": "bool",
              "name": "hasShareLaunched",
              "type": "bool"
            },
            {
              "internalType": "bool",
              "name": "forOnlyUS",
              "type": "bool"
            },
            {
              "internalType": "uint256",
              "name": "endTime",
              "type": "uint256"
            },
            {
              "internalType": "bool",
              "name": "finished",
              "type": "bool"
            },
            {
              "internalType": "uint256",
              "name": "countdown",
              "type": "uint256"
            },
            {
              "internalType": "bool",
              "name": "withdrawn",
              "type": "bool"
            },
            {
              "internalType": "bool",
              "name": "blocked",
              "type": "bool"
            }
          ],
          "internalType": "struct IntellScan.ShareMetadata[]",
          "name": "",
          "type": "tuple[]"
        }
      ],
      "stateMutability": "view",
      "type": "function",
      "constant": true
    }
  ],
  "bytecode": "0x60806040523480156200001157600080fd5b5060405162003569380380620035698339810160408190526200003491620000b5565b6200003f3362000065565b600180546001600160a01b0319166001600160a01b0392909216919091179055620000e7565b600080546001600160a01b038381166001600160a01b0319831681178455604051919092169283917f8be0079c531659141344cd1fd0a4f28419497f9722a3daafe3b4186f6b6457e09190a35050565b600060208284031215620000c857600080fd5b81516001600160a01b0381168114620000e057600080fd5b9392505050565b61347280620000f76000396000f3fe608060405234801561001057600080fd5b50600436106100a95760003560e01c8063715018a611610071578063715018a61461013f57806387bd0f59146101475780638da5cb5b14610158578063c19aeb0214610169578063c45a015514610189578063f2fde38b1461019157600080fd5b80631b2579d2146100ae57806329034a26146100d7578063447f66a3146100ec5780634f6d3f231461010c578063532c01911461012c575b600080fd5b6100c16100bc366004612e3d565b6101a4565b6040516100ce9190613178565b60405180910390f35b6100ea6100e5366004612e3d565b610e02565b005b6100ff6100fa366004613004565b610e2c565b6040516100ce919061333f565b6101146116b5565b6040516001600160a01b0390911681526020016100ce565b6100ff61013a366004613004565b611737565b6100ea612143565b6001546001600160a01b0316610114565b6000546001600160a01b0316610114565b61017c610177366004612e7e565b612157565b6040516100ce91906131da565b610114612c22565b6100ea61019f366004612e3d565b612c67565b606060006101b06116b5565b6040516370a0823160e01b81526001600160a01b03858116600483015291909116906370a082319060240160206040518083038186803b1580156101f357600080fd5b505afa158015610207573d6000803e3d6000fd5b505050506040513d601f19601f8201168201806040525081019061022b919061301d565b905060006102376116b5565b60405162438b6360e81b81526001600160a01b038681166004830152919091169063438b63009060240160006040518083038186803b15801561027957600080fd5b505afa15801561028d573d6000803e3d6000fd5b505050506040513d6000823e601f3d908101601f191682016040526102b59190810190612eaa565b905060008267ffffffffffffffff8111156102d2576102d2613411565b60405190808252806020026020018201604052801561030b57816020015b6102f8612d8f565b8152602001906001900390816102f05790505b50905060005b83811015610df9576000610323612c22565b6001600160a01b031663370dd7f8858481518110610343576103436133fb565b60200260200101516040518263ffffffff1660e01b815260040161036991815260200190565b60206040518083038186803b15801561038157600080fd5b505afa158015610395573d6000803e3d6000fd5b505050506040513d601f19601f820116820180604052508101906103b99190612e61565b6001600160a01b031614610c3a5760006103d1612c22565b6001600160a01b031663370dd7f88584815181106103f1576103f16133fb565b60200260200101516040518263ffffffff1660e01b815260040161041791815260200190565b60206040518083038186803b15801561042f57600080fd5b505afa158015610443573d6000803e3d6000fd5b505050506040513d601f19601f820116820180604052508101906104679190612e61565b9050600081905060008290506000826001600160a01b031663cfa07f786040518163ffffffff1660e01b815260040160206040518083038186803b1580156104ae57600080fd5b505afa1580156104c2573d6000803e3d6000fd5b505050506040513d601f19601f820116820180604052508101906104e6919061301d565b9050604051806102600160405280888781518110610506576105066133fb565b6020026020010151815260200161051b6116b5565b6001600160a01b031663edd05eb28a898151811061053b5761053b6133fb565b60200260200101516040518263ffffffff1660e01b815260040161056191815260200190565b60206040518083038186803b15801561057957600080fd5b505afa15801561058d573d6000803e3d6000fd5b505050506040513d601f19601f820116820180604052508101906105b1919061301d565b8152602001836001600160a01b03166306fdde036040518163ffffffff1660e01b815260040160006040518083038186803b1580156105ef57600080fd5b505afa158015610603573d6000803e3d6000fd5b505050506040513d6000823e601f3d908101601f1916820160405261062b9190810190612f79565b8152602001836001600160a01b03166395d89b416040518163ffffffff1660e01b815260040160006040518083038186803b15801561066957600080fd5b505afa15801561067d573d6000803e3d6000fd5b505050506040513d6000823e601f3d908101601f191682016040526106a59190810190612f79565b8152602001846001600160a01b03166318160ddd6040518163ffffffff1660e01b815260040160206040518083038186803b1580156106e357600080fd5b505afa1580156106f7573d6000803e3d6000fd5b505050506040513d601f19601f8201168201806040525081019061071b919061301d565b8152602001846001600160a01b03166333039d3d6040518163ffffffff1660e01b815260040160206040518083038186803b15801561075957600080fd5b505afa15801561076d573d6000803e3d6000fd5b505050506040513d601f19601f82011682018060405250810190610791919061301d565b8152602001846001600160a01b031663161548626040518163ffffffff1660e01b815260040160206040518083038186803b1580156107cf57600080fd5b505afa1580156107e3573d6000803e3d6000fd5b505050506040513d601f19601f82011682018060405250810190610807919061301d565b8152602001846001600160a01b0316638ecad7216040518163ffffffff1660e01b815260040160206040518083038186803b15801561084557600080fd5b505afa158015610859573d6000803e3d6000fd5b505050506040513d601f19601f8201168201806040525081019061087d919061301d565b8152602001846001600160a01b031663c002d23d6040518163ffffffff1660e01b815260040160206040518083038186803b1580156108bb57600080fd5b505afa1580156108cf573d6000803e3d6000fd5b505050506040513d601f19601f820116820180604052508101906108f3919061301d565b8152602001846001600160a01b031663ec3cdb596040518163ffffffff1660e01b815260040160206040518083038186803b15801561093157600080fd5b505afa158015610945573d6000803e3d6000fd5b505050506040513d601f19601f820116820180604052508101906109699190612e61565b6001600160a01b03168152602001846001600160a01b031663ec3cdb596040518163ffffffff1660e01b815260040160206040518083038186803b1580156109b057600080fd5b505afa1580156109c4573d6000803e3d6000fd5b505050506040513d601f19601f820116820180604052508101906109e89190612e61565b6040516370a0823160e01b81526001600160a01b03888116600483015291909116906370a082319060240160206040518083038186803b158015610a2b57600080fd5b505afa158015610a3f573d6000803e3d6000fd5b505050506040513d601f19601f82011682018060405250810190610a63919061301d565b8152602001856001600160a01b03168152602001600115158152602001846001600160a01b031663dd7cbcb96040518163ffffffff1660e01b815260040160206040518083038186803b158015610ab957600080fd5b505afa158015610acd573d6000803e3d6000fd5b505050506040513d601f19601f82011682018060405250810190610af19190612f57565b1515815260200182815260200142831015158152602001428310610b1e57610b194284613383565b610b21565b60005b8152602001846001600160a01b031663af78feef6040518163ffffffff1660e01b815260040160206040518083038186803b158015610b5f57600080fd5b505afa158015610b73573d6000803e3d6000fd5b505050506040513d601f19601f82011682018060405250810190610b979190612f57565b15158152602001846001600160a01b0316632377d6f46040518163ffffffff1660e01b815260040160206040518083038186803b158015610bd757600080fd5b505afa158015610beb573d6000803e3d6000fd5b505050506040513d601f19601f82011682018060405250810190610c0f9190612f57565b1515815250868681518110610c2657610c266133fb565b602002602001018190525050505050610de7565b604051806102600160405280848381518110610c5857610c586133fb565b60200260200101518152602001610c6d6116b5565b6001600160a01b031663edd05eb2868581518110610c8d57610c8d6133fb565b60200260200101516040518263ffffffff1660e01b8152600401610cb391815260200190565b60206040518083038186803b158015610ccb57600080fd5b505afa158015610cdf573d6000803e3d6000fd5b505050506040513d601f19601f82011682018060405250810190610d03919061301d565b8152602001604051806040016040528060018152602001605f60f81b8152508152602001604051806040016040528060018152602001605f60f81b8152508152602001600081526020016000815260200160008152602001600081526020016000815260200160006001600160a01b031681526020016000815260200160006001600160a01b03168152602001600015158152602001600015158152602001600081526020016001151581526020016000815260200160001515815260200160011515815250828281518110610ddb57610ddb6133fb565b60200260200101819052505b80610df1816133ca565b915050610311565b50949350505050565b610e0a612ce5565b600180546001600160a01b0319166001600160a01b0392909216919091179055565b610e34612d8f565b6000610e3e612c22565b6001600160a01b031663c1206047846040518263ffffffff1660e01b8152600401610e6b91815260200190565b60206040518083038186803b158015610e8357600080fd5b505afa158015610e97573d6000803e3d6000fd5b505050506040513d601f19601f82011682018060405250810190610ebb9190612e61565b9050600081905060008290506000826001600160a01b031663707e706b6040518163ffffffff1660e01b815260040160206040518083038186803b158015610f0257600080fd5b505afa158015610f16573d6000803e3d6000fd5b505050506040513d601f19601f82011682018060405250810190610f3a919061301d565b90506000836001600160a01b031663cfa07f786040518163ffffffff1660e01b815260040160206040518083038186803b158015610f7757600080fd5b505afa158015610f8b573d6000803e3d6000fd5b505050506040513d601f19601f82011682018060405250810190610faf919061301d565b9050604051806102600160405280838152602001610fcb6116b5565b6001600160a01b031663edd05eb2856040518263ffffffff1660e01b8152600401610ff891815260200190565b60206040518083038186803b15801561101057600080fd5b505afa158015611024573d6000803e3d6000fd5b505050506040513d601f19601f82011682018060405250810190611048919061301d565b8152602001846001600160a01b03166306fdde036040518163ffffffff1660e01b815260040160006040518083038186803b15801561108657600080fd5b505afa15801561109a573d6000803e3d6000fd5b505050506040513d6000823e601f3d908101601f191682016040526110c29190810190612f79565b8152602001846001600160a01b03166395d89b416040518163ffffffff1660e01b815260040160006040518083038186803b15801561110057600080fd5b505afa158015611114573d6000803e3d6000fd5b505050506040513d6000823e601f3d908101601f1916820160405261113c9190810190612f79565b8152602001856001600160a01b03166318160ddd6040518163ffffffff1660e01b815260040160206040518083038186803b15801561117a57600080fd5b505afa15801561118e573d6000803e3d6000fd5b505050506040513d601f19601f820116820180604052508101906111b2919061301d565b8152602001856001600160a01b03166333039d3d6040518163ffffffff1660e01b815260040160206040518083038186803b1580156111f057600080fd5b505afa158015611204573d6000803e3d6000fd5b505050506040513d601f19601f82011682018060405250810190611228919061301d565b8152602001856001600160a01b031663161548626040518163ffffffff1660e01b815260040160206040518083038186803b15801561126657600080fd5b505afa15801561127a573d6000803e3d6000fd5b505050506040513d601f19601f8201168201806040525081019061129e919061301d565b8152602001856001600160a01b0316638ecad7216040518163ffffffff1660e01b815260040160206040518083038186803b1580156112dc57600080fd5b505afa1580156112f0573d6000803e3d6000fd5b505050506040513d601f19601f82011682018060405250810190611314919061301d565b8152602001856001600160a01b031663c002d23d6040518163ffffffff1660e01b815260040160206040518083038186803b15801561135257600080fd5b505afa158015611366573d6000803e3d6000fd5b505050506040513d601f19601f8201168201806040525081019061138a919061301d565b8152602001856001600160a01b031663ec3cdb596040518163ffffffff1660e01b815260040160206040518083038186803b1580156113c857600080fd5b505afa1580156113dc573d6000803e3d6000fd5b505050506040513d601f19601f820116820180604052508101906114009190612e61565b6001600160a01b03168152602001856001600160a01b031663ec3cdb596040518163ffffffff1660e01b815260040160206040518083038186803b15801561144757600080fd5b505afa15801561145b573d6000803e3d6000fd5b505050506040513d601f19601f8201168201806040525081019061147f9190612e61565b6040516370a0823160e01b81526001600160a01b03898116600483015291909116906370a082319060240160206040518083038186803b1580156114c257600080fd5b505afa1580156114d6573d6000803e3d6000fd5b505050506040513d601f19601f820116820180604052508101906114fa919061301d565b8152602001866001600160a01b03168152602001600115158152602001856001600160a01b031663dd7cbcb96040518163ffffffff1660e01b815260040160206040518083038186803b15801561155057600080fd5b505afa158015611564573d6000803e3d6000fd5b505050506040513d601f19601f820116820180604052508101906115889190612f57565b15158152602001828152602001428310151581526020014283106115b5576115b04284613383565b6115b8565b60005b8152602001856001600160a01b031663af78feef6040518163ffffffff1660e01b815260040160206040518083038186803b1580156115f657600080fd5b505afa15801561160a573d6000803e3d6000fd5b505050506040513d601f19601f8201168201806040525081019061162e9190612f57565b15158152602001856001600160a01b0316632377d6f46040518163ffffffff1660e01b815260040160206040518083038186803b15801561166e57600080fd5b505afa158015611682573d6000803e3d6000fd5b505050506040513d601f19601f820116820180604052508101906116a69190612f57565b15159052979650505050505050565b60015460408051630a73b61360e41b815290516000926001600160a01b03169163a73b6130916004808301926020929190829003018186803b1580156116fa57600080fd5b505afa15801561170e573d6000803e3d6000fd5b505050506040513d601f19601f820116820180604052508101906117329190612e61565b905090565b61173f612d8f565b6000611749612c22565b6001600160a01b031663370dd7f8846040518263ffffffff1660e01b815260040161177691815260200190565b60206040518083038186803b15801561178e57600080fd5b505afa1580156117a2573d6000803e3d6000fd5b505050506040513d601f19601f820116820180604052508101906117c69190612e61565b6001600160a01b031614611fdf5760006117de612c22565b6001600160a01b031663370dd7f8846040518263ffffffff1660e01b815260040161180b91815260200190565b60206040518083038186803b15801561182357600080fd5b505afa158015611837573d6000803e3d6000fd5b505050506040513d601f19601f8201168201806040525081019061185b9190612e61565b9050600081905060008290506000826001600160a01b031663cfa07f786040518163ffffffff1660e01b815260040160206040518083038186803b1580156118a257600080fd5b505afa1580156118b6573d6000803e3d6000fd5b505050506040513d601f19601f820116820180604052508101906118da919061301d565b90506040518061026001604052808781526020016118f66116b5565b6001600160a01b031663edd05eb2896040518263ffffffff1660e01b815260040161192391815260200190565b60206040518083038186803b15801561193b57600080fd5b505afa15801561194f573d6000803e3d6000fd5b505050506040513d601f19601f82011682018060405250810190611973919061301d565b8152602001836001600160a01b03166306fdde036040518163ffffffff1660e01b815260040160006040518083038186803b1580156119b157600080fd5b505afa1580156119c5573d6000803e3d6000fd5b505050506040513d6000823e601f3d908101601f191682016040526119ed9190810190612f79565b8152602001836001600160a01b03166395d89b416040518163ffffffff1660e01b815260040160006040518083038186803b158015611a2b57600080fd5b505afa158015611a3f573d6000803e3d6000fd5b505050506040513d6000823e601f3d908101601f19168201604052611a679190810190612f79565b8152602001846001600160a01b03166318160ddd6040518163ffffffff1660e01b815260040160206040518083038186803b158015611aa557600080fd5b505afa158015611ab9573d6000803e3d6000fd5b505050506040513d601f19601f82011682018060405250810190611add919061301d565b8152602001846001600160a01b03166333039d3d6040518163ffffffff1660e01b815260040160206040518083038186803b158015611b1b57600080fd5b505afa158015611b2f573d6000803e3d6000fd5b505050506040513d601f19601f82011682018060405250810190611b53919061301d565b8152602001846001600160a01b031663161548626040518163ffffffff1660e01b815260040160206040518083038186803b158015611b9157600080fd5b505afa158015611ba5573d6000803e3d6000fd5b505050506040513d601f19601f82011682018060405250810190611bc9919061301d565b8152602001846001600160a01b0316638ecad7216040518163ffffffff1660e01b815260040160206040518083038186803b158015611c0757600080fd5b505afa158015611c1b573d6000803e3d6000fd5b505050506040513d601f19601f82011682018060405250810190611c3f919061301d565b8152602001846001600160a01b031663c002d23d6040518163ffffffff1660e01b815260040160206040518083038186803b158015611c7d57600080fd5b505afa158015611c91573d6000803e3d6000fd5b505050506040513d601f19601f82011682018060405250810190611cb5919061301d565b8152602001846001600160a01b031663ec3cdb596040518163ffffffff1660e01b815260040160206040518083038186803b158015611cf357600080fd5b505afa158015611d07573d6000803e3d6000fd5b505050506040513d601f19601f82011682018060405250810190611d2b9190612e61565b6001600160a01b03168152602001846001600160a01b031663ec3cdb596040518163ffffffff1660e01b815260040160206040518083038186803b158015611d7257600080fd5b505afa158015611d86573d6000803e3d6000fd5b505050506040513d601f19601f82011682018060405250810190611daa9190612e61565b6040516370a0823160e01b81526001600160a01b03888116600483015291909116906370a082319060240160206040518083038186803b158015611ded57600080fd5b505afa158015611e01573d6000803e3d6000fd5b505050506040513d601f19601f82011682018060405250810190611e25919061301d565b8152602001856001600160a01b03168152602001600115158152602001846001600160a01b031663dd7cbcb96040518163ffffffff1660e01b815260040160206040518083038186803b158015611e7b57600080fd5b505afa158015611e8f573d6000803e3d6000fd5b505050506040513d601f19601f82011682018060405250810190611eb39190612f57565b1515815260200182815260200142831015158152602001428310611ee057611edb4284613383565b611ee3565b60005b8152602001846001600160a01b031663af78feef6040518163ffffffff1660e01b815260040160206040518083038186803b158015611f2157600080fd5b505afa158015611f35573d6000803e3d6000fd5b505050506040513d601f19601f82011682018060405250810190611f599190612f57565b15158152602001846001600160a01b0316632377d6f46040518163ffffffff1660e01b815260040160206040518083038186803b158015611f9957600080fd5b505afa158015611fad573d6000803e3d6000fd5b505050506040513d601f19601f82011682018060405250810190611fd19190612f57565b151590529695505050505050565b604051806102600160405280838152602001611ff96116b5565b6001600160a01b031663edd05eb2856040518263ffffffff1660e01b815260040161202691815260200190565b60206040518083038186803b15801561203e57600080fd5b505afa158015612052573d6000803e3d6000fd5b505050506040513d601f19601f82011682018060405250810190612076919061301d565b8152602001604051806040016040528060018152602001605f60f81b8152508152602001604051806040016040528060018152602001605f60f81b8152508152602001600081526020016000815260200160008152602001600081526020016000815260200160006001600160a01b031681526020016000815260200160006001600160a01b031681526020016000151581526020016000151581526020016000815260200160011515815260200160008152602001600015158152602001600115158152509050919050565b61214b612ce5565b6121556000612d3f565b565b60606000612163612c22565b6001600160a01b031663c1206047846040518263ffffffff1660e01b815260040161219091815260200190565b60206040518083038186803b1580156121a857600080fd5b505afa1580156121bc573d6000803e3d6000fd5b505050506040513d601f19601f820116820180604052508101906121e09190612e61565b6040516370a0823160e01b81526001600160a01b038681166004830152919250829182916000918316906370a082319060240160206040518083038186803b15801561222b57600080fd5b505afa15801561223f573d6000803e3d6000fd5b505050506040513d601f19601f82011682018060405250810190612263919061301d565b905060008167ffffffffffffffff81111561228057612280613411565b60405190808252806020026020018201604052801561236957816020015b6123566040518061028001604052806000815260200160008152602001600081526020016060815260200160608152602001600081526020016000815260200160008152602001600081526020016000815260200160006001600160a01b031681526020016000815260200160006001600160a01b0316815260200160001515815260200160001515815260200160008152602001600015158152602001600081526020016000151581526020016000151581525090565b81526020019060019003908161229e5790505b5090506000846001600160a01b031663707e706b6040518163ffffffff1660e01b815260040160206040518083038186803b1580156123a757600080fd5b505afa1580156123bb573d6000803e3d6000fd5b505050506040513d601f19601f820116820180604052508101906123df919061301d565b90506000856001600160a01b031663cfa07f786040518163ffffffff1660e01b815260040160206040518083038186803b15801561241c57600080fd5b505afa158015612430573d6000803e3d6000fd5b505050506040513d601f19601f82011682018060405250810190612454919061301d565b905060005b84811015612c135760408051610280810191829052632f745c5960e01b9091526001600160a01b038c81166102848301526102a4820183905281908916632f745c596102c4830160206040518083038186803b1580156124b857600080fd5b505afa1580156124cc573d6000803e3d6000fd5b505050506040513d601f19601f820116820180604052508101906124f0919061301d565b81526020018481526020016125036116b5565b6001600160a01b031663edd05eb2866040518263ffffffff1660e01b815260040161253091815260200190565b60206040518083038186803b15801561254857600080fd5b505afa15801561255c573d6000803e3d6000fd5b505050506040513d601f19601f82011682018060405250810190612580919061301d565b8152602001876001600160a01b03166306fdde036040518163ffffffff1660e01b815260040160006040518083038186803b1580156125be57600080fd5b505afa1580156125d2573d6000803e3d6000fd5b505050506040513d6000823e601f3d908101601f191682016040526125fa9190810190612f79565b8152602001876001600160a01b03166395d89b416040518163ffffffff1660e01b815260040160006040518083038186803b15801561263857600080fd5b505afa15801561264c573d6000803e3d6000fd5b505050506040513d6000823e601f3d908101601f191682016040526126749190810190612f79565b8152602001886001600160a01b03166318160ddd6040518163ffffffff1660e01b815260040160206040518083038186803b1580156126b257600080fd5b505afa1580156126c6573d6000803e3d6000fd5b505050506040513d601f19601f820116820180604052508101906126ea919061301d565b8152602001886001600160a01b03166333039d3d6040518163ffffffff1660e01b815260040160206040518083038186803b15801561272857600080fd5b505afa15801561273c573d6000803e3d6000fd5b505050506040513d601f19601f82011682018060405250810190612760919061301d565b8152602001886001600160a01b031663161548626040518163ffffffff1660e01b815260040160206040518083038186803b15801561279e57600080fd5b505afa1580156127b2573d6000803e3d6000fd5b505050506040513d601f19601f820116820180604052508101906127d6919061301d565b8152602001886001600160a01b0316638ecad7216040518163ffffffff1660e01b815260040160206040518083038186803b15801561281457600080fd5b505afa158015612828573d6000803e3d6000fd5b505050506040513d601f19601f8201168201806040525081019061284c919061301d565b8152602001886001600160a01b031663c002d23d6040518163ffffffff1660e01b815260040160206040518083038186803b15801561288a57600080fd5b505afa15801561289e573d6000803e3d6000fd5b505050506040513d601f19601f820116820180604052508101906128c2919061301d565b8152602001886001600160a01b031663ec3cdb596040518163ffffffff1660e01b815260040160206040518083038186803b15801561290057600080fd5b505afa158015612914573d6000803e3d6000fd5b505050506040513d601f19601f820116820180604052508101906129389190612e61565b6001600160a01b03168152602001886001600160a01b031663ec3cdb596040518163ffffffff1660e01b815260040160206040518083038186803b15801561297f57600080fd5b505afa158015612993573d6000803e3d6000fd5b505050506040513d601f19601f820116820180604052508101906129b79190612e61565b6040516370a0823160e01b81526001600160a01b038c8116600483015291909116906370a082319060240160206040518083038186803b1580156129fa57600080fd5b505afa158015612a0e573d6000803e3d6000fd5b505050506040513d601f19601f82011682018060405250810190612a32919061301d565b8152602001896001600160a01b03168152602001600115158152602001886001600160a01b031663dd7cbcb96040518163ffffffff1660e01b815260040160206040518083038186803b158015612a8857600080fd5b505afa158015612a9c573d6000803e3d6000fd5b505050506040513d601f19601f82011682018060405250810190612ac09190612f57565b1515815260200183815260200142841015158152602001428410612aed57612ae84285613383565b612af0565b60005b8152602001886001600160a01b031663af78feef6040518163ffffffff1660e01b815260040160206040518083038186803b158015612b2e57600080fd5b505afa158015612b42573d6000803e3d6000fd5b505050506040513d601f19601f82011682018060405250810190612b669190612f57565b15158152602001886001600160a01b0316632377d6f46040518163ffffffff1660e01b815260040160206040518083038186803b158015612ba657600080fd5b505afa158015612bba573d6000803e3d6000fd5b505050506040513d601f19601f82011682018060405250810190612bde9190612f57565b1515815250848281518110612bf557612bf56133fb565b60200260200101819052508080612c0b906133ca565b915050612459565b50919998505050505050505050565b600154604080516348d9584560e01b815290516000926001600160a01b0316916348d95845916004808301926020929190829003018186803b1580156116fa57600080fd5b612c6f612ce5565b6001600160a01b038116612cd95760405162461bcd60e51b815260206004820152602660248201527f4f776e61626c653a206e6577206f776e657220697320746865207a65726f206160448201526564647265737360d01b60648201526084015b60405180910390fd5b612ce281612d3f565b50565b6000546001600160a01b031633146121555760405162461bcd60e51b815260206004820181905260248201527f4f776e61626c653a2063616c6c6572206973206e6f7420746865206f776e65726044820152606401612cd0565b600080546001600160a01b038381166001600160a01b0319831681178455604051919092169283917f8be0079c531659141344cd1fd0a4f28419497f9722a3daafe3b4186f6b6457e09190a35050565b60405180610260016040528060008152602001600081526020016060815260200160608152602001600081526020016000815260200160008152602001600081526020016000815260200160006001600160a01b031681526020016000815260200160006001600160a01b0316815260200160001515815260200160001515815260200160008152602001600015158152602001600081526020016000151581526020016000151581525090565b600060208284031215612e4f57600080fd5b8135612e5a81613427565b9392505050565b600060208284031215612e7357600080fd5b8151612e5a81613427565b60008060408385031215612e9157600080fd5b8235612e9c81613427565b946020939093013593505050565b60006020808385031215612ebd57600080fd5b825167ffffffffffffffff80821115612ed557600080fd5b818501915085601f830112612ee957600080fd5b815181811115612efb57612efb613411565b8060051b9150612f0c848301613352565b8181528481019084860184860187018a1015612f2757600080fd5b600095505b83861015612f4a578051835260019590950194918601918601612f2c565b5098975050505050505050565b600060208284031215612f6957600080fd5b81518015158114612e5a57600080fd5b600060208284031215612f8b57600080fd5b815167ffffffffffffffff80821115612fa357600080fd5b818401915084601f830112612fb757600080fd5b815181811115612fc957612fc9613411565b612fdc601f8201601f1916602001613352565b9150808252856020828501011115612ff357600080fd5b610df981602084016020860161339a565b60006020828403121561301657600080fd5b5035919050565b60006020828403121561302f57600080fd5b5051919050565b6000815180845261304e81602086016020860161339a565b601f01601f19169290920160200192915050565b60006102608251845260208301516020850152604083015181604086015261308c82860182613036565b915050606083015184820360608601526130a68282613036565b9150506080830151608085015260a083015160a085015260c083015160c085015260e083015160e0850152610100808401518186015250610120808401516130f8828701826001600160a01b03169052565b50506101408381015190850152610160808401516001600160a01b031690850152610180808401511515908501526101a0808401511515908501526101c080840151908501526101e08084015115159085015261020080840151908501526102208084015115159085015261024092830151151592909301919091525090565b6000602080830181845280855180835260408601915060408160051b870101925083870160005b828110156131cd57603f198886030184526131bb858351613062565b9450928501929085019060010161319f565b5092979650505050505050565b60006020808301818452808551808352604092508286019150828160051b87010184880160005b8381101561333157603f1989840301855281516102808151855288820151898601528782015188860152606080830151828288015261324283880182613036565b925050506080808301518683038288015261325d8382613036565b60a0858101519089015260c0808601519089015260e0808601519089015261010080860151908901526101208086015190890152610140808601516001600160a01b03908116918a019190915261016080870151908a015261018080870151909116908901526101a0808601511515908901526101c0808601511515908901526101e080860151908901526102008086015115159089015261022080860151908901526102408086015115159089015261026094850151151594909701939093525050509386019390860190600101613201565b509098975050505050505050565b602081526000612e5a6020830184613062565b604051601f8201601f1916810167ffffffffffffffff8111828210171561337b5761337b613411565b604052919050565b600082821015613395576133956133e5565b500390565b60005b838110156133b557818101518382015260200161339d565b838111156133c4576000848401525b50505050565b60006000198214156133de576133de6133e5565b5060010190565b634e487b7160e01b600052601160045260246000fd5b634e487b7160e01b600052603260045260246000fd5b634e487b7160e01b600052604160045260246000fd5b6001600160a01b0381168114612ce257600080fdfea26469706673582212205de85ef9d665bf7f712427fdefdd4686ee13a87868de3f92fe2d4b1812aca51a64736f6c63430008070033",
  "immutableReferences": {},
  "source": "// SPDX-License-Identifier: MIT\n\npragma solidity ^0.8.0;\n\nimport \"@openzeppelin/contracts/token/ERC721/extensions/IERC721Enumerable.sol\";\nimport \"@openzeppelin/contracts/access/Ownable.sol\";\nimport \"@openzeppelin/contracts/utils/math/SafeMath.sol\";\nimport \"@openzeppelin/contracts/token/ERC721/extensions/IERC721Metadata.sol\";\n\nimport \"./interface/IShareERC721.sol\";\nimport \"./interface/IIntellModelNFT.sol\";\nimport \"./interface/IFactory.sol\";\nimport \"./interface/IIntellSetting.sol\";\n\npragma experimental ABIEncoderV2;\n\ninterface IShareERC721InDetail is IERC721Enumerable, IShareERC721 {}\ninterface IIntellModelNFTInDetail is IERC721Enumerable, IIntellModelNFT {}\n\ncontract IntellScan is Ownable {\n    using SafeMath for uint256;\n\n    IIntellSetting private _intellSetting;\n\n    constructor(IIntellSetting _intellSetting_) {\n        _intellSetting = _intellSetting_;\n    }\n\n    function intellSetting() public view returns (IIntellSetting) {\n        return _intellSetting;\n    }\n\n    function setIntelliSetting(\n        IIntellSetting _intellSetting_\n    ) external onlyOwner {\n        _intellSetting = _intellSetting_;\n    }\n\n    function creatorNFT() public view returns (IIntellModelNFTInDetail) {\n        return\n            IIntellModelNFTInDetail(\n                _intellSetting.intellModelNFTContractAddr()\n            );\n    }\n\n    function factory() public view returns (IFactory) {\n        return IFactory(_intellSetting.factoryContractAddr());\n    }\n\n    struct ModelMetadata {\n        uint256 tokenId;\n        uint256 modelId;\n        string shareName;\n        string shareSymbol;\n        uint256 totalSupply;\n        uint256 maxTotalSupply;\n        uint256 mnpw;\n        uint256 mnpt;\n        uint256 sharePrice;\n        address tokenAddr;\n        uint256 withdrawAmount;\n        address shareNFTAddr; // Share NFT Contract Address for the investors\n        bool hasShareLaunched; // whether sNFT was launched or not\n        bool forOnlyUS; // for only us investor\n        uint256 endTime;\n        bool finished;\n        uint256 countdown;\n        bool withdrawn;\n        bool blocked;\n    }\n\n    struct ShareMetadata {\n        uint256 shareId;\n        uint256 tokenId;\n        uint256 modelId;\n        string shareName;\n        string shareSymbol;\n        uint256 totalSupply;\n        uint256 maxTotalSupply;\n        uint256 mnpw;\n        uint256 mnpt;\n        uint256 sharePrice;\n        address tokenAddr;\n        uint256 withdrawAmount;\n        address shareNFTAddr; // Share NFT Contract Address for the investors\n        bool hasShareLaunched; // whether sNFT was launched or not\n        bool forOnlyUS; // for only us investor\n        uint256 endTime;\n        bool finished;\n        uint256 countdown;\n        bool withdrawn;\n        bool blocked;\n    }\n\n    function creatorNFTCollectionDetail(\n        address _owner\n    ) external view returns (ModelMetadata[] memory) {\n        uint256 tokenCount = creatorNFT().balanceOf(_owner);\n        uint256[] memory tokenIds = creatorNFT().walletOfOwner(_owner);\n\n        ModelMetadata[] memory creatorNFTCollections = new ModelMetadata[](\n            tokenCount\n        );\n\n        for (uint256 i = 0; i < tokenCount; i++) {\n            if (factory().getShareNFTAddr(tokenIds[i]) != address(0)) {\n                address _shareNFTAddr = factory().getShareNFTAddr(tokenIds[i]);\n\n                IShareERC721InDetail _shareNFT = IShareERC721InDetail(\n                    _shareNFTAddr\n                );\n                IERC721Metadata _shareMetadataNFT = IERC721Metadata(\n                    _shareNFTAddr\n                );\n\n                uint256 _endTime = _shareNFT.LAUNCH_END_TIME();\n\n                creatorNFTCollections[i] = ModelMetadata(\n                    tokenIds[i], // token id\n                    creatorNFT().modelIdByTokenId(tokenIds[i]), // model id\n                    _shareMetadataNFT.name(), // name\n                    _shareMetadataNFT.symbol(), // symbol\n                    _shareNFT.totalSupply(), // so far total supply minted\n                    _shareNFT.MAX_TOTAL_SUPPLY(), // max total supply\n                    _shareNFT.MAX_MINT_PER_ADDR(), // max number of share per wallet\n                    _shareNFT.MAX_MINT_PER_TX(), // max number of share per tx\n                    _shareNFT.MINT_PRICE(), // price per share\n                    _shareNFT.PAYMENT_TOKEN_ADDR(), // payment token used in investment\n                    IERC20(_shareNFT.PAYMENT_TOKEN_ADDR()).balanceOf(\n                        _shareNFTAddr\n                    ), // withdraw amount\n                    _shareNFTAddr, // share nft token address\n                    true, // whether cNFT has share nft or not\n                    _shareNFT.FOR_ONLY_US_INVESTOR(), // for only us investor\n                    _endTime,\n                    _endTime < block.timestamp,\n                    _endTime < block.timestamp ? 0 : _endTime - block.timestamp,\n                    _shareNFT.WITHDRAWN(),\n                    _shareNFT.BLOCKED()\n                );\n            } else {\n                creatorNFTCollections[i] = ModelMetadata(\n                    tokenIds[i], // token id\n                    creatorNFT().modelIdByTokenId(tokenIds[i]), // model id\n                    \"_\", // name\n                    \"_\", // symbol\n                    0, // so far total supply minted\n                    0, // max total supply\n                    0, // max number of share per wallet\n                    0, // max number of share per tx\n                    0, // price per share\n                    address(0), // payment token used in investment\n                    0, // withdraw amount\n                    address(0), // share nft token address\n                    false, // whether cNFT has share nft or not\n                    false, // for only us investor\n                    0,\n                    true,\n                    0,\n                    false,\n                    true\n                );\n            }\n        }\n\n        return creatorNFTCollections;\n    }\n\n    function singleCreatorNFTDetail(\n        uint256 _tokenId\n    ) external view returns (ModelMetadata memory) {\n\n        if (factory().getShareNFTAddr(_tokenId) != address(0)) {\n            address _shareNFTAddr = factory().getShareNFTAddr(_tokenId);\n            IShareERC721InDetail _shareNFT = IShareERC721InDetail(\n                _shareNFTAddr\n            );\n            IERC721Metadata _shareMetadataNFT = IERC721Metadata(_shareNFTAddr);\n\n            uint256 _endTime = _shareNFT.LAUNCH_END_TIME();\n\n            return\n                ModelMetadata(\n                    _tokenId, // token id\n                    creatorNFT().modelIdByTokenId(_tokenId), // model id\n                    _shareMetadataNFT.name(), // name\n                    _shareMetadataNFT.symbol(), // symbol\n                    _shareNFT.totalSupply(), // so far total supply minted\n                    _shareNFT.MAX_TOTAL_SUPPLY(), // max total supply\n                    _shareNFT.MAX_MINT_PER_ADDR(), // max number of share per wallet\n                    _shareNFT.MAX_MINT_PER_TX(), // max number of share per tx\n                    _shareNFT.MINT_PRICE(), // price per share\n                    _shareNFT.PAYMENT_TOKEN_ADDR(), // payment token used in investment\n                    IERC20(_shareNFT.PAYMENT_TOKEN_ADDR()).balanceOf(\n                        _shareNFTAddr\n                    ), // withdraw amount\n                    _shareNFTAddr, // share nft token address\n                    true, // whether cNFT has share nft or not\n                    _shareNFT.FOR_ONLY_US_INVESTOR(), // for only us investor\n                    _endTime,\n                    _endTime < block.timestamp,\n                    _endTime < block.timestamp ? 0 : _endTime - block.timestamp,\n                    _shareNFT.WITHDRAWN(),\n                    _shareNFT.BLOCKED()\n                );\n        } else {\n            return\n                ModelMetadata(\n                    _tokenId, // token id\n                    creatorNFT().modelIdByTokenId(_tokenId), // model id\n                    \"_\", // name\n                    \"_\", // symbol\n                    0, // so far total supply minted\n                    0, // max total supply\n                    0, // max number of share per wallet\n                    0, // max number of share per tx\n                    0, // price per share\n                    address(0), // payment token used in investment\n                    0, // withdraw amount\n                    address(0), // share nft token address\n                    false, // whether cNFT has share nft or not\n                    false, // for only us investor\n                    0,\n                    true,\n                    0,\n                    false,\n                    true\n                );\n        }\n    }\n\n    function singleInvestmentChance(\n        uint256 _index\n    ) external view returns (ModelMetadata memory) {\n        address _shareNFTAddr = factory().allShareNFTAddrs(_index);\n        IShareERC721InDetail _shareNFT = IShareERC721InDetail(_shareNFTAddr);\n        IERC721Metadata _shareMetadataNFT = IERC721Metadata(_shareNFTAddr);\n\n        uint256 _tokenId = _shareNFT.INTELL_MODEL_NFT_TOKEN_ID();\n        uint256 _endTime = _shareNFT.LAUNCH_END_TIME();\n\n        return\n            ModelMetadata(\n                _tokenId, // token id\n                creatorNFT().modelIdByTokenId(_tokenId), // model id\n                _shareMetadataNFT.name(), // name\n                _shareMetadataNFT.symbol(), // symbol\n                _shareNFT.totalSupply(), // so far total supply minted\n                _shareNFT.MAX_TOTAL_SUPPLY(), // max total supply\n                _shareNFT.MAX_MINT_PER_ADDR(), // max number of share per wallet\n                _shareNFT.MAX_MINT_PER_TX(), // max number of share per tx\n                _shareNFT.MINT_PRICE(), // price per share\n                _shareNFT.PAYMENT_TOKEN_ADDR(), // payment token used in investment\n                IERC20(_shareNFT.PAYMENT_TOKEN_ADDR()).balanceOf(_shareNFTAddr), // withdraw amount\n                _shareNFTAddr, // share nft token address\n                true, // whether cNFT has share nft or not\n                _shareNFT.FOR_ONLY_US_INVESTOR(), // for only us investor\n                _endTime,\n                _endTime < block.timestamp,\n                _endTime < block.timestamp ? 0 : _endTime - block.timestamp,\n                _shareNFT.WITHDRAWN(),\n                _shareNFT.BLOCKED()\n            );\n    }\n\n    function shareNFTCollectionDetail(\n        address _owner,\n        uint256 _index\n    ) external view returns (ShareMetadata[] memory) {\n        address _shareNFTAddr = factory().allShareNFTAddrs(_index);\n\n        IShareERC721InDetail _shareNFT = IShareERC721InDetail(_shareNFTAddr);\n        IERC721Metadata _shareMetadataNFT = IERC721Metadata(_shareNFTAddr);\n\n        uint256 tokenCount = _shareNFT.balanceOf(_owner);\n        ShareMetadata[] memory shareNFTCollections = new ShareMetadata[](\n            tokenCount\n        );\n\n        uint256 tokenId = _shareNFT.INTELL_MODEL_NFT_TOKEN_ID();\n        uint256 _endTime = _shareNFT.LAUNCH_END_TIME();\n\n        for (uint256 i = 0; i < tokenCount; i++) {\n            shareNFTCollections[i] = ShareMetadata(\n                _shareNFT.tokenOfOwnerByIndex(_owner, i), // share id\n                tokenId, // token id\n                creatorNFT().modelIdByTokenId(tokenId), // model id\n                _shareMetadataNFT.name(), // name\n                _shareMetadataNFT.symbol(), // symbol\n                _shareNFT.totalSupply(), // so far total supply minted\n                _shareNFT.MAX_TOTAL_SUPPLY(), // max total supply\n                _shareNFT.MAX_MINT_PER_ADDR(), // max number of share per wallet\n                _shareNFT.MAX_MINT_PER_TX(), // max number of share per tx\n                _shareNFT.MINT_PRICE(), // price per share\n                _shareNFT.PAYMENT_TOKEN_ADDR(), // payment token used in investment\n                IERC20(_shareNFT.PAYMENT_TOKEN_ADDR()).balanceOf(_shareNFTAddr), // withdraw amount\n                _shareNFTAddr, // share nft token address\n                true, // whether cNFT has share nft or not\n                _shareNFT.FOR_ONLY_US_INVESTOR(), // for only us investor\n                _endTime,\n                _endTime < block.timestamp,\n                _endTime < block.timestamp ? 0 : _endTime - block.timestamp,\n                _shareNFT.WITHDRAWN(),\n                _shareNFT.BLOCKED()\n            );\n        }\n\n        return shareNFTCollections;\n    }\n\n}\n",
  "sourcePath": "D:\\Projects\\US\\intell-truffle-deployer\\contracts\\04_IntellScan.sol",
  "compiler": {
    "name": "solc",
    "version": "0.8.7+commit.e28d00a7.Emscripten.clang"
  },
  "schemaVersion": "3.4.11",
  "updatedAt": "2023-05-01T08:45:56.879Z",
  "networkType": "ethereum",
  "devdoc": {
    "kind": "dev",
    "methods": {
      "owner()": {
        "details": "Returns the address of the current owner."
      },
      "renounceOwnership()": {
        "details": "Leaves the contract without owner. It will not be possible to call `onlyOwner` functions anymore. Can only be called by the current owner. NOTE: Renouncing ownership will leave the contract without an owner, thereby removing any functionality that is only available to the owner."
      },
      "transferOwnership(address)": {
        "details": "Transfers ownership of the contract to a new account (`newOwner`). Can only be called by the current owner."
      }
    },
    "version": 1
  },
  "userdoc": {
    "kind": "user",
    "methods": {},
    "version": 1
  }
}