{
  "contractName": "Multicall2",
  "abi": [
    {
      "inputs": [
        {
          "components": [
            {
              "internalType": "address",
              "name": "target",
              "type": "address"
            },
            {
              "internalType": "bytes",
              "name": "callData",
              "type": "bytes"
            }
          ],
          "internalType": "struct Multicall2.Call[]",
          "name": "calls",
          "type": "tuple[]"
        }
      ],
      "name": "aggregate",
      "outputs": [
        {
          "internalType": "uint256",
          "name": "blockNumber",
          "type": "uint256"
        },
        {
          "internalType": "bytes[]",
          "name": "returnData",
          "type": "bytes[]"
        }
      ],
      "stateMutability": "nonpayable",
      "type": "function"
    },
    {
      "inputs": [
        {
          "components": [
            {
              "internalType": "address",
              "name": "target",
              "type": "address"
            },
            {
              "internalType": "bytes",
              "name": "callData",
              "type": "bytes"
            }
          ],
          "internalType": "struct Multicall2.Call[]",
          "name": "calls",
          "type": "tuple[]"
        }
      ],
      "name": "blockAndAggregate",
      "outputs": [
        {
          "internalType": "uint256",
          "name": "blockNumber",
          "type": "uint256"
        },
        {
          "internalType": "bytes32",
          "name": "blockHash",
          "type": "bytes32"
        },
        {
          "components": [
            {
              "internalType": "bool",
              "name": "success",
              "type": "bool"
            },
            {
              "internalType": "bytes",
              "name": "returnData",
              "type": "bytes"
            }
          ],
          "internalType": "struct Multicall2.Result[]",
          "name": "returnData",
          "type": "tuple[]"
        }
      ],
      "stateMutability": "nonpayable",
      "type": "function"
    },
    {
      "inputs": [
        {
          "internalType": "uint256",
          "name": "blockNumber",
          "type": "uint256"
        }
      ],
      "name": "getBlockHash",
      "outputs": [
        {
          "internalType": "bytes32",
          "name": "blockHash",
          "type": "bytes32"
        }
      ],
      "stateMutability": "view",
      "type": "function"
    },
    {
      "inputs": [],
      "name": "getBlockNumber",
      "outputs": [
        {
          "internalType": "uint256",
          "name": "blockNumber",
          "type": "uint256"
        }
      ],
      "stateMutability": "view",
      "type": "function"
    },
    {
      "inputs": [],
      "name": "getL1BlockNumber",
      "outputs": [
        {
          "internalType": "uint256",
          "name": "l1BlockNumber",
          "type": "uint256"
        }
      ],
      "stateMutability": "view",
      "type": "function"
    },
    {
      "inputs": [],
      "name": "getCurrentBlockCoinbase",
      "outputs": [
        {
          "internalType": "address",
          "name": "coinbase",
          "type": "address"
        }
      ],
      "stateMutability": "view",
      "type": "function"
    },
    {
      "inputs": [],
      "name": "getCurrentBlockDifficulty",
      "outputs": [
        {
          "internalType": "uint256",
          "name": "difficulty",
          "type": "uint256"
        }
      ],
      "stateMutability": "view",
      "type": "function"
    },
    {
      "inputs": [],
      "name": "getCurrentBlockGasLimit",
      "outputs": [
        {
          "internalType": "uint256",
          "name": "gaslimit",
          "type": "uint256"
        }
      ],
      "stateMutability": "view",
      "type": "function"
    },
    {
      "inputs": [],
      "name": "getCurrentBlockTimestamp",
      "outputs": [
        {
          "internalType": "uint256",
          "name": "timestamp",
          "type": "uint256"
        }
      ],
      "stateMutability": "view",
      "type": "function"
    },
    {
      "inputs": [
        {
          "internalType": "address",
          "name": "addr",
          "type": "address"
        }
      ],
      "name": "getEthBalance",
      "outputs": [
        {
          "internalType": "uint256",
          "name": "balance",
          "type": "uint256"
        }
      ],
      "stateMutability": "view",
      "type": "function"
    },
    {
      "inputs": [],
      "name": "getLastBlockHash",
      "outputs": [
        {
          "internalType": "bytes32",
          "name": "blockHash",
          "type": "bytes32"
        }
      ],
      "stateMutability": "view",
      "type": "function"
    },
    {
      "inputs": [
        {
          "internalType": "bool",
          "name": "requireSuccess",
          "type": "bool"
        },
        {
          "components": [
            {
              "internalType": "address",
              "name": "target",
              "type": "address"
            },
            {
              "internalType": "bytes",
              "name": "callData",
              "type": "bytes"
            }
          ],
          "internalType": "struct Multicall2.Call[]",
          "name": "calls",
          "type": "tuple[]"
        }
      ],
      "name": "tryAggregate",
      "outputs": [
        {
          "components": [
            {
              "internalType": "bool",
              "name": "success",
              "type": "bool"
            },
            {
              "internalType": "bytes",
              "name": "returnData",
              "type": "bytes"
            }
          ],
          "internalType": "struct Multicall2.Result[]",
          "name": "returnData",
          "type": "tuple[]"
        }
      ],
      "stateMutability": "nonpayable",
      "type": "function"
    },
    {
      "inputs": [
        {
          "internalType": "bool",
          "name": "requireSuccess",
          "type": "bool"
        },
        {
          "components": [
            {
              "internalType": "address",
              "name": "target",
              "type": "address"
            },
            {
              "internalType": "bytes",
              "name": "callData",
              "type": "bytes"
            }
          ],
          "internalType": "struct Multicall2.Call[]",
          "name": "calls",
          "type": "tuple[]"
        }
      ],
      "name": "tryBlockAndAggregate",
      "outputs": [
        {
          "internalType": "uint256",
          "name": "blockNumber",
          "type": "uint256"
        },
        {
          "internalType": "bytes32",
          "name": "blockHash",
          "type": "bytes32"
        },
        {
          "components": [
            {
              "internalType": "bool",
              "name": "success",
              "type": "bool"
            },
            {
              "internalType": "bytes",
              "name": "returnData",
              "type": "bytes"
            }
          ],
          "internalType": "struct Multicall2.Result[]",
          "name": "returnData",
          "type": "tuple[]"
        }
      ],
      "stateMutability": "nonpayable",
      "type": "function"
    }
  ],
  "bytecode": "0x608060405234801561001057600080fd5b50610c5a806100206000396000f3fe608060405234801561001057600080fd5b50600436106100cf5760003560e01c806372425d9d1161008c578063b9b3efe911610066578063b9b3efe914610171578063bce38bd714610177578063c3077fa914610197578063ee82ac5e146101aa57600080fd5b806372425d9d1461015757806386d516e81461015d578063a8b0574e1461016357600080fd5b80630f28c97d146100d4578063252dba42146100e957806327e86d6e1461010a578063399542e91461011257806342cbb15c146101345780634d2301cc1461013c575b600080fd5b425b6040519081526020015b60405180910390f35b6100fc6100f7366004610907565b6101bc565b6040516100e0929190610a94565b6100d66103b7565b610125610120366004610944565b61043d565b6040516100e093929190610afe565b6100d661053e565b6100d661014a3660046108e5565b6001600160a01b03163190565b446100d6565b456100d6565b6040514181526020016100e0565b436100d6565b61018a610185366004610944565b6105b7565b6040516100e09190610a81565b6101256101a5366004610907565b610771565b6100d66101b8366004610999565b4090565b6000606060646001600160a01b031663a3b1b31d6040518163ffffffff1660e01b815260040160206040518083038186803b1580156101fa57600080fd5b505afa15801561020e573d6000803e3d6000fd5b505050506040513d601f19601f8201168201806040525081019061023291906109b2565b9150825167ffffffffffffffff81111561024e5761024e610c0e565b60405190808252806020026020018201604052801561028157816020015b606081526020019060019003908161026c5790505b50905060005b83518110156103b1576000808583815181106102a5576102a5610bf8565b6020026020010151600001516001600160a01b03168684815181106102cc576102cc610bf8565b6020026020010151602001516040516102e59190610a65565b6000604051808303816000865af19150503d8060008114610322576040519150601f19603f3d011682016040523d82523d6000602084013e610327565b606091505b50915091508161037e5760405162461bcd60e51b815260206004820181905260248201527f4d756c746963616c6c206167677265676174653a2063616c6c206661696c656460448201526064015b60405180910390fd5b8084848151811061039157610391610bf8565b6020026020010181905250505080806103a990610bc7565b915050610287565b50915091565b6000600160646001600160a01b031663a3b1b31d6040518163ffffffff1660e01b815260040160206040518083038186803b1580156103f557600080fd5b505afa158015610409573d6000803e3d6000fd5b505050506040513d601f19601f8201168201806040525081019061042d91906109b2565b6104379190610b80565b40905090565b600080606060646001600160a01b031663a3b1b31d6040518163ffffffff1660e01b815260040160206040518083038186803b15801561047c57600080fd5b505afa158015610490573d6000803e3d6000fd5b505050506040513d601f19601f820116820180604052508101906104b491906109b2565b925060646001600160a01b031663a3b1b31d6040518163ffffffff1660e01b815260040160206040518083038186803b1580156104f057600080fd5b505afa158015610504573d6000803e3d6000fd5b505050506040513d601f19601f8201168201806040525081019061052891906109b2565b40915061053585856105b7565b90509250925092565b600060646001600160a01b031663a3b1b31d6040518163ffffffff1660e01b815260040160206040518083038186803b15801561057a57600080fd5b505afa15801561058e573d6000803e3d6000fd5b505050506040513d601f19601f820116820180604052508101906105b291906109b2565b905090565b6060815167ffffffffffffffff8111156105d3576105d3610c0e565b60405190808252806020026020018201604052801561061957816020015b6040805180820190915260008152606060208201528152602001906001900390816105f15790505b50905060005b825181101561076a5760008084838151811061063d5761063d610bf8565b6020026020010151600001516001600160a01b031685848151811061066457610664610bf8565b60200260200101516020015160405161067d9190610a65565b6000604051808303816000865af19150503d80600081146106ba576040519150601f19603f3d011682016040523d82523d6000602084013e6106bf565b606091505b5091509150851561072157816107215760405162461bcd60e51b815260206004820152602160248201527f4d756c746963616c6c32206167677265676174653a2063616c6c206661696c656044820152601960fa1b6064820152608401610375565b604051806040016040528083151581526020018281525084848151811061074a5761074a610bf8565b60200260200101819052505050808061076290610bc7565b91505061061f565b5092915050565b600080606061078160018561043d565b9196909550909350915050565b80356001600160a01b03811681146107a557600080fd5b919050565b600082601f8301126107bb57600080fd5b8135602067ffffffffffffffff808311156107d8576107d8610c0e565b8260051b6107e7838201610b4f565b8481528381019087850183890186018a101561080257600080fd5b600093505b868410156108d85780358581111561081e57600080fd5b89016040601f19828d03810182131561083657600080fd5b61083e610b26565b6108498a850161078e565b8152828401358981111561085c57600080fd5b8085019450508d603f85011261087157600080fd5b898401358981111561088557610885610c0e565b6108958b84601f84011601610b4f565b92508083528e848287010111156108ab57600080fd5b808486018c85013760009083018b0152808a01919091528552505060019390930192918501918501610807565b5098975050505050505050565b6000602082840312156108f757600080fd5b6109008261078e565b9392505050565b60006020828403121561091957600080fd5b813567ffffffffffffffff81111561093057600080fd5b61093c848285016107aa565b949350505050565b6000806040838503121561095757600080fd5b8235801515811461096757600080fd5b9150602083013567ffffffffffffffff81111561098357600080fd5b61098f858286016107aa565b9150509250929050565b6000602082840312156109ab57600080fd5b5035919050565b6000602082840312156109c457600080fd5b5051919050565b600082825180855260208086019550808260051b84010181860160005b84811015610a2c57858303601f1901895281518051151584528401516040858501819052610a1881860183610a39565b9a86019a94505050908301906001016109e8565b5090979650505050505050565b60008151808452610a51816020860160208601610b97565b601f01601f19169290920160200192915050565b60008251610a77818460208701610b97565b9190910192915050565b60208152600061090060208301846109cb565b600060408201848352602060408185015281855180845260608601915060608160051b870101935082870160005b82811015610af057605f19888703018452610ade868351610a39565b95509284019290840190600101610ac2565b509398975050505050505050565b838152826020820152606060408201526000610b1d60608301846109cb565b95945050505050565b6040805190810167ffffffffffffffff81118282101715610b4957610b49610c0e565b60405290565b604051601f8201601f1916810167ffffffffffffffff81118282101715610b7857610b78610c0e565b604052919050565b600082821015610b9257610b92610be2565b500390565b60005b83811015610bb2578181015183820152602001610b9a565b83811115610bc1576000848401525b50505050565b6000600019821415610bdb57610bdb610be2565b5060010190565b634e487b7160e01b600052601160045260246000fd5b634e487b7160e01b600052603260045260246000fd5b634e487b7160e01b600052604160045260246000fdfea2646970667358221220ec48c7d5de218fc3fab862c0fa8b32d738b44b790b8b92273870e5330718c42764736f6c63430008070033",
  "immutableReferences": {},
  "source": "// SPDX-License-Identifier: MIT\r\n\r\npragma solidity >=0.5.0;\r\npragma experimental ABIEncoderV2;\r\n\r\ninterface ArbSys {\r\n    /**\r\n    * @notice Get Arbitrum block number (distinct from L1 block number; Arbitrum genesis block has block number 0)\r\n    * @return block number as int\r\n     */ \r\n    function arbBlockNumber() external view returns (uint);\r\n}\r\n\r\n/// @title Multicall2 - Aggregate results from multiple read-only function calls\r\n/// @author Michael Elliot <mike@makerdao.com>\r\n/// @author Joshua Levine <joshua@makerdao.com>\r\n/// @author Nick Johnson <arachnid@notdot.net>\r\n\r\ncontract Multicall2 {\r\n    struct Call {\r\n        address target;\r\n        bytes callData;\r\n    }\r\n    struct Result {\r\n        bool success;\r\n        bytes returnData;\r\n    }\r\n\r\n    function aggregate(Call[] memory calls) public returns (uint256 blockNumber, bytes[] memory returnData) {\r\n        blockNumber = ArbSys(address(100)).arbBlockNumber();\r\n        returnData = new bytes[](calls.length);\r\n        for(uint256 i = 0; i < calls.length; i++) {\r\n            (bool success, bytes memory ret) = calls[i].target.call(calls[i].callData);\r\n            require(success, \"Multicall aggregate: call failed\");\r\n            returnData[i] = ret;\r\n        }\r\n    }\r\n    function blockAndAggregate(Call[] memory calls) public returns (uint256 blockNumber, bytes32 blockHash, Result[] memory returnData) {\r\n        (blockNumber, blockHash, returnData) = tryBlockAndAggregate(true, calls);\r\n    }\r\n    function getBlockHash(uint256 blockNumber) public view returns (bytes32 blockHash) {\r\n        blockHash = blockhash(blockNumber);\r\n    }\r\n    function getBlockNumber() public view returns (uint256 blockNumber) {\r\n        blockNumber = ArbSys(address(100)).arbBlockNumber();\r\n    }\r\n    function getL1BlockNumber() public view returns (uint256 l1BlockNumber) {\r\n        l1BlockNumber = block.number;\r\n    }\r\n    function getCurrentBlockCoinbase() public view returns (address coinbase) {\r\n        coinbase = block.coinbase;\r\n    }\r\n    function getCurrentBlockDifficulty() public view returns (uint256 difficulty) {\r\n        difficulty = block.difficulty;\r\n    }\r\n    function getCurrentBlockGasLimit() public view returns (uint256 gaslimit) {\r\n        gaslimit = block.gaslimit;\r\n    }\r\n    function getCurrentBlockTimestamp() public view returns (uint256 timestamp) {\r\n        timestamp = block.timestamp;\r\n    }\r\n    function getEthBalance(address addr) public view returns (uint256 balance) {\r\n        balance = addr.balance;\r\n    }\r\n    function getLastBlockHash() public view returns (bytes32 blockHash) {\r\n        blockHash = blockhash(ArbSys(address(100)).arbBlockNumber() - 1);\r\n    }\r\n    function tryAggregate(bool requireSuccess, Call[] memory calls) public returns (Result[] memory returnData) {\r\n        returnData = new Result[](calls.length);\r\n        for(uint256 i = 0; i < calls.length; i++) {\r\n            (bool success, bytes memory ret) = calls[i].target.call(calls[i].callData);\r\n\r\n            if (requireSuccess) {\r\n                require(success, \"Multicall2 aggregate: call failed\");\r\n            }\r\n\r\n            returnData[i] = Result(success, ret);\r\n        }\r\n    }\r\n    function tryBlockAndAggregate(bool requireSuccess, Call[] memory calls) public returns (uint256 blockNumber, bytes32 blockHash, Result[] memory returnData) {\r\n        blockNumber = ArbSys(address(100)).arbBlockNumber();\r\n        blockHash = blockhash(ArbSys(address(100)).arbBlockNumber());\r\n        returnData = tryAggregate(requireSuccess, calls);\r\n    }\r\n}",
  "sourcePath": "D:\\Projects\\US\\intell-truffle-deployer\\contracts\\06_Multicall.sol",
  "compiler": {
    "name": "solc",
    "version": "0.8.7+commit.e28d00a7.Emscripten.clang"
  },
  "schemaVersion": "3.4.11",
  "updatedAt": "2023-05-01T08:28:31.926Z",
  "devdoc": {
    "author": "Michael Elliot <mike@makerdao.com>Joshua Levine <joshua@makerdao.com>Nick Johnson <arachnid@notdot.net>",
    "kind": "dev",
    "methods": {},
    "title": "Multicall2 - Aggregate results from multiple read-only function calls",
    "version": 1
  },
  "userdoc": {
    "kind": "user",
    "methods": {},
    "version": 1
  }
}