{
  "contractName": "MyNFTCollection",
  "abi": [
    {
      "anonymous": false,
      "inputs": [
        {
          "indexed": true,
          "internalType": "address",
          "name": "owner",
          "type": "address"
        },
        {
          "indexed": true,
          "internalType": "address",
          "name": "approved",
          "type": "address"
        },
        {
          "indexed": true,
          "internalType": "uint256",
          "name": "tokenId",
          "type": "uint256"
        }
      ],
      "name": "Approval",
      "type": "event"
    },
    {
      "anonymous": false,
      "inputs": [
        {
          "indexed": true,
          "internalType": "address",
          "name": "owner",
          "type": "address"
        },
        {
          "indexed": true,
          "internalType": "address",
          "name": "operator",
          "type": "address"
        },
        {
          "indexed": false,
          "internalType": "bool",
          "name": "approved",
          "type": "bool"
        }
      ],
      "name": "ApprovalForAll",
      "type": "event"
    },
    {
      "anonymous": false,
      "inputs": [
        {
          "indexed": true,
          "internalType": "string",
          "name": "oldValue",
          "type": "string"
        },
        {
          "indexed": true,
          "internalType": "string",
          "name": "newValue",
          "type": "string"
        }
      ],
      "name": "BaseURIUpdated",
      "type": "event"
    },
    {
      "anonymous": false,
      "inputs": [
        {
          "indexed": false,
          "internalType": "uint8",
          "name": "version",
          "type": "uint8"
        }
      ],
      "name": "Initialized",
      "type": "event"
    },
    {
      "anonymous": false,
      "inputs": [
        {
          "indexed": true,
          "internalType": "address",
          "name": "minter",
          "type": "address"
        },
        {
          "indexed": true,
          "internalType": "uint256",
          "name": "tokenId",
          "type": "uint256"
        }
      ],
      "name": "LogTokenMinted",
      "type": "event"
    },
    {
      "anonymous": false,
      "inputs": [
        {
          "indexed": true,
          "internalType": "uint256",
          "name": "oldValue",
          "type": "uint256"
        },
        {
          "indexed": true,
          "internalType": "uint256",
          "name": "newValue",
          "type": "uint256"
        }
      ],
      "name": "MintPriceUpdated",
      "type": "event"
    },
    {
      "anonymous": false,
      "inputs": [
        {
          "indexed": true,
          "internalType": "address",
          "name": "previousOwner",
          "type": "address"
        },
        {
          "indexed": true,
          "internalType": "address",
          "name": "newOwner",
          "type": "address"
        }
      ],
      "name": "OwnershipTransferred",
      "type": "event"
    },
    {
      "anonymous": false,
      "inputs": [
        {
          "indexed": true,
          "internalType": "address",
          "name": "from",
          "type": "address"
        },
        {
          "indexed": true,
          "internalType": "address",
          "name": "to",
          "type": "address"
        },
        {
          "indexed": true,
          "internalType": "uint256",
          "name": "tokenId",
          "type": "uint256"
        }
      ],
      "name": "Transfer",
      "type": "event"
    },
    {
      "inputs": [
        {
          "internalType": "address",
          "name": "to",
          "type": "address"
        },
        {
          "internalType": "uint256",
          "name": "tokenId",
          "type": "uint256"
        }
      ],
      "name": "approve",
      "outputs": [],
      "stateMutability": "nonpayable",
      "type": "function"
    },
    {
      "inputs": [
        {
          "internalType": "address",
          "name": "owner",
          "type": "address"
        }
      ],
      "name": "balanceOf",
      "outputs": [
        {
          "internalType": "uint256",
          "name": "",
          "type": "uint256"
        }
      ],
      "stateMutability": "view",
      "type": "function"
    },
    {
      "inputs": [],
      "name": "baseURI",
      "outputs": [
        {
          "internalType": "string",
          "name": "",
          "type": "string"
        }
      ],
      "stateMutability": "view",
      "type": "function"
    },
    {
      "inputs": [
        {
          "internalType": "uint256",
          "name": "tokenId",
          "type": "uint256"
        }
      ],
      "name": "getApproved",
      "outputs": [
        {
          "internalType": "address",
          "name": "",
          "type": "address"
        }
      ],
      "stateMutability": "view",
      "type": "function"
    },
    {
      "inputs": [
        {
          "internalType": "address",
          "name": "owner",
          "type": "address"
        },
        {
          "internalType": "address",
          "name": "operator",
          "type": "address"
        }
      ],
      "name": "isApprovedForAll",
      "outputs": [
        {
          "internalType": "bool",
          "name": "",
          "type": "bool"
        }
      ],
      "stateMutability": "view",
      "type": "function"
    },
    {
      "inputs": [],
      "name": "mintPrice",
      "outputs": [
        {
          "internalType": "uint256",
          "name": "",
          "type": "uint256"
        }
      ],
      "stateMutability": "view",
      "type": "function"
    },
    {
      "inputs": [],
      "name": "name",
      "outputs": [
        {
          "internalType": "string",
          "name": "",
          "type": "string"
        }
      ],
      "stateMutability": "view",
      "type": "function"
    },
    {
      "inputs": [],
      "name": "owner",
      "outputs": [
        {
          "internalType": "address",
          "name": "",
          "type": "address"
        }
      ],
      "stateMutability": "view",
      "type": "function"
    },
    {
      "inputs": [
        {
          "internalType": "uint256",
          "name": "tokenId",
          "type": "uint256"
        }
      ],
      "name": "ownerOf",
      "outputs": [
        {
          "internalType": "address",
          "name": "",
          "type": "address"
        }
      ],
      "stateMutability": "view",
      "type": "function"
    },
    {
      "inputs": [],
      "name": "renounceOwnership",
      "outputs": [],
      "stateMutability": "nonpayable",
      "type": "function"
    },
    {
      "inputs": [
        {
          "internalType": "address",
          "name": "from",
          "type": "address"
        },
        {
          "internalType": "address",
          "name": "to",
          "type": "address"
        },
        {
          "internalType": "uint256",
          "name": "tokenId",
          "type": "uint256"
        }
      ],
      "name": "safeTransferFrom",
      "outputs": [],
      "stateMutability": "nonpayable",
      "type": "function"
    },
    {
      "inputs": [
        {
          "internalType": "address",
          "name": "from",
          "type": "address"
        },
        {
          "internalType": "address",
          "name": "to",
          "type": "address"
        },
        {
          "internalType": "uint256",
          "name": "tokenId",
          "type": "uint256"
        },
        {
          "internalType": "bytes",
          "name": "data",
          "type": "bytes"
        }
      ],
      "name": "safeTransferFrom",
      "outputs": [],
      "stateMutability": "nonpayable",
      "type": "function"
    },
    {
      "inputs": [
        {
          "internalType": "address",
          "name": "operator",
          "type": "address"
        },
        {
          "internalType": "bool",
          "name": "approved",
          "type": "bool"
        }
      ],
      "name": "setApprovalForAll",
      "outputs": [],
      "stateMutability": "nonpayable",
      "type": "function"
    },
    {
      "inputs": [
        {
          "internalType": "bytes4",
          "name": "interfaceId",
          "type": "bytes4"
        }
      ],
      "name": "supportsInterface",
      "outputs": [
        {
          "internalType": "bool",
          "name": "",
          "type": "bool"
        }
      ],
      "stateMutability": "view",
      "type": "function"
    },
    {
      "inputs": [],
      "name": "symbol",
      "outputs": [
        {
          "internalType": "string",
          "name": "",
          "type": "string"
        }
      ],
      "stateMutability": "view",
      "type": "function"
    },
    {
      "inputs": [
        {
          "internalType": "uint256",
          "name": "tokenId",
          "type": "uint256"
        }
      ],
      "name": "tokenURI",
      "outputs": [
        {
          "internalType": "string",
          "name": "",
          "type": "string"
        }
      ],
      "stateMutability": "view",
      "type": "function"
    },
    {
      "inputs": [
        {
          "internalType": "address",
          "name": "from",
          "type": "address"
        },
        {
          "internalType": "address",
          "name": "to",
          "type": "address"
        },
        {
          "internalType": "uint256",
          "name": "tokenId",
          "type": "uint256"
        }
      ],
      "name": "transferFrom",
      "outputs": [],
      "stateMutability": "nonpayable",
      "type": "function"
    },
    {
      "inputs": [
        {
          "internalType": "address",
          "name": "newOwner",
          "type": "address"
        }
      ],
      "name": "transferOwnership",
      "outputs": [],
      "stateMutability": "nonpayable",
      "type": "function"
    },
    {
      "inputs": [],
      "name": "initialize",
      "outputs": [],
      "stateMutability": "nonpayable",
      "type": "function"
    },
    {
      "inputs": [
        {
          "internalType": "string",
          "name": "_newBaseURI",
          "type": "string"
        }
      ],
      "name": "setBaseURI",
      "outputs": [],
      "stateMutability": "nonpayable",
      "type": "function"
    },
    {
      "inputs": [
        {
          "internalType": "uint256",
          "name": "_newPrice",
          "type": "uint256"
        }
      ],
      "name": "setMintPrice",
      "outputs": [],
      "stateMutability": "nonpayable",
      "type": "function"
    },
    {
      "inputs": [
        {
          "internalType": "address",
          "name": "player",
          "type": "address"
        }
      ],
      "name": "mintItem",
      "outputs": [
        {
          "internalType": "uint256",
          "name": "",
          "type": "uint256"
        }
      ],
      "stateMutability": "payable",
      "type": "function"
    }
  ],
  "bytecode": "0x608060405234801561001057600080fd5b50611cdb806100206000396000f3fe6080604052600436106101355760003560e01c806370a08231116100ab578063a22cb4651161006f578063a22cb46514610334578063b88d4fde14610354578063c87b56dd14610374578063e985e9c514610394578063f2fde38b146103dd578063f4a0a528146103fd57600080fd5b806370a08231146102b7578063715018a6146102d75780638129fc1c146102ec5780638da5cb5b1461030157806395d89b411461031f57600080fd5b806342842e0e116100fd57806342842e0e1461020b57806355f804b31461022b5780636352211e1461024b5780636817c76c1461026b578063691c65d41461028f5780636c0360eb146102a257600080fd5b806301ffc9a71461013a57806306fdde031461016f578063081812fc14610191578063095ea7b3146101c957806323b872dd146101eb575b600080fd5b34801561014657600080fd5b5061015a6101553660046118e4565b61041d565b60405190151581526020015b60405180910390f35b34801561017b57600080fd5b5061018461046f565b6040516101669190611ad0565b34801561019d57600080fd5b506101b16101ac366004611967565b610501565b6040516001600160a01b039091168152602001610166565b3480156101d557600080fd5b506101e96101e43660046118ba565b610528565b005b3480156101f757600080fd5b506101e96102063660046117c6565b610643565b34801561021757600080fd5b506101e96102263660046117c6565b610674565b34801561023757600080fd5b506101e961024636600461191e565b61068f565b34801561025757600080fd5b506101b1610266366004611967565b610703565b34801561027757600080fd5b5061028160fd5481565b604051908152602001610166565b61028161029d366004611778565b610763565b3480156102ae57600080fd5b50610184610823565b3480156102c357600080fd5b506102816102d2366004611778565b6108b1565b3480156102e357600080fd5b506101e9610937565b3480156102f857600080fd5b506101e961094b565b34801561030d57600080fd5b5060c9546001600160a01b03166101b1565b34801561032b57600080fd5b50610184610ae8565b34801561034057600080fd5b506101e961034f36600461187e565b610af7565b34801561036057600080fd5b506101e961036f366004611802565b610b02565b34801561038057600080fd5b5061018461038f366004611967565b610b3a565b3480156103a057600080fd5b5061015a6103af366004611793565b6001600160a01b039182166000908152606a6020908152604080832093909416825291909152205460ff1690565b3480156103e957600080fd5b506101e96103f8366004611778565b610ba1565b34801561040957600080fd5b506101e9610418366004611967565b610c17565b60006001600160e01b031982166380ac58cd60e01b148061044e57506001600160e01b03198216635b5e139f60e01b145b8061046957506301ffc9a760e01b6001600160e01b03198316145b92915050565b60606065805461047e90611c3e565b80601f01602080910402602001604051908101604052809291908181526020018280546104aa90611c3e565b80156104f75780601f106104cc576101008083540402835291602001916104f7565b820191906000526020600020905b8154815290600101906020018083116104da57829003601f168201915b5050505050905090565b600061050c82610c53565b506000908152606960205260409020546001600160a01b031690565b600061053382610703565b9050806001600160a01b0316836001600160a01b031614156105a65760405162461bcd60e51b815260206004820152602160248201527f4552433732313a20617070726f76616c20746f2063757272656e74206f776e656044820152603960f91b60648201526084015b60405180910390fd5b336001600160a01b03821614806105c257506105c281336103af565b6106345760405162461bcd60e51b815260206004820152603d60248201527f4552433732313a20617070726f76652063616c6c6572206973206e6f7420746f60448201527f6b656e206f776e6572206f7220617070726f76656420666f7220616c6c000000606482015260840161059d565b61063e8383610cb2565b505050565b61064d3382610d20565b6106695760405162461bcd60e51b815260040161059d90611ae3565b61063e838383610d9f565b61063e83838360405180602001604052806000815250610b02565b610697610f03565b806040516106a591906119ac565b604051809103902060fc6040516106bc91906119f7565b604051908190038120907f309b29ded109b9e28fb9885757b3e0096eb75c51d23aa4635d68bcd569f6adc190600090a380516106ff9060fc906020840190611652565b5050565b6000818152606760205260408120546001600160a01b0316806104695760405162461bcd60e51b8152602060048201526018602482015277115490cdcc8c4e881a5b9d985b1a59081d1bdad95b88125160421b604482015260640161059d565b600061076d610f5d565b3460fd5411156107b75760405162461bcd60e51b8152602060048201526015602482015274139bdd08195b9bdd59da08199d5b991cc81cd95b9d605a1b604482015260640161059d565b6107c560fb80546001019055565b60006107d060fb5490565b90506107dc8382610fb7565b60405181906001600160a01b038516907ff63a93365d60efe8aa58f99ad14d3d0689101e5ed3937e83089863d1812f4b6490600090a3905061081e6001609755565b919050565b60fc805461083090611c3e565b80601f016020809104026020016040519081016040528092919081815260200182805461085c90611c3e565b80156108a95780601f1061087e576101008083540402835291602001916108a9565b820191906000526020600020905b81548152906001019060200180831161088c57829003601f168201915b505050505081565b60006001600160a01b03821661091b5760405162461bcd60e51b815260206004820152602960248201527f4552433732313a2061646472657373207a65726f206973206e6f7420612076616044820152683634b21037bbb732b960b91b606482015260840161059d565b506001600160a01b031660009081526068602052604090205490565b61093f610f03565b6109496000610fd1565b565b600054610100900460ff161580801561096b5750600054600160ff909116105b806109855750303b158015610985575060005460ff166001145b6109e85760405162461bcd60e51b815260206004820152602e60248201527f496e697469616c697a61626c653a20636f6e747261637420697320616c72656160448201526d191e481a5b9a5d1a585b1a5e995960921b606482015260840161059d565b6000805460ff191660011790558015610a0b576000805461ff0019166101001790555b610a596040518060400160405280601181526020017026bc9027232a1021b7b63632b1ba34b7b760791b815250604051806040016040528060038152602001624d4e4360e81b815250611023565b610a61611054565b60408051808201909152600b8082526a697066733a2f2f7878782f60a81b6020909201918252610a939160fc91611652565b5066038d7ea4c6800060fd558015610ae5576000805461ff0019169055604051600181527f7f26b83ff96e1f2b6a682f133852f6798a09c465da95921460cefb38474024989060200160405180910390a15b50565b60606066805461047e90611c3e565b6106ff338383611083565b610b0c3383610d20565b610b285760405162461bcd60e51b815260040161059d90611ae3565b610b3484848484611152565b50505050565b6060610b4582610c53565b6000610b4f611185565b90506000815111610b6f5760405180602001604052806000815250610b9a565b80610b7984611194565b604051602001610b8a9291906119c8565b6040516020818303038152906040525b9392505050565b610ba9610f03565b6001600160a01b038116610c0e5760405162461bcd60e51b815260206004820152602660248201527f4f776e61626c653a206e6577206f776e657220697320746865207a65726f206160448201526564647265737360d01b606482015260840161059d565b610ae581610fd1565b610c1f610f03565b60fd546040518291907f2e1c9e000c6e8dda4d03536adb13b7cb6034ccff90d17f01de381e4d5097b52590600090a360fd55565b6000818152606760205260409020546001600160a01b0316610ae55760405162461bcd60e51b8152602060048201526018602482015277115490cdcc8c4e881a5b9d985b1a59081d1bdad95b88125160421b604482015260640161059d565b600081815260696020526040902080546001600160a01b0319166001600160a01b0384169081179091558190610ce782610703565b6001600160a01b03167f8c5be1e5ebec7d5bd14f71427d1e84f3dd0314c0f7b2291e5b200ac8c7c3b92560405160405180910390a45050565b600080610d2c83610703565b9050806001600160a01b0316846001600160a01b03161480610d7357506001600160a01b038082166000908152606a602090815260408083209388168352929052205460ff165b80610d975750836001600160a01b0316610d8c84610501565b6001600160a01b0316145b949350505050565b826001600160a01b0316610db282610703565b6001600160a01b031614610dd85760405162461bcd60e51b815260040161059d90611b82565b6001600160a01b038216610e3a5760405162461bcd60e51b8152602060048201526024808201527f4552433732313a207472616e7366657220746f20746865207a65726f206164646044820152637265737360e01b606482015260840161059d565b826001600160a01b0316610e4d82610703565b6001600160a01b031614610e735760405162461bcd60e51b815260040161059d90611b82565b600081815260696020908152604080832080546001600160a01b03199081169091556001600160a01b0387811680865260688552838620805460001901905590871680865283862080546001019055868652606790945282852080549092168417909155905184937fddf252ad1be2c89b69c2b068fc378daa952ba7f163c4a11628f55a4df523b3ef91a4505050565b60c9546001600160a01b031633146109495760405162461bcd60e51b815260206004820181905260248201527f4f776e61626c653a2063616c6c6572206973206e6f7420746865206f776e6572604482015260640161059d565b60026097541415610fb05760405162461bcd60e51b815260206004820152601f60248201527f5265656e7472616e637947756172643a207265656e7472616e742063616c6c00604482015260640161059d565b6002609755565b6106ff828260405180602001604052806000815250611231565b60c980546001600160a01b038381166001600160a01b0319831681179093556040519116919082907f8be0079c531659141344cd1fd0a4f28419497f9722a3daafe3b4186f6b6457e090600090a35050565b600054610100900460ff1661104a5760405162461bcd60e51b815260040161059d90611bc7565b6106ff8282611264565b600054610100900460ff1661107b5760405162461bcd60e51b815260040161059d90611bc7565b6109496112b2565b816001600160a01b0316836001600160a01b031614156110e55760405162461bcd60e51b815260206004820152601960248201527f4552433732313a20617070726f766520746f2063616c6c657200000000000000604482015260640161059d565b6001600160a01b038381166000818152606a6020908152604080832094871680845294825291829020805460ff191686151590811790915591519182527f17307eab39ab6107e8899845ad3d59bd9653f200f220920489ca2b5937696c31910160405180910390a3505050565b61115d848484610d9f565b611169848484846112e2565b610b345760405162461bcd60e51b815260040161059d90611b30565b606060fc805461047e90611c3e565b606060006111a1836113ef565b600101905060008167ffffffffffffffff8111156111c1576111c1611c79565b6040519080825280601f01601f1916602001820160405280156111eb576020820181803683370190505b5090508181016020015b600019016f181899199a1a9b1b9c1cb0b131b232b360811b600a86061a8153600a850494508461122457611229565b6111f5565b509392505050565b61123b83836114c7565b61124860008484846112e2565b61063e5760405162461bcd60e51b815260040161059d90611b30565b600054610100900460ff1661128b5760405162461bcd60e51b815260040161059d90611bc7565b815161129e906065906020850190611652565b50805161063e906066906020840190611652565b600054610100900460ff166112d95760405162461bcd60e51b815260040161059d90611bc7565b61094933610fd1565b60006001600160a01b0384163b156113e457604051630a85bd0160e11b81526001600160a01b0385169063150b7a0290611326903390899088908890600401611a93565b602060405180830381600087803b15801561134057600080fd5b505af1925050508015611370575060408051601f3d908101601f1916820190925261136d91810190611901565b60015b6113ca573d80801561139e576040519150601f19603f3d011682016040523d82523d6000602084013e6113a3565b606091505b5080516113c25760405162461bcd60e51b815260040161059d90611b30565b805181602001fd5b6001600160e01b031916630a85bd0160e11b149050610d97565b506001949350505050565b60008072184f03e93ff9f4daa797ed6e38ed64bf6a1f0160401b831061142e5772184f03e93ff9f4daa797ed6e38ed64bf6a1f0160401b830492506040015b6d04ee2d6d415b85acef8100000000831061145a576d04ee2d6d415b85acef8100000000830492506020015b662386f26fc10000831061147857662386f26fc10000830492506010015b6305f5e1008310611490576305f5e100830492506008015b61271083106114a457612710830492506004015b606483106114b6576064830492506002015b600a83106104695760010192915050565b6001600160a01b03821661151d5760405162461bcd60e51b815260206004820181905260248201527f4552433732313a206d696e7420746f20746865207a65726f2061646472657373604482015260640161059d565b6000818152606760205260409020546001600160a01b0316156115825760405162461bcd60e51b815260206004820152601c60248201527f4552433732313a20746f6b656e20616c7265616479206d696e74656400000000604482015260640161059d565b6000818152606760205260409020546001600160a01b0316156115e75760405162461bcd60e51b815260206004820152601c60248201527f4552433732313a20746f6b656e20616c7265616479206d696e74656400000000604482015260640161059d565b6001600160a01b038216600081815260686020908152604080832080546001019055848352606790915280822080546001600160a01b0319168417905551839291907fddf252ad1be2c89b69c2b068fc378daa952ba7f163c4a11628f55a4df523b3ef908290a45050565b82805461165e90611c3e565b90600052602060002090601f01602090048101928261168057600085556116c6565b82601f1061169957805160ff19168380011785556116c6565b828001600101855582156116c6579182015b828111156116c65782518255916020019190600101906116ab565b506116d29291506116d6565b5090565b5b808211156116d257600081556001016116d7565b600067ffffffffffffffff8084111561170657611706611c79565b604051601f8501601f19908116603f0116810190828211818310171561172e5761172e611c79565b8160405280935085815286868601111561174757600080fd5b858560208301376000602087830101525050509392505050565b80356001600160a01b038116811461081e57600080fd5b60006020828403121561178a57600080fd5b610b9a82611761565b600080604083850312156117a657600080fd5b6117af83611761565b91506117bd60208401611761565b90509250929050565b6000806000606084860312156117db57600080fd5b6117e484611761565b92506117f260208501611761565b9150604084013590509250925092565b6000806000806080858703121561181857600080fd5b61182185611761565b935061182f60208601611761565b925060408501359150606085013567ffffffffffffffff81111561185257600080fd5b8501601f8101871361186357600080fd5b611872878235602084016116eb565b91505092959194509250565b6000806040838503121561189157600080fd5b61189a83611761565b9150602083013580151581146118af57600080fd5b809150509250929050565b600080604083850312156118cd57600080fd5b6118d683611761565b946020939093013593505050565b6000602082840312156118f657600080fd5b8135610b9a81611c8f565b60006020828403121561191357600080fd5b8151610b9a81611c8f565b60006020828403121561193057600080fd5b813567ffffffffffffffff81111561194757600080fd5b8201601f8101841361195857600080fd5b610d97848235602084016116eb565b60006020828403121561197957600080fd5b5035919050565b60008151808452611998816020860160208601611c12565b601f01601f19169290920160200192915050565b600082516119be818460208701611c12565b9190910192915050565b600083516119da818460208801611c12565b8351908301906119ee818360208801611c12565b01949350505050565b600080835481600182811c915080831680611a1357607f831692505b6020808410821415611a3357634e487b7160e01b86526022600452602486fd5b818015611a475760018114611a5857611a85565b60ff19861689528489019650611a85565b60008a81526020902060005b86811015611a7d5781548b820152908501908301611a64565b505084890196505b509498975050505050505050565b6001600160a01b0385811682528416602082015260408101839052608060608201819052600090611ac690830184611980565b9695505050505050565b602081526000610b9a6020830184611980565b6020808252602d908201527f4552433732313a2063616c6c6572206973206e6f7420746f6b656e206f776e6560408201526c1c881bdc88185c1c1c9bdd9959609a1b606082015260800190565b60208082526032908201527f4552433732313a207472616e7366657220746f206e6f6e20455243373231526560408201527131b2b4bb32b91034b6b83632b6b2b73a32b960711b606082015260800190565b60208082526025908201527f4552433732313a207472616e736665722066726f6d20696e636f72726563742060408201526437bbb732b960d91b606082015260800190565b6020808252602b908201527f496e697469616c697a61626c653a20636f6e7472616374206973206e6f74206960408201526a6e697469616c697a696e6760a81b606082015260800190565b60005b83811015611c2d578181015183820152602001611c15565b83811115610b345750506000910152565b600181811c90821680611c5257607f821691505b60208210811415611c7357634e487b7160e01b600052602260045260246000fd5b50919050565b634e487b7160e01b600052604160045260246000fd5b6001600160e01b031981168114610ae557600080fdfea26469706673582212206913aff610f636892eb7873e343e1391d7b2b40d32e88c48983772e3d7f2ce1c64736f6c63430008070033",
  "immutableReferences": {},
  "source": "// SPDX-License-Identifier: MIT\r\npragma solidity ^0.8.0;\r\n\r\nimport \"@openzeppelin/contracts-upgradeable/token/ERC721/ERC721Upgradeable.sol\";\r\nimport \"@openzeppelin/contracts-upgradeable/access/OwnableUpgradeable.sol\";\r\nimport \"@openzeppelin/contracts-upgradeable/security/ReentrancyGuardUpgradeable.sol\";\r\nimport \"@openzeppelin/contracts-upgradeable/utils/CountersUpgradeable.sol\";\r\n\r\ncontract MyNFTCollection is\r\n    ERC721Upgradeable,\r\n    ReentrancyGuardUpgradeable,\r\n    OwnableUpgradeable\r\n{\r\n    using CountersUpgradeable for CountersUpgradeable.Counter;\r\n    CountersUpgradeable.Counter private _tokenIds;\r\n\r\n    string public baseURI;\r\n    uint256 public mintPrice;\r\n\r\n    event LogTokenMinted(address indexed minter, uint256 indexed tokenId);\r\n    event BaseURIUpdated(string indexed oldValue, string indexed newValue);\r\n    event MintPriceUpdated(uint256 indexed oldValue, uint256 indexed newValue);\r\n\r\n    function initialize() public initializer {\r\n        __ERC721_init(\"My NFT Collection\", \"MNC\");\r\n        __Ownable_init();\r\n\r\n        baseURI = \"ipfs://xxx/\";\r\n        mintPrice = 0.001 ether;\r\n    }\r\n\r\n    function _baseURI() internal view virtual override returns (string memory) {\r\n        return baseURI;\r\n    }\r\n\r\n    function setBaseURI(string memory _newBaseURI) external onlyOwner {\r\n        emit BaseURIUpdated(baseURI, _newBaseURI);\r\n        baseURI = _newBaseURI;\r\n    }\r\n\r\n    function setMintPrice(uint256 _newPrice) external onlyOwner {\r\n        // Mint price in wei\r\n        emit MintPriceUpdated(mintPrice, _newPrice);\r\n        mintPrice = _newPrice;\r\n    }\r\n\r\n    function mintItem(address player)\r\n        external\r\n        payable\r\n        nonReentrant\r\n        returns (uint256)\r\n    {\r\n        require(mintPrice <= msg.value, \"Not enough funds sent\");\r\n\r\n        _tokenIds.increment();\r\n        uint256 newItemId = _tokenIds.current();\r\n        _safeMint(player, newItemId);\r\n\r\n        emit LogTokenMinted(player, newItemId);\r\n\r\n        return newItemId;\r\n    }\r\n}",
  "sourcePath": "D:\\Projects\\US\\intell-truffle-deployer\\contracts\\MyNFTCollection.sol",
  "compiler": {
    "name": "solc",
    "version": "0.8.7+commit.e28d00a7.Emscripten.clang"
  },
  "schemaVersion": "3.4.11",
  "updatedAt": "2023-04-29T19:15:23.562Z",
  "devdoc": {
    "kind": "dev",
    "methods": {
      "approve(address,uint256)": {
        "details": "See {IERC721-approve}."
      },
      "balanceOf(address)": {
        "details": "See {IERC721-balanceOf}."
      },
      "getApproved(uint256)": {
        "details": "See {IERC721-getApproved}."
      },
      "isApprovedForAll(address,address)": {
        "details": "See {IERC721-isApprovedForAll}."
      },
      "name()": {
        "details": "See {IERC721Metadata-name}."
      },
      "owner()": {
        "details": "Returns the address of the current owner."
      },
      "ownerOf(uint256)": {
        "details": "See {IERC721-ownerOf}."
      },
      "renounceOwnership()": {
        "details": "Leaves the contract without owner. It will not be possible to call `onlyOwner` functions anymore. Can only be called by the current owner. NOTE: Renouncing ownership will leave the contract without an owner, thereby removing any functionality that is only available to the owner."
      },
      "safeTransferFrom(address,address,uint256)": {
        "details": "See {IERC721-safeTransferFrom}."
      },
      "safeTransferFrom(address,address,uint256,bytes)": {
        "details": "See {IERC721-safeTransferFrom}."
      },
      "setApprovalForAll(address,bool)": {
        "details": "See {IERC721-setApprovalForAll}."
      },
      "supportsInterface(bytes4)": {
        "details": "See {IERC165-supportsInterface}."
      },
      "symbol()": {
        "details": "See {IERC721Metadata-symbol}."
      },
      "tokenURI(uint256)": {
        "details": "See {IERC721Metadata-tokenURI}."
      },
      "transferFrom(address,address,uint256)": {
        "details": "See {IERC721-transferFrom}."
      },
      "transferOwnership(address)": {
        "details": "Transfers ownership of the contract to a new account (`newOwner`). Can only be called by the current owner."
      }
    },
    "version": 1
  },
  "userdoc": {
    "kind": "user",
    "methods": {},
    "version": 1
  }
}