{
  "contractName": "ShareNFTContract",
  "abi": [
    {
      "anonymous": false,
      "inputs": [
        {
          "indexed": true,
          "internalType": "address",
          "name": "owner",
          "type": "address"
        },
        {
          "indexed": true,
          "internalType": "address",
          "name": "approved",
          "type": "address"
        },
        {
          "indexed": true,
          "internalType": "uint256",
          "name": "tokenId",
          "type": "uint256"
        }
      ],
      "name": "Approval",
      "type": "event"
    },
    {
      "anonymous": false,
      "inputs": [
        {
          "indexed": true,
          "internalType": "address",
          "name": "owner",
          "type": "address"
        },
        {
          "indexed": true,
          "internalType": "address",
          "name": "operator",
          "type": "address"
        },
        {
          "indexed": false,
          "internalType": "bool",
          "name": "approved",
          "type": "bool"
        }
      ],
      "name": "ApprovalForAll",
      "type": "event"
    },
    {
      "anonymous": false,
      "inputs": [
        {
          "indexed": true,
          "internalType": "uint256",
          "name": "tokenId",
          "type": "uint256"
        },
        {
          "indexed": false,
          "internalType": "address",
          "name": "to",
          "type": "address"
        }
      ],
      "name": "Minted",
      "type": "event"
    },
    {
      "anonymous": false,
      "inputs": [],
      "name": "Stopped",
      "type": "event"
    },
    {
      "anonymous": false,
      "inputs": [
        {
          "indexed": true,
          "internalType": "address",
          "name": "from",
          "type": "address"
        },
        {
          "indexed": true,
          "internalType": "address",
          "name": "to",
          "type": "address"
        },
        {
          "indexed": true,
          "internalType": "uint256",
          "name": "tokenId",
          "type": "uint256"
        }
      ],
      "name": "Transfer",
      "type": "event"
    },
    {
      "inputs": [],
      "name": "BLOCKED",
      "outputs": [
        {
          "internalType": "bool",
          "name": "",
          "type": "bool"
        }
      ],
      "stateMutability": "view",
      "type": "function"
    },
    {
      "inputs": [],
      "name": "INTELL_MODEL_NFT_CONTRACT_ADDR",
      "outputs": [
        {
          "internalType": "address",
          "name": "",
          "type": "address"
        }
      ],
      "stateMutability": "view",
      "type": "function"
    },
    {
      "inputs": [],
      "name": "INTELL_MODEL_NFT_TOKEN_ID",
      "outputs": [
        {
          "internalType": "uint256",
          "name": "",
          "type": "uint256"
        }
      ],
      "stateMutability": "view",
      "type": "function"
    },
    {
      "inputs": [],
      "name": "FOR_ONLY_US_INVESTOR",
      "outputs": [
        {
          "internalType": "bool",
          "name": "",
          "type": "bool"
        }
      ],
      "stateMutability": "view",
      "type": "function"
    },
    {
      "inputs": [],
      "name": "LAUNCH_END_TIME",
      "outputs": [
        {
          "internalType": "uint256",
          "name": "",
          "type": "uint256"
        }
      ],
      "stateMutability": "view",
      "type": "function"
    },
    {
      "inputs": [],
      "name": "MAX_MINT_PER_ADDR",
      "outputs": [
        {
          "internalType": "uint256",
          "name": "",
          "type": "uint256"
        }
      ],
      "stateMutability": "view",
      "type": "function"
    },
    {
      "inputs": [],
      "name": "MAX_MINT_PER_TX",
      "outputs": [
        {
          "internalType": "uint256",
          "name": "",
          "type": "uint256"
        }
      ],
      "stateMutability": "view",
      "type": "function"
    },
    {
      "inputs": [],
      "name": "MAX_TOTAL_SUPPLY",
      "outputs": [
        {
          "internalType": "uint256",
          "name": "",
          "type": "uint256"
        }
      ],
      "stateMutability": "view",
      "type": "function"
    },
    {
      "inputs": [],
      "name": "MINT_PRICE",
      "outputs": [
        {
          "internalType": "uint256",
          "name": "",
          "type": "uint256"
        }
      ],
      "stateMutability": "view",
      "type": "function"
    },
    {
      "inputs": [],
      "name": "PAYMENT_TOKEN_ADDR",
      "outputs": [
        {
          "internalType": "address",
          "name": "",
          "type": "address"
        }
      ],
      "stateMutability": "view",
      "type": "function"
    },
    {
      "inputs": [],
      "name": "WITHDRAWN",
      "outputs": [
        {
          "internalType": "bool",
          "name": "",
          "type": "bool"
        }
      ],
      "stateMutability": "view",
      "type": "function"
    },
    {
      "inputs": [],
      "name": "_paused",
      "outputs": [
        {
          "internalType": "bool",
          "name": "",
          "type": "bool"
        }
      ],
      "stateMutability": "view",
      "type": "function"
    },
    {
      "inputs": [
        {
          "internalType": "address",
          "name": "to",
          "type": "address"
        },
        {
          "internalType": "uint256",
          "name": "tokenId",
          "type": "uint256"
        }
      ],
      "name": "approve",
      "outputs": [],
      "stateMutability": "nonpayable",
      "type": "function"
    },
    {
      "inputs": [
        {
          "internalType": "address",
          "name": "owner",
          "type": "address"
        }
      ],
      "name": "balanceOf",
      "outputs": [
        {
          "internalType": "uint256",
          "name": "",
          "type": "uint256"
        }
      ],
      "stateMutability": "view",
      "type": "function"
    },
    {
      "inputs": [
        {
          "internalType": "uint256",
          "name": "tokenId",
          "type": "uint256"
        }
      ],
      "name": "getApproved",
      "outputs": [
        {
          "internalType": "address",
          "name": "",
          "type": "address"
        }
      ],
      "stateMutability": "view",
      "type": "function"
    },
    {
      "inputs": [],
      "name": "intellSetting",
      "outputs": [
        {
          "internalType": "contract IIntellSetting",
          "name": "",
          "type": "address"
        }
      ],
      "stateMutability": "view",
      "type": "function"
    },
    {
      "inputs": [
        {
          "internalType": "address",
          "name": "owner",
          "type": "address"
        },
        {
          "internalType": "address",
          "name": "operator",
          "type": "address"
        }
      ],
      "name": "isApprovedForAll",
      "outputs": [
        {
          "internalType": "bool",
          "name": "",
          "type": "bool"
        }
      ],
      "stateMutability": "view",
      "type": "function"
    },
    {
      "inputs": [
        {
          "internalType": "address",
          "name": "",
          "type": "address"
        }
      ],
      "name": "mintedPerAddress",
      "outputs": [
        {
          "internalType": "uint256",
          "name": "",
          "type": "uint256"
        }
      ],
      "stateMutability": "view",
      "type": "function"
    },
    {
      "inputs": [],
      "name": "name",
      "outputs": [
        {
          "internalType": "string",
          "name": "",
          "type": "string"
        }
      ],
      "stateMutability": "view",
      "type": "function"
    },
    {
      "inputs": [
        {
          "internalType": "uint256",
          "name": "tokenId",
          "type": "uint256"
        }
      ],
      "name": "ownerOf",
      "outputs": [
        {
          "internalType": "address",
          "name": "",
          "type": "address"
        }
      ],
      "stateMutability": "view",
      "type": "function"
    },
    {
      "inputs": [
        {
          "internalType": "address",
          "name": "from",
          "type": "address"
        },
        {
          "internalType": "address",
          "name": "to",
          "type": "address"
        },
        {
          "internalType": "uint256",
          "name": "tokenId",
          "type": "uint256"
        }
      ],
      "name": "safeTransferFrom",
      "outputs": [],
      "stateMutability": "nonpayable",
      "type": "function"
    },
    {
      "inputs": [
        {
          "internalType": "address",
          "name": "from",
          "type": "address"
        },
        {
          "internalType": "address",
          "name": "to",
          "type": "address"
        },
        {
          "internalType": "uint256",
          "name": "tokenId",
          "type": "uint256"
        },
        {
          "internalType": "bytes",
          "name": "_data",
          "type": "bytes"
        }
      ],
      "name": "safeTransferFrom",
      "outputs": [],
      "stateMutability": "nonpayable",
      "type": "function"
    },
    {
      "inputs": [
        {
          "internalType": "address",
          "name": "operator",
          "type": "address"
        },
        {
          "internalType": "bool",
          "name": "approved",
          "type": "bool"
        }
      ],
      "name": "setApprovalForAll",
      "outputs": [],
      "stateMutability": "nonpayable",
      "type": "function"
    },
    {
      "inputs": [
        {
          "internalType": "bytes4",
          "name": "interfaceId",
          "type": "bytes4"
        }
      ],
      "name": "supportsInterface",
      "outputs": [
        {
          "internalType": "bool",
          "name": "",
          "type": "bool"
        }
      ],
      "stateMutability": "view",
      "type": "function"
    },
    {
      "inputs": [],
      "name": "symbol",
      "outputs": [
        {
          "internalType": "string",
          "name": "",
          "type": "string"
        }
      ],
      "stateMutability": "view",
      "type": "function"
    },
    {
      "inputs": [
        {
          "internalType": "uint256",
          "name": "index",
          "type": "uint256"
        }
      ],
      "name": "tokenByIndex",
      "outputs": [
        {
          "internalType": "uint256",
          "name": "",
          "type": "uint256"
        }
      ],
      "stateMutability": "view",
      "type": "function"
    },
    {
      "inputs": [
        {
          "internalType": "address",
          "name": "owner",
          "type": "address"
        },
        {
          "internalType": "uint256",
          "name": "index",
          "type": "uint256"
        }
      ],
      "name": "tokenOfOwnerByIndex",
      "outputs": [
        {
          "internalType": "uint256",
          "name": "",
          "type": "uint256"
        }
      ],
      "stateMutability": "view",
      "type": "function"
    },
    {
      "inputs": [
        {
          "internalType": "uint256",
          "name": "tokenId",
          "type": "uint256"
        }
      ],
      "name": "tokenURI",
      "outputs": [
        {
          "internalType": "string",
          "name": "",
          "type": "string"
        }
      ],
      "stateMutability": "view",
      "type": "function"
    },
    {
      "inputs": [],
      "name": "totalSupply",
      "outputs": [
        {
          "internalType": "uint256",
          "name": "",
          "type": "uint256"
        }
      ],
      "stateMutability": "view",
      "type": "function"
    },
    {
      "inputs": [
        {
          "internalType": "address",
          "name": "from",
          "type": "address"
        },
        {
          "internalType": "address",
          "name": "to",
          "type": "address"
        },
        {
          "internalType": "uint256",
          "name": "tokenId",
          "type": "uint256"
        }
      ],
      "name": "transferFrom",
      "outputs": [],
      "stateMutability": "nonpayable",
      "type": "function"
    },
    {
      "inputs": [],
      "name": "owner",
      "outputs": [
        {
          "internalType": "address",
          "name": "",
          "type": "address"
        }
      ],
      "stateMutability": "view",
      "type": "function"
    },
    {
      "inputs": [
        {
          "internalType": "bytes",
          "name": "_data",
          "type": "bytes"
        }
      ],
      "name": "update",
      "outputs": [],
      "stateMutability": "nonpayable",
      "type": "function"
    },
    {
      "inputs": [
        {
          "internalType": "bytes",
          "name": "_data",
          "type": "bytes"
        },
        {
          "internalType": "contract IIntellSetting",
          "name": "_intellSetting_",
          "type": "address"
        },
        {
          "internalType": "uint256",
          "name": "_INTELL_MODEL_NFT_TOKEN_ID",
          "type": "uint256"
        }
      ],
      "name": "launch",
      "outputs": [],
      "stateMutability": "nonpayable",
      "type": "function"
    },
    {
      "inputs": [
        {
          "internalType": "bytes",
          "name": "message",
          "type": "bytes"
        },
        {
          "internalType": "bytes",
          "name": "signature",
          "type": "bytes"
        }
      ],
      "name": "adopt",
      "outputs": [],
      "stateMutability": "nonpayable",
      "type": "function"
    },
    {
      "inputs": [
        {
          "internalType": "address",
          "name": "_owner",
          "type": "address"
        }
      ],
      "name": "walletOfOwner",
      "outputs": [
        {
          "internalType": "uint256[]",
          "name": "",
          "type": "uint256[]"
        }
      ],
      "stateMutability": "view",
      "type": "function"
    },
    {
      "inputs": [
        {
          "internalType": "string",
          "name": "baseURI",
          "type": "string"
        }
      ],
      "name": "setBaseURI",
      "outputs": [],
      "stateMutability": "nonpayable",
      "type": "function"
    },
    {
      "inputs": [],
      "name": "stop",
      "outputs": [],
      "stateMutability": "nonpayable",
      "type": "function"
    },
    {
      "inputs": [
        {
          "internalType": "bool",
          "name": "val",
          "type": "bool"
        }
      ],
      "name": "blocked",
      "outputs": [],
      "stateMutability": "nonpayable",
      "type": "function"
    },
    {
      "inputs": [
        {
          "internalType": "bytes",
          "name": "message",
          "type": "bytes"
        },
        {
          "internalType": "bytes",
          "name": "signature",
          "type": "bytes"
        }
      ],
      "name": "withdraw",
      "outputs": [],
      "stateMutability": "nonpayable",
      "type": "function"
    },
    {
      "inputs": [],
      "name": "version",
      "outputs": [
        {
          "internalType": "uint32",
          "name": "",
          "type": "uint32"
        }
      ],
      "stateMutability": "pure",
      "type": "function"
    }
  ],
  "bytecode": "0x6080604052600d805460ff191690556016805462ffff001916905534801561002657600080fd5b50600280546001600160a01b031916331790556001600b556135738061004d6000396000f3fe608060405234801561001057600080fd5b50600436106102485760003560e01c80636352211e1161013b578063c002d23d116100b8578063dd7cbcb91161007c578063dd7cbcb9146104d3578063e3587433146104e0578063e64bf765146104f3578063e985e9c514610506578063ec3cdb591461054257600080fd5b8063c002d23d1461047b578063c43ed2c814610484578063c87b56dd14610497578063cfa07f78146104aa578063d445b978146104b357600080fd5b80638ecad721116100ff5780638ecad7211461043257806395d89b411461043b578063a22cb46514610443578063af78feef14610456578063b88d4fde1461046857600080fd5b80636352211e146103d757806370a08231146103ea5780638079cc7e146103fd57806387bd0f59146104105780638da5cb5b1461042a57600080fd5b80632f5c6082116101c95780634f1cc3fb1161018d5780634f1cc3fb146103865780634f6ccce71461038f57806350fbe2d9146103a257806354fd4d50146103b557806355f804b3146103c457600080fd5b80632f5c6082146103245780632f745c591461033757806333039d3d1461034a57806342842e0e14610353578063438b63001461036657600080fd5b8063161548621161021057806316154862146102d257806316c61ccc146102e957806318160ddd146102f65780632377d6f4146102fe57806323b872dd1461031157600080fd5b806301ffc9a71461024d57806306fdde031461027557806307da68f51461028a578063081812fc14610294578063095ea7b3146102bf575b600080fd5b61026061025b366004612f6c565b610555565b60405190151581526020015b60405180910390f35b61027d610580565b60405161026c919061329d565b610292610612565b005b6102a76102a236600461318f565b610682565b6040516001600160a01b03909116815260200161026c565b6102926102cd366004612ee8565b610717565b6102db600f5481565b60405190815260200161026c565b600d546102609060ff1681565b6009546102db565b6016546102609062010000900460ff1681565b61029261031f366004612df9565b61082d565b610292610332366004612fe8565b61085e565b6102db610345366004612ee8565b610ee7565b6102db600e5481565b610292610361366004612df9565b610f7d565b610379610374366004612c20565b610f98565b60405161026c9190613259565b6102db60115481565b6102db61039d36600461318f565b61103a565b6102926103b0366004612fe8565b6110cd565b6040516001815260200161026c565b6102926103d23660046130b1565b6113a0565b6102a76103e536600461318f565b6113e6565b6102db6103f8366004612c20565b61145d565b6012546102a7906001600160a01b031681565b6016546102a790630100000090046001600160a01b031681565b6102a76114e4565b6102db60105481565b61027d6115f0565b610292610451366004612eba565b6115ff565b60165461026090610100900460ff1681565b610292610476366004612e3a565b61160a565b6102db60135481565b610292610492366004612fa6565b611642565b61027d6104a536600461318f565b6117e9565b6102db60155481565b6102db6104c1366004612c20565b60176020526000908152604090205481565b6016546102609060ff1681565b6102926104ee366004612f14565b6118c4565b610292610501366004613054565b611989565b610260610514366004612dc0565b6001600160a01b03918216600090815260066020908152604080832093909416825291909152205460ff1690565b6014546102a7906001600160a01b031681565b60006001600160e01b0319821663780e9d6360e01b148061057a575061057a82611bb2565b92915050565b60606000805461058f90613416565b80601f01602080910402602001604051908101604052809291908181526020018280546105bb90613416565b80156106085780601f106105dd57610100808354040283529160200191610608565b820191906000526020600020905b8154815290600101906020018083116105eb57829003601f168201915b5050505050905090565b3361061b6114e4565b6001600160a01b03161461064a5760405162461bcd60e51b815260040161064190613302565b60405180910390fd5b600d805460ff191660011790556040517f7acc84e34091ae817647a4c49116f5cc07f319078ba80f8f5fde37ea7e25cbd690600090a1565b6000818152600360205260408120546001600160a01b03166106fb5760405162461bcd60e51b815260206004820152602c60248201527f4552433732313a20617070726f76656420717565727920666f72206e6f6e657860448201526b34b9ba32b73a103a37b5b2b760a11b6064820152608401610641565b506000908152600560205260409020546001600160a01b031690565b6000610722826113e6565b9050806001600160a01b0316836001600160a01b031614156107905760405162461bcd60e51b815260206004820152602160248201527f4552433732313a20617070726f76616c20746f2063757272656e74206f776e656044820152603960f91b6064820152608401610641565b336001600160a01b03821614806107ac57506107ac8133610514565b61081e5760405162461bcd60e51b815260206004820152603860248201527f4552433732313a20617070726f76652063616c6c6572206973206e6f74206f7760448201527f6e6572206e6f7220617070726f76656420666f7220616c6c00000000000000006064820152608401610641565b6108288383611c02565b505050565b6108373382611c70565b6108535760405162461bcd60e51b815260040161064190613337565b610828838383611d67565b6002600b5414156108b15760405162461bcd60e51b815260206004820152601f60248201527f5265656e7472616e637947756172643a207265656e7472616e742063616c6c006044820152606401610641565b6002600b55604080516020601f860181900481028201810190925284815261092791869086908190840183828082843760009201919091525050604080516020601f88018190048102820181019092528681529250869150859081908401838280828437600092019190915250611f1292505050565b61095f5760405162461bcd60e51b815260206004820152600960248201526827279029a4a3a722a960b91b6044820152606401610641565b600080808080808080806109758c8e018e612c5a565b985098509850985098509850985098509850601660029054906101000a900460ff16156109f95760405162461bcd60e51b815260206004820152602c60248201527f5448495320494e54454c4c205348415245204e465420434f4c4c454354494f4e60448201526b0815d054c8109313d0d2d15160a21b6064820152608401610641565b60165460ff168015610a085750845b8015610a115750865b80610a28575060165460ff16158015610a28575084155b610a665760405162461bcd60e51b815260206004820152600f60248201526e12d650c81a5cc81c995c5d5a5c9959608a1b6044820152606401610641565b85158015610a72575082155b8015610a7c575083155b8015610a89575060115481145b8015610a9d57506001600160a01b03881630145b610ae95760405162461bcd60e51b815260206004820152601b60248201527f54484520555345522050524f46494c4520495320494e56414c494400000000006044820152606401610641565b426015541015610b2e5760405162461bcd60e51b815260206004820152601060248201526f14d053114815d054c81156141254915160821b6044820152606401610641565b6000610b3960095490565b600d5490915060ff1615610b7e5760405162461bcd60e51b815260206004820152600c60248201526b14d053114814d513d414115160a21b6044820152606401610641565b601054831115610bd05760405162461bcd60e51b815260206004820152601f60248201527f4d494e54494e4720574f554c4420455843454544204d415820535550504c59006044820152606401610641565b600e54610bdd8483613388565b1115610c2b5760405162461bcd60e51b815260206004820152601f60248201527f4d494e54494e4720574f554c4420455843454544204d415820535550504c59006044820152606401610641565b600f5433600090815260176020526040902054610c489085613388565b1115610cb55760405162461bcd60e51b815260206004820152603660248201527f53454e44455220414444524553532043414e4e4f54204d494e54204d4f5245206044820152752a2420a71026a0ac2fa6a4a72a2fa822a92fa0a2222960511b6064820152608401610641565b3233148015610ccc5750336001600160a01b038b16145b610d015760405162461bcd60e51b81526020600482015260066024820152651393c81093d560d21b6044820152606401610641565b82601354610d0f91906133b4565b6014546040516370a0823160e01b81523360048201526001600160a01b03909116906370a082319060240160206040518083038186803b158015610d5257600080fd5b505afa158015610d66573d6000803e3d6000fd5b505050506040513d601f19601f82011682018060405250810190610d8a91906131a8565b1015610dcf5760405162461bcd60e51b8152602060048201526014602482015273494e53554646494349454e542042414c414e434560601b6044820152606401610641565b3360009081526017602052604081208054859290610dee908490613388565b90915550506014546013546001600160a01b03909116906323b872dd9033903090610e1a9088906133b4565b6040516001600160e01b031960e086901b1681526001600160a01b0393841660048201529290911660248301526044820152606401602060405180830381600087803b158015610e6957600080fd5b505af1158015610e7d573d6000803e3d6000fd5b505050506040513d601f19601f82011682018060405250810190610ea19190612f31565b5060015b838111610ed157610ebf33610eba8385613388565b611fca565b80610ec981613451565b915050610ea5565b50506001600b5550505050505050505050505050565b6000610ef28361145d565b8210610f545760405162461bcd60e51b815260206004820152602b60248201527f455243373231456e756d657261626c653a206f776e657220696e646578206f7560448201526a74206f6620626f756e647360a81b6064820152608401610641565b506001600160a01b03919091166000908152600760209081526040808320938352929052205490565b6108288383836040518060200160405280600081525061160a565b60606000610fa58361145d565b905060008167ffffffffffffffff811115610fc257610fc26134ee565b604051908082528060200260200182016040528015610feb578160200160208202803683370190505b50905060005b82811015611032576110038582610ee7565b828281518110611015576110156134d8565b60209081029190910101528061102a81613451565b915050610ff1565b509392505050565b600061104560095490565b82106110a85760405162461bcd60e51b815260206004820152602c60248201527f455243373231456e756d657261626c653a20676c6f62616c20696e646578206f60448201526b7574206f6620626f756e647360a01b6064820152608401610641565b600982815481106110bb576110bb6134d8565b90600052602060002001549050919050565b336110d66114e4565b6001600160a01b0316146110fc5760405162461bcd60e51b815260040161064190613302565b42601554106111405760405162461bcd60e51b815260206004820152601060248201526f1393d5081192539254d211510816515560821b6044820152606401610641565b6111b384848080601f01602080910402602001604051908101604052809392919081815260200183838082843760009201919091525050604080516020601f88018190048102820181019092528681529250869150859081908401838280828437600092019190915250611f1292505050565b6111eb5760405162461bcd60e51b815260206004820152600960248201526827279029a4a3a722a960b91b6044820152606401610641565b6000806111fa85870187612f4e565b91509150818015611223575061120e6114e4565b6001600160a01b0316816001600160a01b0316145b61126f5760405162461bcd60e51b815260206004820152601860248201527f54484520434f4e444954494f4e20495320494e56414c494400000000000000006044820152606401610641565b6014546040516370a0823160e01b81523060048201526000916001600160a01b0316906370a082319060240160206040518083038186803b1580156112b357600080fd5b505afa1580156112c7573d6000803e3d6000fd5b505050506040513d601f19601f820116820180604052508101906112eb91906131a8565b6014549091506001600160a01b031663a9059cbb6113076114e4565b6040516001600160e01b031960e084901b1681526001600160a01b03909116600482015260248101849052604401602060405180830381600087803b15801561134f57600080fd5b505af1158015611363573d6000803e3d6000fd5b505050506040513d601f19601f820116820180604052508101906113879190612f31565b50506016805461ff001916610100179055505050505050565b336113a96114e4565b6001600160a01b0316146113cf5760405162461bcd60e51b815260040161064190613302565b80516113e290600c906020840190612aaf565b5050565b6000818152600360205260408120546001600160a01b03168061057a5760405162461bcd60e51b815260206004820152602960248201527f4552433732313a206f776e657220717565727920666f72206e6f6e657869737460448201526832b73a103a37b5b2b760b91b6064820152608401610641565b60006001600160a01b0382166114c85760405162461bcd60e51b815260206004820152602a60248201527f4552433732313a2062616c616e636520717565727920666f7220746865207a65604482015269726f206164647265737360b01b6064820152608401610641565b506001600160a01b031660009081526004602052604090205490565b6000601660039054906101000a90046001600160a01b03166001600160a01b0316637719de5d6040518163ffffffff1660e01b815260040160206040518083038186803b15801561153457600080fd5b505afa158015611548573d6000803e3d6000fd5b505050506040513d601f19601f8201168201806040525081019061156c9190612c3d565b6001600160a01b0316636352211e6011546040518263ffffffff1660e01b815260040161159b91815260200190565b60206040518083038186803b1580156115b357600080fd5b505afa1580156115c7573d6000803e3d6000fd5b505050506040513d601f19601f820116820180604052508101906115eb9190612c3d565b905090565b60606001805461058f90613416565b6113e2338383611fe4565b6116143383611c70565b6116305760405162461bcd60e51b815260040161064190613337565b61163c848484846120b3565b50505050565b601654604080516303e1469160e61b815290513392630100000090046001600160a01b03169163f851a440916004808301926020929190829003018186803b15801561168d57600080fd5b505afa1580156116a1573d6000803e3d6000fd5b505050506040513d601f19601f820116820180604052508101906116c59190612c3d565b6001600160a01b0316146116eb5760405162461bcd60e51b815260040161064190613302565b600080808080808080611700898b018b6130e6565b9750975097509750975097509750975060008851118015611722575060008751115b801561173657506001600160a01b03811630145b80156117425750600086115b801561174e5750600085115b801561175a5750600084115b80156117665750600083115b801561177157504282115b6117b25760405162461bcd60e51b8152602060048201526012602482015271494e56414c494420494e505554204441544160701b6044820152606401610641565b600e8690556013859055600f839055601084905560158290556117d4886120e6565b6117dd876120f9565b50505050505050505050565b6000818152600360205260409020546060906001600160a01b03166118685760405162461bcd60e51b815260206004820152602f60248201527f4552433732314d657461646174613a2055524920717565727920666f72206e6f60448201526e3732bc34b9ba32b73a103a37b5b2b760891b6064820152608401610641565b600061187261210c565b9050600081511161189257604051806020016040528060008152506118bd565b8061189c8461211b565b6040516020016118ad9291906131ed565b6040516020818303038152906040525b9392505050565b601654604080516303e1469160e61b815290513392630100000090046001600160a01b03169163f851a440916004808301926020929190829003018186803b15801561190f57600080fd5b505afa158015611923573d6000803e3d6000fd5b505050506040513d601f19601f820116820180604052508101906119479190612c3d565b6001600160a01b03161461196d5760405162461bcd60e51b815260040161064190613302565b60168054911515620100000262ff000019909216919091179055565b816001600160a01b03166348d958456040518163ffffffff1660e01b815260040160206040518083038186803b1580156119c257600080fd5b505afa1580156119d6573d6000803e3d6000fd5b505050506040513d601f19601f820116820180604052508101906119fa9190612c3d565b6001600160a01b0316336001600160a01b031614611a665760405162461bcd60e51b815260206004820152602360248201527f5468652063616c6c6572206d75737420626520666163746f727920636f6e74726044820152621858dd60ea1b6064820152608401610641565b601680546301000000600160b81b03191663010000006001600160a01b0385160217905560008080808080808080611aa08d8d018e612d04565b98509850985098509850985098509850985060008851118015611ac4575060008751115b8015611ad05750600086115b8015611adc5750600085115b8015611ae85750600084115b8015611af45750600083115b8015611aff57504282115b611b405760405162461bcd60e51b8152602060048201526012602482015271494e56414c494420494e505554204441544160701b6044820152606401610641565b600e8690556013859055600f8390556010849055601582905560118a9055601480546001600160a01b0319166001600160a01b038b161790556016805460ff1916821515179055611b90886120e6565b611b99876120f9565b5050600d805460ff191690555050505050505050505050565b60006001600160e01b031982166380ac58cd60e01b1480611be357506001600160e01b03198216635b5e139f60e01b145b8061057a57506301ffc9a760e01b6001600160e01b031983161461057a565b600081815260056020526040902080546001600160a01b0319166001600160a01b0384169081179091558190611c37826113e6565b6001600160a01b03167f8c5be1e5ebec7d5bd14f71427d1e84f3dd0314c0f7b2291e5b200ac8c7c3b92560405160405180910390a45050565b6000818152600360205260408120546001600160a01b0316611ce95760405162461bcd60e51b815260206004820152602c60248201527f4552433732313a206f70657261746f7220717565727920666f72206e6f6e657860448201526b34b9ba32b73a103a37b5b2b760a11b6064820152608401610641565b6000611cf4836113e6565b9050806001600160a01b0316846001600160a01b03161480611d2f5750836001600160a01b0316611d2484610682565b6001600160a01b0316145b80611d5f57506001600160a01b0380821660009081526006602090815260408083209388168352929052205460ff165b949350505050565b826001600160a01b0316611d7a826113e6565b6001600160a01b031614611de25760405162461bcd60e51b815260206004820152602960248201527f4552433732313a207472616e73666572206f6620746f6b656e2074686174206960448201526839903737ba1037bbb760b91b6064820152608401610641565b6001600160a01b038216611e445760405162461bcd60e51b8152602060048201526024808201527f4552433732313a207472616e7366657220746f20746865207a65726f206164646044820152637265737360e01b6064820152608401610641565b611e4f838383612219565b611e5a600082611c02565b6001600160a01b0383166000908152600460205260408120805460019290611e839084906133d3565b90915550506001600160a01b0382166000908152600460205260408120805460019290611eb1908490613388565b909155505060008181526003602052604080822080546001600160a01b0319166001600160a01b0386811691821790925591518493918716917fddf252ad1be2c89b69c2b068fc378daa952ba7f163c4a11628f55a4df523b3ef91a4505050565b60008083805190602001209050601660039054906101000a90046001600160a01b03166001600160a01b031663a720969f6040518163ffffffff1660e01b815260040160206040518083038186803b158015611f6d57600080fd5b505afa158015611f81573d6000803e3d6000fd5b505050506040513d601f19601f82011682018060405250810190611fa59190612c3d565b6001600160a01b0316611fb882856122d1565b6001600160a01b031614949350505050565b6113e282826040518060200160405280600081525061232b565b816001600160a01b0316836001600160a01b031614156120465760405162461bcd60e51b815260206004820152601960248201527f4552433732313a20617070726f766520746f2063616c6c6572000000000000006044820152606401610641565b6001600160a01b03838116600081815260066020908152604080832094871680845294825291829020805460ff191686151590811790915591519182527f17307eab39ab6107e8899845ad3d59bd9653f200f220920489ca2b5937696c31910160405180910390a3505050565b6120be848484611d67565b6120ca8484848461235e565b61163c5760405162461bcd60e51b8152600401610641906132b0565b80516113e2906000906020840190612aaf565b80516113e2906001906020840190612aaf565b6060600c805461058f90613416565b60608161213f5750506040805180820190915260018152600360fc1b602082015290565b8160005b8115612169578061215381613451565b91506121629050600a836133a0565b9150612143565b60008167ffffffffffffffff811115612184576121846134ee565b6040519080825280601f01601f1916602001820160405280156121ae576020820181803683370190505b5090505b8415611d5f576121c36001836133d3565b91506121d0600a8661346c565b6121db906030613388565b60f81b8183815181106121f0576121f06134d8565b60200101906001600160f81b031916908160001a905350612212600a866133a0565b94506121b2565b6001600160a01b0383166122745761226f81600980546000838152600a60205260408120829055600182018355919091527f6e1540171b6c0c960b71a7020d9f60077f6af931a8bbf590da0223dacf75c7af0155565b612297565b816001600160a01b0316836001600160a01b03161461229757612297838261246b565b6001600160a01b0382166122ae5761082881612508565b826001600160a01b0316826001600160a01b0316146108285761082882826125b7565b6040517f19457468657265756d205369676e6564204d6573736167653a0a3332000000006020820152603c81018390526000908190605c01604051602081830303815290604052805190602001209050611d5f81846125fb565b6123358383612617565b612342600084848461235e565b6108285760405162461bcd60e51b8152600401610641906132b0565b60006001600160a01b0384163b1561246057604051630a85bd0160e11b81526001600160a01b0385169063150b7a02906123a290339089908890889060040161321c565b602060405180830381600087803b1580156123bc57600080fd5b505af19250505080156123ec575060408051601f3d908101601f191682019092526123e991810190612f89565b60015b612446573d80801561241a576040519150601f19603f3d011682016040523d82523d6000602084013e61241f565b606091505b50805161243e5760405162461bcd60e51b8152600401610641906132b0565b805181602001fd5b6001600160e01b031916630a85bd0160e11b149050611d5f565b506001949350505050565b600060016124788461145d565b61248291906133d3565b6000838152600860205260409020549091508082146124d5576001600160a01b03841660009081526007602090815260408083208584528252808320548484528184208190558352600890915290208190555b5060009182526008602090815260408084208490556001600160a01b039094168352600781528383209183525290812055565b60095460009061251a906001906133d3565b6000838152600a602052604081205460098054939450909284908110612542576125426134d8565b906000526020600020015490508060098381548110612563576125636134d8565b6000918252602080832090910192909255828152600a9091526040808220849055858252812055600980548061259b5761259b6134c2565b6001900381819060005260206000200160009055905550505050565b60006125c28361145d565b6001600160a01b039093166000908152600760209081526040808320868452825280832085905593825260089052919091209190915550565b600080600061260a8585612765565b91509150611032816127d5565b6001600160a01b03821661266d5760405162461bcd60e51b815260206004820181905260248201527f4552433732313a206d696e7420746f20746865207a65726f20616464726573736044820152606401610641565b6000818152600360205260409020546001600160a01b0316156126d25760405162461bcd60e51b815260206004820152601c60248201527f4552433732313a20746f6b656e20616c7265616479206d696e746564000000006044820152606401610641565b6126de60008383612219565b6001600160a01b0382166000908152600460205260408120805460019290612707908490613388565b909155505060008181526003602052604080822080546001600160a01b0319166001600160a01b03861690811790915590518392907fddf252ad1be2c89b69c2b068fc378daa952ba7f163c4a11628f55a4df523b3ef908290a45050565b60008082516041141561279c5760208301516040840151606085015160001a61279087828585612993565b945094505050506127ce565b8251604014156127c657602083015160408401516127bb868383612a80565b9350935050506127ce565b506000905060025b9250929050565b60008160048111156127e9576127e96134ac565b14156127f25750565b6001816004811115612806576128066134ac565b14156128545760405162461bcd60e51b815260206004820152601860248201527f45434453413a20696e76616c6964207369676e617475726500000000000000006044820152606401610641565b6002816004811115612868576128686134ac565b14156128b65760405162461bcd60e51b815260206004820152601f60248201527f45434453413a20696e76616c6964207369676e6174757265206c656e677468006044820152606401610641565b60038160048111156128ca576128ca6134ac565b14156129235760405162461bcd60e51b815260206004820152602260248201527f45434453413a20696e76616c6964207369676e6174757265202773272076616c604482015261756560f01b6064820152608401610641565b6004816004811115612937576129376134ac565b14156129905760405162461bcd60e51b815260206004820152602260248201527f45434453413a20696e76616c6964207369676e6174757265202776272076616c604482015261756560f01b6064820152608401610641565b50565b6000807f7fffffffffffffffffffffffffffffff5d576e7357a4501ddfe92f46681b20a08311156129ca5750600090506003612a77565b8460ff16601b141580156129e257508460ff16601c14155b156129f35750600090506004612a77565b6040805160008082526020820180845289905260ff881692820192909252606081018690526080810185905260019060a0016020604051602081039080840390855afa158015612a47573d6000803e3d6000fd5b5050604051601f1901519150506001600160a01b038116612a7057600060019250925050612a77565b9150600090505b94509492505050565b6000806001600160ff1b03831660ff84901c601b01612aa187828885612993565b935093505050935093915050565b828054612abb90613416565b90600052602060002090601f016020900481019282612add5760008555612b23565b82601f10612af657805160ff1916838001178555612b23565b82800160010185558215612b23579182015b82811115612b23578251825591602001919060010190612b08565b50612b2f929150612b33565b5090565b5b80821115612b2f5760008155600101612b34565b600067ffffffffffffffff80841115612b6357612b636134ee565b604051601f8501601f19908116603f01168101908282118183101715612b8b57612b8b6134ee565b81604052809350858152868686011115612ba457600080fd5b858560208301376000602087830101525050509392505050565b60008083601f840112612bd057600080fd5b50813567ffffffffffffffff811115612be857600080fd5b6020830191508360208285010111156127ce57600080fd5b600082601f830112612c1157600080fd5b6118bd83833560208501612b48565b600060208284031215612c3257600080fd5b81356118bd81613504565b600060208284031215612c4f57600080fd5b81516118bd81613504565b60008060008060008060008060006101208a8c031215612c7957600080fd5b8935612c8481613504565b985060208a0135612c9481613504565b975060408a0135612ca481613519565b965060608a0135612cb481613519565b955060808a0135612cc481613519565b945060a08a0135612cd481613519565b935060c08a0135612ce481613519565b8093505060e08a013591506101008a013590509295985092959850929598565b60008060008060008060008060006101208a8c031215612d2357600080fd5b8935612d2e81613504565b985060208a013567ffffffffffffffff80821115612d4b57600080fd5b612d578d838e01612c00565b995060408c0135915080821115612d6d57600080fd5b50612d7a8c828d01612c00565b97505060608a0135955060808a0135945060a08a0135935060c08a0135925060e08a013591506101008a0135612daf81613519565b809150509295985092959850929598565b60008060408385031215612dd357600080fd5b8235612dde81613504565b91506020830135612dee81613504565b809150509250929050565b600080600060608486031215612e0e57600080fd5b8335612e1981613504565b92506020840135612e2981613504565b929592945050506040919091013590565b60008060008060808587031215612e5057600080fd5b8435612e5b81613504565b93506020850135612e6b81613504565b925060408501359150606085013567ffffffffffffffff811115612e8e57600080fd5b8501601f81018713612e9f57600080fd5b612eae87823560208401612b48565b91505092959194509250565b60008060408385031215612ecd57600080fd5b8235612ed881613504565b91506020830135612dee81613519565b60008060408385031215612efb57600080fd5b8235612f0681613504565b946020939093013593505050565b600060208284031215612f2657600080fd5b81356118bd81613519565b600060208284031215612f4357600080fd5b81516118bd81613519565b60008060408385031215612f6157600080fd5b8235612dde81613519565b600060208284031215612f7e57600080fd5b81356118bd81613527565b600060208284031215612f9b57600080fd5b81516118bd81613527565b60008060208385031215612fb957600080fd5b823567ffffffffffffffff811115612fd057600080fd5b612fdc85828601612bbe565b90969095509350505050565b60008060008060408587031215612ffe57600080fd5b843567ffffffffffffffff8082111561301657600080fd5b61302288838901612bbe565b9096509450602087013591508082111561303b57600080fd5b5061304887828801612bbe565b95989497509550505050565b6000806000806060858703121561306a57600080fd5b843567ffffffffffffffff81111561308157600080fd5b61308d87828801612bbe565b90955093505060208501356130a181613504565b9396929550929360400135925050565b6000602082840312156130c357600080fd5b813567ffffffffffffffff8111156130da57600080fd5b611d5f84828501612c00565b600080600080600080600080610100898b03121561310357600080fd5b883567ffffffffffffffff8082111561311b57600080fd5b6131278c838d01612c00565b995060208b013591508082111561313d57600080fd5b5061314a8b828c01612c00565b97505060408901359550606089013594506080890135935060a0890135925060c0890135915060e089013561317e81613504565b809150509295985092959890939650565b6000602082840312156131a157600080fd5b5035919050565b6000602082840312156131ba57600080fd5b5051919050565b600081518084526131d98160208601602086016133ea565b601f01601f19169290920160200192915050565b600083516131ff8184602088016133ea565b8351908301906132138183602088016133ea565b01949350505050565b6001600160a01b038581168252841660208201526040810183905260806060820181905260009061324f908301846131c1565b9695505050505050565b6020808252825182820181905260009190848201906040850190845b8181101561329157835183529284019291840191600101613275565b50909695505050505050565b6020815260006118bd60208301846131c1565b60208082526032908201527f4552433732313a207472616e7366657220746f206e6f6e20455243373231526560408201527131b2b4bb32b91034b6b83632b6b2b73a32b960711b606082015260800190565b6020808252818101527f4f776e61626c653a2063616c6c6572206973206e6f7420746865206f776e6572604082015260600190565b60208082526031908201527f4552433732313a207472616e736665722063616c6c6572206973206e6f74206f6040820152701ddb995c881b9bdc88185c1c1c9bdd9959607a1b606082015260800190565b6000821982111561339b5761339b613480565b500190565b6000826133af576133af613496565b500490565b60008160001904831182151516156133ce576133ce613480565b500290565b6000828210156133e5576133e5613480565b500390565b60005b838110156134055781810151838201526020016133ed565b8381111561163c5750506000910152565b600181811c9082168061342a57607f821691505b6020821081141561344b57634e487b7160e01b600052602260045260246000fd5b50919050565b600060001982141561346557613465613480565b5060010190565b60008261347b5761347b613496565b500690565b634e487b7160e01b600052601160045260246000fd5b634e487b7160e01b600052601260045260246000fd5b634e487b7160e01b600052602160045260246000fd5b634e487b7160e01b600052603160045260246000fd5b634e487b7160e01b600052603260045260246000fd5b634e487b7160e01b600052604160045260246000fd5b6001600160a01b038116811461299057600080fd5b801515811461299057600080fd5b6001600160e01b03198116811461299057600080fdfea26469706673582212200a33446ee90006f6f3bf167e0aecae3767f17b06a1e6f726f8c7636c40efbef464736f6c63430008070033",
  "immutableReferences": {},
  "source": "// SPDX-License-Identifier: MIT\r\n\r\npragma solidity ^0.8.0;\r\n\r\nimport \"./lib/IIntellSetting.sol\";\r\nimport \"./lib/IShareERC721.sol\";\r\nimport \"./lib/ReentrancyGuard.sol\";\r\nimport \"./lib/SafeMath.sol\";\r\nimport \"./lib/Strings.sol\";\r\nimport \"./lib/ECDSA.sol\";\r\nimport \"./lib/ERC721ShareEnumerable.sol\";\r\nimport \"./lib/IERC20.sol\";\r\n\r\npragma experimental ABIEncoderV2;\r\n\r\ncontract ShareNFTContract is\r\n    ERC721ShareEnumerable,\r\n    ReentrancyGuard,\r\n    IShareERC721\r\n{\r\n    using Strings for uint256;\r\n    using SafeMath for uint256;\r\n\r\n    string _baseTokenURI;\r\n    bool public _paused = false;\r\n\r\n    uint256 public override MAX_TOTAL_SUPPLY;\r\n    uint256 public override MAX_MINT_PER_ADDR;\r\n    uint256 public override MAX_MINT_PER_TX;\r\n\r\n    uint256 public override INTELL_MODEL_NFT_TOKEN_ID;\r\n    address public override INTELL_MODEL_NFT_CONTRACT_ADDR;\r\n\r\n    uint256 public override MINT_PRICE;\r\n    address public override PAYMENT_TOKEN_ADDR;\r\n\r\n    uint256 public override LAUNCH_END_TIME;\r\n    bool public override FOR_ONLY_US_INVESTOR;\r\n    bool public override WITHDRAWN = false;\r\n    bool public override BLOCKED = false;\r\n\r\n    IIntellSetting public intellSetting;\r\n\r\n    event Minted(uint256 indexed tokenId, address to);\r\n    event Stopped();\r\n\r\n    mapping(address => uint256) public mintedPerAddress;\r\n\r\n    modifier onlyOwner() {\r\n        require(owner() == _msgSender(), \"Ownable: caller is not the owner\");\r\n        _;\r\n    }\r\n\r\n    modifier onlyAdmin() {\r\n        require(\r\n            intellSetting.admin() == _msgSender(),\r\n            \"Ownable: caller is not the owner\"\r\n        );\r\n        _;\r\n    }\r\n\r\n    function owner() public view returns (address) {\r\n        return\r\n            IERC721Enumerable(intellSetting.intellModelNFTContractAddr()).ownerOf(\r\n                INTELL_MODEL_NFT_TOKEN_ID\r\n            );\r\n    }\r\n\r\n    function update(bytes calldata _data) external onlyAdmin {\r\n        (\r\n            string memory _NAME,\r\n            string memory _SYMBOL,\r\n            uint256 _MAX_TOTAL_SUPPLY,\r\n            uint256 _MINT_PRICE,\r\n            uint256 _MAX_MINT_PER_TX,\r\n            uint256 _MAX_MINT_PER_ADDR,\r\n            uint256 _LAUNCH_END_TIME,\r\n            address _SHARE_NFT_ADDR\r\n        ) = abi.decode(\r\n                _data,\r\n                (\r\n                    string,\r\n                    string,\r\n                    uint256,\r\n                    uint256,\r\n                    uint256,\r\n                    uint256,\r\n                    uint256,\r\n                    address\r\n                )\r\n            );\r\n\r\n        require(\r\n            bytes(_NAME).length > 0 &&\r\n                bytes(_SYMBOL).length > 0 &&\r\n                _SHARE_NFT_ADDR == address(this) &&\r\n                _MAX_TOTAL_SUPPLY > 0 &&\r\n                _MINT_PRICE > 0 &&\r\n                _MAX_MINT_PER_TX > 0 &&\r\n                _MAX_MINT_PER_ADDR > 0 &&\r\n                _LAUNCH_END_TIME > block.timestamp,\r\n            \"INVALID INPUT DATA\"\r\n        );\r\n\r\n        MAX_TOTAL_SUPPLY = _MAX_TOTAL_SUPPLY;\r\n        MINT_PRICE = _MINT_PRICE;\r\n        MAX_MINT_PER_ADDR = _MAX_MINT_PER_ADDR;\r\n        MAX_MINT_PER_TX = _MAX_MINT_PER_TX;\r\n        LAUNCH_END_TIME = _LAUNCH_END_TIME;\r\n\r\n        setName(_NAME);\r\n        setSymbol(_SYMBOL);\r\n    }\r\n\r\n    function launch(\r\n        bytes calldata _data,\r\n        IIntellSetting _intellSetting_,\r\n        uint256 _INTELL_MODEL_NFT_TOKEN_ID\r\n    ) external override {\r\n        require(\r\n            msg.sender == _intellSetting_.factoryContractAddr(),\r\n            \"The caller must be factory contract\"\r\n        );\r\n        intellSetting = _intellSetting_;\r\n\r\n        (\r\n            address _PAYMENT_TOKEN_ADDR,\r\n            string memory _NAME,\r\n            string memory _SYMBOL,\r\n            uint256 _MAX_TOTAL_SUPPLY,\r\n            uint256 _MINT_PRICE,\r\n            uint256 _MAX_MINT_PER_TX,\r\n            uint256 _MAX_MINT_PER_ADDR,\r\n            uint256 _LAUNCH_END_TIME,\r\n            bool _FOR_ONLY_US_INVESTOR\r\n        ) = abi.decode(\r\n                _data,\r\n                (\r\n                    address,\r\n                    string,\r\n                    string,\r\n                    uint256,\r\n                    uint256,\r\n                    uint256,\r\n                    uint256,\r\n                    uint256,\r\n                    bool\r\n                )\r\n            );\r\n\r\n        require(\r\n            bytes(_NAME).length > 0 &&\r\n                bytes(_SYMBOL).length > 0 &&\r\n                _MAX_TOTAL_SUPPLY > 0 &&\r\n                _MINT_PRICE > 0 &&\r\n                _MAX_MINT_PER_TX > 0 &&\r\n                _MAX_MINT_PER_ADDR > 0 &&\r\n                _LAUNCH_END_TIME > block.timestamp,\r\n            \"INVALID INPUT DATA\"\r\n        );\r\n\r\n        MAX_TOTAL_SUPPLY = _MAX_TOTAL_SUPPLY;\r\n        MINT_PRICE = _MINT_PRICE;\r\n        MAX_MINT_PER_ADDR = _MAX_MINT_PER_ADDR;\r\n        MAX_MINT_PER_TX = _MAX_MINT_PER_TX;\r\n        LAUNCH_END_TIME = _LAUNCH_END_TIME;\r\n\r\n        INTELL_MODEL_NFT_TOKEN_ID = _INTELL_MODEL_NFT_TOKEN_ID;\r\n        PAYMENT_TOKEN_ADDR = _PAYMENT_TOKEN_ADDR;\r\n\r\n        FOR_ONLY_US_INVESTOR = _FOR_ONLY_US_INVESTOR;\r\n\r\n        setName(_NAME);\r\n        setSymbol(_SYMBOL);\r\n        _paused = false;\r\n    }\r\n\r\n    function adopt(\r\n        bytes calldata message,\r\n        bytes calldata signature\r\n    ) external nonReentrant {\r\n        require(verifyMessage(message, signature), \"NO SIGNER\");\r\n\r\n        (\r\n            address _USER_ADDR,\r\n            address _SHARE_NFT_ADDR,\r\n            bool _KYC_VERIFICATION_AS_INVESTOR,\r\n            bool _USER_SUSPENDED,\r\n            bool _FROM_US,\r\n            bool _STOP_SELLING_SHARE,\r\n            bool _MODEL_SUSPEND,\r\n            uint256 _NUM,\r\n            uint256 _INTELL_MODEL_NFT_TOKEN_ID\r\n        ) = abi.decode(\r\n                message,\r\n                (\r\n                    address,\r\n                    address,\r\n                    bool,\r\n                    bool,\r\n                    bool,\r\n                    bool,\r\n                    bool,\r\n                    uint256,\r\n                    uint256\r\n                )\r\n            );\r\n\r\n        require(!BLOCKED, \"THIS INTELL SHARE NFT COLLECTION WAS BLOCKED\");\r\n\r\n        require(\r\n            (FOR_ONLY_US_INVESTOR &&\r\n                _FROM_US &&\r\n                _KYC_VERIFICATION_AS_INVESTOR) ||\r\n                (!FOR_ONLY_US_INVESTOR && !_FROM_US),\r\n            \"KYC is required\"\r\n        );\r\n\r\n        require(\r\n            !_USER_SUSPENDED &&\r\n                !_MODEL_SUSPEND &&\r\n                !_STOP_SELLING_SHARE &&\r\n                _INTELL_MODEL_NFT_TOKEN_ID == INTELL_MODEL_NFT_TOKEN_ID &&\r\n                _SHARE_NFT_ADDR == address(this),\r\n            \"THE USER PROFILE IS INVALID\"\r\n        );\r\n\r\n        require(LAUNCH_END_TIME >= block.timestamp, \"SALE WAS EXPIRED\");\r\n        uint256 supply = totalSupply();\r\n        require(!_paused, \"SALE STOPPED\");\r\n        require(_NUM <= MAX_MINT_PER_TX, \"MINTING WOULD EXCEED MAX SUPPLY\");\r\n        require(\r\n            supply + _NUM <= MAX_TOTAL_SUPPLY,\r\n            \"MINTING WOULD EXCEED MAX SUPPLY\"\r\n        );\r\n        require(\r\n            _NUM + mintedPerAddress[msg.sender] <= MAX_MINT_PER_ADDR,\r\n            \"SENDER ADDRESS CANNOT MINT MORE THAN MAX_MINT_PER_ADDR\"\r\n        );\r\n\r\n        require(tx.origin == msg.sender && msg.sender == _USER_ADDR, \"NO BOT\");\r\n        require(\r\n            IERC20(PAYMENT_TOKEN_ADDR).balanceOf(msg.sender) >=\r\n                MINT_PRICE * _NUM,\r\n            \"INSUFFICIENT BALANCE\"\r\n        );\r\n        mintedPerAddress[msg.sender] += _NUM;\r\n        IERC20(PAYMENT_TOKEN_ADDR).transferFrom(\r\n            msg.sender,\r\n            address(this),\r\n            MINT_PRICE * _NUM\r\n        );\r\n\r\n        for (uint256 i = 1; i <= _NUM; i++) {\r\n            _safeMint(msg.sender, supply + i);\r\n        }\r\n    }\r\n\r\n    function walletOfOwner(\r\n        address _owner\r\n    ) public view override returns (uint256[] memory) {\r\n        uint256 tokenCount = balanceOf(_owner);\r\n\r\n        uint256[] memory tokensId = new uint256[](tokenCount);\r\n        for (uint256 i; i < tokenCount; i++) {\r\n            tokensId[i] = tokenOfOwnerByIndex(_owner, i);\r\n        }\r\n        return tokensId;\r\n    }\r\n\r\n    function _baseURI() internal view virtual override returns (string memory) {\r\n        return _baseTokenURI;\r\n    }\r\n\r\n    function setBaseURI(string memory baseURI) public onlyOwner {\r\n        _baseTokenURI = baseURI;\r\n    }\r\n\r\n    function stop() public onlyOwner {\r\n        _paused = true;\r\n        emit Stopped();\r\n    }\r\n\r\n    function blocked(bool val) public onlyAdmin {\r\n        BLOCKED = val;\r\n    }\r\n\r\n    function recoverSigner(\r\n        bytes32 hash,\r\n        bytes memory signature\r\n    ) internal pure returns (address) {\r\n        bytes32 messageDigest = keccak256(\r\n            abi.encodePacked(\"\\x19Ethereum Signed Message:\\n32\", hash)\r\n        );\r\n        return ECDSA.recover(messageDigest, signature);\r\n    }\r\n\r\n    function verifyMessage(\r\n        bytes memory message,\r\n        bytes memory signature\r\n    ) internal view returns (bool) {\r\n        bytes32 hash = keccak256(message);\r\n        return recoverSigner(hash, signature) == intellSetting.truthHolder();\r\n    }\r\n\r\n    function withdraw(\r\n        bytes calldata message,\r\n        bytes calldata signature\r\n    ) public onlyOwner {\r\n        require(LAUNCH_END_TIME < block.timestamp, \"NOT FINISHED YET\");\r\n        require(verifyMessage(message, signature), \"NO SIGNER\");\r\n\r\n        (bool _canWithdraw, address _owner) = abi.decode(\r\n            message,\r\n            (bool, address)\r\n        );\r\n        require(_canWithdraw && _owner == owner(), \"THE CONDITION IS INVALID\");\r\n\r\n        uint256 amount = IERC20(PAYMENT_TOKEN_ADDR).balanceOf(address(this));\r\n        IERC20(PAYMENT_TOKEN_ADDR).transfer(owner(), amount);\r\n        WITHDRAWN = true;\r\n    }\r\n\r\n    function version() external pure returns (uint32) {\r\n        return 1; //version 1.0.0\r\n    }\r\n}\r\n",
  "sourcePath": "D:\\Projects\\US\\intell-truffle-deployer\\contracts\\ShareNFTContract.sol",
  "compiler": {
    "name": "solc",
    "version": "0.8.7+commit.e28d00a7.Emscripten.clang"
  },
  "schemaVersion": "3.4.11",
  "updatedAt": "2023-04-29T15:51:18.720Z",
  "devdoc": {
    "kind": "dev",
    "methods": {
      "approve(address,uint256)": {
        "details": "See {IERC721-approve}."
      },
      "balanceOf(address)": {
        "details": "See {IERC721-balanceOf}."
      },
      "getApproved(uint256)": {
        "details": "See {IERC721-getApproved}."
      },
      "isApprovedForAll(address,address)": {
        "details": "See {IERC721-isApprovedForAll}."
      },
      "name()": {
        "details": "See {IERC721Metadata-name}."
      },
      "ownerOf(uint256)": {
        "details": "See {IERC721-ownerOf}."
      },
      "safeTransferFrom(address,address,uint256)": {
        "details": "See {IERC721-safeTransferFrom}."
      },
      "safeTransferFrom(address,address,uint256,bytes)": {
        "details": "See {IERC721-safeTransferFrom}."
      },
      "setApprovalForAll(address,bool)": {
        "details": "See {IERC721-setApprovalForAll}."
      },
      "supportsInterface(bytes4)": {
        "details": "See {IERC165-supportsInterface}."
      },
      "symbol()": {
        "details": "See {IERC721Metadata-symbol}."
      },
      "tokenByIndex(uint256)": {
        "details": "See {IERC721Enumerable-tokenByIndex}."
      },
      "tokenOfOwnerByIndex(address,uint256)": {
        "details": "See {IERC721Enumerable-tokenOfOwnerByIndex}."
      },
      "totalSupply()": {
        "details": "See {IERC721Enumerable-totalSupply}."
      },
      "transferFrom(address,address,uint256)": {
        "details": "See {IERC721-transferFrom}."
      }
    },
    "version": 1
  },
  "userdoc": {
    "kind": "user",
    "methods": {},
    "version": 1
  }
}